{
	"contracts/FNFT.sol": {
		"FNFT": {
			"abi": [
				{
					"inputs": [],
					"stateMutability": "payable",
					"type": "constructor"
				},
				{
					"anonymous": false,
					"inputs": [
						{
							"indexed": true,
							"internalType": "address",
							"name": "owner",
							"type": "address"
						},
						{
							"indexed": true,
							"internalType": "address",
							"name": "approved",
							"type": "address"
						},
						{
							"indexed": true,
							"internalType": "uint256",
							"name": "tokenId",
							"type": "uint256"
						}
					],
					"name": "Approval",
					"type": "event"
				},
				{
					"anonymous": false,
					"inputs": [
						{
							"indexed": true,
							"internalType": "address",
							"name": "owner",
							"type": "address"
						},
						{
							"indexed": true,
							"internalType": "address",
							"name": "operator",
							"type": "address"
						},
						{
							"indexed": false,
							"internalType": "bool",
							"name": "approved",
							"type": "bool"
						}
					],
					"name": "ApprovalForAll",
					"type": "event"
				},
				{
					"anonymous": false,
					"inputs": [
						{
							"indexed": true,
							"internalType": "address",
							"name": "previousOwner",
							"type": "address"
						},
						{
							"indexed": true,
							"internalType": "address",
							"name": "newOwner",
							"type": "address"
						}
					],
					"name": "OwnershipTransferred",
					"type": "event"
				},
				{
					"anonymous": false,
					"inputs": [
						{
							"indexed": true,
							"internalType": "address",
							"name": "from",
							"type": "address"
						},
						{
							"indexed": true,
							"internalType": "address",
							"name": "to",
							"type": "address"
						},
						{
							"indexed": true,
							"internalType": "uint256",
							"name": "tokenId",
							"type": "uint256"
						}
					],
					"name": "Transfer",
					"type": "event"
				},
				{
					"inputs": [
						{
							"internalType": "address",
							"name": "to",
							"type": "address"
						},
						{
							"internalType": "uint256",
							"name": "tokenId",
							"type": "uint256"
						}
					],
					"name": "approve",
					"outputs": [],
					"stateMutability": "nonpayable",
					"type": "function"
				},
				{
					"inputs": [
						{
							"internalType": "address",
							"name": "owner",
							"type": "address"
						}
					],
					"name": "balanceOf",
					"outputs": [
						{
							"internalType": "uint256",
							"name": "",
							"type": "uint256"
						}
					],
					"stateMutability": "view",
					"type": "function"
				},
				{
					"inputs": [
						{
							"internalType": "uint256",
							"name": "tokenId",
							"type": "uint256"
						}
					],
					"name": "getApproved",
					"outputs": [
						{
							"internalType": "address",
							"name": "",
							"type": "address"
						}
					],
					"stateMutability": "view",
					"type": "function"
				},
				{
					"inputs": [
						{
							"internalType": "address",
							"name": "owner",
							"type": "address"
						},
						{
							"internalType": "address",
							"name": "operator",
							"type": "address"
						}
					],
					"name": "isApprovedForAll",
					"outputs": [
						{
							"internalType": "bool",
							"name": "",
							"type": "bool"
						}
					],
					"stateMutability": "view",
					"type": "function"
				},
				{
					"inputs": [
						{
							"internalType": "string",
							"name": "uri",
							"type": "string"
						}
					],
					"name": "isContentOwned",
					"outputs": [
						{
							"internalType": "bool",
							"name": "",
							"type": "bool"
						}
					],
					"stateMutability": "view",
					"type": "function"
				},
				{
					"inputs": [],
					"name": "isMintEnabled",
					"outputs": [
						{
							"internalType": "bool",
							"name": "",
							"type": "bool"
						}
					],
					"stateMutability": "view",
					"type": "function"
				},
				{
					"inputs": [],
					"name": "maxSupply",
					"outputs": [
						{
							"internalType": "uint256",
							"name": "",
							"type": "uint256"
						}
					],
					"stateMutability": "view",
					"type": "function"
				},
				{
					"inputs": [],
					"name": "mint",
					"outputs": [],
					"stateMutability": "payable",
					"type": "function"
				},
				{
					"inputs": [],
					"name": "mintPrice",
					"outputs": [
						{
							"internalType": "uint256",
							"name": "",
							"type": "uint256"
						}
					],
					"stateMutability": "view",
					"type": "function"
				},
				{
					"inputs": [
						{
							"internalType": "address",
							"name": "",
							"type": "address"
						}
					],
					"name": "mintedWallets",
					"outputs": [
						{
							"internalType": "uint256",
							"name": "",
							"type": "uint256"
						}
					],
					"stateMutability": "view",
					"type": "function"
				},
				{
					"inputs": [],
					"name": "name",
					"outputs": [
						{
							"internalType": "string",
							"name": "",
							"type": "string"
						}
					],
					"stateMutability": "view",
					"type": "function"
				},
				{
					"inputs": [],
					"name": "owner",
					"outputs": [
						{
							"internalType": "address",
							"name": "",
							"type": "address"
						}
					],
					"stateMutability": "view",
					"type": "function"
				},
				{
					"inputs": [
						{
							"internalType": "uint256",
							"name": "tokenId",
							"type": "uint256"
						}
					],
					"name": "ownerOf",
					"outputs": [
						{
							"internalType": "address",
							"name": "",
							"type": "address"
						}
					],
					"stateMutability": "view",
					"type": "function"
				},
				{
					"inputs": [
						{
							"internalType": "address",
							"name": "recipient",
							"type": "address"
						},
						{
							"internalType": "string",
							"name": "metadataURI",
							"type": "string"
						}
					],
					"name": "payToMint",
					"outputs": [
						{
							"internalType": "uint256",
							"name": "",
							"type": "uint256"
						}
					],
					"stateMutability": "payable",
					"type": "function"
				},
				{
					"inputs": [],
					"name": "renounceOwnership",
					"outputs": [],
					"stateMutability": "nonpayable",
					"type": "function"
				},
				{
					"inputs": [
						{
							"internalType": "address",
							"name": "to",
							"type": "address"
						},
						{
							"internalType": "string",
							"name": "uri",
							"type": "string"
						}
					],
					"name": "safeMint",
					"outputs": [],
					"stateMutability": "nonpayable",
					"type": "function"
				},
				{
					"inputs": [
						{
							"internalType": "address",
							"name": "from",
							"type": "address"
						},
						{
							"internalType": "address",
							"name": "to",
							"type": "address"
						},
						{
							"internalType": "uint256",
							"name": "tokenId",
							"type": "uint256"
						}
					],
					"name": "safeTransferFrom",
					"outputs": [],
					"stateMutability": "nonpayable",
					"type": "function"
				},
				{
					"inputs": [
						{
							"internalType": "address",
							"name": "from",
							"type": "address"
						},
						{
							"internalType": "address",
							"name": "to",
							"type": "address"
						},
						{
							"internalType": "uint256",
							"name": "tokenId",
							"type": "uint256"
						},
						{
							"internalType": "bytes",
							"name": "_data",
							"type": "bytes"
						}
					],
					"name": "safeTransferFrom",
					"outputs": [],
					"stateMutability": "nonpayable",
					"type": "function"
				},
				{
					"inputs": [
						{
							"internalType": "address",
							"name": "operator",
							"type": "address"
						},
						{
							"internalType": "bool",
							"name": "approved",
							"type": "bool"
						}
					],
					"name": "setApprovalForAll",
					"outputs": [],
					"stateMutability": "nonpayable",
					"type": "function"
				},
				{
					"inputs": [
						{
							"internalType": "uint256",
							"name": "maxSupply_",
							"type": "uint256"
						}
					],
					"name": "setMaxSupply",
					"outputs": [],
					"stateMutability": "nonpayable",
					"type": "function"
				},
				{
					"inputs": [
						{
							"internalType": "bytes4",
							"name": "interfaceId",
							"type": "bytes4"
						}
					],
					"name": "supportsInterface",
					"outputs": [
						{
							"internalType": "bool",
							"name": "",
							"type": "bool"
						}
					],
					"stateMutability": "view",
					"type": "function"
				},
				{
					"inputs": [],
					"name": "symbol",
					"outputs": [
						{
							"internalType": "string",
							"name": "",
							"type": "string"
						}
					],
					"stateMutability": "view",
					"type": "function"
				},
				{
					"inputs": [],
					"name": "toggleInMintEnabled",
					"outputs": [],
					"stateMutability": "nonpayable",
					"type": "function"
				},
				{
					"inputs": [
						{
							"internalType": "uint256",
							"name": "tokenId",
							"type": "uint256"
						}
					],
					"name": "tokenURI",
					"outputs": [
						{
							"internalType": "string",
							"name": "",
							"type": "string"
						}
					],
					"stateMutability": "view",
					"type": "function"
				},
				{
					"inputs": [],
					"name": "totalSupply",
					"outputs": [
						{
							"internalType": "uint256",
							"name": "",
							"type": "uint256"
						}
					],
					"stateMutability": "view",
					"type": "function"
				},
				{
					"inputs": [
						{
							"internalType": "address",
							"name": "from",
							"type": "address"
						},
						{
							"internalType": "address",
							"name": "to",
							"type": "address"
						},
						{
							"internalType": "uint256",
							"name": "tokenId",
							"type": "uint256"
						}
					],
					"name": "transferFrom",
					"outputs": [],
					"stateMutability": "nonpayable",
					"type": "function"
				},
				{
					"inputs": [
						{
							"internalType": "address",
							"name": "newOwner",
							"type": "address"
						}
					],
					"name": "transferOwnership",
					"outputs": [],
					"stateMutability": "nonpayable",
					"type": "function"
				}
			],
			"devdoc": {
				"kind": "dev",
				"methods": {
					"approve(address,uint256)": {
						"details": "See {IERC721-approve}."
					},
					"balanceOf(address)": {
						"details": "See {IERC721-balanceOf}."
					},
					"getApproved(uint256)": {
						"details": "See {IERC721-getApproved}."
					},
					"isApprovedForAll(address,address)": {
						"details": "See {IERC721-isApprovedForAll}."
					},
					"name()": {
						"details": "See {IERC721Metadata-name}."
					},
					"owner()": {
						"details": "Returns the address of the current owner."
					},
					"ownerOf(uint256)": {
						"details": "See {IERC721-ownerOf}."
					},
					"renounceOwnership()": {
						"details": "Leaves the contract without owner. It will not be possible to call `onlyOwner` functions anymore. Can only be called by the current owner. NOTE: Renouncing ownership will leave the contract without an owner, thereby removing any functionality that is only available to the owner."
					},
					"safeTransferFrom(address,address,uint256)": {
						"details": "See {IERC721-safeTransferFrom}."
					},
					"safeTransferFrom(address,address,uint256,bytes)": {
						"details": "See {IERC721-safeTransferFrom}."
					},
					"setApprovalForAll(address,bool)": {
						"details": "See {IERC721-setApprovalForAll}."
					},
					"supportsInterface(bytes4)": {
						"details": "See {IERC165-supportsInterface}."
					},
					"symbol()": {
						"details": "See {IERC721Metadata-symbol}."
					},
					"transferFrom(address,address,uint256)": {
						"details": "See {IERC721-transferFrom}."
					},
					"transferOwnership(address)": {
						"details": "Transfers ownership of the contract to a new account (`newOwner`). Can only be called by the current owner."
					}
				},
				"version": 1
			},
			"evm": {
				"assembly": "    /* \"contracts/FNFT.sol\":39908:39919  0.001 ether */\n  0x038d7ea4c68000\n    /* \"contracts/FNFT.sol\":39881:39919  uint256 public mintPrice = 0.001 ether */\n  0x08\n  sstore\n    /* \"contracts/FNFT.sol\":24707:24820  constructor(string memory name_, string memory symbol_) {... */\n  0x0c\n    /* \"contracts/FNFT.sol\":39782:42354  contract FNFT is ERC721, ERC721URIStorage, Ownable {... */\n  0x80\n    /* \"contracts/FNFT.sol\":24707:24820  constructor(string memory name_, string memory symbol_) {... */\n  dup2\n  dup2\n  mstore\n  shl(0xa0, 0x7777772e662d6e66742e7573)\n  0xa0\n  swap1\n  dup2\n  mstore\n  0x0100\n    /* \"contracts/FNFT.sol\":39782:42354  contract FNFT is ERC721, ERC721URIStorage, Ownable {... */\n  0x40\n    /* \"contracts/FNFT.sol\":24707:24820  constructor(string memory name_, string memory symbol_) {... */\n  mstore\n  0x04\n  0xc0\n  swap1\n  dup2\n  mstore\n  mstore(0xe0, shl(0xe2, 0x11939195))\n    /* \"contracts/FNFT.sol\":39782:42354  contract FNFT is ERC721, ERC721URIStorage, Ownable {... */\n  swap2\n  swap3\n    /* \"contracts/FNFT.sol\":24773:24786  _name = name_ */\n  tag_5\n  swap2\n  0x00\n  swap2\n  tag_6\n  jump\t// in\ntag_5:\n  pop\n    /* \"contracts/FNFT.sol\":24796:24813  _symbol = symbol_ */\n  dup1\n  mload\n  tag_7\n  swap1\n    /* \"contracts/FNFT.sol\":24796:24803  _symbol */\n  0x01\n  swap1\n    /* \"contracts/FNFT.sol\":24796:24813  _symbol = symbol_ */\n  0x20\n  dup5\n  add\n  swap1\n  tag_6\n  jump\t// in\ntag_7:\n  pop\n    /* \"contracts/FNFT.sol\":24707:24820  constructor(string memory name_, string memory symbol_) {... */\n  pop\n  pop\n    /* \"contracts/FNFT.sol\":5329:5361  _transferOwnership(_msgSender()) */\n  tag_9\n    /* \"contracts/FNFT.sol\":5348:5360  _msgSender() */\n  tag_10\n    /* \"contracts/FNFT.sol\":5348:5358  _msgSender */\n  shl(0x20, tag_11)\n    /* \"contracts/FNFT.sol\":5348:5360  _msgSender() */\n  0x20\n  shr\n  jump\t// in\ntag_10:\n    /* \"contracts/FNFT.sol\":5329:5347  _transferOwnership */\n  tag_12\n    /* \"contracts/FNFT.sol\":5329:5361  _transferOwnership(_msgSender()) */\n  jump\t// in\ntag_9:\n    /* \"contracts/FNFT.sol\":40148:40155  1000000 */\n  0x0f4240\n    /* \"contracts/FNFT.sol\":40136:40145  maxSupply */\n  0x0a\n    /* \"contracts/FNFT.sol\":40136:40155  maxSupply = 1000000 */\n  sstore\n    /* \"contracts/FNFT.sol\":39782:42354  contract FNFT is ERC721, ERC721URIStorage, Ownable {... */\n  jump(tag_28)\n    /* \"contracts/FNFT.sol\":4212:4308  function _msgSender() internal view virtual returns (address) {... */\ntag_11:\n    /* \"contracts/FNFT.sol\":4291:4301  msg.sender */\n  caller\n  swap1\n    /* \"contracts/FNFT.sol\":4212:4308  function _msgSender() internal view virtual returns (address) {... */\n  jump\t// out\n    /* \"contracts/FNFT.sol\":6678:6865  function _transferOwnership(address newOwner) internal virtual {... */\ntag_12:\n    /* \"contracts/FNFT.sol\":6770:6776  _owner */\n  0x07\n  dup1\n  sload\n  sub(shl(0xa0, 0x01), 0x01)\n    /* \"contracts/FNFT.sol\":6786:6803  _owner = newOwner */\n  dup4\n  dup2\n  and\n  not(sub(shl(0xa0, 0x01), 0x01))\n  dup4\n  and\n  dup2\n  or\n  swap1\n  swap4\n  sstore\n    /* \"contracts/FNFT.sol\":6818:6858  OwnershipTransferred(oldOwner, newOwner) */\n  mload(0x40)\n    /* \"contracts/FNFT.sol\":6770:6776  _owner */\n  swap2\n  and\n  swap2\n    /* \"contracts/FNFT.sol\":6786:6803  _owner = newOwner */\n  swap1\n    /* \"contracts/FNFT.sol\":6770:6776  _owner */\n  dup3\n  swap1\n    /* \"contracts/FNFT.sol\":6818:6858  OwnershipTransferred(oldOwner, newOwner) */\n  0x8be0079c531659141344cd1fd0a4f28419497f9722a3daafe3b4186f6b6457e0\n  swap1\n    /* \"contracts/FNFT.sol\":6751:6767  address oldOwner */\n  0x00\n  swap1\n    /* \"contracts/FNFT.sol\":6818:6858  OwnershipTransferred(oldOwner, newOwner) */\n  log3\n    /* \"contracts/FNFT.sol\":6741:6865  {... */\n  pop\n    /* \"contracts/FNFT.sol\":6678:6865  function _transferOwnership(address newOwner) internal virtual {... */\n  pop\n  jump\t// out\n    /* \"contracts/FNFT.sol\":39782:42354  contract FNFT is ERC721, ERC721URIStorage, Ownable {... */\ntag_6:\n  dup3\n  dup1\n  sload\n  tag_17\n  swap1\n  tag_18\n  jump\t// in\ntag_17:\n  swap1\n  0x00\n  mstore\n  keccak256(0x00, 0x20)\n  swap1\n  0x1f\n  add\n  0x20\n  swap1\n  div\n  dup2\n  add\n  swap3\n  dup3\n  tag_20\n  jumpi\n  0x00\n  dup6\n  sstore\n  jump(tag_23)\ntag_20:\n  dup3\n  0x1f\n  lt\n  tag_21\n  jumpi\n  dup1\n  mload\n  not(0xff)\n  and\n  dup4\n  dup1\n  add\n  or\n  dup6\n  sstore\n  jump(tag_23)\ntag_21:\n  dup3\n  dup1\n  add\n  0x01\n  add\n  dup6\n  sstore\n  dup3\n  iszero\n  tag_23\n  jumpi\n  swap2\n  dup3\n  add\ntag_22:\n  dup3\n  dup2\n  gt\n  iszero\n  tag_23\n  jumpi\n  dup3\n  mload\n  dup3\n  sstore\n  swap2\n  0x20\n  add\n  swap2\n  swap1\n  0x01\n  add\n  swap1\n  jump(tag_22)\ntag_23:\n  pop\n  tag_24\n  swap3\n  swap2\n  pop\n  tag_25\n  jump\t// in\ntag_24:\n  pop\n  swap1\n  jump\t// out\ntag_25:\ntag_26:\n  dup1\n  dup3\n  gt\n  iszero\n  tag_24\n  jumpi\n  0x00\n  dup2\n  sstore\n  0x01\n  add\n  jump(tag_26)\n    /* \"#utility.yul\":14:394   */\ntag_18:\n    /* \"#utility.yul\":93:94   */\n  0x01\n    /* \"#utility.yul\":89:101   */\n  dup2\n  dup2\n  shr\n  swap1\n    /* \"#utility.yul\":136:148   */\n  dup3\n  and\n  dup1\n    /* \"#utility.yul\":157:218   */\n  tag_30\n  jumpi\n    /* \"#utility.yul\":211:215   */\n  0x7f\n    /* \"#utility.yul\":203:209   */\n  dup3\n    /* \"#utility.yul\":199:216   */\n  and\n    /* \"#utility.yul\":189:216   */\n  swap2\n  pop\n    /* \"#utility.yul\":157:218   */\ntag_30:\n    /* \"#utility.yul\":264:266   */\n  0x20\n    /* \"#utility.yul\":256:262   */\n  dup3\n    /* \"#utility.yul\":253:267   */\n  lt\n    /* \"#utility.yul\":233:251   */\n  dup2\n    /* \"#utility.yul\":230:268   */\n  sub\n    /* \"#utility.yul\":227:388   */\n  tag_31\n  jumpi\n    /* \"#utility.yul\":310:320   */\n  0x4e487b71\n    /* \"#utility.yul\":305:308   */\n  0xe0\n    /* \"#utility.yul\":301:321   */\n  shl\n    /* \"#utility.yul\":298:299   */\n  0x00\n    /* \"#utility.yul\":291:322   */\n  mstore\n    /* \"#utility.yul\":345:349   */\n  0x22\n    /* \"#utility.yul\":342:343   */\n  0x04\n    /* \"#utility.yul\":335:350   */\n  mstore\n    /* \"#utility.yul\":373:377   */\n  0x24\n    /* \"#utility.yul\":370:371   */\n  0x00\n    /* \"#utility.yul\":363:378   */\n  revert\n    /* \"#utility.yul\":227:388   */\ntag_31:\n  pop\n    /* \"#utility.yul\":14:394   */\n  swap2\n  swap1\n  pop\n  jump\t// out\ntag_28:\n    /* \"contracts/FNFT.sol\":39782:42354  contract FNFT is ERC721, ERC721URIStorage, Ownable {... */\n  dataSize(sub_0)\n  dup1\n  dataOffset(sub_0)\n  0x00\n  codecopy\n  0x00\n  return\nstop\n\nsub_0: assembly {\n        /* \"contracts/FNFT.sol\":39782:42354  contract FNFT is ERC721, ERC721URIStorage, Ownable {... */\n      mstore(0x40, 0x80)\n      jumpi(tag_1, lt(calldatasize, 0x04))\n      shr(0xe0, calldataload(0x00))\n      dup1\n      0x70a08231\n      gt\n      tag_29\n      jumpi\n      dup1\n      0xada7c4ed\n      gt\n      tag_30\n      jumpi\n      dup1\n      0xd204c45e\n      gt\n      tag_31\n      jumpi\n      dup1\n      0xd204c45e\n      eq\n      tag_25\n      jumpi\n      dup1\n      0xd5abeb01\n      eq\n      tag_26\n      jumpi\n      dup1\n      0xe985e9c5\n      eq\n      tag_27\n      jumpi\n      dup1\n      0xf2fde38b\n      eq\n      tag_28\n      jumpi\n      0x00\n      dup1\n      revert\n    tag_31:\n      dup1\n      0xada7c4ed\n      eq\n      tag_22\n      jumpi\n      dup1\n      0xb88d4fde\n      eq\n      tag_23\n      jumpi\n      dup1\n      0xc87b56dd\n      eq\n      tag_24\n      jumpi\n      0x00\n      dup1\n      revert\n    tag_30:\n      dup1\n      0x8da5cb5b\n      gt\n      tag_32\n      jumpi\n      dup1\n      0x8da5cb5b\n      eq\n      tag_18\n      jumpi\n      dup1\n      0x95d89b41\n      eq\n      tag_19\n      jumpi\n      dup1\n      0x9f1cabc6\n      eq\n      tag_20\n      jumpi\n      dup1\n      0xa22cb465\n      eq\n      tag_21\n      jumpi\n      0x00\n      dup1\n      revert\n    tag_32:\n      dup1\n      0x70a08231\n      eq\n      tag_15\n      jumpi\n      dup1\n      0x715018a6\n      eq\n      tag_16\n      jumpi\n      dup1\n      0x84a428db\n      eq\n      tag_17\n      jumpi\n      0x00\n      dup1\n      revert\n    tag_29:\n      dup1\n      0x23b872dd\n      gt\n      tag_33\n      jumpi\n      dup1\n      0x615fd9e2\n      gt\n      tag_34\n      jumpi\n      dup1\n      0x615fd9e2\n      eq\n      tag_11\n      jumpi\n      dup1\n      0x6352211e\n      eq\n      tag_12\n      jumpi\n      dup1\n      0x6817c76c\n      eq\n      tag_13\n      jumpi\n      dup1\n      0x6f8b44b0\n      eq\n      tag_14\n      jumpi\n      0x00\n      dup1\n      revert\n    tag_34:\n      dup1\n      0x23b872dd\n      eq\n      tag_8\n      jumpi\n      dup1\n      0x346de50a\n      eq\n      tag_9\n      jumpi\n      dup1\n      0x42842e0e\n      eq\n      tag_10\n      jumpi\n      0x00\n      dup1\n      revert\n    tag_33:\n      dup1\n      0x01ffc9a7\n      eq\n      tag_2\n      jumpi\n      dup1\n      0x06fdde03\n      eq\n      tag_3\n      jumpi\n      dup1\n      0x081812fc\n      eq\n      tag_4\n      jumpi\n      dup1\n      0x095ea7b3\n      eq\n      tag_5\n      jumpi\n      dup1\n      0x1249c58b\n      eq\n      tag_6\n      jumpi\n      dup1\n      0x18160ddd\n      eq\n      tag_7\n      jumpi\n    tag_1:\n      0x00\n      dup1\n      revert\n        /* \"contracts/FNFT.sol\":24887:25187  function supportsInterface(bytes4 interfaceId) public view virtual override(ERC165, IERC165) returns (bool) {... */\n    tag_2:\n      callvalue\n      dup1\n      iszero\n      tag_35\n      jumpi\n      0x00\n      dup1\n      revert\n    tag_35:\n      pop\n      tag_36\n      tag_37\n      calldatasize\n      0x04\n      tag_38\n      jump\t// in\n    tag_37:\n      tag_39\n      jump\t// in\n    tag_36:\n      mload(0x40)\n        /* \"#utility.yul\":565:579   */\n      swap1\n      iszero\n        /* \"#utility.yul\":558:580   */\n      iszero\n        /* \"#utility.yul\":540:581   */\n      dup2\n      mstore\n        /* \"#utility.yul\":528:530   */\n      0x20\n        /* \"#utility.yul\":513:531   */\n      add\n        /* \"contracts/FNFT.sol\":24887:25187  function supportsInterface(bytes4 interfaceId) public view virtual override(ERC165, IERC165) returns (bool) {... */\n    tag_40:\n      mload(0x40)\n      dup1\n      swap2\n      sub\n      swap1\n      return\n        /* \"contracts/FNFT.sol\":25805:25903  function name() public view virtual override returns (string memory) {... */\n    tag_3:\n      callvalue\n      dup1\n      iszero\n      tag_42\n      jumpi\n      0x00\n      dup1\n      revert\n    tag_42:\n      pop\n      tag_43\n      tag_44\n      jump\t// in\n    tag_43:\n      mload(0x40)\n      tag_40\n      swap2\n      swap1\n      tag_46\n      jump\t// in\n        /* \"contracts/FNFT.sol\":27316:27533  function getApproved(uint256 tokenId) public view virtual override returns (address) {... */\n    tag_4:\n      callvalue\n      dup1\n      iszero\n      tag_47\n      jumpi\n      0x00\n      dup1\n      revert\n    tag_47:\n      pop\n      tag_48\n      tag_49\n      calldatasize\n      0x04\n      tag_50\n      jump\t// in\n    tag_49:\n      tag_51\n      jump\t// in\n    tag_48:\n      mload(0x40)\n      sub(shl(0xa0, 0x01), 0x01)\n        /* \"#utility.yul\":1692:1724   */\n      swap1\n      swap2\n      and\n        /* \"#utility.yul\":1674:1725   */\n      dup2\n      mstore\n        /* \"#utility.yul\":1662:1664   */\n      0x20\n        /* \"#utility.yul\":1647:1665   */\n      add\n        /* \"contracts/FNFT.sol\":27316:27533  function getApproved(uint256 tokenId) public view virtual override returns (address) {... */\n      tag_40\n        /* \"#utility.yul\":1528:1731   */\n      jump\n        /* \"contracts/FNFT.sol\":26854:27255  function approve(address to, uint256 tokenId) public virtual override {... */\n    tag_5:\n      callvalue\n      dup1\n      iszero\n      tag_54\n      jumpi\n      0x00\n      dup1\n      revert\n    tag_54:\n      pop\n      tag_55\n      tag_56\n      calldatasize\n      0x04\n      tag_57\n      jump\t// in\n    tag_56:\n      tag_58\n      jump\t// in\n    tag_55:\n      stop\n        /* \"contracts/FNFT.sol\":40386:40805  function mint() external payable {... */\n    tag_6:\n      tag_55\n      tag_60\n      jump\t// in\n        /* \"contracts/FNFT.sol\":39925:39951  uint256 public totalSupply */\n    tag_7:\n      callvalue\n      dup1\n      iszero\n      tag_61\n      jumpi\n      0x00\n      dup1\n      revert\n    tag_61:\n      pop\n      tag_62\n      sload(0x09)\n      dup2\n      jump\n    tag_62:\n      mload(0x40)\n        /* \"#utility.yul\":2319:2344   */\n      swap1\n      dup2\n      mstore\n        /* \"#utility.yul\":2307:2309   */\n      0x20\n        /* \"#utility.yul\":2292:2310   */\n      add\n        /* \"contracts/FNFT.sol\":39925:39951  uint256 public totalSupply */\n      tag_40\n        /* \"#utility.yul\":2173:2350   */\n      jump\n        /* \"contracts/FNFT.sol\":28043:28373  function transferFrom(... */\n    tag_8:\n      callvalue\n      dup1\n      iszero\n      tag_66\n      jumpi\n      0x00\n      dup1\n      revert\n    tag_66:\n      pop\n      tag_55\n      tag_68\n      calldatasize\n      0x04\n      tag_69\n      jump\t// in\n    tag_68:\n      tag_70\n      jump\t// in\n        /* \"contracts/FNFT.sol\":39987:40012  bool public isMintEnabled */\n    tag_9:\n      callvalue\n      dup1\n      iszero\n      tag_71\n      jumpi\n      0x00\n      dup1\n      revert\n    tag_71:\n      pop\n      sload(0x0b)\n      tag_36\n      swap1\n      0xff\n      and\n      dup2\n      jump\n        /* \"contracts/FNFT.sol\":28439:28618  function safeTransferFrom(... */\n    tag_10:\n      callvalue\n      dup1\n      iszero\n      tag_75\n      jumpi\n      0x00\n      dup1\n      revert\n    tag_75:\n      pop\n      tag_55\n      tag_77\n      calldatasize\n      0x04\n      tag_69\n      jump\t// in\n    tag_77:\n      tag_78\n      jump\t// in\n        /* \"contracts/FNFT.sol\":41842:42352  function payToMint(... */\n    tag_11:\n      tag_62\n      tag_80\n      calldatasize\n      0x04\n      tag_81\n      jump\t// in\n    tag_80:\n      tag_82\n      jump\t// in\n        /* \"contracts/FNFT.sol\":25508:25743  function ownerOf(uint256 tokenId) public view virtual override returns (address) {... */\n    tag_12:\n      callvalue\n      dup1\n      iszero\n      tag_84\n      jumpi\n      0x00\n      dup1\n      revert\n    tag_84:\n      pop\n      tag_48\n      tag_86\n      calldatasize\n      0x04\n      tag_50\n      jump\t// in\n    tag_86:\n      tag_87\n      jump\t// in\n        /* \"contracts/FNFT.sol\":39881:39919  uint256 public mintPrice = 0.001 ether */\n    tag_13:\n      callvalue\n      dup1\n      iszero\n      tag_89\n      jumpi\n      0x00\n      dup1\n      revert\n    tag_89:\n      pop\n      tag_62\n      sload(0x08)\n      dup2\n      jump\n        /* \"contracts/FNFT.sol\":40280:40380  function setMaxSupply(uint256 maxSupply_) external onlyOwner {... */\n    tag_14:\n      callvalue\n      dup1\n      iszero\n      tag_93\n      jumpi\n      0x00\n      dup1\n      revert\n    tag_93:\n      pop\n      tag_55\n      tag_95\n      calldatasize\n      0x04\n      tag_50\n      jump\t// in\n    tag_95:\n      tag_96\n      jump\t// in\n        /* \"contracts/FNFT.sol\":25246:25451  function balanceOf(address owner) public view virtual override returns (uint256) {... */\n    tag_15:\n      callvalue\n      dup1\n      iszero\n      tag_97\n      jumpi\n      0x00\n      dup1\n      revert\n    tag_97:\n      pop\n      tag_62\n      tag_99\n      calldatasize\n      0x04\n      tag_100\n      jump\t// in\n    tag_99:\n      tag_101\n      jump\t// in\n        /* \"contracts/FNFT.sol\":6076:6177  function renounceOwnership() public virtual onlyOwner {... */\n    tag_16:\n      callvalue\n      dup1\n      iszero\n      tag_103\n      jumpi\n      0x00\n      dup1\n      revert\n    tag_103:\n      pop\n      tag_55\n      tag_105\n      jump\t// in\n        /* \"contracts/FNFT.sol\":40168:40274  function toggleInMintEnabled() external onlyOwner {... */\n    tag_17:\n      callvalue\n      dup1\n      iszero\n      tag_106\n      jumpi\n      0x00\n      dup1\n      revert\n    tag_106:\n      pop\n      tag_55\n      tag_108\n      jump\t// in\n        /* \"contracts/FNFT.sol\":5444:5529  function owner() public view virtual returns (address) {... */\n    tag_18:\n      callvalue\n      dup1\n      iszero\n      tag_109\n      jumpi\n      0x00\n      dup1\n      revert\n    tag_109:\n      pop\n        /* \"contracts/FNFT.sol\":5516:5522  _owner */\n      and(sub(shl(0xa0, 0x01), 0x01), sload(0x07))\n        /* \"contracts/FNFT.sol\":5444:5529  function owner() public view virtual returns (address) {... */\n      jump(tag_48)\n        /* \"contracts/FNFT.sol\":25967:26069  function symbol() public view virtual override returns (string memory) {... */\n    tag_19:\n      callvalue\n      dup1\n      iszero\n      tag_113\n      jumpi\n      0x00\n      dup1\n      revert\n    tag_113:\n      pop\n      tag_43\n      tag_115\n      jump\t// in\n        /* \"contracts/FNFT.sol\":41720:41836  function isContentOwned(string memory uri) public view returns (bool) {... */\n    tag_20:\n      callvalue\n      dup1\n      iszero\n      tag_117\n      jumpi\n      0x00\n      dup1\n      revert\n    tag_117:\n      pop\n      tag_36\n      tag_119\n      calldatasize\n      0x04\n      tag_120\n      jump\t// in\n    tag_119:\n      tag_121\n      jump\t// in\n        /* \"contracts/FNFT.sol\":27600:27753  function setApprovalForAll(address operator, bool approved) public virtual override {... */\n    tag_21:\n      callvalue\n      dup1\n      iszero\n      tag_123\n      jumpi\n      0x00\n      dup1\n      revert\n    tag_123:\n      pop\n      tag_55\n      tag_125\n      calldatasize\n      0x04\n      tag_126\n      jump\t// in\n    tag_125:\n      tag_127\n      jump\t// in\n        /* \"contracts/FNFT.sol\":40018:40066  mapping(address => uint256) public mintedWallets */\n    tag_22:\n      callvalue\n      dup1\n      iszero\n      tag_128\n      jumpi\n      0x00\n      dup1\n      revert\n    tag_128:\n      pop\n      tag_62\n      tag_130\n      calldatasize\n      0x04\n      tag_100\n      jump\t// in\n    tag_130:\n      mstore(0x20, 0x0c)\n      0x00\n      swap1\n      dup2\n      mstore\n      0x40\n      swap1\n      keccak256\n      sload\n      dup2\n      jump\n        /* \"contracts/FNFT.sol\":28684:29004  function safeTransferFrom(... */\n    tag_23:\n      callvalue\n      dup1\n      iszero\n      tag_133\n      jumpi\n      0x00\n      dup1\n      revert\n    tag_133:\n      pop\n      tag_55\n      tag_135\n      calldatasize\n      0x04\n      tag_136\n      jump\t// in\n    tag_135:\n      tag_137\n      jump\t// in\n        /* \"contracts/FNFT.sol\":41481:41670  function tokenURI(uint256 tokenId)... */\n    tag_24:\n      callvalue\n      dup1\n      iszero\n      tag_138\n      jumpi\n      0x00\n      dup1\n      revert\n    tag_138:\n      pop\n      tag_43\n      tag_140\n      calldatasize\n      0x04\n      tag_50\n      jump\t// in\n    tag_140:\n      tag_141\n      jump\t// in\n        /* \"contracts/FNFT.sol\":41057:41288  function safeMint(address to, string memory uri) public onlyOwner {... */\n    tag_25:\n      callvalue\n      dup1\n      iszero\n      tag_143\n      jumpi\n      0x00\n      dup1\n      revert\n    tag_143:\n      pop\n      tag_55\n      tag_145\n      calldatasize\n      0x04\n      tag_81\n      jump\t// in\n    tag_145:\n      tag_146\n      jump\t// in\n        /* \"contracts/FNFT.sol\":39957:39981  uint256 public maxSupply */\n    tag_26:\n      callvalue\n      dup1\n      iszero\n      tag_147\n      jumpi\n      0x00\n      dup1\n      revert\n    tag_147:\n      pop\n      tag_62\n      sload(0x0a)\n      dup2\n      jump\n        /* \"contracts/FNFT.sol\":27819:27981  function isApprovedForAll(address owner, address operator) public view virtual override returns (bool) {... */\n    tag_27:\n      callvalue\n      dup1\n      iszero\n      tag_151\n      jumpi\n      0x00\n      dup1\n      revert\n    tag_151:\n      pop\n      tag_36\n      tag_153\n      calldatasize\n      0x04\n      tag_154\n      jump\t// in\n    tag_153:\n      sub(shl(0xa0, 0x01), 0x01)\n        /* \"contracts/FNFT.sol\":27939:27964  _operatorApprovals[owner] */\n      swap2\n      dup3\n      and\n        /* \"contracts/FNFT.sol\":27916:27920  bool */\n      0x00\n        /* \"contracts/FNFT.sol\":27939:27964  _operatorApprovals[owner] */\n      swap1\n      dup2\n      mstore\n        /* \"contracts/FNFT.sol\":27939:27957  _operatorApprovals */\n      0x05\n        /* \"contracts/FNFT.sol\":27939:27964  _operatorApprovals[owner] */\n      0x20\n      swap1\n      dup2\n      mstore\n      0x40\n      dup1\n      dup4\n      keccak256\n        /* \"contracts/FNFT.sol\":27939:27974  _operatorApprovals[owner][operator] */\n      swap4\n      swap1\n      swap5\n      and\n      dup3\n      mstore\n      swap2\n      swap1\n      swap2\n      mstore\n      keccak256\n      sload\n      0xff\n      and\n      swap1\n        /* \"contracts/FNFT.sol\":27819:27981  function isApprovedForAll(address owner, address operator) public view virtual override returns (bool) {... */\n      jump\n        /* \"contracts/FNFT.sol\":6326:6524  function transferOwnership(address newOwner) public virtual onlyOwner {... */\n    tag_28:\n      callvalue\n      dup1\n      iszero\n      tag_157\n      jumpi\n      0x00\n      dup1\n      revert\n    tag_157:\n      pop\n      tag_55\n      tag_159\n      calldatasize\n      0x04\n      tag_100\n      jump\t// in\n    tag_159:\n      tag_160\n      jump\t// in\n        /* \"contracts/FNFT.sol\":24887:25187  function supportsInterface(bytes4 interfaceId) public view virtual override(ERC165, IERC165) returns (bool) {... */\n    tag_39:\n        /* \"contracts/FNFT.sol\":24989:24993  bool */\n      0x00\n      not(sub(shl(0xe0, 0x01), 0x01))\n        /* \"contracts/FNFT.sol\":25024:25064  interfaceId == type(IERC721).interfaceId */\n      dup3\n      and\n      shl(0xe0, 0x80ac58cd)\n      eq\n      dup1\n        /* \"contracts/FNFT.sol\":25024:25128  interfaceId == type(IERC721).interfaceId ||... */\n      tag_162\n      jumpi\n      pop\n      not(sub(shl(0xe0, 0x01), 0x01))\n        /* \"contracts/FNFT.sol\":25080:25128  interfaceId == type(IERC721Metadata).interfaceId */\n      dup3\n      and\n      shl(0xe0, 0x5b5e139f)\n      eq\n        /* \"contracts/FNFT.sol\":25024:25128  interfaceId == type(IERC721).interfaceId ||... */\n    tag_162:\n        /* \"contracts/FNFT.sol\":25024:25180  interfaceId == type(IERC721).interfaceId ||... */\n      dup1\n      tag_164\n      jumpi\n      pop\n      shl(0xe0, 0x01ffc9a7)\n      not(sub(shl(0xe0, 0x01), 0x01))\n        /* \"contracts/FNFT.sol\":17982:18022  interfaceId == type(IERC165).interfaceId */\n      dup4\n      and\n      eq\n        /* \"contracts/FNFT.sol\":25144:25180  super.supportsInterface(interfaceId) */\n    tag_164:\n        /* \"contracts/FNFT.sol\":25005:25180  return... */\n      swap3\n        /* \"contracts/FNFT.sol\":24887:25187  function supportsInterface(bytes4 interfaceId) public view virtual override(ERC165, IERC165) returns (bool) {... */\n      swap2\n      pop\n      pop\n      jump\t// out\n        /* \"contracts/FNFT.sol\":25805:25903  function name() public view virtual override returns (string memory) {... */\n    tag_44:\n        /* \"contracts/FNFT.sol\":25859:25872  string memory */\n      0x60\n        /* \"contracts/FNFT.sol\":25891:25896  _name */\n      0x00\n        /* \"contracts/FNFT.sol\":25884:25896  return _name */\n      dup1\n      sload\n      tag_167\n      swap1\n      tag_168\n      jump\t// in\n    tag_167:\n      dup1\n      0x1f\n      add\n      0x20\n      dup1\n      swap2\n      div\n      mul\n      0x20\n      add\n      mload(0x40)\n      swap1\n      dup2\n      add\n      0x40\n      mstore\n      dup1\n      swap3\n      swap2\n      swap1\n      dup2\n      dup2\n      mstore\n      0x20\n      add\n      dup3\n      dup1\n      sload\n      tag_169\n      swap1\n      tag_168\n      jump\t// in\n    tag_169:\n      dup1\n      iszero\n      tag_170\n      jumpi\n      dup1\n      0x1f\n      lt\n      tag_171\n      jumpi\n      0x0100\n      dup1\n      dup4\n      sload\n      div\n      mul\n      dup4\n      mstore\n      swap2\n      0x20\n      add\n      swap2\n      jump(tag_170)\n    tag_171:\n      dup3\n      add\n      swap2\n      swap1\n      0x00\n      mstore\n      keccak256(0x00, 0x20)\n      swap1\n    tag_172:\n      dup2\n      sload\n      dup2\n      mstore\n      swap1\n      0x01\n      add\n      swap1\n      0x20\n      add\n      dup1\n      dup4\n      gt\n      tag_172\n      jumpi\n      dup3\n      swap1\n      sub\n      0x1f\n      and\n      dup3\n      add\n      swap2\n    tag_170:\n      pop\n      pop\n      pop\n      pop\n      pop\n      swap1\n      pop\n        /* \"contracts/FNFT.sol\":25805:25903  function name() public view virtual override returns (string memory) {... */\n      swap1\n      jump\t// out\n        /* \"contracts/FNFT.sol\":27316:27533  function getApproved(uint256 tokenId) public view virtual override returns (address) {... */\n    tag_51:\n        /* \"contracts/FNFT.sol\":27392:27399  address */\n      0x00\n        /* \"contracts/FNFT.sol\":27419:27435  _exists(tokenId) */\n      tag_174\n        /* \"contracts/FNFT.sol\":27427:27434  tokenId */\n      dup3\n        /* \"contracts/FNFT.sol\":27419:27426  _exists */\n      tag_175\n        /* \"contracts/FNFT.sol\":27419:27435  _exists(tokenId) */\n      jump\t// in\n    tag_174:\n        /* \"contracts/FNFT.sol\":27411:27484  require(_exists(tokenId), \"ERC721: approved query for nonexistent token\") */\n      tag_176\n      jumpi\n      mload(0x40)\n      shl(0xe5, 0x461bcd)\n      dup2\n      mstore\n        /* \"#utility.yul\":6479:6481   */\n      0x20\n        /* \"contracts/FNFT.sol\":27411:27484  require(_exists(tokenId), \"ERC721: approved query for nonexistent token\") */\n      0x04\n      dup3\n      add\n        /* \"#utility.yul\":6461:6482   */\n      mstore\n        /* \"#utility.yul\":6518:6520   */\n      0x2c\n        /* \"#utility.yul\":6498:6516   */\n      0x24\n      dup3\n      add\n        /* \"#utility.yul\":6491:6521   */\n      mstore\n        /* \"#utility.yul\":6557:6591   */\n      0x4552433732313a20617070726f76656420717565727920666f72206e6f6e6578\n        /* \"#utility.yul\":6537:6555   */\n      0x44\n      dup3\n      add\n        /* \"#utility.yul\":6530:6592   */\n      mstore\n      shl(0xa1, 0x34b9ba32b73a103a37b5b2b7)\n        /* \"#utility.yul\":6608:6626   */\n      0x64\n      dup3\n      add\n        /* \"#utility.yul\":6601:6643   */\n      mstore\n        /* \"#utility.yul\":6660:6679   */\n      0x84\n      add\n        /* \"contracts/FNFT.sol\":27411:27484  require(_exists(tokenId), \"ERC721: approved query for nonexistent token\") */\n    tag_177:\n      mload(0x40)\n      dup1\n      swap2\n      sub\n      swap1\n      revert\n    tag_176:\n      pop\n        /* \"contracts/FNFT.sol\":27502:27526  _tokenApprovals[tokenId] */\n      0x00\n      swap1\n      dup2\n      mstore\n        /* \"contracts/FNFT.sol\":27502:27517  _tokenApprovals */\n      0x04\n        /* \"contracts/FNFT.sol\":27502:27526  _tokenApprovals[tokenId] */\n      0x20\n      mstore\n      0x40\n      swap1\n      keccak256\n      sload\n      sub(shl(0xa0, 0x01), 0x01)\n      and\n      swap1\n        /* \"contracts/FNFT.sol\":27316:27533  function getApproved(uint256 tokenId) public view virtual override returns (address) {... */\n      jump\t// out\n        /* \"contracts/FNFT.sol\":26854:27255  function approve(address to, uint256 tokenId) public virtual override {... */\n    tag_58:\n        /* \"contracts/FNFT.sol\":26934:26947  address owner */\n      0x00\n        /* \"contracts/FNFT.sol\":26950:26973  ERC721.ownerOf(tokenId) */\n      tag_180\n        /* \"contracts/FNFT.sol\":26965:26972  tokenId */\n      dup3\n        /* \"contracts/FNFT.sol\":26950:26964  ERC721.ownerOf */\n      tag_87\n        /* \"contracts/FNFT.sol\":26950:26973  ERC721.ownerOf(tokenId) */\n      jump\t// in\n    tag_180:\n        /* \"contracts/FNFT.sol\":26934:26973  address owner = ERC721.ownerOf(tokenId) */\n      swap1\n      pop\n        /* \"contracts/FNFT.sol\":26997:27002  owner */\n      dup1\n      sub(shl(0xa0, 0x01), 0x01)\n        /* \"contracts/FNFT.sol\":26991:27002  to != owner */\n      and\n        /* \"contracts/FNFT.sol\":26991:26993  to */\n      dup4\n      sub(shl(0xa0, 0x01), 0x01)\n        /* \"contracts/FNFT.sol\":26991:27002  to != owner */\n      and\n      sub\n        /* \"contracts/FNFT.sol\":26983:27040  require(to != owner, \"ERC721: approval to current owner\") */\n      tag_181\n      jumpi\n      mload(0x40)\n      shl(0xe5, 0x461bcd)\n      dup2\n      mstore\n        /* \"#utility.yul\":6892:6894   */\n      0x20\n        /* \"contracts/FNFT.sol\":26983:27040  require(to != owner, \"ERC721: approval to current owner\") */\n      0x04\n      dup3\n      add\n        /* \"#utility.yul\":6874:6895   */\n      mstore\n        /* \"#utility.yul\":6931:6933   */\n      0x21\n        /* \"#utility.yul\":6911:6929   */\n      0x24\n      dup3\n      add\n        /* \"#utility.yul\":6904:6934   */\n      mstore\n        /* \"#utility.yul\":6970:7004   */\n      0x4552433732313a20617070726f76616c20746f2063757272656e74206f776e65\n        /* \"#utility.yul\":6950:6968   */\n      0x44\n      dup3\n      add\n        /* \"#utility.yul\":6943:7005   */\n      mstore\n      shl(0xf9, 0x39)\n        /* \"#utility.yul\":7021:7039   */\n      0x64\n      dup3\n      add\n        /* \"#utility.yul\":7014:7045   */\n      mstore\n        /* \"#utility.yul\":7062:7081   */\n      0x84\n      add\n        /* \"contracts/FNFT.sol\":26983:27040  require(to != owner, \"ERC721: approval to current owner\") */\n      tag_177\n        /* \"#utility.yul\":6690:7087   */\n      jump\n        /* \"contracts/FNFT.sol\":26983:27040  require(to != owner, \"ERC721: approval to current owner\") */\n    tag_181:\n        /* \"contracts/FNFT.sol\":4291:4301  msg.sender */\n      caller\n      sub(shl(0xa0, 0x01), 0x01)\n        /* \"contracts/FNFT.sol\":27072:27093  _msgSender() == owner */\n      dup3\n      and\n      eq\n      dup1\n        /* \"contracts/FNFT.sol\":27072:27134  _msgSender() == owner || isApprovedForAll(owner, _msgSender()) */\n      tag_187\n      jumpi\n      pop\n        /* \"contracts/FNFT.sol\":27097:27134  isApprovedForAll(owner, _msgSender()) */\n      tag_187\n        /* \"contracts/FNFT.sol\":27114:27119  owner */\n      dup2\n        /* \"contracts/FNFT.sol\":4291:4301  msg.sender */\n      caller\n        /* \"contracts/FNFT.sol\":27819:27981  function isApprovedForAll(address owner, address operator) public view virtual override returns (bool) {... */\n      tag_153\n      jump\t// in\n        /* \"contracts/FNFT.sol\":27097:27134  isApprovedForAll(owner, _msgSender()) */\n    tag_187:\n        /* \"contracts/FNFT.sol\":27051:27216  require(... */\n      tag_189\n      jumpi\n      mload(0x40)\n      shl(0xe5, 0x461bcd)\n      dup2\n      mstore\n        /* \"#utility.yul\":7294:7296   */\n      0x20\n        /* \"contracts/FNFT.sol\":27051:27216  require(... */\n      0x04\n      dup3\n      add\n        /* \"#utility.yul\":7276:7297   */\n      mstore\n        /* \"#utility.yul\":7333:7335   */\n      0x38\n        /* \"#utility.yul\":7313:7331   */\n      0x24\n      dup3\n      add\n        /* \"#utility.yul\":7306:7336   */\n      mstore\n        /* \"#utility.yul\":7372:7406   */\n      0x4552433732313a20617070726f76652063616c6c6572206973206e6f74206f77\n        /* \"#utility.yul\":7352:7370   */\n      0x44\n      dup3\n      add\n        /* \"#utility.yul\":7345:7407   */\n      mstore\n        /* \"#utility.yul\":7443:7469   */\n      0x6e6572206e6f7220617070726f76656420666f7220616c6c0000000000000000\n        /* \"#utility.yul\":7423:7441   */\n      0x64\n      dup3\n      add\n        /* \"#utility.yul\":7416:7470   */\n      mstore\n        /* \"#utility.yul\":7487:7506   */\n      0x84\n      add\n        /* \"contracts/FNFT.sol\":27051:27216  require(... */\n      tag_177\n        /* \"#utility.yul\":7092:7512   */\n      jump\n        /* \"contracts/FNFT.sol\":27051:27216  require(... */\n    tag_189:\n        /* \"contracts/FNFT.sol\":27227:27248  _approve(to, tokenId) */\n      tag_192\n        /* \"contracts/FNFT.sol\":27236:27238  to */\n      dup4\n        /* \"contracts/FNFT.sol\":27240:27247  tokenId */\n      dup4\n        /* \"contracts/FNFT.sol\":27227:27235  _approve */\n      tag_193\n        /* \"contracts/FNFT.sol\":27227:27248  _approve(to, tokenId) */\n      jump\t// in\n    tag_192:\n        /* \"contracts/FNFT.sol\":26924:27255  {... */\n      pop\n        /* \"contracts/FNFT.sol\":26854:27255  function approve(address to, uint256 tokenId) public virtual override {... */\n      pop\n      pop\n      jump\t// out\n        /* \"contracts/FNFT.sol\":40386:40805  function mint() external payable {... */\n    tag_60:\n        /* \"contracts/FNFT.sol\":40437:40450  isMintEnabled */\n      and(0xff, sload(0x0b))\n        /* \"contracts/FNFT.sol\":40429:40474  require(isMintEnabled, 'Minting not enabled') */\n      tag_195\n      jumpi\n      mload(0x40)\n      shl(0xe5, 0x461bcd)\n      dup2\n      mstore\n        /* \"#utility.yul\":7719:7721   */\n      0x20\n        /* \"contracts/FNFT.sol\":40429:40474  require(isMintEnabled, 'Minting not enabled') */\n      0x04\n      dup3\n      add\n        /* \"#utility.yul\":7701:7722   */\n      mstore\n        /* \"#utility.yul\":7758:7760   */\n      0x13\n        /* \"#utility.yul\":7738:7756   */\n      0x24\n      dup3\n      add\n        /* \"#utility.yul\":7731:7761   */\n      mstore\n      shl(0x6a, 0x135a5b9d1a5b99c81b9bdd08195b98589b1959)\n        /* \"#utility.yul\":7777:7795   */\n      0x44\n      dup3\n      add\n        /* \"#utility.yul\":7770:7819   */\n      mstore\n        /* \"#utility.yul\":7836:7854   */\n      0x64\n      add\n        /* \"contracts/FNFT.sol\":40429:40474  require(isMintEnabled, 'Minting not enabled') */\n      tag_177\n        /* \"#utility.yul\":7517:7860   */\n      jump\n        /* \"contracts/FNFT.sol\":40429:40474  require(isMintEnabled, 'Minting not enabled') */\n    tag_195:\n        /* \"contracts/FNFT.sol\":40506:40516  msg.sender */\n      caller\n        /* \"contracts/FNFT.sol\":40492:40517  mintedWallets[msg.sender] */\n      0x00\n      swap1\n      dup2\n      mstore\n        /* \"contracts/FNFT.sol\":40492:40505  mintedWallets */\n      0x0c\n        /* \"contracts/FNFT.sol\":40492:40517  mintedWallets[msg.sender] */\n      0x20\n      mstore\n      0x40\n      swap1\n      keccak256\n      sload\n        /* \"contracts/FNFT.sol\":40520:40521  1 */\n      0x01\n      gt\n        /* \"contracts/FNFT.sol\":40484:40548  require(mintedWallets[msg.sender] < 1, 'Exceeds max per wallet') */\n      tag_198\n      jumpi\n      mload(0x40)\n      shl(0xe5, 0x461bcd)\n      dup2\n      mstore\n        /* \"#utility.yul\":8067:8069   */\n      0x20\n        /* \"contracts/FNFT.sol\":40484:40548  require(mintedWallets[msg.sender] < 1, 'Exceeds max per wallet') */\n      0x04\n      dup3\n      add\n        /* \"#utility.yul\":8049:8070   */\n      mstore\n        /* \"#utility.yul\":8106:8108   */\n      0x16\n        /* \"#utility.yul\":8086:8104   */\n      0x24\n      dup3\n      add\n        /* \"#utility.yul\":8079:8109   */\n      mstore\n      shl(0x52, 0x115e18d959591cc81b585e081c195c881dd85b1b195d)\n        /* \"#utility.yul\":8125:8143   */\n      0x44\n      dup3\n      add\n        /* \"#utility.yul\":8118:8170   */\n      mstore\n        /* \"#utility.yul\":8187:8205   */\n      0x64\n      add\n        /* \"contracts/FNFT.sol\":40484:40548  require(mintedWallets[msg.sender] < 1, 'Exceeds max per wallet') */\n      tag_177\n        /* \"#utility.yul\":7865:8211   */\n      jump\n        /* \"contracts/FNFT.sol\":40484:40548  require(mintedWallets[msg.sender] < 1, 'Exceeds max per wallet') */\n    tag_198:\n        /* \"contracts/FNFT.sol\":40579:40588  mintPrice */\n      sload(0x08)\n        /* \"contracts/FNFT.sol\":40566:40575  msg.value */\n      callvalue\n        /* \"contracts/FNFT.sol\":40566:40588  msg.value == mintPrice */\n      eq\n        /* \"contracts/FNFT.sol\":40558:40604  require(msg.value == mintPrice, 'Wrong Value') */\n      tag_201\n      jumpi\n      mload(0x40)\n      shl(0xe5, 0x461bcd)\n      dup2\n      mstore\n        /* \"#utility.yul\":8418:8420   */\n      0x20\n        /* \"contracts/FNFT.sol\":40558:40604  require(msg.value == mintPrice, 'Wrong Value') */\n      0x04\n      dup3\n      add\n        /* \"#utility.yul\":8400:8421   */\n      mstore\n        /* \"#utility.yul\":8457:8459   */\n      0x0b\n        /* \"#utility.yul\":8437:8455   */\n      0x24\n      dup3\n      add\n        /* \"#utility.yul\":8430:8460   */\n      mstore\n      shl(0xa8, 0x57726f6e672056616c7565)\n        /* \"#utility.yul\":8476:8494   */\n      0x44\n      dup3\n      add\n        /* \"#utility.yul\":8469:8510   */\n      mstore\n        /* \"#utility.yul\":8527:8545   */\n      0x64\n      add\n        /* \"contracts/FNFT.sol\":40558:40604  require(msg.value == mintPrice, 'Wrong Value') */\n      tag_177\n        /* \"#utility.yul\":8216:8551   */\n      jump\n        /* \"contracts/FNFT.sol\":40558:40604  require(msg.value == mintPrice, 'Wrong Value') */\n    tag_201:\n        /* \"contracts/FNFT.sol\":40634:40645  totalSupply */\n      sload(0x09)\n        /* \"contracts/FNFT.sol\":40622:40631  maxSupply */\n      sload(0x0a)\n        /* \"contracts/FNFT.sol\":40622:40645  maxSupply > totalSupply */\n      gt\n        /* \"contracts/FNFT.sol\":40614:40658  require(maxSupply > totalSupply, 'Sold Out') */\n      tag_204\n      jumpi\n      mload(0x40)\n      shl(0xe5, 0x461bcd)\n      dup2\n      mstore\n        /* \"#utility.yul\":8758:8760   */\n      0x20\n        /* \"contracts/FNFT.sol\":40614:40658  require(maxSupply > totalSupply, 'Sold Out') */\n      0x04\n      dup3\n      add\n        /* \"#utility.yul\":8740:8761   */\n      mstore\n        /* \"#utility.yul\":8797:8798   */\n      0x08\n        /* \"#utility.yul\":8777:8795   */\n      0x24\n      dup3\n      add\n        /* \"#utility.yul\":8770:8799   */\n      mstore\n      shl(0xc2, 0x14dbdb190813dd5d)\n        /* \"#utility.yul\":8815:8833   */\n      0x44\n      dup3\n      add\n        /* \"#utility.yul\":8808:8846   */\n      mstore\n        /* \"#utility.yul\":8863:8881   */\n      0x64\n      add\n        /* \"contracts/FNFT.sol\":40614:40658  require(maxSupply > totalSupply, 'Sold Out') */\n      tag_177\n        /* \"#utility.yul\":8556:8887   */\n      jump\n        /* \"contracts/FNFT.sol\":40614:40658  require(maxSupply > totalSupply, 'Sold Out') */\n    tag_204:\n        /* \"contracts/FNFT.sol\":40683:40693  msg.sender */\n      caller\n        /* \"contracts/FNFT.sol\":40669:40694  mintedWallets[msg.sender] */\n      0x00\n      swap1\n      dup2\n      mstore\n        /* \"contracts/FNFT.sol\":40669:40682  mintedWallets */\n      0x0c\n        /* \"contracts/FNFT.sol\":40669:40694  mintedWallets[msg.sender] */\n      0x20\n      mstore\n      0x40\n      dup2\n      keccak256\n        /* \"contracts/FNFT.sol\":40669:40696  mintedWallets[msg.sender]++ */\n      dup1\n      sload\n      swap2\n      tag_207\n      dup4\n      tag_208\n      jump\t// in\n    tag_207:\n      swap1\n      swap2\n      sstore\n      pop\n      pop\n        /* \"contracts/FNFT.sol\":40706:40717  totalSupply */\n      0x09\n        /* \"contracts/FNFT.sol\":40706:40719  totalSupply++ */\n      dup1\n      sload\n      swap1\n        /* \"contracts/FNFT.sol\":40706:40717  totalSupply */\n      0x00\n        /* \"contracts/FNFT.sol\":40706:40719  totalSupply++ */\n      tag_209\n      dup4\n      tag_208\n      jump\t// in\n    tag_209:\n      swap1\n      swap2\n      sstore\n      pop\n      pop\n        /* \"contracts/FNFT.sol\":40747:40758  totalSupply */\n      sload(0x09)\n        /* \"contracts/FNFT.sol\":40768:40798  _safeMint(msg.sender, tokenId) */\n      tag_210\n        /* \"contracts/FNFT.sol\":40778:40788  msg.sender */\n      caller\n        /* \"contracts/FNFT.sol\":40747:40758  totalSupply */\n      dup3\n        /* \"contracts/FNFT.sol\":40768:40777  _safeMint */\n      tag_211\n        /* \"contracts/FNFT.sol\":40768:40798  _safeMint(msg.sender, tokenId) */\n      jump\t// in\n    tag_210:\n        /* \"contracts/FNFT.sol\":40419:40805  {... */\n      pop\n        /* \"contracts/FNFT.sol\":40386:40805  function mint() external payable {... */\n      jump\t// out\n        /* \"contracts/FNFT.sol\":28043:28373  function transferFrom(... */\n    tag_70:\n        /* \"contracts/FNFT.sol\":28232:28273  _isApprovedOrOwner(_msgSender(), tokenId) */\n      tag_213\n        /* \"contracts/FNFT.sol\":4291:4301  msg.sender */\n      caller\n        /* \"contracts/FNFT.sol\":28265:28272  tokenId */\n      dup3\n        /* \"contracts/FNFT.sol\":28232:28250  _isApprovedOrOwner */\n      tag_215\n        /* \"contracts/FNFT.sol\":28232:28273  _isApprovedOrOwner(_msgSender(), tokenId) */\n      jump\t// in\n    tag_213:\n        /* \"contracts/FNFT.sol\":28224:28327  require(_isApprovedOrOwner(_msgSender(), tokenId), \"ERC721: transfer caller is not owner nor approved\") */\n      tag_216\n      jumpi\n      mload(0x40)\n      shl(0xe5, 0x461bcd)\n      dup2\n      mstore\n      0x04\n      add\n      tag_177\n      swap1\n      tag_218\n      jump\t// in\n    tag_216:\n        /* \"contracts/FNFT.sol\":28338:28366  _transfer(from, to, tokenId) */\n      tag_192\n        /* \"contracts/FNFT.sol\":28348:28352  from */\n      dup4\n        /* \"contracts/FNFT.sol\":28354:28356  to */\n      dup4\n        /* \"contracts/FNFT.sol\":28358:28365  tokenId */\n      dup4\n        /* \"contracts/FNFT.sol\":28338:28347  _transfer */\n      tag_220\n        /* \"contracts/FNFT.sol\":28338:28366  _transfer(from, to, tokenId) */\n      jump\t// in\n        /* \"contracts/FNFT.sol\":28439:28618  function safeTransferFrom(... */\n    tag_78:\n        /* \"contracts/FNFT.sol\":28572:28611  safeTransferFrom(from, to, tokenId, \"\") */\n      tag_192\n        /* \"contracts/FNFT.sol\":28589:28593  from */\n      dup4\n        /* \"contracts/FNFT.sol\":28595:28597  to */\n      dup4\n        /* \"contracts/FNFT.sol\":28599:28606  tokenId */\n      dup4\n        /* \"contracts/FNFT.sol\":28572:28611  safeTransferFrom(from, to, tokenId, \"\") */\n      mload(0x40)\n      dup1\n      0x20\n      add\n      0x40\n      mstore\n      dup1\n      0x00\n      dup2\n      mstore\n      pop\n        /* \"contracts/FNFT.sol\":28572:28588  safeTransferFrom */\n      tag_137\n        /* \"contracts/FNFT.sol\":28572:28611  safeTransferFrom(from, to, tokenId, \"\") */\n      jump\t// in\n        /* \"contracts/FNFT.sol\":41842:42352  function payToMint(... */\n    tag_82:\n        /* \"contracts/FNFT.sol\":41958:41965  uint256 */\n      0x00\n        /* \"contracts/FNFT.sol\":41985:41997  existingURIs */\n      0x0e\n        /* \"contracts/FNFT.sol\":41998:42009  metadataURI */\n      dup3\n        /* \"contracts/FNFT.sol\":41985:42010  existingURIs[metadataURI] */\n      mload(0x40)\n      tag_224\n      swap2\n      swap1\n      tag_225\n      jump\t// in\n    tag_224:\n      swap1\n      dup2\n      mstore\n      mload(0x40)\n      swap1\n      dup2\n      swap1\n      sub\n      0x20\n      add\n      swap1\n      keccak256\n      sload\n      0xff\n      and\n      0x01\n        /* \"contracts/FNFT.sol\":41985:42015  existingURIs[metadataURI] != 1 */\n      sub\n        /* \"contracts/FNFT.sol\":41977:42039  require(existingURIs[metadataURI] != 1, 'NFT already minted!') */\n      tag_226\n      jumpi\n      mload(0x40)\n      shl(0xe5, 0x461bcd)\n      dup2\n      mstore\n        /* \"#utility.yul\":10065:10067   */\n      0x20\n        /* \"contracts/FNFT.sol\":41977:42039  require(existingURIs[metadataURI] != 1, 'NFT already minted!') */\n      0x04\n      dup3\n      add\n        /* \"#utility.yul\":10047:10068   */\n      mstore\n        /* \"#utility.yul\":10104:10106   */\n      0x13\n        /* \"#utility.yul\":10084:10102   */\n      0x24\n      dup3\n      add\n        /* \"#utility.yul\":10077:10107   */\n      mstore\n      shl(0x68, 0x4e465420616c7265616479206d696e74656421)\n        /* \"#utility.yul\":10123:10141   */\n      0x44\n      dup3\n      add\n        /* \"#utility.yul\":10116:10165   */\n      mstore\n        /* \"#utility.yul\":10182:10200   */\n      0x64\n      add\n        /* \"contracts/FNFT.sol\":41977:42039  require(existingURIs[metadataURI] != 1, 'NFT already minted!') */\n      tag_177\n        /* \"#utility.yul\":9863:10206   */\n      jump\n        /* \"contracts/FNFT.sol\":41977:42039  require(existingURIs[metadataURI] != 1, 'NFT already minted!') */\n    tag_226:\n        /* \"contracts/FNFT.sol\":42071:42082  0.001 ether */\n      0x038d7ea4c68000\n        /* \"contracts/FNFT.sol\":42058:42067  msg.value */\n      callvalue\n        /* \"contracts/FNFT.sol\":42058:42082  msg.value >= 0.001 ether */\n      lt\n      iszero\n        /* \"contracts/FNFT.sol\":42049:42102  require (msg.value >= 0.001 ether, 'Need to pay up!') */\n      tag_229\n      jumpi\n      mload(0x40)\n      shl(0xe5, 0x461bcd)\n      dup2\n      mstore\n        /* \"#utility.yul\":10413:10415   */\n      0x20\n        /* \"contracts/FNFT.sol\":42049:42102  require (msg.value >= 0.001 ether, 'Need to pay up!') */\n      0x04\n      dup3\n      add\n        /* \"#utility.yul\":10395:10416   */\n      mstore\n        /* \"#utility.yul\":10452:10454   */\n      0x0f\n        /* \"#utility.yul\":10432:10450   */\n      0x24\n      dup3\n      add\n        /* \"#utility.yul\":10425:10455   */\n      mstore\n      shl(0x88, 0x4e65656420746f2070617920757021)\n        /* \"#utility.yul\":10471:10489   */\n      0x44\n      dup3\n      add\n        /* \"#utility.yul\":10464:10509   */\n      mstore\n        /* \"#utility.yul\":10526:10544   */\n      0x64\n      add\n        /* \"contracts/FNFT.sol\":42049:42102  require (msg.value >= 0.001 ether, 'Need to pay up!') */\n      tag_177\n        /* \"#utility.yul\":10211:10550   */\n      jump\n        /* \"contracts/FNFT.sol\":42049:42102  require (msg.value >= 0.001 ether, 'Need to pay up!') */\n    tag_229:\n        /* \"contracts/FNFT.sol\":42113:42130  uint256 newItemId */\n      0x00\n        /* \"contracts/FNFT.sol\":42133:42158  _tokenIdCounter.current() */\n      tag_232\n        /* \"contracts/FNFT.sol\":42133:42148  _tokenIdCounter */\n      0x0d\n        /* \"contracts/FNFT.sol\":1018:1032  counter._value */\n      sload\n      swap1\n        /* \"contracts/FNFT.sol\":927:1039  function current(Counter storage counter) internal view returns (uint256) {... */\n      jump\n        /* \"contracts/FNFT.sol\":42133:42158  _tokenIdCounter.current() */\n    tag_232:\n        /* \"contracts/FNFT.sol\":42113:42158  uint256 newItemId = _tokenIdCounter.current() */\n      swap1\n      pop\n        /* \"contracts/FNFT.sol\":42168:42195  _tokenIdCounter.increment() */\n      tag_234\n        /* \"contracts/FNFT.sol\":42168:42183  _tokenIdCounter */\n      0x0d\n        /* \"contracts/FNFT.sol\":1132:1151  counter._value += 1 */\n      dup1\n      sload\n        /* \"contracts/FNFT.sol\":1150:1151  1 */\n      0x01\n        /* \"contracts/FNFT.sol\":1132:1151  counter._value += 1 */\n      add\n      swap1\n      sstore\n        /* \"contracts/FNFT.sol\":1045:1168  function increment(Counter storage counter) internal {... */\n      jump\n        /* \"contracts/FNFT.sol\":42168:42195  _tokenIdCounter.increment() */\n    tag_234:\n        /* \"contracts/FNFT.sol\":42233:42234  1 */\n      0x01\n        /* \"contracts/FNFT.sol\":42205:42217  existingURIs */\n      0x0e\n        /* \"contracts/FNFT.sol\":42218:42229  metadataURI */\n      dup5\n        /* \"contracts/FNFT.sol\":42205:42230  existingURIs[metadataURI] */\n      mload(0x40)\n      tag_236\n      swap2\n      swap1\n      tag_225\n      jump\t// in\n    tag_236:\n      swap1\n      dup2\n      mstore\n      mload(0x40)\n      swap1\n      dup2\n      swap1\n      sub\n      0x20\n      add\n      swap1\n      keccak256\n        /* \"contracts/FNFT.sol\":42205:42234  existingURIs[metadataURI] = 1 */\n      dup1\n      sload\n      0xff\n      swap3\n      swap1\n      swap3\n      and\n      not(0xff)\n      swap1\n      swap3\n      and\n      swap2\n      swap1\n      swap2\n      or\n      swap1\n      sstore\n        /* \"contracts/FNFT.sol\":42245:42272  _mint(recipient, newItemId) */\n      tag_237\n        /* \"contracts/FNFT.sol\":42251:42260  recipient */\n      dup5\n        /* \"contracts/FNFT.sol\":42262:42271  newItemId */\n      dup3\n        /* \"contracts/FNFT.sol\":42245:42250  _mint */\n      tag_238\n        /* \"contracts/FNFT.sol\":42245:42272  _mint(recipient, newItemId) */\n      jump\t// in\n    tag_237:\n        /* \"contracts/FNFT.sol\":42282:42318  _setTokenURI(newItemId, metadataURI) */\n      tag_239\n        /* \"contracts/FNFT.sol\":42295:42304  newItemId */\n      dup2\n        /* \"contracts/FNFT.sol\":42306:42317  metadataURI */\n      dup5\n        /* \"contracts/FNFT.sol\":42282:42294  _setTokenURI */\n      tag_240\n        /* \"contracts/FNFT.sol\":42282:42318  _setTokenURI(newItemId, metadataURI) */\n      jump\t// in\n    tag_239:\n        /* \"contracts/FNFT.sol\":42336:42345  newItemId */\n      swap4\n        /* \"contracts/FNFT.sol\":41842:42352  function payToMint(... */\n      swap3\n      pop\n      pop\n      pop\n      jump\t// out\n        /* \"contracts/FNFT.sol\":25508:25743  function ownerOf(uint256 tokenId) public view virtual override returns (address) {... */\n    tag_87:\n        /* \"contracts/FNFT.sol\":25580:25587  address */\n      0x00\n        /* \"contracts/FNFT.sol\":25615:25631  _owners[tokenId] */\n      dup2\n      dup2\n      mstore\n        /* \"contracts/FNFT.sol\":25615:25622  _owners */\n      0x02\n        /* \"contracts/FNFT.sol\":25615:25631  _owners[tokenId] */\n      0x20\n      mstore\n      0x40\n      dup2\n      keccak256\n      sload\n      sub(shl(0xa0, 0x01), 0x01)\n      and\n      dup1\n        /* \"contracts/FNFT.sol\":25641:25714  require(owner != address(0), \"ERC721: owner query for nonexistent token\") */\n      tag_164\n      jumpi\n      mload(0x40)\n      shl(0xe5, 0x461bcd)\n      dup2\n      mstore\n        /* \"#utility.yul\":10757:10759   */\n      0x20\n        /* \"contracts/FNFT.sol\":25641:25714  require(owner != address(0), \"ERC721: owner query for nonexistent token\") */\n      0x04\n      dup3\n      add\n        /* \"#utility.yul\":10739:10760   */\n      mstore\n        /* \"#utility.yul\":10796:10798   */\n      0x29\n        /* \"#utility.yul\":10776:10794   */\n      0x24\n      dup3\n      add\n        /* \"#utility.yul\":10769:10799   */\n      mstore\n        /* \"#utility.yul\":10835:10869   */\n      0x4552433732313a206f776e657220717565727920666f72206e6f6e6578697374\n        /* \"#utility.yul\":10815:10833   */\n      0x44\n      dup3\n      add\n        /* \"#utility.yul\":10808:10870   */\n      mstore\n      shl(0xb9, 0x32b73a103a37b5b2b7)\n        /* \"#utility.yul\":10886:10904   */\n      0x64\n      dup3\n      add\n        /* \"#utility.yul\":10879:10918   */\n      mstore\n        /* \"#utility.yul\":10935:10954   */\n      0x84\n      add\n        /* \"contracts/FNFT.sol\":25641:25714  require(owner != address(0), \"ERC721: owner query for nonexistent token\") */\n      tag_177\n        /* \"#utility.yul\":10555:10960   */\n      jump\n        /* \"contracts/FNFT.sol\":40280:40380  function setMaxSupply(uint256 maxSupply_) external onlyOwner {... */\n    tag_96:\n        /* \"contracts/FNFT.sol\":5516:5522  _owner */\n      and(sub(shl(0xa0, 0x01), 0x01), sload(0x07))\n        /* \"contracts/FNFT.sol\":4291:4301  msg.sender */\n      caller\n        /* \"contracts/FNFT.sol\":5656:5679  owner() == _msgSender() */\n      eq\n        /* \"contracts/FNFT.sol\":5648:5716  require(owner() == _msgSender(), \"Ownable: caller is not the owner\") */\n      tag_248\n      jumpi\n      mload(0x40)\n      shl(0xe5, 0x461bcd)\n      dup2\n      mstore\n      0x04\n      add\n      tag_177\n      swap1\n      tag_250\n      jump\t// in\n    tag_248:\n        /* \"contracts/FNFT.sol\":40351:40360  maxSupply */\n      0x0a\n        /* \"contracts/FNFT.sol\":40351:40373  maxSupply = maxSupply_ */\n      sstore\n        /* \"contracts/FNFT.sol\":40280:40380  function setMaxSupply(uint256 maxSupply_) external onlyOwner {... */\n      jump\t// out\n        /* \"contracts/FNFT.sol\":25246:25451  function balanceOf(address owner) public view virtual override returns (uint256) {... */\n    tag_101:\n        /* \"contracts/FNFT.sol\":25318:25325  uint256 */\n      0x00\n      sub(shl(0xa0, 0x01), 0x01)\n        /* \"contracts/FNFT.sol\":25345:25364  owner != address(0) */\n      dup3\n      and\n        /* \"contracts/FNFT.sol\":25337:25411  require(owner != address(0), \"ERC721: balance query for the zero address\") */\n      tag_253\n      jumpi\n      mload(0x40)\n      shl(0xe5, 0x461bcd)\n      dup2\n      mstore\n        /* \"#utility.yul\":11528:11530   */\n      0x20\n        /* \"contracts/FNFT.sol\":25337:25411  require(owner != address(0), \"ERC721: balance query for the zero address\") */\n      0x04\n      dup3\n      add\n        /* \"#utility.yul\":11510:11531   */\n      mstore\n        /* \"#utility.yul\":11567:11569   */\n      0x2a\n        /* \"#utility.yul\":11547:11565   */\n      0x24\n      dup3\n      add\n        /* \"#utility.yul\":11540:11570   */\n      mstore\n        /* \"#utility.yul\":11606:11640   */\n      0x4552433732313a2062616c616e636520717565727920666f7220746865207a65\n        /* \"#utility.yul\":11586:11604   */\n      0x44\n      dup3\n      add\n        /* \"#utility.yul\":11579:11641   */\n      mstore\n      shl(0xb0, 0x726f2061646472657373)\n        /* \"#utility.yul\":11657:11675   */\n      0x64\n      dup3\n      add\n        /* \"#utility.yul\":11650:11690   */\n      mstore\n        /* \"#utility.yul\":11707:11726   */\n      0x84\n      add\n        /* \"contracts/FNFT.sol\":25337:25411  require(owner != address(0), \"ERC721: balance query for the zero address\") */\n      tag_177\n        /* \"#utility.yul\":11326:11732   */\n      jump\n        /* \"contracts/FNFT.sol\":25337:25411  require(owner != address(0), \"ERC721: balance query for the zero address\") */\n    tag_253:\n      pop\n      sub(shl(0xa0, 0x01), 0x01)\n        /* \"contracts/FNFT.sol\":25428:25444  _balances[owner] */\n      and\n      0x00\n      swap1\n      dup2\n      mstore\n        /* \"contracts/FNFT.sol\":25428:25437  _balances */\n      0x03\n        /* \"contracts/FNFT.sol\":25428:25444  _balances[owner] */\n      0x20\n      mstore\n      0x40\n      swap1\n      keccak256\n      sload\n      swap1\n        /* \"contracts/FNFT.sol\":25246:25451  function balanceOf(address owner) public view virtual override returns (uint256) {... */\n      jump\t// out\n        /* \"contracts/FNFT.sol\":6076:6177  function renounceOwnership() public virtual onlyOwner {... */\n    tag_105:\n        /* \"contracts/FNFT.sol\":5516:5522  _owner */\n      and(sub(shl(0xa0, 0x01), 0x01), sload(0x07))\n        /* \"contracts/FNFT.sol\":4291:4301  msg.sender */\n      caller\n        /* \"contracts/FNFT.sol\":5656:5679  owner() == _msgSender() */\n      eq\n        /* \"contracts/FNFT.sol\":5648:5716  require(owner() == _msgSender(), \"Ownable: caller is not the owner\") */\n      tag_259\n      jumpi\n      mload(0x40)\n      shl(0xe5, 0x461bcd)\n      dup2\n      mstore\n      0x04\n      add\n      tag_177\n      swap1\n      tag_250\n      jump\t// in\n    tag_259:\n        /* \"contracts/FNFT.sol\":6140:6170  _transferOwnership(address(0)) */\n      tag_262\n        /* \"contracts/FNFT.sol\":6167:6168  0 */\n      0x00\n        /* \"contracts/FNFT.sol\":6140:6158  _transferOwnership */\n      tag_263\n        /* \"contracts/FNFT.sol\":6140:6170  _transferOwnership(address(0)) */\n      jump\t// in\n    tag_262:\n        /* \"contracts/FNFT.sol\":6076:6177  function renounceOwnership() public virtual onlyOwner {... */\n      jump\t// out\n        /* \"contracts/FNFT.sol\":40168:40274  function toggleInMintEnabled() external onlyOwner {... */\n    tag_108:\n        /* \"contracts/FNFT.sol\":5516:5522  _owner */\n      and(sub(shl(0xa0, 0x01), 0x01), sload(0x07))\n        /* \"contracts/FNFT.sol\":4291:4301  msg.sender */\n      caller\n        /* \"contracts/FNFT.sol\":5656:5679  owner() == _msgSender() */\n      eq\n        /* \"contracts/FNFT.sol\":5648:5716  require(owner() == _msgSender(), \"Ownable: caller is not the owner\") */\n      tag_267\n      jumpi\n      mload(0x40)\n      shl(0xe5, 0x461bcd)\n      dup2\n      mstore\n      0x04\n      add\n      tag_177\n      swap1\n      tag_250\n      jump\t// in\n    tag_267:\n        /* \"contracts/FNFT.sol\":40245:40258  isMintEnabled */\n      0x0b\n      dup1\n      sload\n      not(0xff)\n        /* \"contracts/FNFT.sol\":40228:40258  isMintEnabled = !isMintEnabled */\n      dup2\n      and\n        /* \"contracts/FNFT.sol\":40245:40258  isMintEnabled */\n      0xff\n      swap1\n      swap2\n      and\n        /* \"contracts/FNFT.sol\":40244:40258  !isMintEnabled */\n      iszero\n        /* \"contracts/FNFT.sol\":40228:40258  isMintEnabled = !isMintEnabled */\n      or\n      swap1\n      sstore\n        /* \"contracts/FNFT.sol\":40168:40274  function toggleInMintEnabled() external onlyOwner {... */\n      jump\t// out\n        /* \"contracts/FNFT.sol\":25967:26069  function symbol() public view virtual override returns (string memory) {... */\n    tag_115:\n        /* \"contracts/FNFT.sol\":26023:26036  string memory */\n      0x60\n        /* \"contracts/FNFT.sol\":26055:26062  _symbol */\n      0x01\n        /* \"contracts/FNFT.sol\":26048:26062  return _symbol */\n      dup1\n      sload\n      tag_167\n      swap1\n      tag_168\n      jump\t// in\n        /* \"contracts/FNFT.sol\":41720:41836  function isContentOwned(string memory uri) public view returns (bool) {... */\n    tag_121:\n        /* \"contracts/FNFT.sol\":41784:41788  bool */\n      0x00\n        /* \"contracts/FNFT.sol\":41807:41819  existingURIs */\n      0x0e\n        /* \"contracts/FNFT.sol\":41820:41823  uri */\n      dup3\n        /* \"contracts/FNFT.sol\":41807:41824  existingURIs[uri] */\n      mload(0x40)\n      tag_278\n      swap2\n      swap1\n      tag_225\n      jump\t// in\n    tag_278:\n      swap1\n      dup2\n      mstore\n      mload(0x40)\n      swap1\n      dup2\n      swap1\n      sub\n      0x20\n      add\n      swap1\n      keccak256\n      sload\n      0xff\n      and\n      0x01\n        /* \"contracts/FNFT.sol\":41807:41829  existingURIs[uri] == 1 */\n      eq\n      swap3\n        /* \"contracts/FNFT.sol\":41720:41836  function isContentOwned(string memory uri) public view returns (bool) {... */\n      swap2\n      pop\n      pop\n      jump\t// out\n        /* \"contracts/FNFT.sol\":27600:27753  function setApprovalForAll(address operator, bool approved) public virtual override {... */\n    tag_127:\n        /* \"contracts/FNFT.sol\":27694:27746  _setApprovalForAll(_msgSender(), operator, approved) */\n      tag_280\n        /* \"contracts/FNFT.sol\":4291:4301  msg.sender */\n      caller\n        /* \"contracts/FNFT.sol\":27727:27735  operator */\n      dup4\n        /* \"contracts/FNFT.sol\":27737:27745  approved */\n      dup4\n        /* \"contracts/FNFT.sol\":27694:27712  _setApprovalForAll */\n      tag_282\n        /* \"contracts/FNFT.sol\":27694:27746  _setApprovalForAll(_msgSender(), operator, approved) */\n      jump\t// in\n    tag_280:\n        /* \"contracts/FNFT.sol\":27600:27753  function setApprovalForAll(address operator, bool approved) public virtual override {... */\n      pop\n      pop\n      jump\t// out\n        /* \"contracts/FNFT.sol\":28684:29004  function safeTransferFrom(... */\n    tag_137:\n        /* \"contracts/FNFT.sol\":28853:28894  _isApprovedOrOwner(_msgSender(), tokenId) */\n      tag_284\n        /* \"contracts/FNFT.sol\":4291:4301  msg.sender */\n      caller\n        /* \"contracts/FNFT.sol\":28886:28893  tokenId */\n      dup4\n        /* \"contracts/FNFT.sol\":28853:28871  _isApprovedOrOwner */\n      tag_215\n        /* \"contracts/FNFT.sol\":28853:28894  _isApprovedOrOwner(_msgSender(), tokenId) */\n      jump\t// in\n    tag_284:\n        /* \"contracts/FNFT.sol\":28845:28948  require(_isApprovedOrOwner(_msgSender(), tokenId), \"ERC721: transfer caller is not owner nor approved\") */\n      tag_286\n      jumpi\n      mload(0x40)\n      shl(0xe5, 0x461bcd)\n      dup2\n      mstore\n      0x04\n      add\n      tag_177\n      swap1\n      tag_218\n      jump\t// in\n    tag_286:\n        /* \"contracts/FNFT.sol\":28958:28997  _safeTransfer(from, to, tokenId, _data) */\n      tag_288\n        /* \"contracts/FNFT.sol\":28972:28976  from */\n      dup5\n        /* \"contracts/FNFT.sol\":28978:28980  to */\n      dup5\n        /* \"contracts/FNFT.sol\":28982:28989  tokenId */\n      dup5\n        /* \"contracts/FNFT.sol\":28991:28996  _data */\n      dup5\n        /* \"contracts/FNFT.sol\":28958:28971  _safeTransfer */\n      tag_289\n        /* \"contracts/FNFT.sol\":28958:28997  _safeTransfer(from, to, tokenId, _data) */\n      jump\t// in\n    tag_288:\n        /* \"contracts/FNFT.sol\":28684:29004  function safeTransferFrom(... */\n      pop\n      pop\n      pop\n      pop\n      jump\t// out\n        /* \"contracts/FNFT.sol\":41481:41670  function tokenURI(uint256 tokenId)... */\n    tag_141:\n        /* \"contracts/FNFT.sol\":41604:41617  string memory */\n      0x60\n        /* \"contracts/FNFT.sol\":41640:41663  super.tokenURI(tokenId) */\n      tag_164\n        /* \"contracts/FNFT.sol\":41655:41662  tokenId */\n      dup3\n        /* \"contracts/FNFT.sol\":41640:41654  super.tokenURI */\n      tag_292\n        /* \"contracts/FNFT.sol\":41640:41663  super.tokenURI(tokenId) */\n      jump\t// in\n        /* \"contracts/FNFT.sol\":41057:41288  function safeMint(address to, string memory uri) public onlyOwner {... */\n    tag_146:\n        /* \"contracts/FNFT.sol\":5516:5522  _owner */\n      and(sub(shl(0xa0, 0x01), 0x01), sload(0x07))\n        /* \"contracts/FNFT.sol\":4291:4301  msg.sender */\n      caller\n        /* \"contracts/FNFT.sol\":5656:5679  owner() == _msgSender() */\n      eq\n        /* \"contracts/FNFT.sol\":5648:5716  require(owner() == _msgSender(), \"Ownable: caller is not the owner\") */\n      tag_296\n      jumpi\n      mload(0x40)\n      shl(0xe5, 0x461bcd)\n      dup2\n      mstore\n      0x04\n      add\n      tag_177\n      swap1\n      tag_250\n      jump\t// in\n    tag_296:\n        /* \"contracts/FNFT.sol\":41133:41148  uint256 tokenId */\n      0x00\n        /* \"contracts/FNFT.sol\":41151:41176  _tokenIdCounter.current() */\n      tag_299\n        /* \"contracts/FNFT.sol\":41151:41166  _tokenIdCounter */\n      0x0d\n        /* \"contracts/FNFT.sol\":1018:1032  counter._value */\n      sload\n      swap1\n        /* \"contracts/FNFT.sol\":927:1039  function current(Counter storage counter) internal view returns (uint256) {... */\n      jump\n        /* \"contracts/FNFT.sol\":41151:41176  _tokenIdCounter.current() */\n    tag_299:\n        /* \"contracts/FNFT.sol\":41133:41176  uint256 tokenId = _tokenIdCounter.current() */\n      swap1\n      pop\n        /* \"contracts/FNFT.sol\":41186:41213  _tokenIdCounter.increment() */\n      tag_300\n        /* \"contracts/FNFT.sol\":41186:41201  _tokenIdCounter */\n      0x0d\n        /* \"contracts/FNFT.sol\":1132:1151  counter._value += 1 */\n      dup1\n      sload\n        /* \"contracts/FNFT.sol\":1150:1151  1 */\n      0x01\n        /* \"contracts/FNFT.sol\":1132:1151  counter._value += 1 */\n      add\n      swap1\n      sstore\n        /* \"contracts/FNFT.sol\":1045:1168  function increment(Counter storage counter) internal {... */\n      jump\n        /* \"contracts/FNFT.sol\":41186:41213  _tokenIdCounter.increment() */\n    tag_300:\n        /* \"contracts/FNFT.sol\":41223:41245  _safeMint(to, tokenId) */\n      tag_301\n        /* \"contracts/FNFT.sol\":41233:41235  to */\n      dup4\n        /* \"contracts/FNFT.sol\":41237:41244  tokenId */\n      dup3\n        /* \"contracts/FNFT.sol\":41223:41232  _safeMint */\n      tag_211\n        /* \"contracts/FNFT.sol\":41223:41245  _safeMint(to, tokenId) */\n      jump\t// in\n    tag_301:\n        /* \"contracts/FNFT.sol\":41255:41281  _setTokenURI(tokenId, uri) */\n      tag_192\n        /* \"contracts/FNFT.sol\":41268:41275  tokenId */\n      dup2\n        /* \"contracts/FNFT.sol\":41277:41280  uri */\n      dup4\n        /* \"contracts/FNFT.sol\":41255:41267  _setTokenURI */\n      tag_240\n        /* \"contracts/FNFT.sol\":41255:41281  _setTokenURI(tokenId, uri) */\n      jump\t// in\n        /* \"contracts/FNFT.sol\":6326:6524  function transferOwnership(address newOwner) public virtual onlyOwner {... */\n    tag_160:\n        /* \"contracts/FNFT.sol\":5516:5522  _owner */\n      and(sub(shl(0xa0, 0x01), 0x01), sload(0x07))\n        /* \"contracts/FNFT.sol\":4291:4301  msg.sender */\n      caller\n        /* \"contracts/FNFT.sol\":5656:5679  owner() == _msgSender() */\n      eq\n        /* \"contracts/FNFT.sol\":5648:5716  require(owner() == _msgSender(), \"Ownable: caller is not the owner\") */\n      tag_307\n      jumpi\n      mload(0x40)\n      shl(0xe5, 0x461bcd)\n      dup2\n      mstore\n      0x04\n      add\n      tag_177\n      swap1\n      tag_250\n      jump\t// in\n    tag_307:\n      sub(shl(0xa0, 0x01), 0x01)\n        /* \"contracts/FNFT.sol\":6414:6436  newOwner != address(0) */\n      dup2\n      and\n        /* \"contracts/FNFT.sol\":6406:6479  require(newOwner != address(0), \"Ownable: new owner is the zero address\") */\n      tag_310\n      jumpi\n      mload(0x40)\n      shl(0xe5, 0x461bcd)\n      dup2\n      mstore\n        /* \"#utility.yul\":11939:11941   */\n      0x20\n        /* \"contracts/FNFT.sol\":6406:6479  require(newOwner != address(0), \"Ownable: new owner is the zero address\") */\n      0x04\n      dup3\n      add\n        /* \"#utility.yul\":11921:11942   */\n      mstore\n        /* \"#utility.yul\":11978:11980   */\n      0x26\n        /* \"#utility.yul\":11958:11976   */\n      0x24\n      dup3\n      add\n        /* \"#utility.yul\":11951:11981   */\n      mstore\n        /* \"#utility.yul\":12017:12051   */\n      0x4f776e61626c653a206e6577206f776e657220697320746865207a65726f2061\n        /* \"#utility.yul\":11997:12015   */\n      0x44\n      dup3\n      add\n        /* \"#utility.yul\":11990:12052   */\n      mstore\n      shl(0xd0, 0x646472657373)\n        /* \"#utility.yul\":12068:12086   */\n      0x64\n      dup3\n      add\n        /* \"#utility.yul\":12061:12097   */\n      mstore\n        /* \"#utility.yul\":12114:12133   */\n      0x84\n      add\n        /* \"contracts/FNFT.sol\":6406:6479  require(newOwner != address(0), \"Ownable: new owner is the zero address\") */\n      tag_177\n        /* \"#utility.yul\":11737:12139   */\n      jump\n        /* \"contracts/FNFT.sol\":6406:6479  require(newOwner != address(0), \"Ownable: new owner is the zero address\") */\n    tag_310:\n        /* \"contracts/FNFT.sol\":6489:6517  _transferOwnership(newOwner) */\n      tag_210\n        /* \"contracts/FNFT.sol\":6508:6516  newOwner */\n      dup2\n        /* \"contracts/FNFT.sol\":6489:6507  _transferOwnership */\n      tag_263\n        /* \"contracts/FNFT.sol\":6489:6517  _transferOwnership(newOwner) */\n      jump\t// in\n        /* \"contracts/FNFT.sol\":30476:30601  function _exists(uint256 tokenId) internal view virtual returns (bool) {... */\n    tag_175:\n        /* \"contracts/FNFT.sol\":30541:30545  bool */\n      0x00\n        /* \"contracts/FNFT.sol\":30564:30580  _owners[tokenId] */\n      swap1\n      dup2\n      mstore\n        /* \"contracts/FNFT.sol\":30564:30571  _owners */\n      0x02\n        /* \"contracts/FNFT.sol\":30564:30580  _owners[tokenId] */\n      0x20\n      mstore\n      0x40\n      swap1\n      keccak256\n      sload\n      sub(shl(0xa0, 0x01), 0x01)\n      and\n        /* \"contracts/FNFT.sol\":30564:30594  _owners[tokenId] != address(0) */\n      iszero\n      iszero\n      swap1\n        /* \"contracts/FNFT.sol\":30476:30601  function _exists(uint256 tokenId) internal view virtual returns (bool) {... */\n      jump\t// out\n        /* \"contracts/FNFT.sol\":34485:34656  function _approve(address to, uint256 tokenId) internal virtual {... */\n    tag_193:\n        /* \"contracts/FNFT.sol\":34559:34583  _tokenApprovals[tokenId] */\n      0x00\n      dup2\n      dup2\n      mstore\n        /* \"contracts/FNFT.sol\":34559:34574  _tokenApprovals */\n      0x04\n        /* \"contracts/FNFT.sol\":34559:34583  _tokenApprovals[tokenId] */\n      0x20\n      mstore\n      0x40\n      swap1\n      keccak256\n        /* \"contracts/FNFT.sol\":34559:34588  _tokenApprovals[tokenId] = to */\n      dup1\n      sload\n      not(sub(shl(0xa0, 0x01), 0x01))\n      and\n      sub(shl(0xa0, 0x01), 0x01)\n      dup5\n      and\n      swap1\n      dup2\n      or\n      swap1\n      swap2\n      sstore\n        /* \"contracts/FNFT.sol\":34559:34583  _tokenApprovals[tokenId] */\n      dup2\n      swap1\n        /* \"contracts/FNFT.sol\":34612:34635  ERC721.ownerOf(tokenId) */\n      tag_318\n        /* \"contracts/FNFT.sol\":34559:34583  _tokenApprovals[tokenId] */\n      dup3\n        /* \"contracts/FNFT.sol\":34612:34626  ERC721.ownerOf */\n      tag_87\n        /* \"contracts/FNFT.sol\":34612:34635  ERC721.ownerOf(tokenId) */\n      jump\t// in\n    tag_318:\n      sub(shl(0xa0, 0x01), 0x01)\n        /* \"contracts/FNFT.sol\":34603:34649  Approval(ERC721.ownerOf(tokenId), to, tokenId) */\n      and\n      0x8c5be1e5ebec7d5bd14f71427d1e84f3dd0314c0f7b2291e5b200ac8c7c3b925\n      mload(0x40)\n      mload(0x40)\n      dup1\n      swap2\n      sub\n      swap1\n      log4\n        /* \"contracts/FNFT.sol\":34485:34656  function _approve(address to, uint256 tokenId) internal virtual {... */\n      pop\n      pop\n      jump\t// out\n        /* \"contracts/FNFT.sol\":31433:31541  function _safeMint(address to, uint256 tokenId) internal virtual {... */\n    tag_211:\n        /* \"contracts/FNFT.sol\":31508:31534  _safeMint(to, tokenId, \"\") */\n      tag_280\n        /* \"contracts/FNFT.sol\":31518:31520  to */\n      dup3\n        /* \"contracts/FNFT.sol\":31522:31529  tokenId */\n      dup3\n        /* \"contracts/FNFT.sol\":31508:31534  _safeMint(to, tokenId, \"\") */\n      mload(0x40)\n      dup1\n      0x20\n      add\n      0x40\n      mstore\n      dup1\n      0x00\n      dup2\n      mstore\n      pop\n        /* \"contracts/FNFT.sol\":31508:31517  _safeMint */\n      tag_321\n        /* \"contracts/FNFT.sol\":31508:31534  _safeMint(to, tokenId, \"\") */\n      jump\t// in\n        /* \"contracts/FNFT.sol\":30759:31103  function _isApprovedOrOwner(address spender, uint256 tokenId) internal view virtual returns (bool) {... */\n    tag_215:\n        /* \"contracts/FNFT.sol\":30852:30856  bool */\n      0x00\n        /* \"contracts/FNFT.sol\":30876:30892  _exists(tokenId) */\n      tag_323\n        /* \"contracts/FNFT.sol\":30884:30891  tokenId */\n      dup3\n        /* \"contracts/FNFT.sol\":30876:30883  _exists */\n      tag_175\n        /* \"contracts/FNFT.sol\":30876:30892  _exists(tokenId) */\n      jump\t// in\n    tag_323:\n        /* \"contracts/FNFT.sol\":30868:30941  require(_exists(tokenId), \"ERC721: operator query for nonexistent token\") */\n      tag_324\n      jumpi\n      mload(0x40)\n      shl(0xe5, 0x461bcd)\n      dup2\n      mstore\n        /* \"#utility.yul\":12346:12348   */\n      0x20\n        /* \"contracts/FNFT.sol\":30868:30941  require(_exists(tokenId), \"ERC721: operator query for nonexistent token\") */\n      0x04\n      dup3\n      add\n        /* \"#utility.yul\":12328:12349   */\n      mstore\n        /* \"#utility.yul\":12385:12387   */\n      0x2c\n        /* \"#utility.yul\":12365:12383   */\n      0x24\n      dup3\n      add\n        /* \"#utility.yul\":12358:12388   */\n      mstore\n        /* \"#utility.yul\":12424:12458   */\n      0x4552433732313a206f70657261746f7220717565727920666f72206e6f6e6578\n        /* \"#utility.yul\":12404:12422   */\n      0x44\n      dup3\n      add\n        /* \"#utility.yul\":12397:12459   */\n      mstore\n      shl(0xa1, 0x34b9ba32b73a103a37b5b2b7)\n        /* \"#utility.yul\":12475:12493   */\n      0x64\n      dup3\n      add\n        /* \"#utility.yul\":12468:12510   */\n      mstore\n        /* \"#utility.yul\":12527:12546   */\n      0x84\n      add\n        /* \"contracts/FNFT.sol\":30868:30941  require(_exists(tokenId), \"ERC721: operator query for nonexistent token\") */\n      tag_177\n        /* \"#utility.yul\":12144:12552   */\n      jump\n        /* \"contracts/FNFT.sol\":30868:30941  require(_exists(tokenId), \"ERC721: operator query for nonexistent token\") */\n    tag_324:\n        /* \"contracts/FNFT.sol\":30951:30964  address owner */\n      0x00\n        /* \"contracts/FNFT.sol\":30967:30990  ERC721.ownerOf(tokenId) */\n      tag_327\n        /* \"contracts/FNFT.sol\":30982:30989  tokenId */\n      dup4\n        /* \"contracts/FNFT.sol\":30967:30981  ERC721.ownerOf */\n      tag_87\n        /* \"contracts/FNFT.sol\":30967:30990  ERC721.ownerOf(tokenId) */\n      jump\t// in\n    tag_327:\n        /* \"contracts/FNFT.sol\":30951:30990  address owner = ERC721.ownerOf(tokenId) */\n      swap1\n      pop\n        /* \"contracts/FNFT.sol\":31019:31024  owner */\n      dup1\n      sub(shl(0xa0, 0x01), 0x01)\n        /* \"contracts/FNFT.sol\":31008:31024  spender == owner */\n      and\n        /* \"contracts/FNFT.sol\":31008:31015  spender */\n      dup5\n      sub(shl(0xa0, 0x01), 0x01)\n        /* \"contracts/FNFT.sol\":31008:31024  spender == owner */\n      and\n      eq\n        /* \"contracts/FNFT.sol\":31008:31059  spender == owner || getApproved(tokenId) == spender */\n      dup1\n      tag_328\n      jumpi\n      pop\n        /* \"contracts/FNFT.sol\":31052:31059  spender */\n      dup4\n      sub(shl(0xa0, 0x01), 0x01)\n        /* \"contracts/FNFT.sol\":31028:31059  getApproved(tokenId) == spender */\n      and\n        /* \"contracts/FNFT.sol\":31028:31048  getApproved(tokenId) */\n      tag_329\n        /* \"contracts/FNFT.sol\":31040:31047  tokenId */\n      dup5\n        /* \"contracts/FNFT.sol\":31028:31039  getApproved */\n      tag_51\n        /* \"contracts/FNFT.sol\":31028:31048  getApproved(tokenId) */\n      jump\t// in\n    tag_329:\n      sub(shl(0xa0, 0x01), 0x01)\n        /* \"contracts/FNFT.sol\":31028:31059  getApproved(tokenId) == spender */\n      and\n      eq\n        /* \"contracts/FNFT.sol\":31008:31059  spender == owner || getApproved(tokenId) == spender */\n    tag_328:\n        /* \"contracts/FNFT.sol\":31008:31095  spender == owner || getApproved(tokenId) == spender || isApprovedForAll(owner, spender) */\n      dup1\n      tag_331\n      jumpi\n      pop\n      sub(shl(0xa0, 0x01), 0x01)\n        /* \"contracts/FNFT.sol\":27939:27964  _operatorApprovals[owner] */\n      dup1\n      dup3\n      and\n        /* \"contracts/FNFT.sol\":27916:27920  bool */\n      0x00\n        /* \"contracts/FNFT.sol\":27939:27964  _operatorApprovals[owner] */\n      swap1\n      dup2\n      mstore\n        /* \"contracts/FNFT.sol\":27939:27957  _operatorApprovals */\n      0x05\n        /* \"contracts/FNFT.sol\":27939:27964  _operatorApprovals[owner] */\n      0x20\n      swap1\n      dup2\n      mstore\n      0x40\n      dup1\n      dup4\n      keccak256\n        /* \"contracts/FNFT.sol\":27939:27974  _operatorApprovals[owner][operator] */\n      swap4\n      dup9\n      and\n      dup4\n      mstore\n      swap3\n      swap1\n      mstore\n      keccak256\n      sload\n      0xff\n      and\n        /* \"contracts/FNFT.sol\":31063:31095  isApprovedForAll(owner, spender) */\n    tag_331:\n        /* \"contracts/FNFT.sol\":31000:31096  return (spender == owner || getApproved(tokenId) == spender || isApprovedForAll(owner, spender)) */\n      swap5\n        /* \"contracts/FNFT.sol\":30759:31103  function _isApprovedOrOwner(address spender, uint256 tokenId) internal view virtual returns (bool) {... */\n      swap4\n      pop\n      pop\n      pop\n      pop\n      jump\t// out\n        /* \"contracts/FNFT.sol\":33769:34374  function _transfer(... */\n    tag_220:\n        /* \"contracts/FNFT.sol\":33923:33927  from */\n      dup3\n      sub(shl(0xa0, 0x01), 0x01)\n        /* \"contracts/FNFT.sol\":33896:33927  ERC721.ownerOf(tokenId) == from */\n      and\n        /* \"contracts/FNFT.sol\":33896:33919  ERC721.ownerOf(tokenId) */\n      tag_333\n        /* \"contracts/FNFT.sol\":33911:33918  tokenId */\n      dup3\n        /* \"contracts/FNFT.sol\":33896:33910  ERC721.ownerOf */\n      tag_87\n        /* \"contracts/FNFT.sol\":33896:33919  ERC721.ownerOf(tokenId) */\n      jump\t// in\n    tag_333:\n      sub(shl(0xa0, 0x01), 0x01)\n        /* \"contracts/FNFT.sol\":33896:33927  ERC721.ownerOf(tokenId) == from */\n      and\n      eq\n        /* \"contracts/FNFT.sol\":33888:33969  require(ERC721.ownerOf(tokenId) == from, \"ERC721: transfer from incorrect owner\") */\n      tag_334\n      jumpi\n      mload(0x40)\n      shl(0xe5, 0x461bcd)\n      dup2\n      mstore\n        /* \"#utility.yul\":12759:12761   */\n      0x20\n        /* \"contracts/FNFT.sol\":33888:33969  require(ERC721.ownerOf(tokenId) == from, \"ERC721: transfer from incorrect owner\") */\n      0x04\n      dup3\n      add\n        /* \"#utility.yul\":12741:12762   */\n      mstore\n        /* \"#utility.yul\":12798:12800   */\n      0x25\n        /* \"#utility.yul\":12778:12796   */\n      0x24\n      dup3\n      add\n        /* \"#utility.yul\":12771:12801   */\n      mstore\n        /* \"#utility.yul\":12837:12871   */\n      0x4552433732313a207472616e736665722066726f6d20696e636f727265637420\n        /* \"#utility.yul\":12817:12835   */\n      0x44\n      dup3\n      add\n        /* \"#utility.yul\":12810:12872   */\n      mstore\n      shl(0xd9, 0x37bbb732b9)\n        /* \"#utility.yul\":12888:12906   */\n      0x64\n      dup3\n      add\n        /* \"#utility.yul\":12881:12916   */\n      mstore\n        /* \"#utility.yul\":12933:12952   */\n      0x84\n      add\n        /* \"contracts/FNFT.sol\":33888:33969  require(ERC721.ownerOf(tokenId) == from, \"ERC721: transfer from incorrect owner\") */\n      tag_177\n        /* \"#utility.yul\":12557:12958   */\n      jump\n        /* \"contracts/FNFT.sol\":33888:33969  require(ERC721.ownerOf(tokenId) == from, \"ERC721: transfer from incorrect owner\") */\n    tag_334:\n      sub(shl(0xa0, 0x01), 0x01)\n        /* \"contracts/FNFT.sol\":33987:34003  to != address(0) */\n      dup3\n      and\n        /* \"contracts/FNFT.sol\":33979:34044  require(to != address(0), \"ERC721: transfer to the zero address\") */\n      tag_337\n      jumpi\n      mload(0x40)\n      shl(0xe5, 0x461bcd)\n      dup2\n      mstore\n        /* \"#utility.yul\":13165:13167   */\n      0x20\n        /* \"contracts/FNFT.sol\":33979:34044  require(to != address(0), \"ERC721: transfer to the zero address\") */\n      0x04\n      dup3\n      add\n        /* \"#utility.yul\":13147:13168   */\n      mstore\n        /* \"#utility.yul\":13204:13206   */\n      0x24\n        /* \"#utility.yul\":13184:13202   */\n      dup1\n      dup3\n      add\n        /* \"#utility.yul\":13177:13207   */\n      mstore\n        /* \"#utility.yul\":13243:13277   */\n      0x4552433732313a207472616e7366657220746f20746865207a65726f20616464\n        /* \"#utility.yul\":13223:13241   */\n      0x44\n      dup3\n      add\n        /* \"#utility.yul\":13216:13278   */\n      mstore\n      shl(0xe0, 0x72657373)\n        /* \"#utility.yul\":13294:13312   */\n      0x64\n      dup3\n      add\n        /* \"#utility.yul\":13287:13321   */\n      mstore\n        /* \"#utility.yul\":13338:13357   */\n      0x84\n      add\n        /* \"contracts/FNFT.sol\":33979:34044  require(to != address(0), \"ERC721: transfer to the zero address\") */\n      tag_177\n        /* \"#utility.yul\":12963:13363   */\n      jump\n        /* \"contracts/FNFT.sol\":33979:34044  require(to != address(0), \"ERC721: transfer to the zero address\") */\n    tag_337:\n        /* \"contracts/FNFT.sol\":34156:34185  _approve(address(0), tokenId) */\n      tag_342\n        /* \"contracts/FNFT.sol\":34173:34174  0 */\n      0x00\n        /* \"contracts/FNFT.sol\":34177:34184  tokenId */\n      dup3\n        /* \"contracts/FNFT.sol\":34156:34164  _approve */\n      tag_193\n        /* \"contracts/FNFT.sol\":34156:34185  _approve(address(0), tokenId) */\n      jump\t// in\n    tag_342:\n      sub(shl(0xa0, 0x01), 0x01)\n        /* \"contracts/FNFT.sol\":34196:34211  _balances[from] */\n      dup4\n      and\n      0x00\n      swap1\n      dup2\n      mstore\n        /* \"contracts/FNFT.sol\":34196:34205  _balances */\n      0x03\n        /* \"contracts/FNFT.sol\":34196:34211  _balances[from] */\n      0x20\n      mstore\n      0x40\n      dup2\n      keccak256\n        /* \"contracts/FNFT.sol\":34196:34216  _balances[from] -= 1 */\n      dup1\n      sload\n        /* \"contracts/FNFT.sol\":34215:34216  1 */\n      0x01\n      swap3\n        /* \"contracts/FNFT.sol\":34196:34211  _balances[from] */\n      swap1\n        /* \"contracts/FNFT.sol\":34196:34216  _balances[from] -= 1 */\n      tag_343\n      swap1\n        /* \"contracts/FNFT.sol\":34215:34216  1 */\n      dup5\n      swap1\n        /* \"contracts/FNFT.sol\":34196:34216  _balances[from] -= 1 */\n      tag_344\n      jump\t// in\n    tag_343:\n      swap1\n      swap2\n      sstore\n      pop\n      pop\n      sub(shl(0xa0, 0x01), 0x01)\n        /* \"contracts/FNFT.sol\":34226:34239  _balances[to] */\n      dup3\n      and\n      0x00\n      swap1\n      dup2\n      mstore\n        /* \"contracts/FNFT.sol\":34226:34235  _balances */\n      0x03\n        /* \"contracts/FNFT.sol\":34226:34239  _balances[to] */\n      0x20\n      mstore\n      0x40\n      dup2\n      keccak256\n        /* \"contracts/FNFT.sol\":34226:34244  _balances[to] += 1 */\n      dup1\n      sload\n        /* \"contracts/FNFT.sol\":34243:34244  1 */\n      0x01\n      swap3\n        /* \"contracts/FNFT.sol\":34226:34239  _balances[to] */\n      swap1\n        /* \"contracts/FNFT.sol\":34226:34244  _balances[to] += 1 */\n      tag_345\n      swap1\n        /* \"contracts/FNFT.sol\":34243:34244  1 */\n      dup5\n      swap1\n        /* \"contracts/FNFT.sol\":34226:34244  _balances[to] += 1 */\n      tag_346\n      jump\t// in\n    tag_345:\n      swap1\n      swap2\n      sstore\n      pop\n      pop\n        /* \"contracts/FNFT.sol\":34254:34270  _owners[tokenId] */\n      0x00\n      dup2\n      dup2\n      mstore\n        /* \"contracts/FNFT.sol\":34254:34261  _owners */\n      0x02\n        /* \"contracts/FNFT.sol\":34254:34270  _owners[tokenId] */\n      0x20\n      mstore\n      0x40\n      dup1\n      dup3\n      keccak256\n        /* \"contracts/FNFT.sol\":34254:34275  _owners[tokenId] = to */\n      dup1\n      sload\n      not(sub(shl(0xa0, 0x01), 0x01))\n      and\n      sub(shl(0xa0, 0x01), 0x01)\n      dup7\n      dup2\n      and\n      swap2\n      dup3\n      or\n      swap1\n      swap3\n      sstore\n        /* \"contracts/FNFT.sol\":34291:34318  Transfer(from, to, tokenId) */\n      swap2\n      mload\n        /* \"contracts/FNFT.sol\":34254:34270  _owners[tokenId] */\n      dup5\n      swap4\n        /* \"contracts/FNFT.sol\":34291:34318  Transfer(from, to, tokenId) */\n      swap2\n      dup8\n      and\n      swap2\n      0xddf252ad1be2c89b69c2b068fc378daa952ba7f163c4a11628f55a4df523b3ef\n      swap2\n      log4\n        /* \"contracts/FNFT.sol\":26924:27255  {... */\n      pop\n        /* \"contracts/FNFT.sol\":26854:27255  function approve(address to, uint256 tokenId) public virtual override {... */\n      pop\n      pop\n      jump\t// out\n        /* \"contracts/FNFT.sol\":32395:32822  function _mint(address to, uint256 tokenId) internal virtual {... */\n    tag_238:\n      sub(shl(0xa0, 0x01), 0x01)\n        /* \"contracts/FNFT.sol\":32474:32490  to != address(0) */\n      dup3\n      and\n        /* \"contracts/FNFT.sol\":32466:32527  require(to != address(0), \"ERC721: mint to the zero address\") */\n      tag_352\n      jumpi\n      mload(0x40)\n      shl(0xe5, 0x461bcd)\n      dup2\n      mstore\n        /* \"#utility.yul\":13833:13835   */\n      0x20\n        /* \"contracts/FNFT.sol\":32466:32527  require(to != address(0), \"ERC721: mint to the zero address\") */\n      0x04\n      dup3\n      add\n        /* \"#utility.yul\":13815:13836   */\n      dup2\n      swap1\n      mstore\n        /* \"#utility.yul\":13852:13870   */\n      0x24\n      dup3\n      add\n        /* \"#utility.yul\":13845:13875   */\n      mstore\n        /* \"#utility.yul\":13911:13945   */\n      0x4552433732313a206d696e7420746f20746865207a65726f2061646472657373\n        /* \"#utility.yul\":13891:13909   */\n      0x44\n      dup3\n      add\n        /* \"#utility.yul\":13884:13946   */\n      mstore\n        /* \"#utility.yul\":13963:13981   */\n      0x64\n      add\n        /* \"contracts/FNFT.sol\":32466:32527  require(to != address(0), \"ERC721: mint to the zero address\") */\n      tag_177\n        /* \"#utility.yul\":13631:13987   */\n      jump\n        /* \"contracts/FNFT.sol\":32466:32527  require(to != address(0), \"ERC721: mint to the zero address\") */\n    tag_352:\n        /* \"contracts/FNFT.sol\":32546:32562  _exists(tokenId) */\n      tag_355\n        /* \"contracts/FNFT.sol\":32554:32561  tokenId */\n      dup2\n        /* \"contracts/FNFT.sol\":32546:32553  _exists */\n      tag_175\n        /* \"contracts/FNFT.sol\":32546:32562  _exists(tokenId) */\n      jump\t// in\n    tag_355:\n        /* \"contracts/FNFT.sol\":32545:32562  !_exists(tokenId) */\n      iszero\n        /* \"contracts/FNFT.sol\":32537:32595  require(!_exists(tokenId), \"ERC721: token already minted\") */\n      tag_356\n      jumpi\n      mload(0x40)\n      shl(0xe5, 0x461bcd)\n      dup2\n      mstore\n        /* \"#utility.yul\":14194:14196   */\n      0x20\n        /* \"contracts/FNFT.sol\":32537:32595  require(!_exists(tokenId), \"ERC721: token already minted\") */\n      0x04\n      dup3\n      add\n        /* \"#utility.yul\":14176:14197   */\n      mstore\n        /* \"#utility.yul\":14233:14235   */\n      0x1c\n        /* \"#utility.yul\":14213:14231   */\n      0x24\n      dup3\n      add\n        /* \"#utility.yul\":14206:14236   */\n      mstore\n        /* \"#utility.yul\":14272:14302   */\n      0x4552433732313a20746f6b656e20616c7265616479206d696e74656400000000\n        /* \"#utility.yul\":14252:14270   */\n      0x44\n      dup3\n      add\n        /* \"#utility.yul\":14245:14303   */\n      mstore\n        /* \"#utility.yul\":14320:14338   */\n      0x64\n      add\n        /* \"contracts/FNFT.sol\":32537:32595  require(!_exists(tokenId), \"ERC721: token already minted\") */\n      tag_177\n        /* \"#utility.yul\":13992:14344   */\n      jump\n        /* \"contracts/FNFT.sol\":32537:32595  require(!_exists(tokenId), \"ERC721: token already minted\") */\n    tag_356:\n      sub(shl(0xa0, 0x01), 0x01)\n        /* \"contracts/FNFT.sol\":32662:32675  _balances[to] */\n      dup3\n      and\n      0x00\n      swap1\n      dup2\n      mstore\n        /* \"contracts/FNFT.sol\":32662:32671  _balances */\n      0x03\n        /* \"contracts/FNFT.sol\":32662:32675  _balances[to] */\n      0x20\n      mstore\n      0x40\n      dup2\n      keccak256\n        /* \"contracts/FNFT.sol\":32662:32680  _balances[to] += 1 */\n      dup1\n      sload\n        /* \"contracts/FNFT.sol\":32679:32680  1 */\n      0x01\n      swap3\n        /* \"contracts/FNFT.sol\":32662:32675  _balances[to] */\n      swap1\n        /* \"contracts/FNFT.sol\":32662:32680  _balances[to] += 1 */\n      tag_360\n      swap1\n        /* \"contracts/FNFT.sol\":32679:32680  1 */\n      dup5\n      swap1\n        /* \"contracts/FNFT.sol\":32662:32680  _balances[to] += 1 */\n      tag_346\n      jump\t// in\n    tag_360:\n      swap1\n      swap2\n      sstore\n      pop\n      pop\n        /* \"contracts/FNFT.sol\":32690:32706  _owners[tokenId] */\n      0x00\n      dup2\n      dup2\n      mstore\n        /* \"contracts/FNFT.sol\":32690:32697  _owners */\n      0x02\n        /* \"contracts/FNFT.sol\":32690:32706  _owners[tokenId] */\n      0x20\n      mstore\n      0x40\n      dup1\n      dup3\n      keccak256\n        /* \"contracts/FNFT.sol\":32690:32711  _owners[tokenId] = to */\n      dup1\n      sload\n      not(sub(shl(0xa0, 0x01), 0x01))\n      and\n      sub(shl(0xa0, 0x01), 0x01)\n      dup7\n      and\n      swap1\n      dup2\n      or\n      swap1\n      swap2\n      sstore\n        /* \"contracts/FNFT.sol\":32727:32760  Transfer(address(0), to, tokenId) */\n      swap1\n      mload\n        /* \"contracts/FNFT.sol\":32690:32706  _owners[tokenId] */\n      dup4\n      swap3\n      swap1\n        /* \"contracts/FNFT.sol\":32727:32760  Transfer(address(0), to, tokenId) */\n      0xddf252ad1be2c89b69c2b068fc378daa952ba7f163c4a11628f55a4df523b3ef\n      swap1\n        /* \"contracts/FNFT.sol\":32690:32706  _owners[tokenId] */\n      dup3\n      swap1\n        /* \"contracts/FNFT.sol\":32727:32760  Transfer(address(0), to, tokenId) */\n      log4\n        /* \"contracts/FNFT.sol\":27600:27753  function setApprovalForAll(address operator, bool approved) public virtual override {... */\n      pop\n      pop\n      jump\t// out\n        /* \"contracts/FNFT.sol\":38903:39117  function _setTokenURI(uint256 tokenId, string memory _tokenURI) internal virtual {... */\n    tag_240:\n        /* \"contracts/FNFT.sol\":39002:39018  _exists(tokenId) */\n      tag_363\n        /* \"contracts/FNFT.sol\":39010:39017  tokenId */\n      dup3\n        /* \"contracts/FNFT.sol\":39002:39009  _exists */\n      tag_175\n        /* \"contracts/FNFT.sol\":39002:39018  _exists(tokenId) */\n      jump\t// in\n    tag_363:\n        /* \"contracts/FNFT.sol\":38994:39069  require(_exists(tokenId), \"ERC721URIStorage: URI set of nonexistent token\") */\n      tag_364\n      jumpi\n      mload(0x40)\n      shl(0xe5, 0x461bcd)\n      dup2\n      mstore\n        /* \"#utility.yul\":14551:14553   */\n      0x20\n        /* \"contracts/FNFT.sol\":38994:39069  require(_exists(tokenId), \"ERC721URIStorage: URI set of nonexistent token\") */\n      0x04\n      dup3\n      add\n        /* \"#utility.yul\":14533:14554   */\n      mstore\n        /* \"#utility.yul\":14590:14592   */\n      0x2e\n        /* \"#utility.yul\":14570:14588   */\n      0x24\n      dup3\n      add\n        /* \"#utility.yul\":14563:14593   */\n      mstore\n        /* \"#utility.yul\":14629:14663   */\n      0x45524337323155524953746f726167653a2055524920736574206f66206e6f6e\n        /* \"#utility.yul\":14609:14627   */\n      0x44\n      dup3\n      add\n        /* \"#utility.yul\":14602:14664   */\n      mstore\n      shl(0x91, 0x32bc34b9ba32b73a103a37b5b2b7)\n        /* \"#utility.yul\":14680:14698   */\n      0x64\n      dup3\n      add\n        /* \"#utility.yul\":14673:14717   */\n      mstore\n        /* \"#utility.yul\":14734:14753   */\n      0x84\n      add\n        /* \"contracts/FNFT.sol\":38994:39069  require(_exists(tokenId), \"ERC721URIStorage: URI set of nonexistent token\") */\n      tag_177\n        /* \"#utility.yul\":14349:14759   */\n      jump\n        /* \"contracts/FNFT.sol\":38994:39069  require(_exists(tokenId), \"ERC721URIStorage: URI set of nonexistent token\") */\n    tag_364:\n        /* \"contracts/FNFT.sol\":39079:39098  _tokenURIs[tokenId] */\n      0x00\n      dup3\n      dup2\n      mstore\n        /* \"contracts/FNFT.sol\":39079:39089  _tokenURIs */\n      0x06\n        /* \"contracts/FNFT.sol\":39079:39098  _tokenURIs[tokenId] */\n      0x20\n      swap1\n      dup2\n      mstore\n      0x40\n      swap1\n      swap2\n      keccak256\n        /* \"contracts/FNFT.sol\":39079:39110  _tokenURIs[tokenId] = _tokenURI */\n      dup3\n      mload\n      tag_192\n      swap3\n      dup5\n      add\n      swap1\n      tag_368\n      jump\t// in\n        /* \"contracts/FNFT.sol\":6678:6865  function _transferOwnership(address newOwner) internal virtual {... */\n    tag_263:\n        /* \"contracts/FNFT.sol\":6770:6776  _owner */\n      0x07\n      dup1\n      sload\n      sub(shl(0xa0, 0x01), 0x01)\n        /* \"contracts/FNFT.sol\":6786:6803  _owner = newOwner */\n      dup4\n      dup2\n      and\n      not(sub(shl(0xa0, 0x01), 0x01))\n      dup4\n      and\n      dup2\n      or\n      swap1\n      swap4\n      sstore\n        /* \"contracts/FNFT.sol\":6818:6858  OwnershipTransferred(oldOwner, newOwner) */\n      mload(0x40)\n        /* \"contracts/FNFT.sol\":6770:6776  _owner */\n      swap2\n      and\n      swap2\n        /* \"contracts/FNFT.sol\":6786:6803  _owner = newOwner */\n      swap1\n        /* \"contracts/FNFT.sol\":6770:6776  _owner */\n      dup3\n      swap1\n        /* \"contracts/FNFT.sol\":6818:6858  OwnershipTransferred(oldOwner, newOwner) */\n      0x8be0079c531659141344cd1fd0a4f28419497f9722a3daafe3b4186f6b6457e0\n      swap1\n        /* \"contracts/FNFT.sol\":6751:6767  address oldOwner */\n      0x00\n      swap1\n        /* \"contracts/FNFT.sol\":6818:6858  OwnershipTransferred(oldOwner, newOwner) */\n      log3\n        /* \"contracts/FNFT.sol\":6741:6865  {... */\n      pop\n        /* \"contracts/FNFT.sol\":6678:6865  function _transferOwnership(address newOwner) internal virtual {... */\n      pop\n      jump\t// out\n        /* \"contracts/FNFT.sol\":34791:35098  function _setApprovalForAll(... */\n    tag_282:\n        /* \"contracts/FNFT.sol\":34941:34949  operator */\n      dup2\n      sub(shl(0xa0, 0x01), 0x01)\n        /* \"contracts/FNFT.sol\":34932:34949  owner != operator */\n      and\n        /* \"contracts/FNFT.sol\":34932:34937  owner */\n      dup4\n      sub(shl(0xa0, 0x01), 0x01)\n        /* \"contracts/FNFT.sol\":34932:34949  owner != operator */\n      and\n      sub\n        /* \"contracts/FNFT.sol\":34924:34979  require(owner != operator, \"ERC721: approve to caller\") */\n      tag_371\n      jumpi\n      mload(0x40)\n      shl(0xe5, 0x461bcd)\n      dup2\n      mstore\n        /* \"#utility.yul\":14966:14968   */\n      0x20\n        /* \"contracts/FNFT.sol\":34924:34979  require(owner != operator, \"ERC721: approve to caller\") */\n      0x04\n      dup3\n      add\n        /* \"#utility.yul\":14948:14969   */\n      mstore\n        /* \"#utility.yul\":15005:15007   */\n      0x19\n        /* \"#utility.yul\":14985:15003   */\n      0x24\n      dup3\n      add\n        /* \"#utility.yul\":14978:15008   */\n      mstore\n        /* \"#utility.yul\":15044:15071   */\n      0x4552433732313a20617070726f766520746f2063616c6c657200000000000000\n        /* \"#utility.yul\":15024:15042   */\n      0x44\n      dup3\n      add\n        /* \"#utility.yul\":15017:15072   */\n      mstore\n        /* \"#utility.yul\":15089:15107   */\n      0x64\n      add\n        /* \"contracts/FNFT.sol\":34924:34979  require(owner != operator, \"ERC721: approve to caller\") */\n      tag_177\n        /* \"#utility.yul\":14764:15113   */\n      jump\n        /* \"contracts/FNFT.sol\":34924:34979  require(owner != operator, \"ERC721: approve to caller\") */\n    tag_371:\n      sub(shl(0xa0, 0x01), 0x01)\n        /* \"contracts/FNFT.sol\":34989:35014  _operatorApprovals[owner] */\n      dup4\n      dup2\n      and\n      0x00\n      dup2\n      dup2\n      mstore\n        /* \"contracts/FNFT.sol\":34989:35007  _operatorApprovals */\n      0x05\n        /* \"contracts/FNFT.sol\":34989:35014  _operatorApprovals[owner] */\n      0x20\n      swap1\n      dup2\n      mstore\n      0x40\n      dup1\n      dup4\n      keccak256\n        /* \"contracts/FNFT.sol\":34989:35024  _operatorApprovals[owner][operator] */\n      swap5\n      dup8\n      and\n      dup1\n      dup5\n      mstore\n      swap5\n      dup3\n      mstore\n      swap2\n      dup3\n      swap1\n      keccak256\n        /* \"contracts/FNFT.sol\":34989:35035  _operatorApprovals[owner][operator] = approved */\n      dup1\n      sload\n      not(0xff)\n      and\n      dup7\n      iszero\n      iszero\n      swap1\n      dup2\n      or\n      swap1\n      swap2\n      sstore\n        /* \"contracts/FNFT.sol\":35050:35091  ApprovalForAll(owner, operator, approved) */\n      swap2\n      mload\n        /* \"#utility.yul\":540:581   */\n      swap2\n      dup3\n      mstore\n        /* \"contracts/FNFT.sol\":35050:35091  ApprovalForAll(owner, operator, approved) */\n      0x17307eab39ab6107e8899845ad3d59bd9653f200f220920489ca2b5937696c31\n      swap2\n        /* \"#utility.yul\":513:531   */\n      add\n        /* \"contracts/FNFT.sol\":35050:35091  ApprovalForAll(owner, operator, approved) */\n      mload(0x40)\n      dup1\n      swap2\n      sub\n      swap1\n      log3\n        /* \"contracts/FNFT.sol\":34791:35098  function _setApprovalForAll(... */\n      pop\n      pop\n      pop\n      jump\t// out\n        /* \"contracts/FNFT.sol\":29866:30173  function _safeTransfer(... */\n    tag_289:\n        /* \"contracts/FNFT.sol\":30017:30045  _transfer(from, to, tokenId) */\n      tag_376\n        /* \"contracts/FNFT.sol\":30027:30031  from */\n      dup5\n        /* \"contracts/FNFT.sol\":30033:30035  to */\n      dup5\n        /* \"contracts/FNFT.sol\":30037:30044  tokenId */\n      dup5\n        /* \"contracts/FNFT.sol\":30017:30026  _transfer */\n      tag_220\n        /* \"contracts/FNFT.sol\":30017:30045  _transfer(from, to, tokenId) */\n      jump\t// in\n    tag_376:\n        /* \"contracts/FNFT.sol\":30063:30111  _checkOnERC721Received(from, to, tokenId, _data) */\n      tag_377\n        /* \"contracts/FNFT.sol\":30086:30090  from */\n      dup5\n        /* \"contracts/FNFT.sol\":30092:30094  to */\n      dup5\n        /* \"contracts/FNFT.sol\":30096:30103  tokenId */\n      dup5\n        /* \"contracts/FNFT.sol\":30105:30110  _data */\n      dup5\n        /* \"contracts/FNFT.sol\":30063:30085  _checkOnERC721Received */\n      tag_378\n        /* \"contracts/FNFT.sol\":30063:30111  _checkOnERC721Received(from, to, tokenId, _data) */\n      jump\t// in\n    tag_377:\n        /* \"contracts/FNFT.sol\":30055:30166  require(_checkOnERC721Received(from, to, tokenId, _data), \"ERC721: transfer to non ERC721Receiver implementer\") */\n      tag_288\n      jumpi\n      mload(0x40)\n      shl(0xe5, 0x461bcd)\n      dup2\n      mstore\n      0x04\n      add\n      tag_177\n      swap1\n      tag_381\n      jump\t// in\n        /* \"contracts/FNFT.sol\":38093:38756  function tokenURI(uint256 tokenId) public view virtual override returns (string memory) {... */\n    tag_292:\n        /* \"contracts/FNFT.sol\":38166:38179  string memory */\n      0x60\n        /* \"contracts/FNFT.sol\":38199:38215  _exists(tokenId) */\n      tag_383\n        /* \"contracts/FNFT.sol\":38207:38214  tokenId */\n      dup3\n        /* \"contracts/FNFT.sol\":38199:38206  _exists */\n      tag_175\n        /* \"contracts/FNFT.sol\":38199:38215  _exists(tokenId) */\n      jump\t// in\n    tag_383:\n        /* \"contracts/FNFT.sol\":38191:38269  require(_exists(tokenId), \"ERC721URIStorage: URI query for nonexistent token\") */\n      tag_384\n      jumpi\n      mload(0x40)\n      shl(0xe5, 0x461bcd)\n      dup2\n      mstore\n        /* \"#utility.yul\":15739:15741   */\n      0x20\n        /* \"contracts/FNFT.sol\":38191:38269  require(_exists(tokenId), \"ERC721URIStorage: URI query for nonexistent token\") */\n      0x04\n      dup3\n      add\n        /* \"#utility.yul\":15721:15742   */\n      mstore\n        /* \"#utility.yul\":15778:15780   */\n      0x31\n        /* \"#utility.yul\":15758:15776   */\n      0x24\n      dup3\n      add\n        /* \"#utility.yul\":15751:15781   */\n      mstore\n        /* \"#utility.yul\":15817:15851   */\n      0x45524337323155524953746f726167653a2055524920717565727920666f7220\n        /* \"#utility.yul\":15797:15815   */\n      0x44\n      dup3\n      add\n        /* \"#utility.yul\":15790:15852   */\n      mstore\n      shl(0x79, 0x3737b732bc34b9ba32b73a103a37b5b2b7)\n        /* \"#utility.yul\":15868:15886   */\n      0x64\n      dup3\n      add\n        /* \"#utility.yul\":15861:15908   */\n      mstore\n        /* \"#utility.yul\":15925:15944   */\n      0x84\n      add\n        /* \"contracts/FNFT.sol\":38191:38269  require(_exists(tokenId), \"ERC721URIStorage: URI query for nonexistent token\") */\n      tag_177\n        /* \"#utility.yul\":15537:15950   */\n      jump\n        /* \"contracts/FNFT.sol\":38191:38269  require(_exists(tokenId), \"ERC721URIStorage: URI query for nonexistent token\") */\n    tag_384:\n        /* \"contracts/FNFT.sol\":38280:38303  string memory _tokenURI */\n      0x00\n        /* \"contracts/FNFT.sol\":38306:38325  _tokenURIs[tokenId] */\n      dup3\n      dup2\n      mstore\n        /* \"contracts/FNFT.sol\":38306:38316  _tokenURIs */\n      0x06\n        /* \"contracts/FNFT.sol\":38306:38325  _tokenURIs[tokenId] */\n      0x20\n      mstore\n      0x40\n      dup2\n      keccak256\n        /* \"contracts/FNFT.sol\":38280:38325  string memory _tokenURI = _tokenURIs[tokenId] */\n      dup1\n      sload\n      tag_387\n      swap1\n      tag_168\n      jump\t// in\n    tag_387:\n      dup1\n      0x1f\n      add\n      0x20\n      dup1\n      swap2\n      div\n      mul\n      0x20\n      add\n      mload(0x40)\n      swap1\n      dup2\n      add\n      0x40\n      mstore\n      dup1\n      swap3\n      swap2\n      swap1\n      dup2\n      dup2\n      mstore\n      0x20\n      add\n      dup3\n      dup1\n      sload\n      tag_388\n      swap1\n      tag_168\n      jump\t// in\n    tag_388:\n      dup1\n      iszero\n      tag_389\n      jumpi\n      dup1\n      0x1f\n      lt\n      tag_390\n      jumpi\n      0x0100\n      dup1\n      dup4\n      sload\n      div\n      mul\n      dup4\n      mstore\n      swap2\n      0x20\n      add\n      swap2\n      jump(tag_389)\n    tag_390:\n      dup3\n      add\n      swap2\n      swap1\n      0x00\n      mstore\n      keccak256(0x00, 0x20)\n      swap1\n    tag_391:\n      dup2\n      sload\n      dup2\n      mstore\n      swap1\n      0x01\n      add\n      swap1\n      0x20\n      add\n      dup1\n      dup4\n      gt\n      tag_391\n      jumpi\n      dup3\n      swap1\n      sub\n      0x1f\n      and\n      dup3\n      add\n      swap2\n    tag_389:\n      pop\n      pop\n      pop\n      pop\n      pop\n      swap1\n      pop\n        /* \"contracts/FNFT.sol\":38335:38353  string memory base */\n      0x00\n        /* \"contracts/FNFT.sol\":38356:38366  _baseURI() */\n      tag_392\n        /* \"contracts/FNFT.sol\":38356:38364  _baseURI */\n      tag_393\n        /* \"contracts/FNFT.sol\":38356:38366  _baseURI() */\n      jump\t// in\n    tag_392:\n        /* \"contracts/FNFT.sol\":38335:38366  string memory base = _baseURI() */\n      swap1\n      pop\n        /* \"contracts/FNFT.sol\":38445:38449  base */\n      dup1\n        /* \"contracts/FNFT.sol\":38439:38457  bytes(base).length */\n      mload\n        /* \"contracts/FNFT.sol\":38461:38462  0 */\n      0x00\n        /* \"contracts/FNFT.sol\":38439:38462  bytes(base).length == 0 */\n      sub\n        /* \"contracts/FNFT.sol\":38435:38505  if (bytes(base).length == 0) {... */\n      tag_394\n      jumpi\n      pop\n        /* \"contracts/FNFT.sol\":38485:38494  _tokenURI */\n      swap3\n        /* \"contracts/FNFT.sol\":38093:38756  function tokenURI(uint256 tokenId) public view virtual override returns (string memory) {... */\n      swap2\n      pop\n      pop\n      jump\t// out\n        /* \"contracts/FNFT.sol\":38435:38505  if (bytes(base).length == 0) {... */\n    tag_394:\n        /* \"contracts/FNFT.sol\":38607:38630  bytes(_tokenURI).length */\n      dup2\n      mload\n        /* \"contracts/FNFT.sol\":38607:38634  bytes(_tokenURI).length > 0 */\n      iszero\n        /* \"contracts/FNFT.sol\":38603:38709  if (bytes(_tokenURI).length > 0) {... */\n      tag_395\n      jumpi\n        /* \"contracts/FNFT.sol\":38681:38685  base */\n      dup1\n        /* \"contracts/FNFT.sol\":38687:38696  _tokenURI */\n      dup3\n        /* \"contracts/FNFT.sol\":38664:38697  abi.encodePacked(base, _tokenURI) */\n      add(0x20, mload(0x40))\n      tag_396\n      swap3\n      swap2\n      swap1\n      tag_397\n      jump\t// in\n    tag_396:\n      mload(0x40)\n      0x20\n      dup2\n      dup4\n      sub\n      sub\n      dup2\n      mstore\n      swap1\n      0x40\n      mstore\n        /* \"contracts/FNFT.sol\":38650:38698  return string(abi.encodePacked(base, _tokenURI)) */\n      swap3\n      pop\n      pop\n      pop\n        /* \"contracts/FNFT.sol\":38093:38756  function tokenURI(uint256 tokenId) public view virtual override returns (string memory) {... */\n      swap2\n      swap1\n      pop\n      jump\t// out\n        /* \"contracts/FNFT.sol\":38603:38709  if (bytes(_tokenURI).length > 0) {... */\n    tag_395:\n        /* \"contracts/FNFT.sol\":38726:38749  super.tokenURI(tokenId) */\n      tag_331\n        /* \"contracts/FNFT.sol\":38741:38748  tokenId */\n      dup5\n        /* \"contracts/FNFT.sol\":38726:38740  super.tokenURI */\n      tag_399\n        /* \"contracts/FNFT.sol\":38726:38749  super.tokenURI(tokenId) */\n      jump\t// in\n        /* \"contracts/FNFT.sol\":31762:32073  function _safeMint(... */\n    tag_321:\n        /* \"contracts/FNFT.sol\":31887:31905  _mint(to, tokenId) */\n      tag_401\n        /* \"contracts/FNFT.sol\":31893:31895  to */\n      dup4\n        /* \"contracts/FNFT.sol\":31897:31904  tokenId */\n      dup4\n        /* \"contracts/FNFT.sol\":31887:31892  _mint */\n      tag_238\n        /* \"contracts/FNFT.sol\":31887:31905  _mint(to, tokenId) */\n      jump\t// in\n    tag_401:\n        /* \"contracts/FNFT.sol\":31936:31990  _checkOnERC721Received(address(0), to, tokenId, _data) */\n      tag_402\n        /* \"contracts/FNFT.sol\":31967:31968  0 */\n      0x00\n        /* \"contracts/FNFT.sol\":31971:31973  to */\n      dup5\n        /* \"contracts/FNFT.sol\":31975:31982  tokenId */\n      dup5\n        /* \"contracts/FNFT.sol\":31984:31989  _data */\n      dup5\n        /* \"contracts/FNFT.sol\":31936:31958  _checkOnERC721Received */\n      tag_378\n        /* \"contracts/FNFT.sol\":31936:31990  _checkOnERC721Received(address(0), to, tokenId, _data) */\n      jump\t// in\n    tag_402:\n        /* \"contracts/FNFT.sol\":31915:32066  require(... */\n      tag_192\n      jumpi\n      mload(0x40)\n      shl(0xe5, 0x461bcd)\n      dup2\n      mstore\n      0x04\n      add\n      tag_177\n      swap1\n      tag_381\n      jump\t// in\n        /* \"contracts/FNFT.sol\":35651:36429  function _checkOnERC721Received(... */\n    tag_378:\n        /* \"contracts/FNFT.sol\":35801:35805  bool */\n      0x00\n      sub(shl(0xa0, 0x01), 0x01)\n        /* \"contracts/FNFT.sol\":35821:35834  to.isContract */\n      dup5\n      and\n        /* \"contracts/FNFT.sol\":8355:8374  account.code.length */\n      extcodesize\n        /* \"contracts/FNFT.sol\":8355:8378  account.code.length > 0 */\n      iszero\n        /* \"contracts/FNFT.sol\":35817:36423  if (to.isContract()) {... */\n      tag_410\n      jumpi\n        /* \"contracts/FNFT.sol\":35856:35928  IERC721Receiver(to).onERC721Received(_msgSender(), from, tokenId, _data) */\n      mload(0x40)\n      shl(0xe1, 0x0a85bd01)\n      dup2\n      mstore\n      sub(shl(0xa0, 0x01), 0x01)\n        /* \"contracts/FNFT.sol\":35856:35892  IERC721Receiver(to).onERC721Received */\n      dup6\n      and\n      swap1\n      0x150b7a02\n      swap1\n        /* \"contracts/FNFT.sol\":35856:35928  IERC721Receiver(to).onERC721Received(_msgSender(), from, tokenId, _data) */\n      tag_412\n      swap1\n        /* \"contracts/FNFT.sol\":4291:4301  msg.sender */\n      caller\n      swap1\n        /* \"contracts/FNFT.sol\":35907:35911  from */\n      dup10\n      swap1\n        /* \"contracts/FNFT.sol\":35913:35920  tokenId */\n      dup9\n      swap1\n        /* \"contracts/FNFT.sol\":35922:35927  _data */\n      dup9\n      swap1\n        /* \"contracts/FNFT.sol\":35856:35928  IERC721Receiver(to).onERC721Received(_msgSender(), from, tokenId, _data) */\n      0x04\n      add\n      tag_413\n      jump\t// in\n    tag_412:\n      0x20\n      mload(0x40)\n      dup1\n      dup4\n      sub\n      dup2\n      0x00\n      dup8\n      gas\n      call\n      swap3\n      pop\n      pop\n      pop\n      dup1\n      iszero\n      tag_414\n      jumpi\n      pop\n      0x40\n      dup1\n      mload\n      0x1f\n      returndatasize\n      swap1\n      dup2\n      add\n      not(0x1f)\n      and\n      dup3\n      add\n      swap1\n      swap3\n      mstore\n      tag_415\n      swap2\n      dup2\n      add\n      swap1\n      tag_416\n      jump\t// in\n    tag_415:\n      0x01\n    tag_414:\n        /* \"contracts/FNFT.sol\":35852:36371  try IERC721Receiver(to).onERC721Received(_msgSender(), from, tokenId, _data) returns (bytes4 retval) {... */\n      tag_417\n      jumpi\n      returndatasize\n      dup1\n      dup1\n      iszero\n      tag_422\n      jumpi\n      mload(0x40)\n      swap2\n      pop\n      and(add(returndatasize, 0x3f), not(0x1f))\n      dup3\n      add\n      0x40\n      mstore\n      returndatasize\n      dup3\n      mstore\n      returndatasize\n      0x00\n      0x20\n      dup5\n      add\n      returndatacopy\n      jump(tag_421)\n    tag_422:\n      0x60\n      swap2\n      pop\n    tag_421:\n      pop\n        /* \"contracts/FNFT.sol\":36095:36101  reason */\n      dup1\n        /* \"contracts/FNFT.sol\":36095:36108  reason.length */\n      mload\n        /* \"contracts/FNFT.sol\":36112:36113  0 */\n      0x00\n        /* \"contracts/FNFT.sol\":36095:36113  reason.length == 0 */\n      sub\n        /* \"contracts/FNFT.sol\":36091:36357  if (reason.length == 0) {... */\n      tag_423\n      jumpi\n        /* \"contracts/FNFT.sol\":36137:36197  revert(\"ERC721: transfer to non ERC721Receiver implementer\") */\n      mload(0x40)\n      shl(0xe5, 0x461bcd)\n      dup2\n      mstore\n      0x04\n      add\n      tag_177\n      swap1\n      tag_381\n      jump\t// in\n        /* \"contracts/FNFT.sol\":36091:36357  if (reason.length == 0) {... */\n    tag_423:\n        /* \"contracts/FNFT.sol\":36309:36315  reason */\n      dup1\n        /* \"contracts/FNFT.sol\":36303:36316  mload(reason) */\n      mload\n        /* \"contracts/FNFT.sol\":36294:36300  reason */\n      dup2\n        /* \"contracts/FNFT.sol\":36290:36292  32 */\n      0x20\n        /* \"contracts/FNFT.sol\":36286:36301  add(32, reason) */\n      add\n        /* \"contracts/FNFT.sol\":36279:36317  revert(add(32, reason), mload(reason)) */\n      revert\n        /* \"contracts/FNFT.sol\":35852:36371  try IERC721Receiver(to).onERC721Received(_msgSender(), from, tokenId, _data) returns (bytes4 retval) {... */\n    tag_417:\n      not(sub(shl(0xe0, 0x01), 0x01))\n        /* \"contracts/FNFT.sol\":35978:36029  retval == IERC721Receiver.onERC721Received.selector */\n      and\n      shl(0xe1, 0x0a85bd01)\n      eq\n      swap1\n      pop\n        /* \"contracts/FNFT.sol\":35971:36029  return retval == IERC721Receiver.onERC721Received.selector */\n      jump(tag_331)\n        /* \"contracts/FNFT.sol\":35817:36423  if (to.isContract()) {... */\n    tag_410:\n      pop\n        /* \"contracts/FNFT.sol\":36408:36412  true */\n      0x01\n        /* \"contracts/FNFT.sol\":35651:36429  function _checkOnERC721Received(... */\n      swap5\n      swap4\n      pop\n      pop\n      pop\n      pop\n      jump\t// out\n        /* \"contracts/FNFT.sol\":40858:41051  function _baseURI() internal pure override returns (string memory) {... */\n    tag_393:\n        /* \"contracts/FNFT.sol\":40910:40923  string memory */\n      0x60\n        /* \"contracts/FNFT.sol\":40935:41044  return \"https://ipfs.io/ipfs/QmVrpVZX5DxnaKLpxRgbjrsUZY3JcnDHmRE57sxGQVf7gm?filename=4645759611642974284.gif\" */\n      mload(0x40)\n      dup1\n      0xa0\n      add\n      0x40\n      mstore\n      dup1\n      0x64\n      dup2\n      mstore\n      0x20\n      add\n      data_59c4dd7ef2140bfb5e97a3270b879245e1da0acff409a5ba311bd86dc2cb17a7\n      0x64\n      swap2\n      codecopy\n      swap1\n      pop\n        /* \"contracts/FNFT.sol\":40858:41051  function _baseURI() internal pure override returns (string memory) {... */\n      swap1\n      jump\t// out\n        /* \"contracts/FNFT.sol\":26135:26464  function tokenURI(uint256 tokenId) public view virtual override returns (string memory) {... */\n    tag_399:\n        /* \"contracts/FNFT.sol\":26208:26221  string memory */\n      0x60\n        /* \"contracts/FNFT.sol\":26241:26257  _exists(tokenId) */\n      tag_430\n        /* \"contracts/FNFT.sol\":26249:26256  tokenId */\n      dup3\n        /* \"contracts/FNFT.sol\":26241:26248  _exists */\n      tag_175\n        /* \"contracts/FNFT.sol\":26241:26257  _exists(tokenId) */\n      jump\t// in\n    tag_430:\n        /* \"contracts/FNFT.sol\":26233:26309  require(_exists(tokenId), \"ERC721Metadata: URI query for nonexistent token\") */\n      tag_431\n      jumpi\n      mload(0x40)\n      shl(0xe5, 0x461bcd)\n      dup2\n      mstore\n        /* \"#utility.yul\":17380:17382   */\n      0x20\n        /* \"contracts/FNFT.sol\":26233:26309  require(_exists(tokenId), \"ERC721Metadata: URI query for nonexistent token\") */\n      0x04\n      dup3\n      add\n        /* \"#utility.yul\":17362:17383   */\n      mstore\n        /* \"#utility.yul\":17419:17421   */\n      0x2f\n        /* \"#utility.yul\":17399:17417   */\n      0x24\n      dup3\n      add\n        /* \"#utility.yul\":17392:17422   */\n      mstore\n        /* \"#utility.yul\":17458:17492   */\n      0x4552433732314d657461646174613a2055524920717565727920666f72206e6f\n        /* \"#utility.yul\":17438:17456   */\n      0x44\n      dup3\n      add\n        /* \"#utility.yul\":17431:17493   */\n      mstore\n      shl(0x89, 0x3732bc34b9ba32b73a103a37b5b2b7)\n        /* \"#utility.yul\":17509:17527   */\n      0x64\n      dup3\n      add\n        /* \"#utility.yul\":17502:17547   */\n      mstore\n        /* \"#utility.yul\":17564:17583   */\n      0x84\n      add\n        /* \"contracts/FNFT.sol\":26233:26309  require(_exists(tokenId), \"ERC721Metadata: URI query for nonexistent token\") */\n      tag_177\n        /* \"#utility.yul\":17178:17589   */\n      jump\n        /* \"contracts/FNFT.sol\":26233:26309  require(_exists(tokenId), \"ERC721Metadata: URI query for nonexistent token\") */\n    tag_431:\n        /* \"contracts/FNFT.sol\":26320:26341  string memory baseURI */\n      0x00\n        /* \"contracts/FNFT.sol\":26344:26354  _baseURI() */\n      tag_434\n        /* \"contracts/FNFT.sol\":26344:26352  _baseURI */\n      tag_393\n        /* \"contracts/FNFT.sol\":26344:26354  _baseURI() */\n      jump\t// in\n    tag_434:\n        /* \"contracts/FNFT.sol\":26320:26354  string memory baseURI = _baseURI() */\n      swap1\n      pop\n        /* \"contracts/FNFT.sol\":26395:26396  0 */\n      0x00\n        /* \"contracts/FNFT.sol\":26377:26384  baseURI */\n      dup2\n        /* \"contracts/FNFT.sol\":26371:26392  bytes(baseURI).length */\n      mload\n        /* \"contracts/FNFT.sol\":26371:26396  bytes(baseURI).length > 0 */\n      gt\n        /* \"contracts/FNFT.sol\":26371:26457  bytes(baseURI).length > 0 ? string(abi.encodePacked(baseURI, tokenId.toString())) : \"\" */\n      tag_435\n      jumpi\n      mload(0x40)\n      dup1\n      0x20\n      add\n      0x40\n      mstore\n      dup1\n      0x00\n      dup2\n      mstore\n      pop\n      jump(tag_239)\n    tag_435:\n        /* \"contracts/FNFT.sol\":26423:26430  baseURI */\n      dup1\n        /* \"contracts/FNFT.sol\":26432:26450  tokenId.toString() */\n      tag_437\n        /* \"contracts/FNFT.sol\":26432:26439  tokenId */\n      dup5\n        /* \"contracts/FNFT.sol\":26432:26448  tokenId.toString */\n      tag_438\n        /* \"contracts/FNFT.sol\":26432:26450  tokenId.toString() */\n      jump\t// in\n    tag_437:\n        /* \"contracts/FNFT.sol\":26406:26451  abi.encodePacked(baseURI, tokenId.toString()) */\n      add(0x20, mload(0x40))\n      tag_439\n      swap3\n      swap2\n      swap1\n      tag_397\n      jump\t// in\n    tag_439:\n      mload(0x40)\n      0x20\n      dup2\n      dup4\n      sub\n      sub\n      dup2\n      mstore\n      swap1\n      0x40\n      mstore\n        /* \"contracts/FNFT.sol\":26364:26457  return bytes(baseURI).length > 0 ? string(abi.encodePacked(baseURI, tokenId.toString())) : \"\" */\n      swap4\n        /* \"contracts/FNFT.sol\":26135:26464  function tokenURI(uint256 tokenId) public view virtual override returns (string memory) {... */\n      swap3\n      pop\n      pop\n      pop\n      jump\t// out\n        /* \"contracts/FNFT.sol\":1846:2549  function toString(uint256 value) internal pure returns (string memory) {... */\n    tag_438:\n        /* \"contracts/FNFT.sol\":1902:1915  string memory */\n      0x60\n        /* \"contracts/FNFT.sol\":2119:2124  value */\n      dup2\n        /* \"contracts/FNFT.sol\":2128:2129  0 */\n      0x00\n        /* \"contracts/FNFT.sol\":2119:2129  value == 0 */\n      sub\n        /* \"contracts/FNFT.sol\":2115:2166  if (value == 0) {... */\n      tag_442\n      jumpi\n      pop\n      pop\n        /* \"contracts/FNFT.sol\":2145:2155  return \"0\" */\n      0x40\n      dup1\n      mload\n      dup1\n      dup3\n      add\n      swap1\n      swap2\n      mstore\n      0x01\n      dup2\n      mstore\n      shl(0xfc, 0x03)\n      0x20\n      dup3\n      add\n      mstore\n      swap1\n        /* \"contracts/FNFT.sol\":1846:2549  function toString(uint256 value) internal pure returns (string memory) {... */\n      jump\t// out\n        /* \"contracts/FNFT.sol\":2115:2166  if (value == 0) {... */\n    tag_442:\n        /* \"contracts/FNFT.sol\":2190:2195  value */\n      dup2\n        /* \"contracts/FNFT.sol\":2175:2187  uint256 temp */\n      0x00\n        /* \"contracts/FNFT.sol\":2229:2304  while (temp != 0) {... */\n    tag_443:\n        /* \"contracts/FNFT.sol\":2236:2245  temp != 0 */\n      dup2\n      iszero\n        /* \"contracts/FNFT.sol\":2229:2304  while (temp != 0) {... */\n      tag_444\n      jumpi\n        /* \"contracts/FNFT.sol\":2261:2269  digits++ */\n      dup1\n      tag_445\n      dup2\n      tag_208\n      jump\t// in\n    tag_445:\n      swap2\n      pop\n        /* \"contracts/FNFT.sol\":2283:2293  temp /= 10 */\n      tag_446\n      swap1\n      pop\n        /* \"contracts/FNFT.sol\":2291:2293  10 */\n      0x0a\n        /* \"contracts/FNFT.sol\":2283:2293  temp /= 10 */\n      dup4\n      tag_447\n      jump\t// in\n    tag_446:\n      swap2\n      pop\n        /* \"contracts/FNFT.sol\":2229:2304  while (temp != 0) {... */\n      jump(tag_443)\n    tag_444:\n        /* \"contracts/FNFT.sol\":2313:2332  bytes memory buffer */\n      0x00\n        /* \"contracts/FNFT.sol\":2345:2351  digits */\n      dup2\n        /* \"contracts/FNFT.sol\":2335:2352  new bytes(digits) */\n      0xffffffffffffffff\n      dup2\n      gt\n      iszero\n      tag_449\n      jumpi\n      tag_449\n      tag_450\n      jump\t// in\n    tag_449:\n      mload(0x40)\n      swap1\n      dup1\n      dup3\n      mstore\n      dup1\n      0x1f\n      add\n      not(0x1f)\n      and\n      0x20\n      add\n      dup3\n      add\n      0x40\n      mstore\n      dup1\n      iszero\n      tag_451\n      jumpi\n      0x20\n      dup3\n      add\n      dup2\n      dup1\n      calldatasize\n      dup4\n      calldatacopy\n      add\n      swap1\n      pop\n    tag_451:\n      pop\n        /* \"contracts/FNFT.sol\":2313:2352  bytes memory buffer = new bytes(digits) */\n      swap1\n      pop\n        /* \"contracts/FNFT.sol\":2362:2512  while (value != 0) {... */\n    tag_452:\n        /* \"contracts/FNFT.sol\":2369:2379  value != 0 */\n      dup5\n      iszero\n        /* \"contracts/FNFT.sol\":2362:2512  while (value != 0) {... */\n      tag_331\n      jumpi\n        /* \"contracts/FNFT.sol\":2395:2406  digits -= 1 */\n      tag_454\n        /* \"contracts/FNFT.sol\":2405:2406  1 */\n      0x01\n        /* \"contracts/FNFT.sol\":2395:2406  digits -= 1 */\n      dup4\n      tag_344\n      jump\t// in\n    tag_454:\n      swap2\n      pop\n        /* \"contracts/FNFT.sol\":2463:2473  value % 10 */\n      tag_455\n        /* \"contracts/FNFT.sol\":2471:2473  10 */\n      0x0a\n        /* \"contracts/FNFT.sol\":2463:2468  value */\n      dup7\n        /* \"contracts/FNFT.sol\":2463:2473  value % 10 */\n      tag_456\n      jump\t// in\n    tag_455:\n        /* \"contracts/FNFT.sol\":2450:2474  48 + uint256(value % 10) */\n      tag_457\n      swap1\n        /* \"contracts/FNFT.sol\":2450:2452  48 */\n      0x30\n        /* \"contracts/FNFT.sol\":2450:2474  48 + uint256(value % 10) */\n      tag_346\n      jump\t// in\n    tag_457:\n        /* \"contracts/FNFT.sol\":2437:2476  bytes1(uint8(48 + uint256(value % 10))) */\n      0xf8\n      shl\n        /* \"contracts/FNFT.sol\":2420:2426  buffer */\n      dup2\n        /* \"contracts/FNFT.sol\":2427:2433  digits */\n      dup4\n        /* \"contracts/FNFT.sol\":2420:2434  buffer[digits] */\n      dup2\n      mload\n      dup2\n      lt\n      tag_459\n      jumpi\n      tag_459\n      tag_460\n      jump\t// in\n    tag_459:\n      0x20\n      add\n      add\n        /* \"contracts/FNFT.sol\":2420:2476  buffer[digits] = bytes1(uint8(48 + uint256(value % 10))) */\n      swap1\n      not(sub(shl(0xf8, 0x01), 0x01))\n      and\n      swap1\n      dup2\n      0x00\n      byte\n      swap1\n      mstore8\n      pop\n        /* \"contracts/FNFT.sol\":2490:2501  value /= 10 */\n      tag_461\n        /* \"contracts/FNFT.sol\":2499:2501  10 */\n      0x0a\n        /* \"contracts/FNFT.sol\":2490:2501  value /= 10 */\n      dup7\n      tag_447\n      jump\t// in\n    tag_461:\n      swap5\n      pop\n        /* \"contracts/FNFT.sol\":2362:2512  while (value != 0) {... */\n      jump(tag_452)\n    tag_368:\n      dup3\n      dup1\n      sload\n      tag_462\n      swap1\n      tag_168\n      jump\t// in\n    tag_462:\n      swap1\n      0x00\n      mstore\n      keccak256(0x00, 0x20)\n      swap1\n      0x1f\n      add\n      0x20\n      swap1\n      div\n      dup2\n      add\n      swap3\n      dup3\n      tag_464\n      jumpi\n      0x00\n      dup6\n      sstore\n      jump(tag_467)\n    tag_464:\n      dup3\n      0x1f\n      lt\n      tag_465\n      jumpi\n      dup1\n      mload\n      not(0xff)\n      and\n      dup4\n      dup1\n      add\n      or\n      dup6\n      sstore\n      jump(tag_467)\n    tag_465:\n      dup3\n      dup1\n      add\n      0x01\n      add\n      dup6\n      sstore\n      dup3\n      iszero\n      tag_467\n      jumpi\n      swap2\n      dup3\n      add\n    tag_466:\n      dup3\n      dup2\n      gt\n      iszero\n      tag_467\n      jumpi\n      dup3\n      mload\n      dup3\n      sstore\n      swap2\n      0x20\n      add\n      swap2\n      swap1\n      0x01\n      add\n      swap1\n      jump(tag_466)\n    tag_467:\n      pop\n      tag_468\n      swap3\n      swap2\n      pop\n      tag_469\n      jump\t// in\n    tag_468:\n      pop\n      swap1\n      jump\t// out\n    tag_469:\n    tag_470:\n      dup1\n      dup3\n      gt\n      iszero\n      tag_468\n      jumpi\n      0x00\n      dup2\n      sstore\n      0x01\n      add\n      jump(tag_470)\n        /* \"#utility.yul\":14:145   */\n    tag_472:\n      not(sub(shl(0xe0, 0x01), 0x01))\n        /* \"#utility.yul\":88:120   */\n      dup2\n      and\n        /* \"#utility.yul\":78:121   */\n      dup2\n      eq\n        /* \"#utility.yul\":68:139   */\n      tag_210\n      jumpi\n        /* \"#utility.yul\":135:136   */\n      0x00\n        /* \"#utility.yul\":132:133   */\n      dup1\n        /* \"#utility.yul\":125:137   */\n      revert\n        /* \"#utility.yul\":150:395   */\n    tag_38:\n        /* \"#utility.yul\":208:214   */\n      0x00\n        /* \"#utility.yul\":261:263   */\n      0x20\n        /* \"#utility.yul\":249:258   */\n      dup3\n        /* \"#utility.yul\":240:247   */\n      dup5\n        /* \"#utility.yul\":236:259   */\n      sub\n        /* \"#utility.yul\":232:264   */\n      slt\n        /* \"#utility.yul\":229:281   */\n      iszero\n      tag_484\n      jumpi\n        /* \"#utility.yul\":277:278   */\n      0x00\n        /* \"#utility.yul\":274:275   */\n      dup1\n        /* \"#utility.yul\":267:279   */\n      revert\n        /* \"#utility.yul\":229:281   */\n    tag_484:\n        /* \"#utility.yul\":316:325   */\n      dup2\n        /* \"#utility.yul\":303:326   */\n      calldataload\n        /* \"#utility.yul\":335:365   */\n      tag_239\n        /* \"#utility.yul\":359:364   */\n      dup2\n        /* \"#utility.yul\":335:365   */\n      tag_472\n      jump\t// in\n        /* \"#utility.yul\":592:850   */\n    tag_473:\n        /* \"#utility.yul\":664:665   */\n      0x00\n        /* \"#utility.yul\":674:787   */\n    tag_488:\n        /* \"#utility.yul\":688:694   */\n      dup4\n        /* \"#utility.yul\":685:686   */\n      dup2\n        /* \"#utility.yul\":682:695   */\n      lt\n        /* \"#utility.yul\":674:787   */\n      iszero\n      tag_490\n      jumpi\n        /* \"#utility.yul\":764:775   */\n      dup2\n      dup2\n      add\n        /* \"#utility.yul\":758:776   */\n      mload\n        /* \"#utility.yul\":745:756   */\n      dup4\n      dup3\n      add\n        /* \"#utility.yul\":738:777   */\n      mstore\n        /* \"#utility.yul\":710:712   */\n      0x20\n        /* \"#utility.yul\":703:713   */\n      add\n        /* \"#utility.yul\":674:787   */\n      jump(tag_488)\n    tag_490:\n        /* \"#utility.yul\":805:811   */\n      dup4\n        /* \"#utility.yul\":802:803   */\n      dup2\n        /* \"#utility.yul\":799:812   */\n      gt\n        /* \"#utility.yul\":796:844   */\n      iszero\n      tag_288\n      jumpi\n      pop\n      pop\n        /* \"#utility.yul\":840:841   */\n      0x00\n        /* \"#utility.yul\":822:838   */\n      swap2\n      add\n        /* \"#utility.yul\":815:842   */\n      mstore\n        /* \"#utility.yul\":592:850   */\n      jump\t// out\n        /* \"#utility.yul\":855:1113   */\n    tag_474:\n        /* \"#utility.yul\":897:900   */\n      0x00\n        /* \"#utility.yul\":935:940   */\n      dup2\n        /* \"#utility.yul\":929:941   */\n      mload\n        /* \"#utility.yul\":962:968   */\n      dup1\n        /* \"#utility.yul\":957:960   */\n      dup5\n        /* \"#utility.yul\":950:969   */\n      mstore\n        /* \"#utility.yul\":978:1041   */\n      tag_493\n        /* \"#utility.yul\":1034:1040   */\n      dup2\n        /* \"#utility.yul\":1027:1031   */\n      0x20\n        /* \"#utility.yul\":1022:1025   */\n      dup7\n        /* \"#utility.yul\":1018:1032   */\n      add\n        /* \"#utility.yul\":1011:1015   */\n      0x20\n        /* \"#utility.yul\":1004:1009   */\n      dup7\n        /* \"#utility.yul\":1000:1016   */\n      add\n        /* \"#utility.yul\":978:1041   */\n      tag_473\n      jump\t// in\n    tag_493:\n        /* \"#utility.yul\":1095:1097   */\n      0x1f\n        /* \"#utility.yul\":1074:1089   */\n      add\n      not(0x1f)\n        /* \"#utility.yul\":1070:1099   */\n      and\n        /* \"#utility.yul\":1061:1100   */\n      swap3\n      swap1\n      swap3\n      add\n        /* \"#utility.yul\":1102:1106   */\n      0x20\n        /* \"#utility.yul\":1057:1107   */\n      add\n      swap3\n        /* \"#utility.yul\":855:1113   */\n      swap2\n      pop\n      pop\n      jump\t// out\n        /* \"#utility.yul\":1118:1338   */\n    tag_46:\n        /* \"#utility.yul\":1267:1269   */\n      0x20\n        /* \"#utility.yul\":1256:1265   */\n      dup2\n        /* \"#utility.yul\":1249:1270   */\n      mstore\n        /* \"#utility.yul\":1230:1234   */\n      0x00\n        /* \"#utility.yul\":1287:1332   */\n      tag_239\n        /* \"#utility.yul\":1328:1330   */\n      0x20\n        /* \"#utility.yul\":1317:1326   */\n      dup4\n        /* \"#utility.yul\":1313:1331   */\n      add\n        /* \"#utility.yul\":1305:1311   */\n      dup5\n        /* \"#utility.yul\":1287:1332   */\n      tag_474\n      jump\t// in\n        /* \"#utility.yul\":1343:1523   */\n    tag_50:\n        /* \"#utility.yul\":1402:1408   */\n      0x00\n        /* \"#utility.yul\":1455:1457   */\n      0x20\n        /* \"#utility.yul\":1443:1452   */\n      dup3\n        /* \"#utility.yul\":1434:1441   */\n      dup5\n        /* \"#utility.yul\":1430:1453   */\n      sub\n        /* \"#utility.yul\":1426:1458   */\n      slt\n        /* \"#utility.yul\":1423:1475   */\n      iszero\n      tag_497\n      jumpi\n        /* \"#utility.yul\":1471:1472   */\n      0x00\n        /* \"#utility.yul\":1468:1469   */\n      dup1\n        /* \"#utility.yul\":1461:1473   */\n      revert\n        /* \"#utility.yul\":1423:1475   */\n    tag_497:\n      pop\n        /* \"#utility.yul\":1494:1517   */\n      calldataload\n      swap2\n        /* \"#utility.yul\":1343:1523   */\n      swap1\n      pop\n      jump\t// out\n        /* \"#utility.yul\":1736:1909   */\n    tag_475:\n        /* \"#utility.yul\":1804:1824   */\n      dup1\n      calldataload\n      sub(shl(0xa0, 0x01), 0x01)\n        /* \"#utility.yul\":1853:1884   */\n      dup2\n      and\n        /* \"#utility.yul\":1843:1885   */\n      dup2\n      eq\n        /* \"#utility.yul\":1833:1903   */\n      tag_500\n      jumpi\n        /* \"#utility.yul\":1899:1900   */\n      0x00\n        /* \"#utility.yul\":1896:1897   */\n      dup1\n        /* \"#utility.yul\":1889:1901   */\n      revert\n        /* \"#utility.yul\":1833:1903   */\n    tag_500:\n        /* \"#utility.yul\":1736:1909   */\n      swap2\n      swap1\n      pop\n      jump\t// out\n        /* \"#utility.yul\":1914:2168   */\n    tag_57:\n        /* \"#utility.yul\":1982:1988   */\n      0x00\n        /* \"#utility.yul\":1990:1996   */\n      dup1\n        /* \"#utility.yul\":2043:2045   */\n      0x40\n        /* \"#utility.yul\":2031:2040   */\n      dup4\n        /* \"#utility.yul\":2022:2029   */\n      dup6\n        /* \"#utility.yul\":2018:2041   */\n      sub\n        /* \"#utility.yul\":2014:2046   */\n      slt\n        /* \"#utility.yul\":2011:2063   */\n      iszero\n      tag_502\n      jumpi\n        /* \"#utility.yul\":2059:2060   */\n      0x00\n        /* \"#utility.yul\":2056:2057   */\n      dup1\n        /* \"#utility.yul\":2049:2061   */\n      revert\n        /* \"#utility.yul\":2011:2063   */\n    tag_502:\n        /* \"#utility.yul\":2082:2111   */\n      tag_503\n        /* \"#utility.yul\":2101:2110   */\n      dup4\n        /* \"#utility.yul\":2082:2111   */\n      tag_475\n      jump\t// in\n    tag_503:\n        /* \"#utility.yul\":2072:2111   */\n      swap5\n        /* \"#utility.yul\":2158:2160   */\n      0x20\n        /* \"#utility.yul\":2143:2161   */\n      swap4\n      swap1\n      swap4\n      add\n        /* \"#utility.yul\":2130:2162   */\n      calldataload\n      swap4\n      pop\n      pop\n      pop\n        /* \"#utility.yul\":1914:2168   */\n      jump\t// out\n        /* \"#utility.yul\":2355:2683   */\n    tag_69:\n        /* \"#utility.yul\":2432:2438   */\n      0x00\n        /* \"#utility.yul\":2440:2446   */\n      dup1\n        /* \"#utility.yul\":2448:2454   */\n      0x00\n        /* \"#utility.yul\":2501:2503   */\n      0x60\n        /* \"#utility.yul\":2489:2498   */\n      dup5\n        /* \"#utility.yul\":2480:2487   */\n      dup7\n        /* \"#utility.yul\":2476:2499   */\n      sub\n        /* \"#utility.yul\":2472:2504   */\n      slt\n        /* \"#utility.yul\":2469:2521   */\n      iszero\n      tag_506\n      jumpi\n        /* \"#utility.yul\":2517:2518   */\n      0x00\n        /* \"#utility.yul\":2514:2515   */\n      dup1\n        /* \"#utility.yul\":2507:2519   */\n      revert\n        /* \"#utility.yul\":2469:2521   */\n    tag_506:\n        /* \"#utility.yul\":2540:2569   */\n      tag_507\n        /* \"#utility.yul\":2559:2568   */\n      dup5\n        /* \"#utility.yul\":2540:2569   */\n      tag_475\n      jump\t// in\n    tag_507:\n        /* \"#utility.yul\":2530:2569   */\n      swap3\n      pop\n        /* \"#utility.yul\":2588:2626   */\n      tag_508\n        /* \"#utility.yul\":2622:2624   */\n      0x20\n        /* \"#utility.yul\":2611:2620   */\n      dup6\n        /* \"#utility.yul\":2607:2625   */\n      add\n        /* \"#utility.yul\":2588:2626   */\n      tag_475\n      jump\t// in\n    tag_508:\n        /* \"#utility.yul\":2578:2626   */\n      swap2\n      pop\n        /* \"#utility.yul\":2673:2675   */\n      0x40\n        /* \"#utility.yul\":2662:2671   */\n      dup5\n        /* \"#utility.yul\":2658:2676   */\n      add\n        /* \"#utility.yul\":2645:2677   */\n      calldataload\n        /* \"#utility.yul\":2635:2677   */\n      swap1\n      pop\n        /* \"#utility.yul\":2355:2683   */\n      swap3\n      pop\n      swap3\n      pop\n      swap3\n      jump\t// out\n        /* \"#utility.yul\":2688:2815   */\n    tag_450:\n        /* \"#utility.yul\":2749:2759   */\n      0x4e487b71\n        /* \"#utility.yul\":2744:2747   */\n      0xe0\n        /* \"#utility.yul\":2740:2760   */\n      shl\n        /* \"#utility.yul\":2737:2738   */\n      0x00\n        /* \"#utility.yul\":2730:2761   */\n      mstore\n        /* \"#utility.yul\":2780:2784   */\n      0x41\n        /* \"#utility.yul\":2777:2778   */\n      0x04\n        /* \"#utility.yul\":2770:2785   */\n      mstore\n        /* \"#utility.yul\":2804:2808   */\n      0x24\n        /* \"#utility.yul\":2801:2802   */\n      0x00\n        /* \"#utility.yul\":2794:2809   */\n      revert\n        /* \"#utility.yul\":2820:3452   */\n    tag_476:\n        /* \"#utility.yul\":2885:2890   */\n      0x00\n        /* \"#utility.yul\":2915:2933   */\n      0xffffffffffffffff\n        /* \"#utility.yul\":2956:2958   */\n      dup1\n        /* \"#utility.yul\":2948:2954   */\n      dup5\n        /* \"#utility.yul\":2945:2959   */\n      gt\n        /* \"#utility.yul\":2942:2982   */\n      iszero\n      tag_512\n      jumpi\n        /* \"#utility.yul\":2962:2980   */\n      tag_512\n      tag_450\n      jump\t// in\n    tag_512:\n        /* \"#utility.yul\":3037:3039   */\n      0x40\n        /* \"#utility.yul\":3031:3040   */\n      mload\n        /* \"#utility.yul\":3005:3007   */\n      0x1f\n        /* \"#utility.yul\":3091:3106   */\n      dup6\n      add\n      not(0x1f)\n        /* \"#utility.yul\":3087:3111   */\n      swap1\n      dup2\n      and\n        /* \"#utility.yul\":3113:3115   */\n      0x3f\n        /* \"#utility.yul\":3083:3116   */\n      add\n        /* \"#utility.yul\":3079:3121   */\n      and\n        /* \"#utility.yul\":3067:3122   */\n      dup2\n      add\n      swap1\n        /* \"#utility.yul\":3137:3155   */\n      dup3\n      dup3\n      gt\n        /* \"#utility.yul\":3157:3179   */\n      dup2\n      dup4\n      lt\n        /* \"#utility.yul\":3134:3180   */\n      or\n        /* \"#utility.yul\":3131:3203   */\n      iszero\n      tag_514\n      jumpi\n        /* \"#utility.yul\":3183:3201   */\n      tag_514\n      tag_450\n      jump\t// in\n    tag_514:\n        /* \"#utility.yul\":3223:3233   */\n      dup2\n        /* \"#utility.yul\":3219:3221   */\n      0x40\n        /* \"#utility.yul\":3212:3234   */\n      mstore\n        /* \"#utility.yul\":3252:3258   */\n      dup1\n        /* \"#utility.yul\":3243:3258   */\n      swap4\n      pop\n        /* \"#utility.yul\":3282:3288   */\n      dup6\n        /* \"#utility.yul\":3274:3280   */\n      dup2\n        /* \"#utility.yul\":3267:3289   */\n      mstore\n        /* \"#utility.yul\":3322:3325   */\n      dup7\n        /* \"#utility.yul\":3313:3319   */\n      dup7\n        /* \"#utility.yul\":3308:3311   */\n      dup7\n        /* \"#utility.yul\":3304:3320   */\n      add\n        /* \"#utility.yul\":3301:3326   */\n      gt\n        /* \"#utility.yul\":3298:3343   */\n      iszero\n      tag_515\n      jumpi\n        /* \"#utility.yul\":3339:3340   */\n      0x00\n        /* \"#utility.yul\":3336:3337   */\n      dup1\n        /* \"#utility.yul\":3329:3341   */\n      revert\n        /* \"#utility.yul\":3298:3343   */\n    tag_515:\n        /* \"#utility.yul\":3389:3395   */\n      dup6\n        /* \"#utility.yul\":3384:3387   */\n      dup6\n        /* \"#utility.yul\":3377:3381   */\n      0x20\n        /* \"#utility.yul\":3369:3375   */\n      dup4\n        /* \"#utility.yul\":3365:3382   */\n      add\n        /* \"#utility.yul\":3352:3396   */\n      calldatacopy\n        /* \"#utility.yul\":3444:3445   */\n      0x00\n        /* \"#utility.yul\":3437:3441   */\n      0x20\n        /* \"#utility.yul\":3428:3434   */\n      dup8\n        /* \"#utility.yul\":3420:3426   */\n      dup4\n        /* \"#utility.yul\":3416:3435   */\n      add\n        /* \"#utility.yul\":3412:3442   */\n      add\n        /* \"#utility.yul\":3405:3446   */\n      mstore\n      pop\n      pop\n      pop\n        /* \"#utility.yul\":2820:3452   */\n      swap4\n      swap3\n      pop\n      pop\n      pop\n      jump\t// out\n        /* \"#utility.yul\":3457:3679   */\n    tag_477:\n        /* \"#utility.yul\":3500:3505   */\n      0x00\n        /* \"#utility.yul\":3553:3556   */\n      dup3\n        /* \"#utility.yul\":3546:3550   */\n      0x1f\n        /* \"#utility.yul\":3538:3544   */\n      dup4\n        /* \"#utility.yul\":3534:3551   */\n      add\n        /* \"#utility.yul\":3530:3557   */\n      slt\n        /* \"#utility.yul\":3520:3575   */\n      tag_517\n      jumpi\n        /* \"#utility.yul\":3571:3572   */\n      0x00\n        /* \"#utility.yul\":3568:3569   */\n      dup1\n        /* \"#utility.yul\":3561:3573   */\n      revert\n        /* \"#utility.yul\":3520:3575   */\n    tag_517:\n        /* \"#utility.yul\":3593:3673   */\n      tag_239\n        /* \"#utility.yul\":3669:3672   */\n      dup4\n        /* \"#utility.yul\":3660:3666   */\n      dup4\n        /* \"#utility.yul\":3647:3667   */\n      calldataload\n        /* \"#utility.yul\":3640:3644   */\n      0x20\n        /* \"#utility.yul\":3632:3638   */\n      dup6\n        /* \"#utility.yul\":3628:3645   */\n      add\n        /* \"#utility.yul\":3593:3673   */\n      tag_476\n      jump\t// in\n        /* \"#utility.yul\":3684:4080   */\n    tag_81:\n        /* \"#utility.yul\":3762:3768   */\n      0x00\n        /* \"#utility.yul\":3770:3776   */\n      dup1\n        /* \"#utility.yul\":3823:3825   */\n      0x40\n        /* \"#utility.yul\":3811:3820   */\n      dup4\n        /* \"#utility.yul\":3802:3809   */\n      dup6\n        /* \"#utility.yul\":3798:3821   */\n      sub\n        /* \"#utility.yul\":3794:3826   */\n      slt\n        /* \"#utility.yul\":3791:3843   */\n      iszero\n      tag_520\n      jumpi\n        /* \"#utility.yul\":3839:3840   */\n      0x00\n        /* \"#utility.yul\":3836:3837   */\n      dup1\n        /* \"#utility.yul\":3829:3841   */\n      revert\n        /* \"#utility.yul\":3791:3843   */\n    tag_520:\n        /* \"#utility.yul\":3862:3891   */\n      tag_521\n        /* \"#utility.yul\":3881:3890   */\n      dup4\n        /* \"#utility.yul\":3862:3891   */\n      tag_475\n      jump\t// in\n    tag_521:\n        /* \"#utility.yul\":3852:3891   */\n      swap2\n      pop\n        /* \"#utility.yul\":3942:3944   */\n      0x20\n        /* \"#utility.yul\":3931:3940   */\n      dup4\n        /* \"#utility.yul\":3927:3945   */\n      add\n        /* \"#utility.yul\":3914:3946   */\n      calldataload\n        /* \"#utility.yul\":3969:3987   */\n      0xffffffffffffffff\n        /* \"#utility.yul\":3961:3967   */\n      dup2\n        /* \"#utility.yul\":3958:3988   */\n      gt\n        /* \"#utility.yul\":3955:4005   */\n      iszero\n      tag_522\n      jumpi\n        /* \"#utility.yul\":4001:4002   */\n      0x00\n        /* \"#utility.yul\":3998:3999   */\n      dup1\n        /* \"#utility.yul\":3991:4003   */\n      revert\n        /* \"#utility.yul\":3955:4005   */\n    tag_522:\n        /* \"#utility.yul\":4024:4074   */\n      tag_523\n        /* \"#utility.yul\":4066:4073   */\n      dup6\n        /* \"#utility.yul\":4057:4063   */\n      dup3\n        /* \"#utility.yul\":4046:4055   */\n      dup7\n        /* \"#utility.yul\":4042:4064   */\n      add\n        /* \"#utility.yul\":4024:4074   */\n      tag_477\n      jump\t// in\n    tag_523:\n        /* \"#utility.yul\":4014:4074   */\n      swap2\n      pop\n      pop\n        /* \"#utility.yul\":3684:4080   */\n      swap3\n      pop\n      swap3\n      swap1\n      pop\n      jump\t// out\n        /* \"#utility.yul\":4085:4271   */\n    tag_100:\n        /* \"#utility.yul\":4144:4150   */\n      0x00\n        /* \"#utility.yul\":4197:4199   */\n      0x20\n        /* \"#utility.yul\":4185:4194   */\n      dup3\n        /* \"#utility.yul\":4176:4183   */\n      dup5\n        /* \"#utility.yul\":4172:4195   */\n      sub\n        /* \"#utility.yul\":4168:4200   */\n      slt\n        /* \"#utility.yul\":4165:4217   */\n      iszero\n      tag_525\n      jumpi\n        /* \"#utility.yul\":4213:4214   */\n      0x00\n        /* \"#utility.yul\":4210:4211   */\n      dup1\n        /* \"#utility.yul\":4203:4215   */\n      revert\n        /* \"#utility.yul\":4165:4217   */\n    tag_525:\n        /* \"#utility.yul\":4236:4265   */\n      tag_239\n        /* \"#utility.yul\":4255:4264   */\n      dup3\n        /* \"#utility.yul\":4236:4265   */\n      tag_475\n      jump\t// in\n        /* \"#utility.yul\":4276:4598   */\n    tag_120:\n        /* \"#utility.yul\":4345:4351   */\n      0x00\n        /* \"#utility.yul\":4398:4400   */\n      0x20\n        /* \"#utility.yul\":4386:4395   */\n      dup3\n        /* \"#utility.yul\":4377:4384   */\n      dup5\n        /* \"#utility.yul\":4373:4396   */\n      sub\n        /* \"#utility.yul\":4369:4401   */\n      slt\n        /* \"#utility.yul\":4366:4418   */\n      iszero\n      tag_528\n      jumpi\n        /* \"#utility.yul\":4414:4415   */\n      0x00\n        /* \"#utility.yul\":4411:4412   */\n      dup1\n        /* \"#utility.yul\":4404:4416   */\n      revert\n        /* \"#utility.yul\":4366:4418   */\n    tag_528:\n        /* \"#utility.yul\":4454:4463   */\n      dup2\n        /* \"#utility.yul\":4441:4464   */\n      calldataload\n        /* \"#utility.yul\":4487:4505   */\n      0xffffffffffffffff\n        /* \"#utility.yul\":4479:4485   */\n      dup2\n        /* \"#utility.yul\":4476:4506   */\n      gt\n        /* \"#utility.yul\":4473:4523   */\n      iszero\n      tag_529\n      jumpi\n        /* \"#utility.yul\":4519:4520   */\n      0x00\n        /* \"#utility.yul\":4516:4517   */\n      dup1\n        /* \"#utility.yul\":4509:4521   */\n      revert\n        /* \"#utility.yul\":4473:4523   */\n    tag_529:\n        /* \"#utility.yul\":4542:4592   */\n      tag_331\n        /* \"#utility.yul\":4584:4591   */\n      dup5\n        /* \"#utility.yul\":4575:4581   */\n      dup3\n        /* \"#utility.yul\":4564:4573   */\n      dup6\n        /* \"#utility.yul\":4560:4582   */\n      add\n        /* \"#utility.yul\":4542:4592   */\n      tag_477\n      jump\t// in\n        /* \"#utility.yul\":4603:4950   */\n    tag_126:\n        /* \"#utility.yul\":4668:4674   */\n      0x00\n        /* \"#utility.yul\":4676:4682   */\n      dup1\n        /* \"#utility.yul\":4729:4731   */\n      0x40\n        /* \"#utility.yul\":4717:4726   */\n      dup4\n        /* \"#utility.yul\":4708:4715   */\n      dup6\n        /* \"#utility.yul\":4704:4727   */\n      sub\n        /* \"#utility.yul\":4700:4732   */\n      slt\n        /* \"#utility.yul\":4697:4749   */\n      iszero\n      tag_532\n      jumpi\n        /* \"#utility.yul\":4745:4746   */\n      0x00\n        /* \"#utility.yul\":4742:4743   */\n      dup1\n        /* \"#utility.yul\":4735:4747   */\n      revert\n        /* \"#utility.yul\":4697:4749   */\n    tag_532:\n        /* \"#utility.yul\":4768:4797   */\n      tag_533\n        /* \"#utility.yul\":4787:4796   */\n      dup4\n        /* \"#utility.yul\":4768:4797   */\n      tag_475\n      jump\t// in\n    tag_533:\n        /* \"#utility.yul\":4758:4797   */\n      swap2\n      pop\n        /* \"#utility.yul\":4847:4849   */\n      0x20\n        /* \"#utility.yul\":4836:4845   */\n      dup4\n        /* \"#utility.yul\":4832:4850   */\n      add\n        /* \"#utility.yul\":4819:4851   */\n      calldataload\n        /* \"#utility.yul\":4894:4899   */\n      dup1\n        /* \"#utility.yul\":4887:4900   */\n      iszero\n        /* \"#utility.yul\":4880:4901   */\n      iszero\n        /* \"#utility.yul\":4873:4878   */\n      dup2\n        /* \"#utility.yul\":4870:4902   */\n      eq\n        /* \"#utility.yul\":4860:4920   */\n      tag_534\n      jumpi\n        /* \"#utility.yul\":4916:4917   */\n      0x00\n        /* \"#utility.yul\":4913:4914   */\n      dup1\n        /* \"#utility.yul\":4906:4918   */\n      revert\n        /* \"#utility.yul\":4860:4920   */\n    tag_534:\n        /* \"#utility.yul\":4939:4944   */\n      dup1\n        /* \"#utility.yul\":4929:4944   */\n      swap2\n      pop\n      pop\n        /* \"#utility.yul\":4603:4950   */\n      swap3\n      pop\n      swap3\n      swap1\n      pop\n      jump\t// out\n        /* \"#utility.yul\":4955:5622   */\n    tag_136:\n        /* \"#utility.yul\":5050:5056   */\n      0x00\n        /* \"#utility.yul\":5058:5064   */\n      dup1\n        /* \"#utility.yul\":5066:5072   */\n      0x00\n        /* \"#utility.yul\":5074:5080   */\n      dup1\n        /* \"#utility.yul\":5127:5130   */\n      0x80\n        /* \"#utility.yul\":5115:5124   */\n      dup6\n        /* \"#utility.yul\":5106:5113   */\n      dup8\n        /* \"#utility.yul\":5102:5125   */\n      sub\n        /* \"#utility.yul\":5098:5131   */\n      slt\n        /* \"#utility.yul\":5095:5148   */\n      iszero\n      tag_536\n      jumpi\n        /* \"#utility.yul\":5144:5145   */\n      0x00\n        /* \"#utility.yul\":5141:5142   */\n      dup1\n        /* \"#utility.yul\":5134:5146   */\n      revert\n        /* \"#utility.yul\":5095:5148   */\n    tag_536:\n        /* \"#utility.yul\":5167:5196   */\n      tag_537\n        /* \"#utility.yul\":5186:5195   */\n      dup6\n        /* \"#utility.yul\":5167:5196   */\n      tag_475\n      jump\t// in\n    tag_537:\n        /* \"#utility.yul\":5157:5196   */\n      swap4\n      pop\n        /* \"#utility.yul\":5215:5253   */\n      tag_538\n        /* \"#utility.yul\":5249:5251   */\n      0x20\n        /* \"#utility.yul\":5238:5247   */\n      dup7\n        /* \"#utility.yul\":5234:5252   */\n      add\n        /* \"#utility.yul\":5215:5253   */\n      tag_475\n      jump\t// in\n    tag_538:\n        /* \"#utility.yul\":5205:5253   */\n      swap3\n      pop\n        /* \"#utility.yul\":5300:5302   */\n      0x40\n        /* \"#utility.yul\":5289:5298   */\n      dup6\n        /* \"#utility.yul\":5285:5303   */\n      add\n        /* \"#utility.yul\":5272:5304   */\n      calldataload\n        /* \"#utility.yul\":5262:5304   */\n      swap2\n      pop\n        /* \"#utility.yul\":5355:5357   */\n      0x60\n        /* \"#utility.yul\":5344:5353   */\n      dup6\n        /* \"#utility.yul\":5340:5358   */\n      add\n        /* \"#utility.yul\":5327:5359   */\n      calldataload\n        /* \"#utility.yul\":5382:5400   */\n      0xffffffffffffffff\n        /* \"#utility.yul\":5374:5380   */\n      dup2\n        /* \"#utility.yul\":5371:5401   */\n      gt\n        /* \"#utility.yul\":5368:5418   */\n      iszero\n      tag_539\n      jumpi\n        /* \"#utility.yul\":5414:5415   */\n      0x00\n        /* \"#utility.yul\":5411:5412   */\n      dup1\n        /* \"#utility.yul\":5404:5416   */\n      revert\n        /* \"#utility.yul\":5368:5418   */\n    tag_539:\n        /* \"#utility.yul\":5437:5459   */\n      dup6\n      add\n        /* \"#utility.yul\":5490:5494   */\n      0x1f\n        /* \"#utility.yul\":5482:5495   */\n      dup2\n      add\n        /* \"#utility.yul\":5478:5505   */\n      dup8\n      sgt\n        /* \"#utility.yul\":5468:5523   */\n      tag_540\n      jumpi\n        /* \"#utility.yul\":5519:5520   */\n      0x00\n        /* \"#utility.yul\":5516:5517   */\n      dup1\n        /* \"#utility.yul\":5509:5521   */\n      revert\n        /* \"#utility.yul\":5468:5523   */\n    tag_540:\n        /* \"#utility.yul\":5542:5616   */\n      tag_541\n        /* \"#utility.yul\":5608:5615   */\n      dup8\n        /* \"#utility.yul\":5603:5605   */\n      dup3\n        /* \"#utility.yul\":5590:5606   */\n      calldataload\n        /* \"#utility.yul\":5585:5587   */\n      0x20\n        /* \"#utility.yul\":5581:5583   */\n      dup5\n        /* \"#utility.yul\":5577:5588   */\n      add\n        /* \"#utility.yul\":5542:5616   */\n      tag_476\n      jump\t// in\n    tag_541:\n        /* \"#utility.yul\":5532:5616   */\n      swap2\n      pop\n      pop\n        /* \"#utility.yul\":4955:5622   */\n      swap3\n      swap6\n      swap2\n      swap5\n      pop\n      swap3\n      pop\n      jump\t// out\n        /* \"#utility.yul\":5627:5887   */\n    tag_154:\n        /* \"#utility.yul\":5695:5701   */\n      0x00\n        /* \"#utility.yul\":5703:5709   */\n      dup1\n        /* \"#utility.yul\":5756:5758   */\n      0x40\n        /* \"#utility.yul\":5744:5753   */\n      dup4\n        /* \"#utility.yul\":5735:5742   */\n      dup6\n        /* \"#utility.yul\":5731:5754   */\n      sub\n        /* \"#utility.yul\":5727:5759   */\n      slt\n        /* \"#utility.yul\":5724:5776   */\n      iszero\n      tag_543\n      jumpi\n        /* \"#utility.yul\":5772:5773   */\n      0x00\n        /* \"#utility.yul\":5769:5770   */\n      dup1\n        /* \"#utility.yul\":5762:5774   */\n      revert\n        /* \"#utility.yul\":5724:5776   */\n    tag_543:\n        /* \"#utility.yul\":5795:5824   */\n      tag_544\n        /* \"#utility.yul\":5814:5823   */\n      dup4\n        /* \"#utility.yul\":5795:5824   */\n      tag_475\n      jump\t// in\n    tag_544:\n        /* \"#utility.yul\":5785:5824   */\n      swap2\n      pop\n        /* \"#utility.yul\":5843:5881   */\n      tag_545\n        /* \"#utility.yul\":5877:5879   */\n      0x20\n        /* \"#utility.yul\":5866:5875   */\n      dup5\n        /* \"#utility.yul\":5862:5880   */\n      add\n        /* \"#utility.yul\":5843:5881   */\n      tag_475\n      jump\t// in\n    tag_545:\n        /* \"#utility.yul\":5833:5881   */\n      swap1\n      pop\n        /* \"#utility.yul\":5627:5887   */\n      swap3\n      pop\n      swap3\n      swap1\n      pop\n      jump\t// out\n        /* \"#utility.yul\":5892:6272   */\n    tag_168:\n        /* \"#utility.yul\":5971:5972   */\n      0x01\n        /* \"#utility.yul\":5967:5979   */\n      dup2\n      dup2\n      shr\n      swap1\n        /* \"#utility.yul\":6014:6026   */\n      dup3\n      and\n      dup1\n        /* \"#utility.yul\":6035:6096   */\n      tag_547\n      jumpi\n        /* \"#utility.yul\":6089:6093   */\n      0x7f\n        /* \"#utility.yul\":6081:6087   */\n      dup3\n        /* \"#utility.yul\":6077:6094   */\n      and\n        /* \"#utility.yul\":6067:6094   */\n      swap2\n      pop\n        /* \"#utility.yul\":6035:6096   */\n    tag_547:\n        /* \"#utility.yul\":6142:6144   */\n      0x20\n        /* \"#utility.yul\":6134:6140   */\n      dup3\n        /* \"#utility.yul\":6131:6145   */\n      lt\n        /* \"#utility.yul\":6111:6129   */\n      dup2\n        /* \"#utility.yul\":6108:6146   */\n      sub\n        /* \"#utility.yul\":6105:6266   */\n      tag_548\n      jumpi\n        /* \"#utility.yul\":6188:6198   */\n      0x4e487b71\n        /* \"#utility.yul\":6183:6186   */\n      0xe0\n        /* \"#utility.yul\":6179:6199   */\n      shl\n        /* \"#utility.yul\":6176:6177   */\n      0x00\n        /* \"#utility.yul\":6169:6200   */\n      mstore\n        /* \"#utility.yul\":6223:6227   */\n      0x22\n        /* \"#utility.yul\":6220:6221   */\n      0x04\n        /* \"#utility.yul\":6213:6228   */\n      mstore\n        /* \"#utility.yul\":6251:6255   */\n      0x24\n        /* \"#utility.yul\":6248:6249   */\n      0x00\n        /* \"#utility.yul\":6241:6256   */\n      revert\n        /* \"#utility.yul\":6105:6266   */\n    tag_548:\n      pop\n        /* \"#utility.yul\":5892:6272   */\n      swap2\n      swap1\n      pop\n      jump\t// out\n        /* \"#utility.yul\":8892:9019   */\n    tag_478:\n        /* \"#utility.yul\":8953:8963   */\n      0x4e487b71\n        /* \"#utility.yul\":8948:8951   */\n      0xe0\n        /* \"#utility.yul\":8944:8964   */\n      shl\n        /* \"#utility.yul\":8941:8942   */\n      0x00\n        /* \"#utility.yul\":8934:8965   */\n      mstore\n        /* \"#utility.yul\":8984:8988   */\n      0x11\n        /* \"#utility.yul\":8981:8982   */\n      0x04\n        /* \"#utility.yul\":8974:8989   */\n      mstore\n        /* \"#utility.yul\":9008:9012   */\n      0x24\n        /* \"#utility.yul\":9005:9006   */\n      0x00\n        /* \"#utility.yul\":8998:9013   */\n      revert\n        /* \"#utility.yul\":9024:9159   */\n    tag_208:\n        /* \"#utility.yul\":9063:9066   */\n      0x00\n        /* \"#utility.yul\":9084:9101   */\n      0x01\n      dup3\n      add\n        /* \"#utility.yul\":9081:9124   */\n      tag_559\n      jumpi\n        /* \"#utility.yul\":9104:9122   */\n      tag_559\n      tag_478\n      jump\t// in\n    tag_559:\n      pop\n        /* \"#utility.yul\":9151:9152   */\n      0x01\n        /* \"#utility.yul\":9140:9153   */\n      add\n      swap1\n        /* \"#utility.yul\":9024:9159   */\n      jump\t// out\n        /* \"#utility.yul\":9164:9577   */\n    tag_218:\n        /* \"#utility.yul\":9366:9368   */\n      0x20\n        /* \"#utility.yul\":9348:9369   */\n      dup1\n      dup3\n      mstore\n        /* \"#utility.yul\":9405:9407   */\n      0x31\n        /* \"#utility.yul\":9385:9403   */\n      swap1\n      dup3\n      add\n        /* \"#utility.yul\":9378:9408   */\n      mstore\n        /* \"#utility.yul\":9444:9478   */\n      0x4552433732313a207472616e736665722063616c6c6572206973206e6f74206f\n        /* \"#utility.yul\":9439:9441   */\n      0x40\n        /* \"#utility.yul\":9424:9442   */\n      dup3\n      add\n        /* \"#utility.yul\":9417:9479   */\n      mstore\n      shl(0x7a, 0x1ddb995c881b9bdc88185c1c1c9bdd9959)\n        /* \"#utility.yul\":9510:9512   */\n      0x60\n        /* \"#utility.yul\":9495:9513   */\n      dup3\n      add\n        /* \"#utility.yul\":9488:9535   */\n      mstore\n        /* \"#utility.yul\":9567:9570   */\n      0x80\n        /* \"#utility.yul\":9552:9571   */\n      add\n      swap1\n        /* \"#utility.yul\":9164:9577   */\n      jump\t// out\n        /* \"#utility.yul\":9582:9858   */\n    tag_225:\n        /* \"#utility.yul\":9713:9716   */\n      0x00\n        /* \"#utility.yul\":9751:9757   */\n      dup3\n        /* \"#utility.yul\":9745:9758   */\n      mload\n        /* \"#utility.yul\":9767:9820   */\n      tag_562\n        /* \"#utility.yul\":9813:9819   */\n      dup2\n        /* \"#utility.yul\":9808:9811   */\n      dup5\n        /* \"#utility.yul\":9801:9805   */\n      0x20\n        /* \"#utility.yul\":9793:9799   */\n      dup8\n        /* \"#utility.yul\":9789:9806   */\n      add\n        /* \"#utility.yul\":9767:9820   */\n      tag_473\n      jump\t// in\n    tag_562:\n        /* \"#utility.yul\":9836:9852   */\n      swap2\n      swap1\n      swap2\n      add\n      swap3\n        /* \"#utility.yul\":9582:9858   */\n      swap2\n      pop\n      pop\n      jump\t// out\n        /* \"#utility.yul\":10965:11321   */\n    tag_250:\n        /* \"#utility.yul\":11167:11169   */\n      0x20\n        /* \"#utility.yul\":11149:11170   */\n      dup1\n      dup3\n      mstore\n        /* \"#utility.yul\":11186:11204   */\n      dup2\n      dup2\n      add\n        /* \"#utility.yul\":11179:11209   */\n      mstore\n        /* \"#utility.yul\":11245:11279   */\n      0x4f776e61626c653a2063616c6c6572206973206e6f7420746865206f776e6572\n        /* \"#utility.yul\":11240:11242   */\n      0x40\n        /* \"#utility.yul\":11225:11243   */\n      dup3\n      add\n        /* \"#utility.yul\":11218:11280   */\n      mstore\n        /* \"#utility.yul\":11312:11314   */\n      0x60\n        /* \"#utility.yul\":11297:11315   */\n      add\n      swap1\n        /* \"#utility.yul\":10965:11321   */\n      jump\t// out\n        /* \"#utility.yul\":13368:13493   */\n    tag_344:\n        /* \"#utility.yul\":13408:13412   */\n      0x00\n        /* \"#utility.yul\":13436:13437   */\n      dup3\n        /* \"#utility.yul\":13433:13434   */\n      dup3\n        /* \"#utility.yul\":13430:13438   */\n      lt\n        /* \"#utility.yul\":13427:13461   */\n      iszero\n      tag_574\n      jumpi\n        /* \"#utility.yul\":13441:13459   */\n      tag_574\n      tag_478\n      jump\t// in\n    tag_574:\n      pop\n        /* \"#utility.yul\":13478:13487   */\n      sub\n      swap1\n        /* \"#utility.yul\":13368:13493   */\n      jump\t// out\n        /* \"#utility.yul\":13498:13626   */\n    tag_346:\n        /* \"#utility.yul\":13538:13541   */\n      0x00\n        /* \"#utility.yul\":13569:13570   */\n      dup3\n        /* \"#utility.yul\":13565:13571   */\n      not\n        /* \"#utility.yul\":13562:13563   */\n      dup3\n        /* \"#utility.yul\":13559:13572   */\n      gt\n        /* \"#utility.yul\":13556:13595   */\n      iszero\n      tag_577\n      jumpi\n        /* \"#utility.yul\":13575:13593   */\n      tag_577\n      tag_478\n      jump\t// in\n    tag_577:\n      pop\n        /* \"#utility.yul\":13611:13620   */\n      add\n      swap1\n        /* \"#utility.yul\":13498:13626   */\n      jump\t// out\n        /* \"#utility.yul\":15118:15532   */\n    tag_381:\n        /* \"#utility.yul\":15320:15322   */\n      0x20\n        /* \"#utility.yul\":15302:15323   */\n      dup1\n      dup3\n      mstore\n        /* \"#utility.yul\":15359:15361   */\n      0x32\n        /* \"#utility.yul\":15339:15357   */\n      swap1\n      dup3\n      add\n        /* \"#utility.yul\":15332:15362   */\n      mstore\n        /* \"#utility.yul\":15398:15432   */\n      0x4552433732313a207472616e7366657220746f206e6f6e204552433732315265\n        /* \"#utility.yul\":15393:15395   */\n      0x40\n        /* \"#utility.yul\":15378:15396   */\n      dup3\n      add\n        /* \"#utility.yul\":15371:15433   */\n      mstore\n      shl(0x71, 0x31b2b4bb32b91034b6b83632b6b2b73a32b9)\n        /* \"#utility.yul\":15464:15466   */\n      0x60\n        /* \"#utility.yul\":15449:15467   */\n      dup3\n      add\n        /* \"#utility.yul\":15442:15490   */\n      mstore\n        /* \"#utility.yul\":15522:15525   */\n      0x80\n        /* \"#utility.yul\":15507:15526   */\n      add\n      swap1\n        /* \"#utility.yul\":15118:15532   */\n      jump\t// out\n        /* \"#utility.yul\":15955:16425   */\n    tag_397:\n        /* \"#utility.yul\":16134:16137   */\n      0x00\n        /* \"#utility.yul\":16172:16178   */\n      dup4\n        /* \"#utility.yul\":16166:16179   */\n      mload\n        /* \"#utility.yul\":16188:16241   */\n      tag_585\n        /* \"#utility.yul\":16234:16240   */\n      dup2\n        /* \"#utility.yul\":16229:16232   */\n      dup5\n        /* \"#utility.yul\":16222:16226   */\n      0x20\n        /* \"#utility.yul\":16214:16220   */\n      dup9\n        /* \"#utility.yul\":16210:16227   */\n      add\n        /* \"#utility.yul\":16188:16241   */\n      tag_473\n      jump\t// in\n    tag_585:\n        /* \"#utility.yul\":16304:16317   */\n      dup4\n      mload\n        /* \"#utility.yul\":16263:16279   */\n      swap1\n      dup4\n      add\n      swap1\n        /* \"#utility.yul\":16326:16383   */\n      tag_586\n        /* \"#utility.yul\":16304:16317   */\n      dup2\n        /* \"#utility.yul\":16263:16279   */\n      dup4\n        /* \"#utility.yul\":16360:16364   */\n      0x20\n        /* \"#utility.yul\":16348:16365   */\n      dup9\n      add\n        /* \"#utility.yul\":16326:16383   */\n      tag_473\n      jump\t// in\n    tag_586:\n        /* \"#utility.yul\":16399:16419   */\n      add\n      swap5\n        /* \"#utility.yul\":15955:16425   */\n      swap4\n      pop\n      pop\n      pop\n      pop\n      jump\t// out\n        /* \"#utility.yul\":16430:16919   */\n    tag_413:\n      sub(shl(0xa0, 0x01), 0x01)\n        /* \"#utility.yul\":16699:16714   */\n      dup6\n      dup2\n      and\n        /* \"#utility.yul\":16681:16715   */\n      dup3\n      mstore\n        /* \"#utility.yul\":16751:16766   */\n      dup5\n      and\n        /* \"#utility.yul\":16746:16748   */\n      0x20\n        /* \"#utility.yul\":16731:16749   */\n      dup3\n      add\n        /* \"#utility.yul\":16724:16767   */\n      mstore\n        /* \"#utility.yul\":16798:16800   */\n      0x40\n        /* \"#utility.yul\":16783:16801   */\n      dup2\n      add\n        /* \"#utility.yul\":16776:16810   */\n      dup4\n      swap1\n      mstore\n        /* \"#utility.yul\":16846:16849   */\n      0x80\n        /* \"#utility.yul\":16841:16843   */\n      0x60\n        /* \"#utility.yul\":16826:16844   */\n      dup3\n      add\n        /* \"#utility.yul\":16819:16850   */\n      dup2\n      swap1\n      mstore\n        /* \"#utility.yul\":16624:16628   */\n      0x00\n      swap1\n        /* \"#utility.yul\":16867:16913   */\n      tag_588\n      swap1\n        /* \"#utility.yul\":16893:16912   */\n      dup4\n      add\n        /* \"#utility.yul\":16885:16891   */\n      dup5\n        /* \"#utility.yul\":16867:16913   */\n      tag_474\n      jump\t// in\n    tag_588:\n        /* \"#utility.yul\":16859:16913   */\n      swap7\n        /* \"#utility.yul\":16430:16919   */\n      swap6\n      pop\n      pop\n      pop\n      pop\n      pop\n      pop\n      jump\t// out\n        /* \"#utility.yul\":16924:17173   */\n    tag_416:\n        /* \"#utility.yul\":16993:16999   */\n      0x00\n        /* \"#utility.yul\":17046:17048   */\n      0x20\n        /* \"#utility.yul\":17034:17043   */\n      dup3\n        /* \"#utility.yul\":17025:17032   */\n      dup5\n        /* \"#utility.yul\":17021:17044   */\n      sub\n        /* \"#utility.yul\":17017:17049   */\n      slt\n        /* \"#utility.yul\":17014:17066   */\n      iszero\n      tag_590\n      jumpi\n        /* \"#utility.yul\":17062:17063   */\n      0x00\n        /* \"#utility.yul\":17059:17060   */\n      dup1\n        /* \"#utility.yul\":17052:17064   */\n      revert\n        /* \"#utility.yul\":17014:17066   */\n    tag_590:\n        /* \"#utility.yul\":17094:17103   */\n      dup2\n        /* \"#utility.yul\":17088:17104   */\n      mload\n        /* \"#utility.yul\":17113:17143   */\n      tag_239\n        /* \"#utility.yul\":17137:17142   */\n      dup2\n        /* \"#utility.yul\":17113:17143   */\n      tag_472\n      jump\t// in\n        /* \"#utility.yul\":17594:17721   */\n    tag_479:\n        /* \"#utility.yul\":17655:17665   */\n      0x4e487b71\n        /* \"#utility.yul\":17650:17653   */\n      0xe0\n        /* \"#utility.yul\":17646:17666   */\n      shl\n        /* \"#utility.yul\":17643:17644   */\n      0x00\n        /* \"#utility.yul\":17636:17667   */\n      mstore\n        /* \"#utility.yul\":17686:17690   */\n      0x12\n        /* \"#utility.yul\":17683:17684   */\n      0x04\n        /* \"#utility.yul\":17676:17691   */\n      mstore\n        /* \"#utility.yul\":17710:17714   */\n      0x24\n        /* \"#utility.yul\":17707:17708   */\n      0x00\n        /* \"#utility.yul\":17700:17715   */\n      revert\n        /* \"#utility.yul\":17726:17846   */\n    tag_447:\n        /* \"#utility.yul\":17766:17767   */\n      0x00\n        /* \"#utility.yul\":17792:17793   */\n      dup3\n        /* \"#utility.yul\":17782:17817   */\n      tag_596\n      jumpi\n        /* \"#utility.yul\":17797:17815   */\n      tag_596\n      tag_479\n      jump\t// in\n    tag_596:\n      pop\n        /* \"#utility.yul\":17831:17840   */\n      div\n      swap1\n        /* \"#utility.yul\":17726:17846   */\n      jump\t// out\n        /* \"#utility.yul\":17851:17963   */\n    tag_456:\n        /* \"#utility.yul\":17883:17884   */\n      0x00\n        /* \"#utility.yul\":17909:17910   */\n      dup3\n        /* \"#utility.yul\":17899:17934   */\n      tag_599\n      jumpi\n        /* \"#utility.yul\":17914:17932   */\n      tag_599\n      tag_479\n      jump\t// in\n    tag_599:\n      pop\n        /* \"#utility.yul\":17948:17957   */\n      mod\n      swap1\n        /* \"#utility.yul\":17851:17963   */\n      jump\t// out\n        /* \"#utility.yul\":17968:18095   */\n    tag_460:\n        /* \"#utility.yul\":18029:18039   */\n      0x4e487b71\n        /* \"#utility.yul\":18024:18027   */\n      0xe0\n        /* \"#utility.yul\":18020:18040   */\n      shl\n        /* \"#utility.yul\":18017:18018   */\n      0x00\n        /* \"#utility.yul\":18010:18041   */\n      mstore\n        /* \"#utility.yul\":18060:18064   */\n      0x32\n        /* \"#utility.yul\":18057:18058   */\n      0x04\n        /* \"#utility.yul\":18050:18065   */\n      mstore\n        /* \"#utility.yul\":18084:18088   */\n      0x24\n        /* \"#utility.yul\":18081:18082   */\n      0x00\n        /* \"#utility.yul\":18074:18089   */\n      revert\n    stop\n    data_59c4dd7ef2140bfb5e97a3270b879245e1da0acff409a5ba311bd86dc2cb17a7 68747470733a2f2f697066732e696f2f697066732f516d567270565a583544786e614b4c70785267626a7273555a59334a636e44486d5245353773784751566637676d3f66696c656e616d653d343634353735393631313634323937343238342e676966\n\n    auxdata: 0xa2646970667358221220e8396f86ecc3f4b8770cc04936954ebef403201310020fa8e32c8edc92ccdd4564736f6c634300080d0033\n}\n",
				"bytecode": {
					"linkReferences": {},
					"object": "66038d7ea4c68000600855600c60808181526b7777772e662d6e66742e757360a01b60a0908152610100604052600460c0908152631193919560e21b60e05291926200004e91600091620000e4565b50805162000064906001906020840190620000e4565b505050620000816200007b6200008e60201b60201c565b62000092565b620f4240600a55620001c6565b3390565b600780546001600160a01b038381166001600160a01b0319831681179093556040519116919082907f8be0079c531659141344cd1fd0a4f28419497f9722a3daafe3b4186f6b6457e090600090a35050565b828054620000f2906200018a565b90600052602060002090601f01602090048101928262000116576000855562000161565b82601f106200013157805160ff191683800117855562000161565b8280016001018555821562000161579182015b828111156200016157825182559160200191906001019062000144565b506200016f92915062000173565b5090565b5b808211156200016f576000815560010162000174565b600181811c908216806200019f57607f821691505b602082108103620001c057634e487b7160e01b600052602260045260246000fd5b50919050565b611f4380620001d66000396000f3fe60806040526004361061019c5760003560e01c806370a08231116100ec578063ada7c4ed1161008a578063d204c45e11610064578063d204c45e1461046b578063d5abeb011461048b578063e985e9c5146104a1578063f2fde38b146104ea57600080fd5b8063ada7c4ed146103fe578063b88d4fde1461042b578063c87b56dd1461044b57600080fd5b80638da5cb5b116100c65780638da5cb5b1461038b57806395d89b41146103a95780639f1cabc6146103be578063a22cb465146103de57600080fd5b806370a0823114610341578063715018a61461036157806384a428db1461037657600080fd5b806323b872dd11610159578063615fd9e211610133578063615fd9e2146102d85780636352211e146102eb5780636817c76c1461030b5780636f8b44b01461032157600080fd5b806323b872dd1461027e578063346de50a1461029e57806342842e0e146102b857600080fd5b806301ffc9a7146101a157806306fdde03146101d6578063081812fc146101f8578063095ea7b3146102305780631249c58b1461025257806318160ddd1461025a575b600080fd5b3480156101ad57600080fd5b506101c16101bc3660046118e8565b61050a565b60405190151581526020015b60405180910390f35b3480156101e257600080fd5b506101eb61055c565b6040516101cd919061195d565b34801561020457600080fd5b50610218610213366004611970565b6105ee565b6040516001600160a01b0390911681526020016101cd565b34801561023c57600080fd5b5061025061024b3660046119a5565b61067b565b005b610250610790565b34801561026657600080fd5b5061027060095481565b6040519081526020016101cd565b34801561028a57600080fd5b506102506102993660046119cf565b6108f2565b3480156102aa57600080fd5b50600b546101c19060ff1681565b3480156102c457600080fd5b506102506102d33660046119cf565b610923565b6102706102e6366004611ab7565b61093e565b3480156102f757600080fd5b50610218610306366004611970565b610a5c565b34801561031757600080fd5b5061027060085481565b34801561032d57600080fd5b5061025061033c366004611970565b610ad3565b34801561034d57600080fd5b5061027061035c366004611b05565b610b02565b34801561036d57600080fd5b50610250610b89565b34801561038257600080fd5b50610250610bbf565b34801561039757600080fd5b506007546001600160a01b0316610218565b3480156103b557600080fd5b506101eb610bfd565b3480156103ca57600080fd5b506101c16103d9366004611b20565b610c0c565b3480156103ea57600080fd5b506102506103f9366004611b55565b610c3a565b34801561040a57600080fd5b50610270610419366004611b05565b600c6020526000908152604090205481565b34801561043757600080fd5b50610250610446366004611b91565b610c49565b34801561045757600080fd5b506101eb610466366004611970565b610c81565b34801561047757600080fd5b50610250610486366004611ab7565b610c8c565b34801561049757600080fd5b50610270600a5481565b3480156104ad57600080fd5b506101c16104bc366004611c0d565b6001600160a01b03918216600090815260056020908152604080832093909416825291909152205460ff1690565b3480156104f657600080fd5b50610250610505366004611b05565b610ce5565b60006001600160e01b031982166380ac58cd60e01b148061053b57506001600160e01b03198216635b5e139f60e01b145b8061055657506301ffc9a760e01b6001600160e01b03198316145b92915050565b60606000805461056b90611c40565b80601f016020809104026020016040519081016040528092919081815260200182805461059790611c40565b80156105e45780601f106105b9576101008083540402835291602001916105e4565b820191906000526020600020905b8154815290600101906020018083116105c757829003601f168201915b5050505050905090565b60006105f982610d7d565b61065f5760405162461bcd60e51b815260206004820152602c60248201527f4552433732313a20617070726f76656420717565727920666f72206e6f6e657860448201526b34b9ba32b73a103a37b5b2b760a11b60648201526084015b60405180910390fd5b506000908152600460205260409020546001600160a01b031690565b600061068682610a5c565b9050806001600160a01b0316836001600160a01b0316036106f35760405162461bcd60e51b815260206004820152602160248201527f4552433732313a20617070726f76616c20746f2063757272656e74206f776e656044820152603960f91b6064820152608401610656565b336001600160a01b038216148061070f575061070f81336104bc565b6107815760405162461bcd60e51b815260206004820152603860248201527f4552433732313a20617070726f76652063616c6c6572206973206e6f74206f7760448201527f6e6572206e6f7220617070726f76656420666f7220616c6c00000000000000006064820152608401610656565b61078b8383610d9a565b505050565b600b5460ff166107d85760405162461bcd60e51b8152602060048201526013602482015272135a5b9d1a5b99c81b9bdd08195b98589b1959606a1b6044820152606401610656565b336000908152600c60205260409020546001116108305760405162461bcd60e51b8152602060048201526016602482015275115e18d959591cc81b585e081c195c881dd85b1b195d60521b6044820152606401610656565b600854341461086f5760405162461bcd60e51b815260206004820152600b60248201526a57726f6e672056616c756560a81b6044820152606401610656565b600954600a54116108ad5760405162461bcd60e51b815260206004820152600860248201526714dbdb190813dd5d60c21b6044820152606401610656565b336000908152600c602052604081208054916108c883611c90565b9091555050600980549060006108dd83611c90565b90915550506009546108ef3382610e08565b50565b6108fc3382610e22565b6109185760405162461bcd60e51b815260040161065690611ca9565b61078b838383610f0c565b61078b83838360405180602001604052806000815250610c49565b6000600e826040516109509190611cfa565b9081526040519081900360200190205460ff166001036109a85760405162461bcd60e51b81526020600482015260136024820152724e465420616c7265616479206d696e7465642160681b6044820152606401610656565b66038d7ea4c680003410156109f15760405162461bcd60e51b815260206004820152600f60248201526e4e65656420746f207061792075702160881b6044820152606401610656565b60006109fc600d5490565b9050610a0c600d80546001019055565b6001600e84604051610a1e9190611cfa565b908152604051908190036020019020805460ff9290921660ff19909216919091179055610a4b84826110a8565b610a5581846111db565b9392505050565b6000818152600260205260408120546001600160a01b0316806105565760405162461bcd60e51b815260206004820152602960248201527f4552433732313a206f776e657220717565727920666f72206e6f6e657869737460448201526832b73a103a37b5b2b760b91b6064820152608401610656565b6007546001600160a01b03163314610afd5760405162461bcd60e51b815260040161065690611d16565b600a55565b60006001600160a01b038216610b6d5760405162461bcd60e51b815260206004820152602a60248201527f4552433732313a2062616c616e636520717565727920666f7220746865207a65604482015269726f206164647265737360b01b6064820152608401610656565b506001600160a01b031660009081526003602052604090205490565b6007546001600160a01b03163314610bb35760405162461bcd60e51b815260040161065690611d16565b610bbd6000611266565b565b6007546001600160a01b03163314610be95760405162461bcd60e51b815260040161065690611d16565b600b805460ff19811660ff90911615179055565b60606001805461056b90611c40565b6000600e82604051610c1e9190611cfa565b9081526040519081900360200190205460ff1660011492915050565b610c453383836112b8565b5050565b610c533383610e22565b610c6f5760405162461bcd60e51b815260040161065690611ca9565b610c7b84848484611386565b50505050565b6060610556826113b9565b6007546001600160a01b03163314610cb65760405162461bcd60e51b815260040161065690611d16565b6000610cc1600d5490565b9050610cd1600d80546001019055565b610cdb8382610e08565b61078b81836111db565b6007546001600160a01b03163314610d0f5760405162461bcd60e51b815260040161065690611d16565b6001600160a01b038116610d745760405162461bcd60e51b815260206004820152602660248201527f4f776e61626c653a206e6577206f776e657220697320746865207a65726f206160448201526564647265737360d01b6064820152608401610656565b6108ef81611266565b6000908152600260205260409020546001600160a01b0316151590565b600081815260046020526040902080546001600160a01b0319166001600160a01b0384169081179091558190610dcf82610a5c565b6001600160a01b03167f8c5be1e5ebec7d5bd14f71427d1e84f3dd0314c0f7b2291e5b200ac8c7c3b92560405160405180910390a45050565b610c4582826040518060200160405280600081525061151a565b6000610e2d82610d7d565b610e8e5760405162461bcd60e51b815260206004820152602c60248201527f4552433732313a206f70657261746f7220717565727920666f72206e6f6e657860448201526b34b9ba32b73a103a37b5b2b760a11b6064820152608401610656565b6000610e9983610a5c565b9050806001600160a01b0316846001600160a01b03161480610ed45750836001600160a01b0316610ec9846105ee565b6001600160a01b0316145b80610f0457506001600160a01b0380821660009081526005602090815260408083209388168352929052205460ff165b949350505050565b826001600160a01b0316610f1f82610a5c565b6001600160a01b031614610f835760405162461bcd60e51b815260206004820152602560248201527f4552433732313a207472616e736665722066726f6d20696e636f72726563742060448201526437bbb732b960d91b6064820152608401610656565b6001600160a01b038216610fe55760405162461bcd60e51b8152602060048201526024808201527f4552433732313a207472616e7366657220746f20746865207a65726f206164646044820152637265737360e01b6064820152608401610656565b610ff0600082610d9a565b6001600160a01b0383166000908152600360205260408120805460019290611019908490611d4b565b90915550506001600160a01b0382166000908152600360205260408120805460019290611047908490611d62565b909155505060008181526002602052604080822080546001600160a01b0319166001600160a01b0386811691821790925591518493918716917fddf252ad1be2c89b69c2b068fc378daa952ba7f163c4a11628f55a4df523b3ef91a4505050565b6001600160a01b0382166110fe5760405162461bcd60e51b815260206004820181905260248201527f4552433732313a206d696e7420746f20746865207a65726f20616464726573736044820152606401610656565b61110781610d7d565b156111545760405162461bcd60e51b815260206004820152601c60248201527f4552433732313a20746f6b656e20616c7265616479206d696e746564000000006044820152606401610656565b6001600160a01b038216600090815260036020526040812080546001929061117d908490611d62565b909155505060008181526002602052604080822080546001600160a01b0319166001600160a01b03861690811790915590518392907fddf252ad1be2c89b69c2b068fc378daa952ba7f163c4a11628f55a4df523b3ef908290a45050565b6111e482610d7d565b6112475760405162461bcd60e51b815260206004820152602e60248201527f45524337323155524953746f726167653a2055524920736574206f66206e6f6e60448201526d32bc34b9ba32b73a103a37b5b2b760911b6064820152608401610656565b6000828152600660209081526040909120825161078b92840190611839565b600780546001600160a01b038381166001600160a01b0319831681179093556040519116919082907f8be0079c531659141344cd1fd0a4f28419497f9722a3daafe3b4186f6b6457e090600090a35050565b816001600160a01b0316836001600160a01b0316036113195760405162461bcd60e51b815260206004820152601960248201527f4552433732313a20617070726f766520746f2063616c6c6572000000000000006044820152606401610656565b6001600160a01b03838116600081815260056020908152604080832094871680845294825291829020805460ff191686151590811790915591519182527f17307eab39ab6107e8899845ad3d59bd9653f200f220920489ca2b5937696c31910160405180910390a3505050565b611391848484610f0c565b61139d8484848461154d565b610c7b5760405162461bcd60e51b815260040161065690611d7a565b60606113c482610d7d565b61142a5760405162461bcd60e51b815260206004820152603160248201527f45524337323155524953746f726167653a2055524920717565727920666f72206044820152703737b732bc34b9ba32b73a103a37b5b2b760791b6064820152608401610656565b6000828152600660205260408120805461144390611c40565b80601f016020809104026020016040519081016040528092919081815260200182805461146f90611c40565b80156114bc5780601f10611491576101008083540402835291602001916114bc565b820191906000526020600020905b81548152906001019060200180831161149f57829003601f168201915b5050505050905060006114cd61164e565b905080516000036114df575092915050565b8151156115115780826040516020016114f9929190611dcc565b60405160208183030381529060405292505050919050565b610f048461166e565b61152483836110a8565b611531600084848461154d565b61078b5760405162461bcd60e51b815260040161065690611d7a565b60006001600160a01b0384163b1561164357604051630a85bd0160e11b81526001600160a01b0385169063150b7a0290611591903390899088908890600401611dfb565b6020604051808303816000875af19250505080156115cc575060408051601f3d908101601f191682019092526115c991810190611e38565b60015b611629573d8080156115fa576040519150601f19603f3d011682016040523d82523d6000602084013e6115ff565b606091505b5080516000036116215760405162461bcd60e51b815260040161065690611d7a565b805181602001fd5b6001600160e01b031916630a85bd0160e11b149050610f04565b506001949350505050565b60606040518060a0016040528060648152602001611eaa60649139905090565b606061167982610d7d565b6116dd5760405162461bcd60e51b815260206004820152602f60248201527f4552433732314d657461646174613a2055524920717565727920666f72206e6f60448201526e3732bc34b9ba32b73a103a37b5b2b760891b6064820152608401610656565b60006116e761164e565b905060008151116117075760405180602001604052806000815250610a55565b8061171184611738565b604051602001611722929190611dcc565b6040516020818303038152906040529392505050565b60608160000361175f5750506040805180820190915260018152600360fc1b602082015290565b8160005b8115611789578061177381611c90565b91506117829050600a83611e6b565b9150611763565b60008167ffffffffffffffff8111156117a4576117a4611a0b565b6040519080825280601f01601f1916602001820160405280156117ce576020820181803683370190505b5090505b8415610f04576117e3600183611d4b565b91506117f0600a86611e7f565b6117fb906030611d62565b60f81b81838151811061181057611810611e93565b60200101906001600160f81b031916908160001a905350611832600a86611e6b565b94506117d2565b82805461184590611c40565b90600052602060002090601f01602090048101928261186757600085556118ad565b82601f1061188057805160ff19168380011785556118ad565b828001600101855582156118ad579182015b828111156118ad578251825591602001919060010190611892565b506118b99291506118bd565b5090565b5b808211156118b957600081556001016118be565b6001600160e01b0319811681146108ef57600080fd5b6000602082840312156118fa57600080fd5b8135610a55816118d2565b60005b83811015611920578181015183820152602001611908565b83811115610c7b5750506000910152565b60008151808452611949816020860160208601611905565b601f01601f19169290920160200192915050565b602081526000610a556020830184611931565b60006020828403121561198257600080fd5b5035919050565b80356001600160a01b03811681146119a057600080fd5b919050565b600080604083850312156119b857600080fd5b6119c183611989565b946020939093013593505050565b6000806000606084860312156119e457600080fd5b6119ed84611989565b92506119fb60208501611989565b9150604084013590509250925092565b634e487b7160e01b600052604160045260246000fd5b600067ffffffffffffffff80841115611a3c57611a3c611a0b565b604051601f8501601f19908116603f01168101908282118183101715611a6457611a64611a0b565b81604052809350858152868686011115611a7d57600080fd5b858560208301376000602087830101525050509392505050565b600082601f830112611aa857600080fd5b610a5583833560208501611a21565b60008060408385031215611aca57600080fd5b611ad383611989565b9150602083013567ffffffffffffffff811115611aef57600080fd5b611afb85828601611a97565b9150509250929050565b600060208284031215611b1757600080fd5b610a5582611989565b600060208284031215611b3257600080fd5b813567ffffffffffffffff811115611b4957600080fd5b610f0484828501611a97565b60008060408385031215611b6857600080fd5b611b7183611989565b915060208301358015158114611b8657600080fd5b809150509250929050565b60008060008060808587031215611ba757600080fd5b611bb085611989565b9350611bbe60208601611989565b925060408501359150606085013567ffffffffffffffff811115611be157600080fd5b8501601f81018713611bf257600080fd5b611c0187823560208401611a21565b91505092959194509250565b60008060408385031215611c2057600080fd5b611c2983611989565b9150611c3760208401611989565b90509250929050565b600181811c90821680611c5457607f821691505b602082108103611c7457634e487b7160e01b600052602260045260246000fd5b50919050565b634e487b7160e01b600052601160045260246000fd5b600060018201611ca257611ca2611c7a565b5060010190565b60208082526031908201527f4552433732313a207472616e736665722063616c6c6572206973206e6f74206f6040820152701ddb995c881b9bdc88185c1c1c9bdd9959607a1b606082015260800190565b60008251611d0c818460208701611905565b9190910192915050565b6020808252818101527f4f776e61626c653a2063616c6c6572206973206e6f7420746865206f776e6572604082015260600190565b600082821015611d5d57611d5d611c7a565b500390565b60008219821115611d7557611d75611c7a565b500190565b60208082526032908201527f4552433732313a207472616e7366657220746f206e6f6e20455243373231526560408201527131b2b4bb32b91034b6b83632b6b2b73a32b960711b606082015260800190565b60008351611dde818460208801611905565b835190830190611df2818360208801611905565b01949350505050565b6001600160a01b0385811682528416602082015260408101839052608060608201819052600090611e2e90830184611931565b9695505050505050565b600060208284031215611e4a57600080fd5b8151610a55816118d2565b634e487b7160e01b600052601260045260246000fd5b600082611e7a57611e7a611e55565b500490565b600082611e8e57611e8e611e55565b500690565b634e487b7160e01b600052603260045260246000fdfe68747470733a2f2f697066732e696f2f697066732f516d567270565a583544786e614b4c70785267626a7273555a59334a636e44486d5245353773784751566637676d3f66696c656e616d653d343634353735393631313634323937343238342e676966a2646970667358221220e8396f86ecc3f4b8770cc04936954ebef403201310020fa8e32c8edc92ccdd4564736f6c634300080d0033",
					"opcodes": "PUSH7 0x38D7EA4C68000 PUSH1 0x8 SSTORE PUSH1 0xC PUSH1 0x80 DUP2 DUP2 MSTORE PUSH12 0x7777772E662D6E66742E7573 PUSH1 0xA0 SHL PUSH1 0xA0 SWAP1 DUP2 MSTORE PUSH2 0x100 PUSH1 0x40 MSTORE PUSH1 0x4 PUSH1 0xC0 SWAP1 DUP2 MSTORE PUSH4 0x11939195 PUSH1 0xE2 SHL PUSH1 0xE0 MSTORE SWAP2 SWAP3 PUSH3 0x4E SWAP2 PUSH1 0x0 SWAP2 PUSH3 0xE4 JUMP JUMPDEST POP DUP1 MLOAD PUSH3 0x64 SWAP1 PUSH1 0x1 SWAP1 PUSH1 0x20 DUP5 ADD SWAP1 PUSH3 0xE4 JUMP JUMPDEST POP POP POP PUSH3 0x81 PUSH3 0x7B PUSH3 0x8E PUSH1 0x20 SHL PUSH1 0x20 SHR JUMP JUMPDEST PUSH3 0x92 JUMP JUMPDEST PUSH3 0xF4240 PUSH1 0xA SSTORE PUSH3 0x1C6 JUMP JUMPDEST CALLER SWAP1 JUMP JUMPDEST PUSH1 0x7 DUP1 SLOAD PUSH1 0x1 PUSH1 0x1 PUSH1 0xA0 SHL SUB DUP4 DUP2 AND PUSH1 0x1 PUSH1 0x1 PUSH1 0xA0 SHL SUB NOT DUP4 AND DUP2 OR SWAP1 SWAP4 SSTORE PUSH1 0x40 MLOAD SWAP2 AND SWAP2 SWAP1 DUP3 SWAP1 PUSH32 0x8BE0079C531659141344CD1FD0A4F28419497F9722A3DAAFE3B4186F6B6457E0 SWAP1 PUSH1 0x0 SWAP1 LOG3 POP POP JUMP JUMPDEST DUP3 DUP1 SLOAD PUSH3 0xF2 SWAP1 PUSH3 0x18A JUMP JUMPDEST SWAP1 PUSH1 0x0 MSTORE PUSH1 0x20 PUSH1 0x0 KECCAK256 SWAP1 PUSH1 0x1F ADD PUSH1 0x20 SWAP1 DIV DUP2 ADD SWAP3 DUP3 PUSH3 0x116 JUMPI PUSH1 0x0 DUP6 SSTORE PUSH3 0x161 JUMP JUMPDEST DUP3 PUSH1 0x1F LT PUSH3 0x131 JUMPI DUP1 MLOAD PUSH1 0xFF NOT AND DUP4 DUP1 ADD OR DUP6 SSTORE PUSH3 0x161 JUMP JUMPDEST DUP3 DUP1 ADD PUSH1 0x1 ADD DUP6 SSTORE DUP3 ISZERO PUSH3 0x161 JUMPI SWAP2 DUP3 ADD JUMPDEST DUP3 DUP2 GT ISZERO PUSH3 0x161 JUMPI DUP3 MLOAD DUP3 SSTORE SWAP2 PUSH1 0x20 ADD SWAP2 SWAP1 PUSH1 0x1 ADD SWAP1 PUSH3 0x144 JUMP JUMPDEST POP PUSH3 0x16F SWAP3 SWAP2 POP PUSH3 0x173 JUMP JUMPDEST POP SWAP1 JUMP JUMPDEST JUMPDEST DUP1 DUP3 GT ISZERO PUSH3 0x16F JUMPI PUSH1 0x0 DUP2 SSTORE PUSH1 0x1 ADD PUSH3 0x174 JUMP JUMPDEST PUSH1 0x1 DUP2 DUP2 SHR SWAP1 DUP3 AND DUP1 PUSH3 0x19F JUMPI PUSH1 0x7F DUP3 AND SWAP2 POP JUMPDEST PUSH1 0x20 DUP3 LT DUP2 SUB PUSH3 0x1C0 JUMPI PUSH4 0x4E487B71 PUSH1 0xE0 SHL PUSH1 0x0 MSTORE PUSH1 0x22 PUSH1 0x4 MSTORE PUSH1 0x24 PUSH1 0x0 REVERT JUMPDEST POP SWAP2 SWAP1 POP JUMP JUMPDEST PUSH2 0x1F43 DUP1 PUSH3 0x1D6 PUSH1 0x0 CODECOPY PUSH1 0x0 RETURN INVALID PUSH1 0x80 PUSH1 0x40 MSTORE PUSH1 0x4 CALLDATASIZE LT PUSH2 0x19C JUMPI PUSH1 0x0 CALLDATALOAD PUSH1 0xE0 SHR DUP1 PUSH4 0x70A08231 GT PUSH2 0xEC JUMPI DUP1 PUSH4 0xADA7C4ED GT PUSH2 0x8A JUMPI DUP1 PUSH4 0xD204C45E GT PUSH2 0x64 JUMPI DUP1 PUSH4 0xD204C45E EQ PUSH2 0x46B JUMPI DUP1 PUSH4 0xD5ABEB01 EQ PUSH2 0x48B JUMPI DUP1 PUSH4 0xE985E9C5 EQ PUSH2 0x4A1 JUMPI DUP1 PUSH4 0xF2FDE38B EQ PUSH2 0x4EA JUMPI PUSH1 0x0 DUP1 REVERT JUMPDEST DUP1 PUSH4 0xADA7C4ED EQ PUSH2 0x3FE JUMPI DUP1 PUSH4 0xB88D4FDE EQ PUSH2 0x42B JUMPI DUP1 PUSH4 0xC87B56DD EQ PUSH2 0x44B JUMPI PUSH1 0x0 DUP1 REVERT JUMPDEST DUP1 PUSH4 0x8DA5CB5B GT PUSH2 0xC6 JUMPI DUP1 PUSH4 0x8DA5CB5B EQ PUSH2 0x38B JUMPI DUP1 PUSH4 0x95D89B41 EQ PUSH2 0x3A9 JUMPI DUP1 PUSH4 0x9F1CABC6 EQ PUSH2 0x3BE JUMPI DUP1 PUSH4 0xA22CB465 EQ PUSH2 0x3DE JUMPI PUSH1 0x0 DUP1 REVERT JUMPDEST DUP1 PUSH4 0x70A08231 EQ PUSH2 0x341 JUMPI DUP1 PUSH4 0x715018A6 EQ PUSH2 0x361 JUMPI DUP1 PUSH4 0x84A428DB EQ PUSH2 0x376 JUMPI PUSH1 0x0 DUP1 REVERT JUMPDEST DUP1 PUSH4 0x23B872DD GT PUSH2 0x159 JUMPI DUP1 PUSH4 0x615FD9E2 GT PUSH2 0x133 JUMPI DUP1 PUSH4 0x615FD9E2 EQ PUSH2 0x2D8 JUMPI DUP1 PUSH4 0x6352211E EQ PUSH2 0x2EB JUMPI DUP1 PUSH4 0x6817C76C EQ PUSH2 0x30B JUMPI DUP1 PUSH4 0x6F8B44B0 EQ PUSH2 0x321 JUMPI PUSH1 0x0 DUP1 REVERT JUMPDEST DUP1 PUSH4 0x23B872DD EQ PUSH2 0x27E JUMPI DUP1 PUSH4 0x346DE50A EQ PUSH2 0x29E JUMPI DUP1 PUSH4 0x42842E0E EQ PUSH2 0x2B8 JUMPI PUSH1 0x0 DUP1 REVERT JUMPDEST DUP1 PUSH4 0x1FFC9A7 EQ PUSH2 0x1A1 JUMPI DUP1 PUSH4 0x6FDDE03 EQ PUSH2 0x1D6 JUMPI DUP1 PUSH4 0x81812FC EQ PUSH2 0x1F8 JUMPI DUP1 PUSH4 0x95EA7B3 EQ PUSH2 0x230 JUMPI DUP1 PUSH4 0x1249C58B EQ PUSH2 0x252 JUMPI DUP1 PUSH4 0x18160DDD EQ PUSH2 0x25A JUMPI JUMPDEST PUSH1 0x0 DUP1 REVERT JUMPDEST CALLVALUE DUP1 ISZERO PUSH2 0x1AD JUMPI PUSH1 0x0 DUP1 REVERT JUMPDEST POP PUSH2 0x1C1 PUSH2 0x1BC CALLDATASIZE PUSH1 0x4 PUSH2 0x18E8 JUMP JUMPDEST PUSH2 0x50A JUMP JUMPDEST PUSH1 0x40 MLOAD SWAP1 ISZERO ISZERO DUP2 MSTORE PUSH1 0x20 ADD JUMPDEST PUSH1 0x40 MLOAD DUP1 SWAP2 SUB SWAP1 RETURN JUMPDEST CALLVALUE DUP1 ISZERO PUSH2 0x1E2 JUMPI PUSH1 0x0 DUP1 REVERT JUMPDEST POP PUSH2 0x1EB PUSH2 0x55C JUMP JUMPDEST PUSH1 0x40 MLOAD PUSH2 0x1CD SWAP2 SWAP1 PUSH2 0x195D JUMP JUMPDEST CALLVALUE DUP1 ISZERO PUSH2 0x204 JUMPI PUSH1 0x0 DUP1 REVERT JUMPDEST POP PUSH2 0x218 PUSH2 0x213 CALLDATASIZE PUSH1 0x4 PUSH2 0x1970 JUMP JUMPDEST PUSH2 0x5EE JUMP JUMPDEST PUSH1 0x40 MLOAD PUSH1 0x1 PUSH1 0x1 PUSH1 0xA0 SHL SUB SWAP1 SWAP2 AND DUP2 MSTORE PUSH1 0x20 ADD PUSH2 0x1CD JUMP JUMPDEST CALLVALUE DUP1 ISZERO PUSH2 0x23C JUMPI PUSH1 0x0 DUP1 REVERT JUMPDEST POP PUSH2 0x250 PUSH2 0x24B CALLDATASIZE PUSH1 0x4 PUSH2 0x19A5 JUMP JUMPDEST PUSH2 0x67B JUMP JUMPDEST STOP JUMPDEST PUSH2 0x250 PUSH2 0x790 JUMP JUMPDEST CALLVALUE DUP1 ISZERO PUSH2 0x266 JUMPI PUSH1 0x0 DUP1 REVERT JUMPDEST POP PUSH2 0x270 PUSH1 0x9 SLOAD DUP2 JUMP JUMPDEST PUSH1 0x40 MLOAD SWAP1 DUP2 MSTORE PUSH1 0x20 ADD PUSH2 0x1CD JUMP JUMPDEST CALLVALUE DUP1 ISZERO PUSH2 0x28A JUMPI PUSH1 0x0 DUP1 REVERT JUMPDEST POP PUSH2 0x250 PUSH2 0x299 CALLDATASIZE PUSH1 0x4 PUSH2 0x19CF JUMP JUMPDEST PUSH2 0x8F2 JUMP JUMPDEST CALLVALUE DUP1 ISZERO PUSH2 0x2AA JUMPI PUSH1 0x0 DUP1 REVERT JUMPDEST POP PUSH1 0xB SLOAD PUSH2 0x1C1 SWAP1 PUSH1 0xFF AND DUP2 JUMP JUMPDEST CALLVALUE DUP1 ISZERO PUSH2 0x2C4 JUMPI PUSH1 0x0 DUP1 REVERT JUMPDEST POP PUSH2 0x250 PUSH2 0x2D3 CALLDATASIZE PUSH1 0x4 PUSH2 0x19CF JUMP JUMPDEST PUSH2 0x923 JUMP JUMPDEST PUSH2 0x270 PUSH2 0x2E6 CALLDATASIZE PUSH1 0x4 PUSH2 0x1AB7 JUMP JUMPDEST PUSH2 0x93E JUMP JUMPDEST CALLVALUE DUP1 ISZERO PUSH2 0x2F7 JUMPI PUSH1 0x0 DUP1 REVERT JUMPDEST POP PUSH2 0x218 PUSH2 0x306 CALLDATASIZE PUSH1 0x4 PUSH2 0x1970 JUMP JUMPDEST PUSH2 0xA5C JUMP JUMPDEST CALLVALUE DUP1 ISZERO PUSH2 0x317 JUMPI PUSH1 0x0 DUP1 REVERT JUMPDEST POP PUSH2 0x270 PUSH1 0x8 SLOAD DUP2 JUMP JUMPDEST CALLVALUE DUP1 ISZERO PUSH2 0x32D JUMPI PUSH1 0x0 DUP1 REVERT JUMPDEST POP PUSH2 0x250 PUSH2 0x33C CALLDATASIZE PUSH1 0x4 PUSH2 0x1970 JUMP JUMPDEST PUSH2 0xAD3 JUMP JUMPDEST CALLVALUE DUP1 ISZERO PUSH2 0x34D JUMPI PUSH1 0x0 DUP1 REVERT JUMPDEST POP PUSH2 0x270 PUSH2 0x35C CALLDATASIZE PUSH1 0x4 PUSH2 0x1B05 JUMP JUMPDEST PUSH2 0xB02 JUMP JUMPDEST CALLVALUE DUP1 ISZERO PUSH2 0x36D JUMPI PUSH1 0x0 DUP1 REVERT JUMPDEST POP PUSH2 0x250 PUSH2 0xB89 JUMP JUMPDEST CALLVALUE DUP1 ISZERO PUSH2 0x382 JUMPI PUSH1 0x0 DUP1 REVERT JUMPDEST POP PUSH2 0x250 PUSH2 0xBBF JUMP JUMPDEST CALLVALUE DUP1 ISZERO PUSH2 0x397 JUMPI PUSH1 0x0 DUP1 REVERT JUMPDEST POP PUSH1 0x7 SLOAD PUSH1 0x1 PUSH1 0x1 PUSH1 0xA0 SHL SUB AND PUSH2 0x218 JUMP JUMPDEST CALLVALUE DUP1 ISZERO PUSH2 0x3B5 JUMPI PUSH1 0x0 DUP1 REVERT JUMPDEST POP PUSH2 0x1EB PUSH2 0xBFD JUMP JUMPDEST CALLVALUE DUP1 ISZERO PUSH2 0x3CA JUMPI PUSH1 0x0 DUP1 REVERT JUMPDEST POP PUSH2 0x1C1 PUSH2 0x3D9 CALLDATASIZE PUSH1 0x4 PUSH2 0x1B20 JUMP JUMPDEST PUSH2 0xC0C JUMP JUMPDEST CALLVALUE DUP1 ISZERO PUSH2 0x3EA JUMPI PUSH1 0x0 DUP1 REVERT JUMPDEST POP PUSH2 0x250 PUSH2 0x3F9 CALLDATASIZE PUSH1 0x4 PUSH2 0x1B55 JUMP JUMPDEST PUSH2 0xC3A JUMP JUMPDEST CALLVALUE DUP1 ISZERO PUSH2 0x40A JUMPI PUSH1 0x0 DUP1 REVERT JUMPDEST POP PUSH2 0x270 PUSH2 0x419 CALLDATASIZE PUSH1 0x4 PUSH2 0x1B05 JUMP JUMPDEST PUSH1 0xC PUSH1 0x20 MSTORE PUSH1 0x0 SWAP1 DUP2 MSTORE PUSH1 0x40 SWAP1 KECCAK256 SLOAD DUP2 JUMP JUMPDEST CALLVALUE DUP1 ISZERO PUSH2 0x437 JUMPI PUSH1 0x0 DUP1 REVERT JUMPDEST POP PUSH2 0x250 PUSH2 0x446 CALLDATASIZE PUSH1 0x4 PUSH2 0x1B91 JUMP JUMPDEST PUSH2 0xC49 JUMP JUMPDEST CALLVALUE DUP1 ISZERO PUSH2 0x457 JUMPI PUSH1 0x0 DUP1 REVERT JUMPDEST POP PUSH2 0x1EB PUSH2 0x466 CALLDATASIZE PUSH1 0x4 PUSH2 0x1970 JUMP JUMPDEST PUSH2 0xC81 JUMP JUMPDEST CALLVALUE DUP1 ISZERO PUSH2 0x477 JUMPI PUSH1 0x0 DUP1 REVERT JUMPDEST POP PUSH2 0x250 PUSH2 0x486 CALLDATASIZE PUSH1 0x4 PUSH2 0x1AB7 JUMP JUMPDEST PUSH2 0xC8C JUMP JUMPDEST CALLVALUE DUP1 ISZERO PUSH2 0x497 JUMPI PUSH1 0x0 DUP1 REVERT JUMPDEST POP PUSH2 0x270 PUSH1 0xA SLOAD DUP2 JUMP JUMPDEST CALLVALUE DUP1 ISZERO PUSH2 0x4AD JUMPI PUSH1 0x0 DUP1 REVERT JUMPDEST POP PUSH2 0x1C1 PUSH2 0x4BC CALLDATASIZE PUSH1 0x4 PUSH2 0x1C0D JUMP JUMPDEST PUSH1 0x1 PUSH1 0x1 PUSH1 0xA0 SHL SUB SWAP2 DUP3 AND PUSH1 0x0 SWAP1 DUP2 MSTORE PUSH1 0x5 PUSH1 0x20 SWAP1 DUP2 MSTORE PUSH1 0x40 DUP1 DUP4 KECCAK256 SWAP4 SWAP1 SWAP5 AND DUP3 MSTORE SWAP2 SWAP1 SWAP2 MSTORE KECCAK256 SLOAD PUSH1 0xFF AND SWAP1 JUMP JUMPDEST CALLVALUE DUP1 ISZERO PUSH2 0x4F6 JUMPI PUSH1 0x0 DUP1 REVERT JUMPDEST POP PUSH2 0x250 PUSH2 0x505 CALLDATASIZE PUSH1 0x4 PUSH2 0x1B05 JUMP JUMPDEST PUSH2 0xCE5 JUMP JUMPDEST PUSH1 0x0 PUSH1 0x1 PUSH1 0x1 PUSH1 0xE0 SHL SUB NOT DUP3 AND PUSH4 0x80AC58CD PUSH1 0xE0 SHL EQ DUP1 PUSH2 0x53B JUMPI POP PUSH1 0x1 PUSH1 0x1 PUSH1 0xE0 SHL SUB NOT DUP3 AND PUSH4 0x5B5E139F PUSH1 0xE0 SHL EQ JUMPDEST DUP1 PUSH2 0x556 JUMPI POP PUSH4 0x1FFC9A7 PUSH1 0xE0 SHL PUSH1 0x1 PUSH1 0x1 PUSH1 0xE0 SHL SUB NOT DUP4 AND EQ JUMPDEST SWAP3 SWAP2 POP POP JUMP JUMPDEST PUSH1 0x60 PUSH1 0x0 DUP1 SLOAD PUSH2 0x56B SWAP1 PUSH2 0x1C40 JUMP JUMPDEST DUP1 PUSH1 0x1F ADD PUSH1 0x20 DUP1 SWAP2 DIV MUL PUSH1 0x20 ADD PUSH1 0x40 MLOAD SWAP1 DUP2 ADD PUSH1 0x40 MSTORE DUP1 SWAP3 SWAP2 SWAP1 DUP2 DUP2 MSTORE PUSH1 0x20 ADD DUP3 DUP1 SLOAD PUSH2 0x597 SWAP1 PUSH2 0x1C40 JUMP JUMPDEST DUP1 ISZERO PUSH2 0x5E4 JUMPI DUP1 PUSH1 0x1F LT PUSH2 0x5B9 JUMPI PUSH2 0x100 DUP1 DUP4 SLOAD DIV MUL DUP4 MSTORE SWAP2 PUSH1 0x20 ADD SWAP2 PUSH2 0x5E4 JUMP JUMPDEST DUP3 ADD SWAP2 SWAP1 PUSH1 0x0 MSTORE PUSH1 0x20 PUSH1 0x0 KECCAK256 SWAP1 JUMPDEST DUP2 SLOAD DUP2 MSTORE SWAP1 PUSH1 0x1 ADD SWAP1 PUSH1 0x20 ADD DUP1 DUP4 GT PUSH2 0x5C7 JUMPI DUP3 SWAP1 SUB PUSH1 0x1F AND DUP3 ADD SWAP2 JUMPDEST POP POP POP POP POP SWAP1 POP SWAP1 JUMP JUMPDEST PUSH1 0x0 PUSH2 0x5F9 DUP3 PUSH2 0xD7D JUMP JUMPDEST PUSH2 0x65F JUMPI PUSH1 0x40 MLOAD PUSH3 0x461BCD PUSH1 0xE5 SHL DUP2 MSTORE PUSH1 0x20 PUSH1 0x4 DUP3 ADD MSTORE PUSH1 0x2C PUSH1 0x24 DUP3 ADD MSTORE PUSH32 0x4552433732313A20617070726F76656420717565727920666F72206E6F6E6578 PUSH1 0x44 DUP3 ADD MSTORE PUSH12 0x34B9BA32B73A103A37B5B2B7 PUSH1 0xA1 SHL PUSH1 0x64 DUP3 ADD MSTORE PUSH1 0x84 ADD JUMPDEST PUSH1 0x40 MLOAD DUP1 SWAP2 SUB SWAP1 REVERT JUMPDEST POP PUSH1 0x0 SWAP1 DUP2 MSTORE PUSH1 0x4 PUSH1 0x20 MSTORE PUSH1 0x40 SWAP1 KECCAK256 SLOAD PUSH1 0x1 PUSH1 0x1 PUSH1 0xA0 SHL SUB AND SWAP1 JUMP JUMPDEST PUSH1 0x0 PUSH2 0x686 DUP3 PUSH2 0xA5C JUMP JUMPDEST SWAP1 POP DUP1 PUSH1 0x1 PUSH1 0x1 PUSH1 0xA0 SHL SUB AND DUP4 PUSH1 0x1 PUSH1 0x1 PUSH1 0xA0 SHL SUB AND SUB PUSH2 0x6F3 JUMPI PUSH1 0x40 MLOAD PUSH3 0x461BCD PUSH1 0xE5 SHL DUP2 MSTORE PUSH1 0x20 PUSH1 0x4 DUP3 ADD MSTORE PUSH1 0x21 PUSH1 0x24 DUP3 ADD MSTORE PUSH32 0x4552433732313A20617070726F76616C20746F2063757272656E74206F776E65 PUSH1 0x44 DUP3 ADD MSTORE PUSH1 0x39 PUSH1 0xF9 SHL PUSH1 0x64 DUP3 ADD MSTORE PUSH1 0x84 ADD PUSH2 0x656 JUMP JUMPDEST CALLER PUSH1 0x1 PUSH1 0x1 PUSH1 0xA0 SHL SUB DUP3 AND EQ DUP1 PUSH2 0x70F JUMPI POP PUSH2 0x70F DUP2 CALLER PUSH2 0x4BC JUMP JUMPDEST PUSH2 0x781 JUMPI PUSH1 0x40 MLOAD PUSH3 0x461BCD PUSH1 0xE5 SHL DUP2 MSTORE PUSH1 0x20 PUSH1 0x4 DUP3 ADD MSTORE PUSH1 0x38 PUSH1 0x24 DUP3 ADD MSTORE PUSH32 0x4552433732313A20617070726F76652063616C6C6572206973206E6F74206F77 PUSH1 0x44 DUP3 ADD MSTORE PUSH32 0x6E6572206E6F7220617070726F76656420666F7220616C6C0000000000000000 PUSH1 0x64 DUP3 ADD MSTORE PUSH1 0x84 ADD PUSH2 0x656 JUMP JUMPDEST PUSH2 0x78B DUP4 DUP4 PUSH2 0xD9A JUMP JUMPDEST POP POP POP JUMP JUMPDEST PUSH1 0xB SLOAD PUSH1 0xFF AND PUSH2 0x7D8 JUMPI PUSH1 0x40 MLOAD PUSH3 0x461BCD PUSH1 0xE5 SHL DUP2 MSTORE PUSH1 0x20 PUSH1 0x4 DUP3 ADD MSTORE PUSH1 0x13 PUSH1 0x24 DUP3 ADD MSTORE PUSH19 0x135A5B9D1A5B99C81B9BDD08195B98589B1959 PUSH1 0x6A SHL PUSH1 0x44 DUP3 ADD MSTORE PUSH1 0x64 ADD PUSH2 0x656 JUMP JUMPDEST CALLER PUSH1 0x0 SWAP1 DUP2 MSTORE PUSH1 0xC PUSH1 0x20 MSTORE PUSH1 0x40 SWAP1 KECCAK256 SLOAD PUSH1 0x1 GT PUSH2 0x830 JUMPI PUSH1 0x40 MLOAD PUSH3 0x461BCD PUSH1 0xE5 SHL DUP2 MSTORE PUSH1 0x20 PUSH1 0x4 DUP3 ADD MSTORE PUSH1 0x16 PUSH1 0x24 DUP3 ADD MSTORE PUSH22 0x115E18D959591CC81B585E081C195C881DD85B1B195D PUSH1 0x52 SHL PUSH1 0x44 DUP3 ADD MSTORE PUSH1 0x64 ADD PUSH2 0x656 JUMP JUMPDEST PUSH1 0x8 SLOAD CALLVALUE EQ PUSH2 0x86F JUMPI PUSH1 0x40 MLOAD PUSH3 0x461BCD PUSH1 0xE5 SHL DUP2 MSTORE PUSH1 0x20 PUSH1 0x4 DUP3 ADD MSTORE PUSH1 0xB PUSH1 0x24 DUP3 ADD MSTORE PUSH11 0x57726F6E672056616C7565 PUSH1 0xA8 SHL PUSH1 0x44 DUP3 ADD MSTORE PUSH1 0x64 ADD PUSH2 0x656 JUMP JUMPDEST PUSH1 0x9 SLOAD PUSH1 0xA SLOAD GT PUSH2 0x8AD JUMPI PUSH1 0x40 MLOAD PUSH3 0x461BCD PUSH1 0xE5 SHL DUP2 MSTORE PUSH1 0x20 PUSH1 0x4 DUP3 ADD MSTORE PUSH1 0x8 PUSH1 0x24 DUP3 ADD MSTORE PUSH8 0x14DBDB190813DD5D PUSH1 0xC2 SHL PUSH1 0x44 DUP3 ADD MSTORE PUSH1 0x64 ADD PUSH2 0x656 JUMP JUMPDEST CALLER PUSH1 0x0 SWAP1 DUP2 MSTORE PUSH1 0xC PUSH1 0x20 MSTORE PUSH1 0x40 DUP2 KECCAK256 DUP1 SLOAD SWAP2 PUSH2 0x8C8 DUP4 PUSH2 0x1C90 JUMP JUMPDEST SWAP1 SWAP2 SSTORE POP POP PUSH1 0x9 DUP1 SLOAD SWAP1 PUSH1 0x0 PUSH2 0x8DD DUP4 PUSH2 0x1C90 JUMP JUMPDEST SWAP1 SWAP2 SSTORE POP POP PUSH1 0x9 SLOAD PUSH2 0x8EF CALLER DUP3 PUSH2 0xE08 JUMP JUMPDEST POP JUMP JUMPDEST PUSH2 0x8FC CALLER DUP3 PUSH2 0xE22 JUMP JUMPDEST PUSH2 0x918 JUMPI PUSH1 0x40 MLOAD PUSH3 0x461BCD PUSH1 0xE5 SHL DUP2 MSTORE PUSH1 0x4 ADD PUSH2 0x656 SWAP1 PUSH2 0x1CA9 JUMP JUMPDEST PUSH2 0x78B DUP4 DUP4 DUP4 PUSH2 0xF0C JUMP JUMPDEST PUSH2 0x78B DUP4 DUP4 DUP4 PUSH1 0x40 MLOAD DUP1 PUSH1 0x20 ADD PUSH1 0x40 MSTORE DUP1 PUSH1 0x0 DUP2 MSTORE POP PUSH2 0xC49 JUMP JUMPDEST PUSH1 0x0 PUSH1 0xE DUP3 PUSH1 0x40 MLOAD PUSH2 0x950 SWAP2 SWAP1 PUSH2 0x1CFA JUMP JUMPDEST SWAP1 DUP2 MSTORE PUSH1 0x40 MLOAD SWAP1 DUP2 SWAP1 SUB PUSH1 0x20 ADD SWAP1 KECCAK256 SLOAD PUSH1 0xFF AND PUSH1 0x1 SUB PUSH2 0x9A8 JUMPI PUSH1 0x40 MLOAD PUSH3 0x461BCD PUSH1 0xE5 SHL DUP2 MSTORE PUSH1 0x20 PUSH1 0x4 DUP3 ADD MSTORE PUSH1 0x13 PUSH1 0x24 DUP3 ADD MSTORE PUSH19 0x4E465420616C7265616479206D696E74656421 PUSH1 0x68 SHL PUSH1 0x44 DUP3 ADD MSTORE PUSH1 0x64 ADD PUSH2 0x656 JUMP JUMPDEST PUSH7 0x38D7EA4C68000 CALLVALUE LT ISZERO PUSH2 0x9F1 JUMPI PUSH1 0x40 MLOAD PUSH3 0x461BCD PUSH1 0xE5 SHL DUP2 MSTORE PUSH1 0x20 PUSH1 0x4 DUP3 ADD MSTORE PUSH1 0xF PUSH1 0x24 DUP3 ADD MSTORE PUSH15 0x4E65656420746F2070617920757021 PUSH1 0x88 SHL PUSH1 0x44 DUP3 ADD MSTORE PUSH1 0x64 ADD PUSH2 0x656 JUMP JUMPDEST PUSH1 0x0 PUSH2 0x9FC PUSH1 0xD SLOAD SWAP1 JUMP JUMPDEST SWAP1 POP PUSH2 0xA0C PUSH1 0xD DUP1 SLOAD PUSH1 0x1 ADD SWAP1 SSTORE JUMP JUMPDEST PUSH1 0x1 PUSH1 0xE DUP5 PUSH1 0x40 MLOAD PUSH2 0xA1E SWAP2 SWAP1 PUSH2 0x1CFA JUMP JUMPDEST SWAP1 DUP2 MSTORE PUSH1 0x40 MLOAD SWAP1 DUP2 SWAP1 SUB PUSH1 0x20 ADD SWAP1 KECCAK256 DUP1 SLOAD PUSH1 0xFF SWAP3 SWAP1 SWAP3 AND PUSH1 0xFF NOT SWAP1 SWAP3 AND SWAP2 SWAP1 SWAP2 OR SWAP1 SSTORE PUSH2 0xA4B DUP5 DUP3 PUSH2 0x10A8 JUMP JUMPDEST PUSH2 0xA55 DUP2 DUP5 PUSH2 0x11DB JUMP JUMPDEST SWAP4 SWAP3 POP POP POP JUMP JUMPDEST PUSH1 0x0 DUP2 DUP2 MSTORE PUSH1 0x2 PUSH1 0x20 MSTORE PUSH1 0x40 DUP2 KECCAK256 SLOAD PUSH1 0x1 PUSH1 0x1 PUSH1 0xA0 SHL SUB AND DUP1 PUSH2 0x556 JUMPI PUSH1 0x40 MLOAD PUSH3 0x461BCD PUSH1 0xE5 SHL DUP2 MSTORE PUSH1 0x20 PUSH1 0x4 DUP3 ADD MSTORE PUSH1 0x29 PUSH1 0x24 DUP3 ADD MSTORE PUSH32 0x4552433732313A206F776E657220717565727920666F72206E6F6E6578697374 PUSH1 0x44 DUP3 ADD MSTORE PUSH9 0x32B73A103A37B5B2B7 PUSH1 0xB9 SHL PUSH1 0x64 DUP3 ADD MSTORE PUSH1 0x84 ADD PUSH2 0x656 JUMP JUMPDEST PUSH1 0x7 SLOAD PUSH1 0x1 PUSH1 0x1 PUSH1 0xA0 SHL SUB AND CALLER EQ PUSH2 0xAFD JUMPI PUSH1 0x40 MLOAD PUSH3 0x461BCD PUSH1 0xE5 SHL DUP2 MSTORE PUSH1 0x4 ADD PUSH2 0x656 SWAP1 PUSH2 0x1D16 JUMP JUMPDEST PUSH1 0xA SSTORE JUMP JUMPDEST PUSH1 0x0 PUSH1 0x1 PUSH1 0x1 PUSH1 0xA0 SHL SUB DUP3 AND PUSH2 0xB6D JUMPI PUSH1 0x40 MLOAD PUSH3 0x461BCD PUSH1 0xE5 SHL DUP2 MSTORE PUSH1 0x20 PUSH1 0x4 DUP3 ADD MSTORE PUSH1 0x2A PUSH1 0x24 DUP3 ADD MSTORE PUSH32 0x4552433732313A2062616C616E636520717565727920666F7220746865207A65 PUSH1 0x44 DUP3 ADD MSTORE PUSH10 0x726F2061646472657373 PUSH1 0xB0 SHL PUSH1 0x64 DUP3 ADD MSTORE PUSH1 0x84 ADD PUSH2 0x656 JUMP JUMPDEST POP PUSH1 0x1 PUSH1 0x1 PUSH1 0xA0 SHL SUB AND PUSH1 0x0 SWAP1 DUP2 MSTORE PUSH1 0x3 PUSH1 0x20 MSTORE PUSH1 0x40 SWAP1 KECCAK256 SLOAD SWAP1 JUMP JUMPDEST PUSH1 0x7 SLOAD PUSH1 0x1 PUSH1 0x1 PUSH1 0xA0 SHL SUB AND CALLER EQ PUSH2 0xBB3 JUMPI PUSH1 0x40 MLOAD PUSH3 0x461BCD PUSH1 0xE5 SHL DUP2 MSTORE PUSH1 0x4 ADD PUSH2 0x656 SWAP1 PUSH2 0x1D16 JUMP JUMPDEST PUSH2 0xBBD PUSH1 0x0 PUSH2 0x1266 JUMP JUMPDEST JUMP JUMPDEST PUSH1 0x7 SLOAD PUSH1 0x1 PUSH1 0x1 PUSH1 0xA0 SHL SUB AND CALLER EQ PUSH2 0xBE9 JUMPI PUSH1 0x40 MLOAD PUSH3 0x461BCD PUSH1 0xE5 SHL DUP2 MSTORE PUSH1 0x4 ADD PUSH2 0x656 SWAP1 PUSH2 0x1D16 JUMP JUMPDEST PUSH1 0xB DUP1 SLOAD PUSH1 0xFF NOT DUP2 AND PUSH1 0xFF SWAP1 SWAP2 AND ISZERO OR SWAP1 SSTORE JUMP JUMPDEST PUSH1 0x60 PUSH1 0x1 DUP1 SLOAD PUSH2 0x56B SWAP1 PUSH2 0x1C40 JUMP JUMPDEST PUSH1 0x0 PUSH1 0xE DUP3 PUSH1 0x40 MLOAD PUSH2 0xC1E SWAP2 SWAP1 PUSH2 0x1CFA JUMP JUMPDEST SWAP1 DUP2 MSTORE PUSH1 0x40 MLOAD SWAP1 DUP2 SWAP1 SUB PUSH1 0x20 ADD SWAP1 KECCAK256 SLOAD PUSH1 0xFF AND PUSH1 0x1 EQ SWAP3 SWAP2 POP POP JUMP JUMPDEST PUSH2 0xC45 CALLER DUP4 DUP4 PUSH2 0x12B8 JUMP JUMPDEST POP POP JUMP JUMPDEST PUSH2 0xC53 CALLER DUP4 PUSH2 0xE22 JUMP JUMPDEST PUSH2 0xC6F JUMPI PUSH1 0x40 MLOAD PUSH3 0x461BCD PUSH1 0xE5 SHL DUP2 MSTORE PUSH1 0x4 ADD PUSH2 0x656 SWAP1 PUSH2 0x1CA9 JUMP JUMPDEST PUSH2 0xC7B DUP5 DUP5 DUP5 DUP5 PUSH2 0x1386 JUMP JUMPDEST POP POP POP POP JUMP JUMPDEST PUSH1 0x60 PUSH2 0x556 DUP3 PUSH2 0x13B9 JUMP JUMPDEST PUSH1 0x7 SLOAD PUSH1 0x1 PUSH1 0x1 PUSH1 0xA0 SHL SUB AND CALLER EQ PUSH2 0xCB6 JUMPI PUSH1 0x40 MLOAD PUSH3 0x461BCD PUSH1 0xE5 SHL DUP2 MSTORE PUSH1 0x4 ADD PUSH2 0x656 SWAP1 PUSH2 0x1D16 JUMP JUMPDEST PUSH1 0x0 PUSH2 0xCC1 PUSH1 0xD SLOAD SWAP1 JUMP JUMPDEST SWAP1 POP PUSH2 0xCD1 PUSH1 0xD DUP1 SLOAD PUSH1 0x1 ADD SWAP1 SSTORE JUMP JUMPDEST PUSH2 0xCDB DUP4 DUP3 PUSH2 0xE08 JUMP JUMPDEST PUSH2 0x78B DUP2 DUP4 PUSH2 0x11DB JUMP JUMPDEST PUSH1 0x7 SLOAD PUSH1 0x1 PUSH1 0x1 PUSH1 0xA0 SHL SUB AND CALLER EQ PUSH2 0xD0F JUMPI PUSH1 0x40 MLOAD PUSH3 0x461BCD PUSH1 0xE5 SHL DUP2 MSTORE PUSH1 0x4 ADD PUSH2 0x656 SWAP1 PUSH2 0x1D16 JUMP JUMPDEST PUSH1 0x1 PUSH1 0x1 PUSH1 0xA0 SHL SUB DUP2 AND PUSH2 0xD74 JUMPI PUSH1 0x40 MLOAD PUSH3 0x461BCD PUSH1 0xE5 SHL DUP2 MSTORE PUSH1 0x20 PUSH1 0x4 DUP3 ADD MSTORE PUSH1 0x26 PUSH1 0x24 DUP3 ADD MSTORE PUSH32 0x4F776E61626C653A206E6577206F776E657220697320746865207A65726F2061 PUSH1 0x44 DUP3 ADD MSTORE PUSH6 0x646472657373 PUSH1 0xD0 SHL PUSH1 0x64 DUP3 ADD MSTORE PUSH1 0x84 ADD PUSH2 0x656 JUMP JUMPDEST PUSH2 0x8EF DUP2 PUSH2 0x1266 JUMP JUMPDEST PUSH1 0x0 SWAP1 DUP2 MSTORE PUSH1 0x2 PUSH1 0x20 MSTORE PUSH1 0x40 SWAP1 KECCAK256 SLOAD PUSH1 0x1 PUSH1 0x1 PUSH1 0xA0 SHL SUB AND ISZERO ISZERO SWAP1 JUMP JUMPDEST PUSH1 0x0 DUP2 DUP2 MSTORE PUSH1 0x4 PUSH1 0x20 MSTORE PUSH1 0x40 SWAP1 KECCAK256 DUP1 SLOAD PUSH1 0x1 PUSH1 0x1 PUSH1 0xA0 SHL SUB NOT AND PUSH1 0x1 PUSH1 0x1 PUSH1 0xA0 SHL SUB DUP5 AND SWAP1 DUP2 OR SWAP1 SWAP2 SSTORE DUP2 SWAP1 PUSH2 0xDCF DUP3 PUSH2 0xA5C JUMP JUMPDEST PUSH1 0x1 PUSH1 0x1 PUSH1 0xA0 SHL SUB AND PUSH32 0x8C5BE1E5EBEC7D5BD14F71427D1E84F3DD0314C0F7B2291E5B200AC8C7C3B925 PUSH1 0x40 MLOAD PUSH1 0x40 MLOAD DUP1 SWAP2 SUB SWAP1 LOG4 POP POP JUMP JUMPDEST PUSH2 0xC45 DUP3 DUP3 PUSH1 0x40 MLOAD DUP1 PUSH1 0x20 ADD PUSH1 0x40 MSTORE DUP1 PUSH1 0x0 DUP2 MSTORE POP PUSH2 0x151A JUMP JUMPDEST PUSH1 0x0 PUSH2 0xE2D DUP3 PUSH2 0xD7D JUMP JUMPDEST PUSH2 0xE8E JUMPI PUSH1 0x40 MLOAD PUSH3 0x461BCD PUSH1 0xE5 SHL DUP2 MSTORE PUSH1 0x20 PUSH1 0x4 DUP3 ADD MSTORE PUSH1 0x2C PUSH1 0x24 DUP3 ADD MSTORE PUSH32 0x4552433732313A206F70657261746F7220717565727920666F72206E6F6E6578 PUSH1 0x44 DUP3 ADD MSTORE PUSH12 0x34B9BA32B73A103A37B5B2B7 PUSH1 0xA1 SHL PUSH1 0x64 DUP3 ADD MSTORE PUSH1 0x84 ADD PUSH2 0x656 JUMP JUMPDEST PUSH1 0x0 PUSH2 0xE99 DUP4 PUSH2 0xA5C JUMP JUMPDEST SWAP1 POP DUP1 PUSH1 0x1 PUSH1 0x1 PUSH1 0xA0 SHL SUB AND DUP5 PUSH1 0x1 PUSH1 0x1 PUSH1 0xA0 SHL SUB AND EQ DUP1 PUSH2 0xED4 JUMPI POP DUP4 PUSH1 0x1 PUSH1 0x1 PUSH1 0xA0 SHL SUB AND PUSH2 0xEC9 DUP5 PUSH2 0x5EE JUMP JUMPDEST PUSH1 0x1 PUSH1 0x1 PUSH1 0xA0 SHL SUB AND EQ JUMPDEST DUP1 PUSH2 0xF04 JUMPI POP PUSH1 0x1 PUSH1 0x1 PUSH1 0xA0 SHL SUB DUP1 DUP3 AND PUSH1 0x0 SWAP1 DUP2 MSTORE PUSH1 0x5 PUSH1 0x20 SWAP1 DUP2 MSTORE PUSH1 0x40 DUP1 DUP4 KECCAK256 SWAP4 DUP9 AND DUP4 MSTORE SWAP3 SWAP1 MSTORE KECCAK256 SLOAD PUSH1 0xFF AND JUMPDEST SWAP5 SWAP4 POP POP POP POP JUMP JUMPDEST DUP3 PUSH1 0x1 PUSH1 0x1 PUSH1 0xA0 SHL SUB AND PUSH2 0xF1F DUP3 PUSH2 0xA5C JUMP JUMPDEST PUSH1 0x1 PUSH1 0x1 PUSH1 0xA0 SHL SUB AND EQ PUSH2 0xF83 JUMPI PUSH1 0x40 MLOAD PUSH3 0x461BCD PUSH1 0xE5 SHL DUP2 MSTORE PUSH1 0x20 PUSH1 0x4 DUP3 ADD MSTORE PUSH1 0x25 PUSH1 0x24 DUP3 ADD MSTORE PUSH32 0x4552433732313A207472616E736665722066726F6D20696E636F727265637420 PUSH1 0x44 DUP3 ADD MSTORE PUSH5 0x37BBB732B9 PUSH1 0xD9 SHL PUSH1 0x64 DUP3 ADD MSTORE PUSH1 0x84 ADD PUSH2 0x656 JUMP JUMPDEST PUSH1 0x1 PUSH1 0x1 PUSH1 0xA0 SHL SUB DUP3 AND PUSH2 0xFE5 JUMPI PUSH1 0x40 MLOAD PUSH3 0x461BCD PUSH1 0xE5 SHL DUP2 MSTORE PUSH1 0x20 PUSH1 0x4 DUP3 ADD MSTORE PUSH1 0x24 DUP1 DUP3 ADD MSTORE PUSH32 0x4552433732313A207472616E7366657220746F20746865207A65726F20616464 PUSH1 0x44 DUP3 ADD MSTORE PUSH4 0x72657373 PUSH1 0xE0 SHL PUSH1 0x64 DUP3 ADD MSTORE PUSH1 0x84 ADD PUSH2 0x656 JUMP JUMPDEST PUSH2 0xFF0 PUSH1 0x0 DUP3 PUSH2 0xD9A JUMP JUMPDEST PUSH1 0x1 PUSH1 0x1 PUSH1 0xA0 SHL SUB DUP4 AND PUSH1 0x0 SWAP1 DUP2 MSTORE PUSH1 0x3 PUSH1 0x20 MSTORE PUSH1 0x40 DUP2 KECCAK256 DUP1 SLOAD PUSH1 0x1 SWAP3 SWAP1 PUSH2 0x1019 SWAP1 DUP5 SWAP1 PUSH2 0x1D4B JUMP JUMPDEST SWAP1 SWAP2 SSTORE POP POP PUSH1 0x1 PUSH1 0x1 PUSH1 0xA0 SHL SUB DUP3 AND PUSH1 0x0 SWAP1 DUP2 MSTORE PUSH1 0x3 PUSH1 0x20 MSTORE PUSH1 0x40 DUP2 KECCAK256 DUP1 SLOAD PUSH1 0x1 SWAP3 SWAP1 PUSH2 0x1047 SWAP1 DUP5 SWAP1 PUSH2 0x1D62 JUMP JUMPDEST SWAP1 SWAP2 SSTORE POP POP PUSH1 0x0 DUP2 DUP2 MSTORE PUSH1 0x2 PUSH1 0x20 MSTORE PUSH1 0x40 DUP1 DUP3 KECCAK256 DUP1 SLOAD PUSH1 0x1 PUSH1 0x1 PUSH1 0xA0 SHL SUB NOT AND PUSH1 0x1 PUSH1 0x1 PUSH1 0xA0 SHL SUB DUP7 DUP2 AND SWAP2 DUP3 OR SWAP1 SWAP3 SSTORE SWAP2 MLOAD DUP5 SWAP4 SWAP2 DUP8 AND SWAP2 PUSH32 0xDDF252AD1BE2C89B69C2B068FC378DAA952BA7F163C4A11628F55A4DF523B3EF SWAP2 LOG4 POP POP POP JUMP JUMPDEST PUSH1 0x1 PUSH1 0x1 PUSH1 0xA0 SHL SUB DUP3 AND PUSH2 0x10FE JUMPI PUSH1 0x40 MLOAD PUSH3 0x461BCD PUSH1 0xE5 SHL DUP2 MSTORE PUSH1 0x20 PUSH1 0x4 DUP3 ADD DUP2 SWAP1 MSTORE PUSH1 0x24 DUP3 ADD MSTORE PUSH32 0x4552433732313A206D696E7420746F20746865207A65726F2061646472657373 PUSH1 0x44 DUP3 ADD MSTORE PUSH1 0x64 ADD PUSH2 0x656 JUMP JUMPDEST PUSH2 0x1107 DUP2 PUSH2 0xD7D JUMP JUMPDEST ISZERO PUSH2 0x1154 JUMPI PUSH1 0x40 MLOAD PUSH3 0x461BCD PUSH1 0xE5 SHL DUP2 MSTORE PUSH1 0x20 PUSH1 0x4 DUP3 ADD MSTORE PUSH1 0x1C PUSH1 0x24 DUP3 ADD MSTORE PUSH32 0x4552433732313A20746F6B656E20616C7265616479206D696E74656400000000 PUSH1 0x44 DUP3 ADD MSTORE PUSH1 0x64 ADD PUSH2 0x656 JUMP JUMPDEST PUSH1 0x1 PUSH1 0x1 PUSH1 0xA0 SHL SUB DUP3 AND PUSH1 0x0 SWAP1 DUP2 MSTORE PUSH1 0x3 PUSH1 0x20 MSTORE PUSH1 0x40 DUP2 KECCAK256 DUP1 SLOAD PUSH1 0x1 SWAP3 SWAP1 PUSH2 0x117D SWAP1 DUP5 SWAP1 PUSH2 0x1D62 JUMP JUMPDEST SWAP1 SWAP2 SSTORE POP POP PUSH1 0x0 DUP2 DUP2 MSTORE PUSH1 0x2 PUSH1 0x20 MSTORE PUSH1 0x40 DUP1 DUP3 KECCAK256 DUP1 SLOAD PUSH1 0x1 PUSH1 0x1 PUSH1 0xA0 SHL SUB NOT AND PUSH1 0x1 PUSH1 0x1 PUSH1 0xA0 SHL SUB DUP7 AND SWAP1 DUP2 OR SWAP1 SWAP2 SSTORE SWAP1 MLOAD DUP4 SWAP3 SWAP1 PUSH32 0xDDF252AD1BE2C89B69C2B068FC378DAA952BA7F163C4A11628F55A4DF523B3EF SWAP1 DUP3 SWAP1 LOG4 POP POP JUMP JUMPDEST PUSH2 0x11E4 DUP3 PUSH2 0xD7D JUMP JUMPDEST PUSH2 0x1247 JUMPI PUSH1 0x40 MLOAD PUSH3 0x461BCD PUSH1 0xE5 SHL DUP2 MSTORE PUSH1 0x20 PUSH1 0x4 DUP3 ADD MSTORE PUSH1 0x2E PUSH1 0x24 DUP3 ADD MSTORE PUSH32 0x45524337323155524953746F726167653A2055524920736574206F66206E6F6E PUSH1 0x44 DUP3 ADD MSTORE PUSH14 0x32BC34B9BA32B73A103A37B5B2B7 PUSH1 0x91 SHL PUSH1 0x64 DUP3 ADD MSTORE PUSH1 0x84 ADD PUSH2 0x656 JUMP JUMPDEST PUSH1 0x0 DUP3 DUP2 MSTORE PUSH1 0x6 PUSH1 0x20 SWAP1 DUP2 MSTORE PUSH1 0x40 SWAP1 SWAP2 KECCAK256 DUP3 MLOAD PUSH2 0x78B SWAP3 DUP5 ADD SWAP1 PUSH2 0x1839 JUMP JUMPDEST PUSH1 0x7 DUP1 SLOAD PUSH1 0x1 PUSH1 0x1 PUSH1 0xA0 SHL SUB DUP4 DUP2 AND PUSH1 0x1 PUSH1 0x1 PUSH1 0xA0 SHL SUB NOT DUP4 AND DUP2 OR SWAP1 SWAP4 SSTORE PUSH1 0x40 MLOAD SWAP2 AND SWAP2 SWAP1 DUP3 SWAP1 PUSH32 0x8BE0079C531659141344CD1FD0A4F28419497F9722A3DAAFE3B4186F6B6457E0 SWAP1 PUSH1 0x0 SWAP1 LOG3 POP POP JUMP JUMPDEST DUP2 PUSH1 0x1 PUSH1 0x1 PUSH1 0xA0 SHL SUB AND DUP4 PUSH1 0x1 PUSH1 0x1 PUSH1 0xA0 SHL SUB AND SUB PUSH2 0x1319 JUMPI PUSH1 0x40 MLOAD PUSH3 0x461BCD PUSH1 0xE5 SHL DUP2 MSTORE PUSH1 0x20 PUSH1 0x4 DUP3 ADD MSTORE PUSH1 0x19 PUSH1 0x24 DUP3 ADD MSTORE PUSH32 0x4552433732313A20617070726F766520746F2063616C6C657200000000000000 PUSH1 0x44 DUP3 ADD MSTORE PUSH1 0x64 ADD PUSH2 0x656 JUMP JUMPDEST PUSH1 0x1 PUSH1 0x1 PUSH1 0xA0 SHL SUB DUP4 DUP2 AND PUSH1 0x0 DUP2 DUP2 MSTORE PUSH1 0x5 PUSH1 0x20 SWAP1 DUP2 MSTORE PUSH1 0x40 DUP1 DUP4 KECCAK256 SWAP5 DUP8 AND DUP1 DUP5 MSTORE SWAP5 DUP3 MSTORE SWAP2 DUP3 SWAP1 KECCAK256 DUP1 SLOAD PUSH1 0xFF NOT AND DUP7 ISZERO ISZERO SWAP1 DUP2 OR SWAP1 SWAP2 SSTORE SWAP2 MLOAD SWAP2 DUP3 MSTORE PUSH32 0x17307EAB39AB6107E8899845AD3D59BD9653F200F220920489CA2B5937696C31 SWAP2 ADD PUSH1 0x40 MLOAD DUP1 SWAP2 SUB SWAP1 LOG3 POP POP POP JUMP JUMPDEST PUSH2 0x1391 DUP5 DUP5 DUP5 PUSH2 0xF0C JUMP JUMPDEST PUSH2 0x139D DUP5 DUP5 DUP5 DUP5 PUSH2 0x154D JUMP JUMPDEST PUSH2 0xC7B JUMPI PUSH1 0x40 MLOAD PUSH3 0x461BCD PUSH1 0xE5 SHL DUP2 MSTORE PUSH1 0x4 ADD PUSH2 0x656 SWAP1 PUSH2 0x1D7A JUMP JUMPDEST PUSH1 0x60 PUSH2 0x13C4 DUP3 PUSH2 0xD7D JUMP JUMPDEST PUSH2 0x142A JUMPI PUSH1 0x40 MLOAD PUSH3 0x461BCD PUSH1 0xE5 SHL DUP2 MSTORE PUSH1 0x20 PUSH1 0x4 DUP3 ADD MSTORE PUSH1 0x31 PUSH1 0x24 DUP3 ADD MSTORE PUSH32 0x45524337323155524953746F726167653A2055524920717565727920666F7220 PUSH1 0x44 DUP3 ADD MSTORE PUSH17 0x3737B732BC34B9BA32B73A103A37B5B2B7 PUSH1 0x79 SHL PUSH1 0x64 DUP3 ADD MSTORE PUSH1 0x84 ADD PUSH2 0x656 JUMP JUMPDEST PUSH1 0x0 DUP3 DUP2 MSTORE PUSH1 0x6 PUSH1 0x20 MSTORE PUSH1 0x40 DUP2 KECCAK256 DUP1 SLOAD PUSH2 0x1443 SWAP1 PUSH2 0x1C40 JUMP JUMPDEST DUP1 PUSH1 0x1F ADD PUSH1 0x20 DUP1 SWAP2 DIV MUL PUSH1 0x20 ADD PUSH1 0x40 MLOAD SWAP1 DUP2 ADD PUSH1 0x40 MSTORE DUP1 SWAP3 SWAP2 SWAP1 DUP2 DUP2 MSTORE PUSH1 0x20 ADD DUP3 DUP1 SLOAD PUSH2 0x146F SWAP1 PUSH2 0x1C40 JUMP JUMPDEST DUP1 ISZERO PUSH2 0x14BC JUMPI DUP1 PUSH1 0x1F LT PUSH2 0x1491 JUMPI PUSH2 0x100 DUP1 DUP4 SLOAD DIV MUL DUP4 MSTORE SWAP2 PUSH1 0x20 ADD SWAP2 PUSH2 0x14BC JUMP JUMPDEST DUP3 ADD SWAP2 SWAP1 PUSH1 0x0 MSTORE PUSH1 0x20 PUSH1 0x0 KECCAK256 SWAP1 JUMPDEST DUP2 SLOAD DUP2 MSTORE SWAP1 PUSH1 0x1 ADD SWAP1 PUSH1 0x20 ADD DUP1 DUP4 GT PUSH2 0x149F JUMPI DUP3 SWAP1 SUB PUSH1 0x1F AND DUP3 ADD SWAP2 JUMPDEST POP POP POP POP POP SWAP1 POP PUSH1 0x0 PUSH2 0x14CD PUSH2 0x164E JUMP JUMPDEST SWAP1 POP DUP1 MLOAD PUSH1 0x0 SUB PUSH2 0x14DF JUMPI POP SWAP3 SWAP2 POP POP JUMP JUMPDEST DUP2 MLOAD ISZERO PUSH2 0x1511 JUMPI DUP1 DUP3 PUSH1 0x40 MLOAD PUSH1 0x20 ADD PUSH2 0x14F9 SWAP3 SWAP2 SWAP1 PUSH2 0x1DCC JUMP JUMPDEST PUSH1 0x40 MLOAD PUSH1 0x20 DUP2 DUP4 SUB SUB DUP2 MSTORE SWAP1 PUSH1 0x40 MSTORE SWAP3 POP POP POP SWAP2 SWAP1 POP JUMP JUMPDEST PUSH2 0xF04 DUP5 PUSH2 0x166E JUMP JUMPDEST PUSH2 0x1524 DUP4 DUP4 PUSH2 0x10A8 JUMP JUMPDEST PUSH2 0x1531 PUSH1 0x0 DUP5 DUP5 DUP5 PUSH2 0x154D JUMP JUMPDEST PUSH2 0x78B JUMPI PUSH1 0x40 MLOAD PUSH3 0x461BCD PUSH1 0xE5 SHL DUP2 MSTORE PUSH1 0x4 ADD PUSH2 0x656 SWAP1 PUSH2 0x1D7A JUMP JUMPDEST PUSH1 0x0 PUSH1 0x1 PUSH1 0x1 PUSH1 0xA0 SHL SUB DUP5 AND EXTCODESIZE ISZERO PUSH2 0x1643 JUMPI PUSH1 0x40 MLOAD PUSH4 0xA85BD01 PUSH1 0xE1 SHL DUP2 MSTORE PUSH1 0x1 PUSH1 0x1 PUSH1 0xA0 SHL SUB DUP6 AND SWAP1 PUSH4 0x150B7A02 SWAP1 PUSH2 0x1591 SWAP1 CALLER SWAP1 DUP10 SWAP1 DUP9 SWAP1 DUP9 SWAP1 PUSH1 0x4 ADD PUSH2 0x1DFB JUMP JUMPDEST PUSH1 0x20 PUSH1 0x40 MLOAD DUP1 DUP4 SUB DUP2 PUSH1 0x0 DUP8 GAS CALL SWAP3 POP POP POP DUP1 ISZERO PUSH2 0x15CC JUMPI POP PUSH1 0x40 DUP1 MLOAD PUSH1 0x1F RETURNDATASIZE SWAP1 DUP2 ADD PUSH1 0x1F NOT AND DUP3 ADD SWAP1 SWAP3 MSTORE PUSH2 0x15C9 SWAP2 DUP2 ADD SWAP1 PUSH2 0x1E38 JUMP JUMPDEST PUSH1 0x1 JUMPDEST PUSH2 0x1629 JUMPI RETURNDATASIZE DUP1 DUP1 ISZERO PUSH2 0x15FA JUMPI PUSH1 0x40 MLOAD SWAP2 POP PUSH1 0x1F NOT PUSH1 0x3F RETURNDATASIZE ADD AND DUP3 ADD PUSH1 0x40 MSTORE RETURNDATASIZE DUP3 MSTORE RETURNDATASIZE PUSH1 0x0 PUSH1 0x20 DUP5 ADD RETURNDATACOPY PUSH2 0x15FF JUMP JUMPDEST PUSH1 0x60 SWAP2 POP JUMPDEST POP DUP1 MLOAD PUSH1 0x0 SUB PUSH2 0x1621 JUMPI PUSH1 0x40 MLOAD PUSH3 0x461BCD PUSH1 0xE5 SHL DUP2 MSTORE PUSH1 0x4 ADD PUSH2 0x656 SWAP1 PUSH2 0x1D7A JUMP JUMPDEST DUP1 MLOAD DUP2 PUSH1 0x20 ADD REVERT JUMPDEST PUSH1 0x1 PUSH1 0x1 PUSH1 0xE0 SHL SUB NOT AND PUSH4 0xA85BD01 PUSH1 0xE1 SHL EQ SWAP1 POP PUSH2 0xF04 JUMP JUMPDEST POP PUSH1 0x1 SWAP5 SWAP4 POP POP POP POP JUMP JUMPDEST PUSH1 0x60 PUSH1 0x40 MLOAD DUP1 PUSH1 0xA0 ADD PUSH1 0x40 MSTORE DUP1 PUSH1 0x64 DUP2 MSTORE PUSH1 0x20 ADD PUSH2 0x1EAA PUSH1 0x64 SWAP2 CODECOPY SWAP1 POP SWAP1 JUMP JUMPDEST PUSH1 0x60 PUSH2 0x1679 DUP3 PUSH2 0xD7D JUMP JUMPDEST PUSH2 0x16DD JUMPI PUSH1 0x40 MLOAD PUSH3 0x461BCD PUSH1 0xE5 SHL DUP2 MSTORE PUSH1 0x20 PUSH1 0x4 DUP3 ADD MSTORE PUSH1 0x2F PUSH1 0x24 DUP3 ADD MSTORE PUSH32 0x4552433732314D657461646174613A2055524920717565727920666F72206E6F PUSH1 0x44 DUP3 ADD MSTORE PUSH15 0x3732BC34B9BA32B73A103A37B5B2B7 PUSH1 0x89 SHL PUSH1 0x64 DUP3 ADD MSTORE PUSH1 0x84 ADD PUSH2 0x656 JUMP JUMPDEST PUSH1 0x0 PUSH2 0x16E7 PUSH2 0x164E JUMP JUMPDEST SWAP1 POP PUSH1 0x0 DUP2 MLOAD GT PUSH2 0x1707 JUMPI PUSH1 0x40 MLOAD DUP1 PUSH1 0x20 ADD PUSH1 0x40 MSTORE DUP1 PUSH1 0x0 DUP2 MSTORE POP PUSH2 0xA55 JUMP JUMPDEST DUP1 PUSH2 0x1711 DUP5 PUSH2 0x1738 JUMP JUMPDEST PUSH1 0x40 MLOAD PUSH1 0x20 ADD PUSH2 0x1722 SWAP3 SWAP2 SWAP1 PUSH2 0x1DCC JUMP JUMPDEST PUSH1 0x40 MLOAD PUSH1 0x20 DUP2 DUP4 SUB SUB DUP2 MSTORE SWAP1 PUSH1 0x40 MSTORE SWAP4 SWAP3 POP POP POP JUMP JUMPDEST PUSH1 0x60 DUP2 PUSH1 0x0 SUB PUSH2 0x175F JUMPI POP POP PUSH1 0x40 DUP1 MLOAD DUP1 DUP3 ADD SWAP1 SWAP2 MSTORE PUSH1 0x1 DUP2 MSTORE PUSH1 0x3 PUSH1 0xFC SHL PUSH1 0x20 DUP3 ADD MSTORE SWAP1 JUMP JUMPDEST DUP2 PUSH1 0x0 JUMPDEST DUP2 ISZERO PUSH2 0x1789 JUMPI DUP1 PUSH2 0x1773 DUP2 PUSH2 0x1C90 JUMP JUMPDEST SWAP2 POP PUSH2 0x1782 SWAP1 POP PUSH1 0xA DUP4 PUSH2 0x1E6B JUMP JUMPDEST SWAP2 POP PUSH2 0x1763 JUMP JUMPDEST PUSH1 0x0 DUP2 PUSH8 0xFFFFFFFFFFFFFFFF DUP2 GT ISZERO PUSH2 0x17A4 JUMPI PUSH2 0x17A4 PUSH2 0x1A0B JUMP JUMPDEST PUSH1 0x40 MLOAD SWAP1 DUP1 DUP3 MSTORE DUP1 PUSH1 0x1F ADD PUSH1 0x1F NOT AND PUSH1 0x20 ADD DUP3 ADD PUSH1 0x40 MSTORE DUP1 ISZERO PUSH2 0x17CE JUMPI PUSH1 0x20 DUP3 ADD DUP2 DUP1 CALLDATASIZE DUP4 CALLDATACOPY ADD SWAP1 POP JUMPDEST POP SWAP1 POP JUMPDEST DUP5 ISZERO PUSH2 0xF04 JUMPI PUSH2 0x17E3 PUSH1 0x1 DUP4 PUSH2 0x1D4B JUMP JUMPDEST SWAP2 POP PUSH2 0x17F0 PUSH1 0xA DUP7 PUSH2 0x1E7F JUMP JUMPDEST PUSH2 0x17FB SWAP1 PUSH1 0x30 PUSH2 0x1D62 JUMP JUMPDEST PUSH1 0xF8 SHL DUP2 DUP4 DUP2 MLOAD DUP2 LT PUSH2 0x1810 JUMPI PUSH2 0x1810 PUSH2 0x1E93 JUMP JUMPDEST PUSH1 0x20 ADD ADD SWAP1 PUSH1 0x1 PUSH1 0x1 PUSH1 0xF8 SHL SUB NOT AND SWAP1 DUP2 PUSH1 0x0 BYTE SWAP1 MSTORE8 POP PUSH2 0x1832 PUSH1 0xA DUP7 PUSH2 0x1E6B JUMP JUMPDEST SWAP5 POP PUSH2 0x17D2 JUMP JUMPDEST DUP3 DUP1 SLOAD PUSH2 0x1845 SWAP1 PUSH2 0x1C40 JUMP JUMPDEST SWAP1 PUSH1 0x0 MSTORE PUSH1 0x20 PUSH1 0x0 KECCAK256 SWAP1 PUSH1 0x1F ADD PUSH1 0x20 SWAP1 DIV DUP2 ADD SWAP3 DUP3 PUSH2 0x1867 JUMPI PUSH1 0x0 DUP6 SSTORE PUSH2 0x18AD JUMP JUMPDEST DUP3 PUSH1 0x1F LT PUSH2 0x1880 JUMPI DUP1 MLOAD PUSH1 0xFF NOT AND DUP4 DUP1 ADD OR DUP6 SSTORE PUSH2 0x18AD JUMP JUMPDEST DUP3 DUP1 ADD PUSH1 0x1 ADD DUP6 SSTORE DUP3 ISZERO PUSH2 0x18AD JUMPI SWAP2 DUP3 ADD JUMPDEST DUP3 DUP2 GT ISZERO PUSH2 0x18AD JUMPI DUP3 MLOAD DUP3 SSTORE SWAP2 PUSH1 0x20 ADD SWAP2 SWAP1 PUSH1 0x1 ADD SWAP1 PUSH2 0x1892 JUMP JUMPDEST POP PUSH2 0x18B9 SWAP3 SWAP2 POP PUSH2 0x18BD JUMP JUMPDEST POP SWAP1 JUMP JUMPDEST JUMPDEST DUP1 DUP3 GT ISZERO PUSH2 0x18B9 JUMPI PUSH1 0x0 DUP2 SSTORE PUSH1 0x1 ADD PUSH2 0x18BE JUMP JUMPDEST PUSH1 0x1 PUSH1 0x1 PUSH1 0xE0 SHL SUB NOT DUP2 AND DUP2 EQ PUSH2 0x8EF JUMPI PUSH1 0x0 DUP1 REVERT JUMPDEST PUSH1 0x0 PUSH1 0x20 DUP3 DUP5 SUB SLT ISZERO PUSH2 0x18FA JUMPI PUSH1 0x0 DUP1 REVERT JUMPDEST DUP2 CALLDATALOAD PUSH2 0xA55 DUP2 PUSH2 0x18D2 JUMP JUMPDEST PUSH1 0x0 JUMPDEST DUP4 DUP2 LT ISZERO PUSH2 0x1920 JUMPI DUP2 DUP2 ADD MLOAD DUP4 DUP3 ADD MSTORE PUSH1 0x20 ADD PUSH2 0x1908 JUMP JUMPDEST DUP4 DUP2 GT ISZERO PUSH2 0xC7B JUMPI POP POP PUSH1 0x0 SWAP2 ADD MSTORE JUMP JUMPDEST PUSH1 0x0 DUP2 MLOAD DUP1 DUP5 MSTORE PUSH2 0x1949 DUP2 PUSH1 0x20 DUP7 ADD PUSH1 0x20 DUP7 ADD PUSH2 0x1905 JUMP JUMPDEST PUSH1 0x1F ADD PUSH1 0x1F NOT AND SWAP3 SWAP1 SWAP3 ADD PUSH1 0x20 ADD SWAP3 SWAP2 POP POP JUMP JUMPDEST PUSH1 0x20 DUP2 MSTORE PUSH1 0x0 PUSH2 0xA55 PUSH1 0x20 DUP4 ADD DUP5 PUSH2 0x1931 JUMP JUMPDEST PUSH1 0x0 PUSH1 0x20 DUP3 DUP5 SUB SLT ISZERO PUSH2 0x1982 JUMPI PUSH1 0x0 DUP1 REVERT JUMPDEST POP CALLDATALOAD SWAP2 SWAP1 POP JUMP JUMPDEST DUP1 CALLDATALOAD PUSH1 0x1 PUSH1 0x1 PUSH1 0xA0 SHL SUB DUP2 AND DUP2 EQ PUSH2 0x19A0 JUMPI PUSH1 0x0 DUP1 REVERT JUMPDEST SWAP2 SWAP1 POP JUMP JUMPDEST PUSH1 0x0 DUP1 PUSH1 0x40 DUP4 DUP6 SUB SLT ISZERO PUSH2 0x19B8 JUMPI PUSH1 0x0 DUP1 REVERT JUMPDEST PUSH2 0x19C1 DUP4 PUSH2 0x1989 JUMP JUMPDEST SWAP5 PUSH1 0x20 SWAP4 SWAP1 SWAP4 ADD CALLDATALOAD SWAP4 POP POP POP JUMP JUMPDEST PUSH1 0x0 DUP1 PUSH1 0x0 PUSH1 0x60 DUP5 DUP7 SUB SLT ISZERO PUSH2 0x19E4 JUMPI PUSH1 0x0 DUP1 REVERT JUMPDEST PUSH2 0x19ED DUP5 PUSH2 0x1989 JUMP JUMPDEST SWAP3 POP PUSH2 0x19FB PUSH1 0x20 DUP6 ADD PUSH2 0x1989 JUMP JUMPDEST SWAP2 POP PUSH1 0x40 DUP5 ADD CALLDATALOAD SWAP1 POP SWAP3 POP SWAP3 POP SWAP3 JUMP JUMPDEST PUSH4 0x4E487B71 PUSH1 0xE0 SHL PUSH1 0x0 MSTORE PUSH1 0x41 PUSH1 0x4 MSTORE PUSH1 0x24 PUSH1 0x0 REVERT JUMPDEST PUSH1 0x0 PUSH8 0xFFFFFFFFFFFFFFFF DUP1 DUP5 GT ISZERO PUSH2 0x1A3C JUMPI PUSH2 0x1A3C PUSH2 0x1A0B JUMP JUMPDEST PUSH1 0x40 MLOAD PUSH1 0x1F DUP6 ADD PUSH1 0x1F NOT SWAP1 DUP2 AND PUSH1 0x3F ADD AND DUP2 ADD SWAP1 DUP3 DUP3 GT DUP2 DUP4 LT OR ISZERO PUSH2 0x1A64 JUMPI PUSH2 0x1A64 PUSH2 0x1A0B JUMP JUMPDEST DUP2 PUSH1 0x40 MSTORE DUP1 SWAP4 POP DUP6 DUP2 MSTORE DUP7 DUP7 DUP7 ADD GT ISZERO PUSH2 0x1A7D JUMPI PUSH1 0x0 DUP1 REVERT JUMPDEST DUP6 DUP6 PUSH1 0x20 DUP4 ADD CALLDATACOPY PUSH1 0x0 PUSH1 0x20 DUP8 DUP4 ADD ADD MSTORE POP POP POP SWAP4 SWAP3 POP POP POP JUMP JUMPDEST PUSH1 0x0 DUP3 PUSH1 0x1F DUP4 ADD SLT PUSH2 0x1AA8 JUMPI PUSH1 0x0 DUP1 REVERT JUMPDEST PUSH2 0xA55 DUP4 DUP4 CALLDATALOAD PUSH1 0x20 DUP6 ADD PUSH2 0x1A21 JUMP JUMPDEST PUSH1 0x0 DUP1 PUSH1 0x40 DUP4 DUP6 SUB SLT ISZERO PUSH2 0x1ACA JUMPI PUSH1 0x0 DUP1 REVERT JUMPDEST PUSH2 0x1AD3 DUP4 PUSH2 0x1989 JUMP JUMPDEST SWAP2 POP PUSH1 0x20 DUP4 ADD CALLDATALOAD PUSH8 0xFFFFFFFFFFFFFFFF DUP2 GT ISZERO PUSH2 0x1AEF JUMPI PUSH1 0x0 DUP1 REVERT JUMPDEST PUSH2 0x1AFB DUP6 DUP3 DUP7 ADD PUSH2 0x1A97 JUMP JUMPDEST SWAP2 POP POP SWAP3 POP SWAP3 SWAP1 POP JUMP JUMPDEST PUSH1 0x0 PUSH1 0x20 DUP3 DUP5 SUB SLT ISZERO PUSH2 0x1B17 JUMPI PUSH1 0x0 DUP1 REVERT JUMPDEST PUSH2 0xA55 DUP3 PUSH2 0x1989 JUMP JUMPDEST PUSH1 0x0 PUSH1 0x20 DUP3 DUP5 SUB SLT ISZERO PUSH2 0x1B32 JUMPI PUSH1 0x0 DUP1 REVERT JUMPDEST DUP2 CALLDATALOAD PUSH8 0xFFFFFFFFFFFFFFFF DUP2 GT ISZERO PUSH2 0x1B49 JUMPI PUSH1 0x0 DUP1 REVERT JUMPDEST PUSH2 0xF04 DUP5 DUP3 DUP6 ADD PUSH2 0x1A97 JUMP JUMPDEST PUSH1 0x0 DUP1 PUSH1 0x40 DUP4 DUP6 SUB SLT ISZERO PUSH2 0x1B68 JUMPI PUSH1 0x0 DUP1 REVERT JUMPDEST PUSH2 0x1B71 DUP4 PUSH2 0x1989 JUMP JUMPDEST SWAP2 POP PUSH1 0x20 DUP4 ADD CALLDATALOAD DUP1 ISZERO ISZERO DUP2 EQ PUSH2 0x1B86 JUMPI PUSH1 0x0 DUP1 REVERT JUMPDEST DUP1 SWAP2 POP POP SWAP3 POP SWAP3 SWAP1 POP JUMP JUMPDEST PUSH1 0x0 DUP1 PUSH1 0x0 DUP1 PUSH1 0x80 DUP6 DUP8 SUB SLT ISZERO PUSH2 0x1BA7 JUMPI PUSH1 0x0 DUP1 REVERT JUMPDEST PUSH2 0x1BB0 DUP6 PUSH2 0x1989 JUMP JUMPDEST SWAP4 POP PUSH2 0x1BBE PUSH1 0x20 DUP7 ADD PUSH2 0x1989 JUMP JUMPDEST SWAP3 POP PUSH1 0x40 DUP6 ADD CALLDATALOAD SWAP2 POP PUSH1 0x60 DUP6 ADD CALLDATALOAD PUSH8 0xFFFFFFFFFFFFFFFF DUP2 GT ISZERO PUSH2 0x1BE1 JUMPI PUSH1 0x0 DUP1 REVERT JUMPDEST DUP6 ADD PUSH1 0x1F DUP2 ADD DUP8 SGT PUSH2 0x1BF2 JUMPI PUSH1 0x0 DUP1 REVERT JUMPDEST PUSH2 0x1C01 DUP8 DUP3 CALLDATALOAD PUSH1 0x20 DUP5 ADD PUSH2 0x1A21 JUMP JUMPDEST SWAP2 POP POP SWAP3 SWAP6 SWAP2 SWAP5 POP SWAP3 POP JUMP JUMPDEST PUSH1 0x0 DUP1 PUSH1 0x40 DUP4 DUP6 SUB SLT ISZERO PUSH2 0x1C20 JUMPI PUSH1 0x0 DUP1 REVERT JUMPDEST PUSH2 0x1C29 DUP4 PUSH2 0x1989 JUMP JUMPDEST SWAP2 POP PUSH2 0x1C37 PUSH1 0x20 DUP5 ADD PUSH2 0x1989 JUMP JUMPDEST SWAP1 POP SWAP3 POP SWAP3 SWAP1 POP JUMP JUMPDEST PUSH1 0x1 DUP2 DUP2 SHR SWAP1 DUP3 AND DUP1 PUSH2 0x1C54 JUMPI PUSH1 0x7F DUP3 AND SWAP2 POP JUMPDEST PUSH1 0x20 DUP3 LT DUP2 SUB PUSH2 0x1C74 JUMPI PUSH4 0x4E487B71 PUSH1 0xE0 SHL PUSH1 0x0 MSTORE PUSH1 0x22 PUSH1 0x4 MSTORE PUSH1 0x24 PUSH1 0x0 REVERT JUMPDEST POP SWAP2 SWAP1 POP JUMP JUMPDEST PUSH4 0x4E487B71 PUSH1 0xE0 SHL PUSH1 0x0 MSTORE PUSH1 0x11 PUSH1 0x4 MSTORE PUSH1 0x24 PUSH1 0x0 REVERT JUMPDEST PUSH1 0x0 PUSH1 0x1 DUP3 ADD PUSH2 0x1CA2 JUMPI PUSH2 0x1CA2 PUSH2 0x1C7A JUMP JUMPDEST POP PUSH1 0x1 ADD SWAP1 JUMP JUMPDEST PUSH1 0x20 DUP1 DUP3 MSTORE PUSH1 0x31 SWAP1 DUP3 ADD MSTORE PUSH32 0x4552433732313A207472616E736665722063616C6C6572206973206E6F74206F PUSH1 0x40 DUP3 ADD MSTORE PUSH17 0x1DDB995C881B9BDC88185C1C1C9BDD9959 PUSH1 0x7A SHL PUSH1 0x60 DUP3 ADD MSTORE PUSH1 0x80 ADD SWAP1 JUMP JUMPDEST PUSH1 0x0 DUP3 MLOAD PUSH2 0x1D0C DUP2 DUP5 PUSH1 0x20 DUP8 ADD PUSH2 0x1905 JUMP JUMPDEST SWAP2 SWAP1 SWAP2 ADD SWAP3 SWAP2 POP POP JUMP JUMPDEST PUSH1 0x20 DUP1 DUP3 MSTORE DUP2 DUP2 ADD MSTORE PUSH32 0x4F776E61626C653A2063616C6C6572206973206E6F7420746865206F776E6572 PUSH1 0x40 DUP3 ADD MSTORE PUSH1 0x60 ADD SWAP1 JUMP JUMPDEST PUSH1 0x0 DUP3 DUP3 LT ISZERO PUSH2 0x1D5D JUMPI PUSH2 0x1D5D PUSH2 0x1C7A JUMP JUMPDEST POP SUB SWAP1 JUMP JUMPDEST PUSH1 0x0 DUP3 NOT DUP3 GT ISZERO PUSH2 0x1D75 JUMPI PUSH2 0x1D75 PUSH2 0x1C7A JUMP JUMPDEST POP ADD SWAP1 JUMP JUMPDEST PUSH1 0x20 DUP1 DUP3 MSTORE PUSH1 0x32 SWAP1 DUP3 ADD MSTORE PUSH32 0x4552433732313A207472616E7366657220746F206E6F6E204552433732315265 PUSH1 0x40 DUP3 ADD MSTORE PUSH18 0x31B2B4BB32B91034B6B83632B6B2B73A32B9 PUSH1 0x71 SHL PUSH1 0x60 DUP3 ADD MSTORE PUSH1 0x80 ADD SWAP1 JUMP JUMPDEST PUSH1 0x0 DUP4 MLOAD PUSH2 0x1DDE DUP2 DUP5 PUSH1 0x20 DUP9 ADD PUSH2 0x1905 JUMP JUMPDEST DUP4 MLOAD SWAP1 DUP4 ADD SWAP1 PUSH2 0x1DF2 DUP2 DUP4 PUSH1 0x20 DUP9 ADD PUSH2 0x1905 JUMP JUMPDEST ADD SWAP5 SWAP4 POP POP POP POP JUMP JUMPDEST PUSH1 0x1 PUSH1 0x1 PUSH1 0xA0 SHL SUB DUP6 DUP2 AND DUP3 MSTORE DUP5 AND PUSH1 0x20 DUP3 ADD MSTORE PUSH1 0x40 DUP2 ADD DUP4 SWAP1 MSTORE PUSH1 0x80 PUSH1 0x60 DUP3 ADD DUP2 SWAP1 MSTORE PUSH1 0x0 SWAP1 PUSH2 0x1E2E SWAP1 DUP4 ADD DUP5 PUSH2 0x1931 JUMP JUMPDEST SWAP7 SWAP6 POP POP POP POP POP POP JUMP JUMPDEST PUSH1 0x0 PUSH1 0x20 DUP3 DUP5 SUB SLT ISZERO PUSH2 0x1E4A JUMPI PUSH1 0x0 DUP1 REVERT JUMPDEST DUP2 MLOAD PUSH2 0xA55 DUP2 PUSH2 0x18D2 JUMP JUMPDEST PUSH4 0x4E487B71 PUSH1 0xE0 SHL PUSH1 0x0 MSTORE PUSH1 0x12 PUSH1 0x4 MSTORE PUSH1 0x24 PUSH1 0x0 REVERT JUMPDEST PUSH1 0x0 DUP3 PUSH2 0x1E7A JUMPI PUSH2 0x1E7A PUSH2 0x1E55 JUMP JUMPDEST POP DIV SWAP1 JUMP JUMPDEST PUSH1 0x0 DUP3 PUSH2 0x1E8E JUMPI PUSH2 0x1E8E PUSH2 0x1E55 JUMP JUMPDEST POP MOD SWAP1 JUMP JUMPDEST PUSH4 0x4E487B71 PUSH1 0xE0 SHL PUSH1 0x0 MSTORE PUSH1 0x32 PUSH1 0x4 MSTORE PUSH1 0x24 PUSH1 0x0 REVERT INVALID PUSH9 0x747470733A2F2F6970 PUSH7 0x732E696F2F6970 PUSH7 0x732F516D567270 JUMP GAS PC CALLDATALOAD DIFFICULTY PUSH25 0x6E614B4C70785267626A7273555A59334A636E44486D524535 CALLDATACOPY PUSH20 0x784751566637676D3F66696C656E616D653D3436 CALLVALUE CALLDATALOAD CALLDATACOPY CALLDATALOAD CODECOPY CALLDATASIZE BALANCE BALANCE CALLDATASIZE CALLVALUE ORIGIN CODECOPY CALLDATACOPY CALLVALUE ORIGIN CODESIZE CALLVALUE 0x2E PUSH8 0x6966A26469706673 PC 0x22 SLT KECCAK256 0xE8 CODECOPY PUSH16 0x86ECC3F4B8770CC04936954EBEF40320 SGT LT MUL 0xF 0xA8 0xE3 0x2C DUP15 0xDC SWAP3 0xCC 0xDD GASLIMIT PUSH5 0x736F6C6343 STOP ADDMOD 0xD STOP CALLER "
				},
				"gasEstimates": {
					"creation": {
						"codeDepositCost": "1600600",
						"executionCost": "infinite",
						"totalCost": "infinite"
					},
					"external": {
						"approve(address,uint256)": "infinite",
						"balanceOf(address)": "2635",
						"getApproved(uint256)": "4799",
						"isApprovedForAll(address,address)": "infinite",
						"isContentOwned(string)": "infinite",
						"isMintEnabled()": "2367",
						"maxSupply()": "2361",
						"mint()": "infinite",
						"mintPrice()": "2384",
						"mintedWallets(address)": "2564",
						"name()": "infinite",
						"owner()": "2376",
						"ownerOf(uint256)": "2623",
						"payToMint(address,string)": "infinite",
						"renounceOwnership()": "28185",
						"safeMint(address,string)": "infinite",
						"safeTransferFrom(address,address,uint256)": "infinite",
						"safeTransferFrom(address,address,uint256,bytes)": "infinite",
						"setApprovalForAll(address,bool)": "26794",
						"setMaxSupply(uint256)": "24575",
						"supportsInterface(bytes4)": "534",
						"symbol()": "infinite",
						"toggleInMintEnabled()": "26613",
						"tokenURI(uint256)": "infinite",
						"totalSupply()": "2429",
						"transferFrom(address,address,uint256)": "infinite",
						"transferOwnership(address)": "28422"
					},
					"internal": {
						"_baseURI()": "infinite",
						"_burn(uint256)": "infinite"
					}
				},
				"methodIdentifiers": {
					"approve(address,uint256)": "095ea7b3",
					"balanceOf(address)": "70a08231",
					"getApproved(uint256)": "081812fc",
					"isApprovedForAll(address,address)": "e985e9c5",
					"isContentOwned(string)": "9f1cabc6",
					"isMintEnabled()": "346de50a",
					"maxSupply()": "d5abeb01",
					"mint()": "1249c58b",
					"mintPrice()": "6817c76c",
					"mintedWallets(address)": "ada7c4ed",
					"name()": "06fdde03",
					"owner()": "8da5cb5b",
					"ownerOf(uint256)": "6352211e",
					"payToMint(address,string)": "615fd9e2",
					"renounceOwnership()": "715018a6",
					"safeMint(address,string)": "d204c45e",
					"safeTransferFrom(address,address,uint256)": "42842e0e",
					"safeTransferFrom(address,address,uint256,bytes)": "b88d4fde",
					"setApprovalForAll(address,bool)": "a22cb465",
					"setMaxSupply(uint256)": "6f8b44b0",
					"supportsInterface(bytes4)": "01ffc9a7",
					"symbol()": "95d89b41",
					"toggleInMintEnabled()": "84a428db",
					"tokenURI(uint256)": "c87b56dd",
					"totalSupply()": "18160ddd",
					"transferFrom(address,address,uint256)": "23b872dd",
					"transferOwnership(address)": "f2fde38b"
				}
			},
			"userdoc": {
				"kind": "user",
				"methods": {},
				"version": 1
			}
		}
	}
}