{
	"contracts/FNFT.sol": {
		"FNFT": {
			"abi": [
				{
					"inputs": [],
					"stateMutability": "payable",
					"type": "constructor"
				},
				{
					"anonymous": false,
					"inputs": [
						{
							"indexed": true,
							"internalType": "address",
							"name": "owner",
							"type": "address"
						},
						{
							"indexed": true,
							"internalType": "address",
							"name": "approved",
							"type": "address"
						},
						{
							"indexed": true,
							"internalType": "uint256",
							"name": "tokenId",
							"type": "uint256"
						}
					],
					"name": "Approval",
					"type": "event"
				},
				{
					"anonymous": false,
					"inputs": [
						{
							"indexed": true,
							"internalType": "address",
							"name": "owner",
							"type": "address"
						},
						{
							"indexed": true,
							"internalType": "address",
							"name": "operator",
							"type": "address"
						},
						{
							"indexed": false,
							"internalType": "bool",
							"name": "approved",
							"type": "bool"
						}
					],
					"name": "ApprovalForAll",
					"type": "event"
				},
				{
					"anonymous": false,
					"inputs": [
						{
							"indexed": true,
							"internalType": "address",
							"name": "previousOwner",
							"type": "address"
						},
						{
							"indexed": true,
							"internalType": "address",
							"name": "newOwner",
							"type": "address"
						}
					],
					"name": "OwnershipTransferred",
					"type": "event"
				},
				{
					"anonymous": false,
					"inputs": [
						{
							"indexed": true,
							"internalType": "address",
							"name": "from",
							"type": "address"
						},
						{
							"indexed": true,
							"internalType": "address",
							"name": "to",
							"type": "address"
						},
						{
							"indexed": true,
							"internalType": "uint256",
							"name": "tokenId",
							"type": "uint256"
						}
					],
					"name": "Transfer",
					"type": "event"
				},
				{
					"inputs": [
						{
							"internalType": "address",
							"name": "to",
							"type": "address"
						},
						{
							"internalType": "uint256",
							"name": "tokenId",
							"type": "uint256"
						}
					],
					"name": "approve",
					"outputs": [],
					"stateMutability": "nonpayable",
					"type": "function"
				},
				{
					"inputs": [
						{
							"internalType": "address",
							"name": "owner",
							"type": "address"
						}
					],
					"name": "balanceOf",
					"outputs": [
						{
							"internalType": "uint256",
							"name": "",
							"type": "uint256"
						}
					],
					"stateMutability": "view",
					"type": "function"
				},
				{
					"inputs": [
						{
							"internalType": "uint256",
							"name": "tokenId",
							"type": "uint256"
						}
					],
					"name": "getApproved",
					"outputs": [
						{
							"internalType": "address",
							"name": "",
							"type": "address"
						}
					],
					"stateMutability": "view",
					"type": "function"
				},
				{
					"inputs": [
						{
							"internalType": "address",
							"name": "owner",
							"type": "address"
						},
						{
							"internalType": "address",
							"name": "operator",
							"type": "address"
						}
					],
					"name": "isApprovedForAll",
					"outputs": [
						{
							"internalType": "bool",
							"name": "",
							"type": "bool"
						}
					],
					"stateMutability": "view",
					"type": "function"
				},
				{
					"inputs": [
						{
							"internalType": "string",
							"name": "uri",
							"type": "string"
						}
					],
					"name": "isContentOwned",
					"outputs": [
						{
							"internalType": "bool",
							"name": "",
							"type": "bool"
						}
					],
					"stateMutability": "view",
					"type": "function"
				},
				{
					"inputs": [],
					"name": "isMintEnabled",
					"outputs": [
						{
							"internalType": "bool",
							"name": "",
							"type": "bool"
						}
					],
					"stateMutability": "view",
					"type": "function"
				},
				{
					"inputs": [],
					"name": "maxSupply",
					"outputs": [
						{
							"internalType": "uint256",
							"name": "",
							"type": "uint256"
						}
					],
					"stateMutability": "view",
					"type": "function"
				},
				{
					"inputs": [],
					"name": "mint",
					"outputs": [],
					"stateMutability": "payable",
					"type": "function"
				},
				{
					"inputs": [],
					"name": "mintPrice",
					"outputs": [
						{
							"internalType": "uint256",
							"name": "",
							"type": "uint256"
						}
					],
					"stateMutability": "view",
					"type": "function"
				},
				{
					"inputs": [
						{
							"internalType": "address",
							"name": "",
							"type": "address"
						}
					],
					"name": "mintedWallets",
					"outputs": [
						{
							"internalType": "uint256",
							"name": "",
							"type": "uint256"
						}
					],
					"stateMutability": "view",
					"type": "function"
				},
				{
					"inputs": [],
					"name": "name",
					"outputs": [
						{
							"internalType": "string",
							"name": "",
							"type": "string"
						}
					],
					"stateMutability": "view",
					"type": "function"
				},
				{
					"inputs": [],
					"name": "owner",
					"outputs": [
						{
							"internalType": "address",
							"name": "",
							"type": "address"
						}
					],
					"stateMutability": "view",
					"type": "function"
				},
				{
					"inputs": [
						{
							"internalType": "uint256",
							"name": "tokenId",
							"type": "uint256"
						}
					],
					"name": "ownerOf",
					"outputs": [
						{
							"internalType": "address",
							"name": "",
							"type": "address"
						}
					],
					"stateMutability": "view",
					"type": "function"
				},
				{
					"inputs": [
						{
							"internalType": "address",
							"name": "recipient",
							"type": "address"
						},
						{
							"internalType": "string",
							"name": "metadataURI",
							"type": "string"
						}
					],
					"name": "payToMint",
					"outputs": [
						{
							"internalType": "uint256",
							"name": "",
							"type": "uint256"
						}
					],
					"stateMutability": "payable",
					"type": "function"
				},
				{
					"inputs": [],
					"name": "renounceOwnership",
					"outputs": [],
					"stateMutability": "nonpayable",
					"type": "function"
				},
				{
					"inputs": [
						{
							"internalType": "address",
							"name": "to",
							"type": "address"
						},
						{
							"internalType": "string",
							"name": "uri",
							"type": "string"
						}
					],
					"name": "safeMint",
					"outputs": [],
					"stateMutability": "nonpayable",
					"type": "function"
				},
				{
					"inputs": [
						{
							"internalType": "address",
							"name": "from",
							"type": "address"
						},
						{
							"internalType": "address",
							"name": "to",
							"type": "address"
						},
						{
							"internalType": "uint256",
							"name": "tokenId",
							"type": "uint256"
						}
					],
					"name": "safeTransferFrom",
					"outputs": [],
					"stateMutability": "nonpayable",
					"type": "function"
				},
				{
					"inputs": [
						{
							"internalType": "address",
							"name": "from",
							"type": "address"
						},
						{
							"internalType": "address",
							"name": "to",
							"type": "address"
						},
						{
							"internalType": "uint256",
							"name": "tokenId",
							"type": "uint256"
						},
						{
							"internalType": "bytes",
							"name": "_data",
							"type": "bytes"
						}
					],
					"name": "safeTransferFrom",
					"outputs": [],
					"stateMutability": "nonpayable",
					"type": "function"
				},
				{
					"inputs": [
						{
							"internalType": "address",
							"name": "operator",
							"type": "address"
						},
						{
							"internalType": "bool",
							"name": "approved",
							"type": "bool"
						}
					],
					"name": "setApprovalForAll",
					"outputs": [],
					"stateMutability": "nonpayable",
					"type": "function"
				},
				{
					"inputs": [
						{
							"internalType": "uint256",
							"name": "maxSupply_",
							"type": "uint256"
						}
					],
					"name": "setMaxSupply",
					"outputs": [],
					"stateMutability": "nonpayable",
					"type": "function"
				},
				{
					"inputs": [
						{
							"internalType": "bytes4",
							"name": "interfaceId",
							"type": "bytes4"
						}
					],
					"name": "supportsInterface",
					"outputs": [
						{
							"internalType": "bool",
							"name": "",
							"type": "bool"
						}
					],
					"stateMutability": "view",
					"type": "function"
				},
				{
					"inputs": [],
					"name": "symbol",
					"outputs": [
						{
							"internalType": "string",
							"name": "",
							"type": "string"
						}
					],
					"stateMutability": "view",
					"type": "function"
				},
				{
					"inputs": [],
					"name": "toggleInMintEnabled",
					"outputs": [],
					"stateMutability": "nonpayable",
					"type": "function"
				},
				{
					"inputs": [
						{
							"internalType": "uint256",
							"name": "tokenId",
							"type": "uint256"
						}
					],
					"name": "tokenURI",
					"outputs": [
						{
							"internalType": "string",
							"name": "",
							"type": "string"
						}
					],
					"stateMutability": "view",
					"type": "function"
				},
				{
					"inputs": [],
					"name": "totalSupply",
					"outputs": [
						{
							"internalType": "uint256",
							"name": "",
							"type": "uint256"
						}
					],
					"stateMutability": "view",
					"type": "function"
				},
				{
					"inputs": [
						{
							"internalType": "address",
							"name": "from",
							"type": "address"
						},
						{
							"internalType": "address",
							"name": "to",
							"type": "address"
						},
						{
							"internalType": "uint256",
							"name": "tokenId",
							"type": "uint256"
						}
					],
					"name": "transferFrom",
					"outputs": [],
					"stateMutability": "nonpayable",
					"type": "function"
				},
				{
					"inputs": [
						{
							"internalType": "address",
							"name": "newOwner",
							"type": "address"
						}
					],
					"name": "transferOwnership",
					"outputs": [],
					"stateMutability": "nonpayable",
					"type": "function"
				}
			],
			"devdoc": {
				"kind": "dev",
				"methods": {
					"approve(address,uint256)": {
						"details": "See {IERC721-approve}."
					},
					"balanceOf(address)": {
						"details": "See {IERC721-balanceOf}."
					},
					"getApproved(uint256)": {
						"details": "See {IERC721-getApproved}."
					},
					"isApprovedForAll(address,address)": {
						"details": "See {IERC721-isApprovedForAll}."
					},
					"name()": {
						"details": "See {IERC721Metadata-name}."
					},
					"owner()": {
						"details": "Returns the address of the current owner."
					},
					"ownerOf(uint256)": {
						"details": "See {IERC721-ownerOf}."
					},
					"renounceOwnership()": {
						"details": "Leaves the contract without owner. It will not be possible to call `onlyOwner` functions anymore. Can only be called by the current owner. NOTE: Renouncing ownership will leave the contract without an owner, thereby removing any functionality that is only available to the owner."
					},
					"safeTransferFrom(address,address,uint256)": {
						"details": "See {IERC721-safeTransferFrom}."
					},
					"safeTransferFrom(address,address,uint256,bytes)": {
						"details": "See {IERC721-safeTransferFrom}."
					},
					"setApprovalForAll(address,bool)": {
						"details": "See {IERC721-setApprovalForAll}."
					},
					"supportsInterface(bytes4)": {
						"details": "See {IERC165-supportsInterface}."
					},
					"symbol()": {
						"details": "See {IERC721Metadata-symbol}."
					},
					"transferFrom(address,address,uint256)": {
						"details": "See {IERC721-transferFrom}."
					},
					"transferOwnership(address)": {
						"details": "Transfers ownership of the contract to a new account (`newOwner`). Can only be called by the current owner."
					}
				},
				"version": 1
			},
			"evm": {
				"assembly": "    /* \"contracts/FNFT.sol\":39899:39910  0.001 ether */\n  0x038d7ea4c68000\n    /* \"contracts/FNFT.sol\":39872:39910  uint256 public mintPrice = 0.001 ether */\n  0x08\n  sstore\n    /* \"contracts/FNFT.sol\":24698:24811  constructor(string memory name_, string memory symbol_) {... */\n  0x0c\n    /* \"contracts/FNFT.sol\":39773:42252  contract FNFT is ERC721, ERC721URIStorage, Ownable {... */\n  0x80\n    /* \"contracts/FNFT.sol\":24698:24811  constructor(string memory name_, string memory symbol_) {... */\n  dup2\n  dup2\n  mstore\n  shl(0xa0, 0x7777772e662d6e66742e7573)\n  0xa0\n  swap1\n  dup2\n  mstore\n  0x0100\n    /* \"contracts/FNFT.sol\":39773:42252  contract FNFT is ERC721, ERC721URIStorage, Ownable {... */\n  0x40\n    /* \"contracts/FNFT.sol\":24698:24811  constructor(string memory name_, string memory symbol_) {... */\n  mstore\n  0x04\n  0xc0\n  swap1\n  dup2\n  mstore\n  mstore(0xe0, shl(0xe2, 0x11939195))\n    /* \"contracts/FNFT.sol\":39773:42252  contract FNFT is ERC721, ERC721URIStorage, Ownable {... */\n  swap2\n  swap3\n    /* \"contracts/FNFT.sol\":24764:24777  _name = name_ */\n  tag_5\n  swap2\n  0x00\n  swap2\n  tag_6\n  jump\t// in\ntag_5:\n  pop\n    /* \"contracts/FNFT.sol\":24787:24804  _symbol = symbol_ */\n  dup1\n  mload\n  tag_7\n  swap1\n    /* \"contracts/FNFT.sol\":24787:24794  _symbol */\n  0x01\n  swap1\n    /* \"contracts/FNFT.sol\":24787:24804  _symbol = symbol_ */\n  0x20\n  dup5\n  add\n  swap1\n  tag_6\n  jump\t// in\ntag_7:\n  pop\n    /* \"contracts/FNFT.sol\":24698:24811  constructor(string memory name_, string memory symbol_) {... */\n  pop\n  pop\n    /* \"contracts/FNFT.sol\":5316:5348  _transferOwnership(_msgSender()) */\n  tag_9\n    /* \"contracts/FNFT.sol\":5335:5347  _msgSender() */\n  tag_10\n    /* \"contracts/FNFT.sol\":5335:5345  _msgSender */\n  shl(0x20, tag_11)\n    /* \"contracts/FNFT.sol\":5335:5347  _msgSender() */\n  0x20\n  shr\n  jump\t// in\ntag_10:\n    /* \"contracts/FNFT.sol\":5316:5334  _transferOwnership */\n  tag_12\n    /* \"contracts/FNFT.sol\":5316:5348  _transferOwnership(_msgSender()) */\n  jump\t// in\ntag_9:\n    /* \"contracts/FNFT.sol\":40139:40146  1000000 */\n  0x0f4240\n    /* \"contracts/FNFT.sol\":40127:40136  maxSupply */\n  0x0a\n    /* \"contracts/FNFT.sol\":40127:40146  maxSupply = 1000000 */\n  sstore\n    /* \"contracts/FNFT.sol\":39773:42252  contract FNFT is ERC721, ERC721URIStorage, Ownable {... */\n  jump(tag_28)\n    /* \"contracts/FNFT.sol\":4199:4295  function _msgSender() internal view virtual returns (address) {... */\ntag_11:\n    /* \"contracts/FNFT.sol\":4278:4288  msg.sender */\n  caller\n  swap1\n    /* \"contracts/FNFT.sol\":4199:4295  function _msgSender() internal view virtual returns (address) {... */\n  jump\t// out\n    /* \"contracts/FNFT.sol\":6665:6852  function _transferOwnership(address newOwner) internal virtual {... */\ntag_12:\n    /* \"contracts/FNFT.sol\":6757:6763  _owner */\n  0x07\n  dup1\n  sload\n  sub(shl(0xa0, 0x01), 0x01)\n    /* \"contracts/FNFT.sol\":6773:6790  _owner = newOwner */\n  dup4\n  dup2\n  and\n  not(sub(shl(0xa0, 0x01), 0x01))\n  dup4\n  and\n  dup2\n  or\n  swap1\n  swap4\n  sstore\n    /* \"contracts/FNFT.sol\":6805:6845  OwnershipTransferred(oldOwner, newOwner) */\n  mload(0x40)\n    /* \"contracts/FNFT.sol\":6757:6763  _owner */\n  swap2\n  and\n  swap2\n    /* \"contracts/FNFT.sol\":6773:6790  _owner = newOwner */\n  swap1\n    /* \"contracts/FNFT.sol\":6757:6763  _owner */\n  dup3\n  swap1\n    /* \"contracts/FNFT.sol\":6805:6845  OwnershipTransferred(oldOwner, newOwner) */\n  0x8be0079c531659141344cd1fd0a4f28419497f9722a3daafe3b4186f6b6457e0\n  swap1\n    /* \"contracts/FNFT.sol\":6738:6754  address oldOwner */\n  0x00\n  swap1\n    /* \"contracts/FNFT.sol\":6805:6845  OwnershipTransferred(oldOwner, newOwner) */\n  log3\n    /* \"contracts/FNFT.sol\":6728:6852  {... */\n  pop\n    /* \"contracts/FNFT.sol\":6665:6852  function _transferOwnership(address newOwner) internal virtual {... */\n  pop\n  jump\t// out\n    /* \"contracts/FNFT.sol\":39773:42252  contract FNFT is ERC721, ERC721URIStorage, Ownable {... */\ntag_6:\n  dup3\n  dup1\n  sload\n  tag_17\n  swap1\n  tag_18\n  jump\t// in\ntag_17:\n  swap1\n  0x00\n  mstore\n  keccak256(0x00, 0x20)\n  swap1\n  0x1f\n  add\n  0x20\n  swap1\n  div\n  dup2\n  add\n  swap3\n  dup3\n  tag_20\n  jumpi\n  0x00\n  dup6\n  sstore\n  jump(tag_23)\ntag_20:\n  dup3\n  0x1f\n  lt\n  tag_21\n  jumpi\n  dup1\n  mload\n  not(0xff)\n  and\n  dup4\n  dup1\n  add\n  or\n  dup6\n  sstore\n  jump(tag_23)\ntag_21:\n  dup3\n  dup1\n  add\n  0x01\n  add\n  dup6\n  sstore\n  dup3\n  iszero\n  tag_23\n  jumpi\n  swap2\n  dup3\n  add\ntag_22:\n  dup3\n  dup2\n  gt\n  iszero\n  tag_23\n  jumpi\n  dup3\n  mload\n  dup3\n  sstore\n  swap2\n  0x20\n  add\n  swap2\n  swap1\n  0x01\n  add\n  swap1\n  jump(tag_22)\ntag_23:\n  pop\n  tag_24\n  swap3\n  swap2\n  pop\n  tag_25\n  jump\t// in\ntag_24:\n  pop\n  swap1\n  jump\t// out\ntag_25:\ntag_26:\n  dup1\n  dup3\n  gt\n  iszero\n  tag_24\n  jumpi\n  0x00\n  dup2\n  sstore\n  0x01\n  add\n  jump(tag_26)\n    /* \"#utility.yul\":14:394   */\ntag_18:\n    /* \"#utility.yul\":93:94   */\n  0x01\n    /* \"#utility.yul\":89:101   */\n  dup2\n  dup2\n  shr\n  swap1\n    /* \"#utility.yul\":136:148   */\n  dup3\n  and\n  dup1\n    /* \"#utility.yul\":157:218   */\n  tag_30\n  jumpi\n    /* \"#utility.yul\":211:215   */\n  0x7f\n    /* \"#utility.yul\":203:209   */\n  dup3\n    /* \"#utility.yul\":199:216   */\n  and\n    /* \"#utility.yul\":189:216   */\n  swap2\n  pop\n    /* \"#utility.yul\":157:218   */\ntag_30:\n    /* \"#utility.yul\":264:266   */\n  0x20\n    /* \"#utility.yul\":256:262   */\n  dup3\n    /* \"#utility.yul\":253:267   */\n  lt\n    /* \"#utility.yul\":233:251   */\n  dup2\n    /* \"#utility.yul\":230:268   */\n  eq\n    /* \"#utility.yul\":227:388   */\n  iszero\n  tag_31\n  jumpi\n    /* \"#utility.yul\":310:320   */\n  0x4e487b71\n    /* \"#utility.yul\":305:308   */\n  0xe0\n    /* \"#utility.yul\":301:321   */\n  shl\n    /* \"#utility.yul\":298:299   */\n  0x00\n    /* \"#utility.yul\":291:322   */\n  mstore\n    /* \"#utility.yul\":345:349   */\n  0x22\n    /* \"#utility.yul\":342:343   */\n  0x04\n    /* \"#utility.yul\":335:350   */\n  mstore\n    /* \"#utility.yul\":373:377   */\n  0x24\n    /* \"#utility.yul\":370:371   */\n  0x00\n    /* \"#utility.yul\":363:378   */\n  revert\n    /* \"#utility.yul\":227:388   */\ntag_31:\n  pop\n    /* \"#utility.yul\":14:394   */\n  swap2\n  swap1\n  pop\n  jump\t// out\ntag_28:\n    /* \"contracts/FNFT.sol\":39773:42252  contract FNFT is ERC721, ERC721URIStorage, Ownable {... */\n  dataSize(sub_0)\n  dup1\n  dataOffset(sub_0)\n  0x00\n  codecopy\n  0x00\n  return\nstop\n\nsub_0: assembly {\n        /* \"contracts/FNFT.sol\":39773:42252  contract FNFT is ERC721, ERC721URIStorage, Ownable {... */\n      mstore(0x40, 0x80)\n      jumpi(tag_1, lt(calldatasize, 0x04))\n      shr(0xe0, calldataload(0x00))\n      dup1\n      0x70a08231\n      gt\n      tag_29\n      jumpi\n      dup1\n      0xada7c4ed\n      gt\n      tag_30\n      jumpi\n      dup1\n      0xd204c45e\n      gt\n      tag_31\n      jumpi\n      dup1\n      0xd204c45e\n      eq\n      tag_25\n      jumpi\n      dup1\n      0xd5abeb01\n      eq\n      tag_26\n      jumpi\n      dup1\n      0xe985e9c5\n      eq\n      tag_27\n      jumpi\n      dup1\n      0xf2fde38b\n      eq\n      tag_28\n      jumpi\n      0x00\n      dup1\n      revert\n    tag_31:\n      dup1\n      0xada7c4ed\n      eq\n      tag_22\n      jumpi\n      dup1\n      0xb88d4fde\n      eq\n      tag_23\n      jumpi\n      dup1\n      0xc87b56dd\n      eq\n      tag_24\n      jumpi\n      0x00\n      dup1\n      revert\n    tag_30:\n      dup1\n      0x8da5cb5b\n      gt\n      tag_32\n      jumpi\n      dup1\n      0x8da5cb5b\n      eq\n      tag_18\n      jumpi\n      dup1\n      0x95d89b41\n      eq\n      tag_19\n      jumpi\n      dup1\n      0x9f1cabc6\n      eq\n      tag_20\n      jumpi\n      dup1\n      0xa22cb465\n      eq\n      tag_21\n      jumpi\n      0x00\n      dup1\n      revert\n    tag_32:\n      dup1\n      0x70a08231\n      eq\n      tag_15\n      jumpi\n      dup1\n      0x715018a6\n      eq\n      tag_16\n      jumpi\n      dup1\n      0x84a428db\n      eq\n      tag_17\n      jumpi\n      0x00\n      dup1\n      revert\n    tag_29:\n      dup1\n      0x23b872dd\n      gt\n      tag_33\n      jumpi\n      dup1\n      0x615fd9e2\n      gt\n      tag_34\n      jumpi\n      dup1\n      0x615fd9e2\n      eq\n      tag_11\n      jumpi\n      dup1\n      0x6352211e\n      eq\n      tag_12\n      jumpi\n      dup1\n      0x6817c76c\n      eq\n      tag_13\n      jumpi\n      dup1\n      0x6f8b44b0\n      eq\n      tag_14\n      jumpi\n      0x00\n      dup1\n      revert\n    tag_34:\n      dup1\n      0x23b872dd\n      eq\n      tag_8\n      jumpi\n      dup1\n      0x346de50a\n      eq\n      tag_9\n      jumpi\n      dup1\n      0x42842e0e\n      eq\n      tag_10\n      jumpi\n      0x00\n      dup1\n      revert\n    tag_33:\n      dup1\n      0x01ffc9a7\n      eq\n      tag_2\n      jumpi\n      dup1\n      0x06fdde03\n      eq\n      tag_3\n      jumpi\n      dup1\n      0x081812fc\n      eq\n      tag_4\n      jumpi\n      dup1\n      0x095ea7b3\n      eq\n      tag_5\n      jumpi\n      dup1\n      0x1249c58b\n      eq\n      tag_6\n      jumpi\n      dup1\n      0x18160ddd\n      eq\n      tag_7\n      jumpi\n    tag_1:\n      0x00\n      dup1\n      revert\n        /* \"contracts/FNFT.sol\":24878:25178  function supportsInterface(bytes4 interfaceId) public view virtual override(ERC165, IERC165) returns (bool) {... */\n    tag_2:\n      callvalue\n      dup1\n      iszero\n      tag_35\n      jumpi\n      0x00\n      dup1\n      revert\n    tag_35:\n      pop\n      tag_36\n      tag_37\n      calldatasize\n      0x04\n      tag_38\n      jump\t// in\n    tag_37:\n      tag_39\n      jump\t// in\n    tag_36:\n      mload(0x40)\n        /* \"#utility.yul\":6426:6440   */\n      swap1\n      iszero\n        /* \"#utility.yul\":6419:6441   */\n      iszero\n        /* \"#utility.yul\":6401:6442   */\n      dup2\n      mstore\n        /* \"#utility.yul\":6389:6391   */\n      0x20\n        /* \"#utility.yul\":6374:6392   */\n      add\n        /* \"contracts/FNFT.sol\":24878:25178  function supportsInterface(bytes4 interfaceId) public view virtual override(ERC165, IERC165) returns (bool) {... */\n    tag_40:\n      mload(0x40)\n      dup1\n      swap2\n      sub\n      swap1\n      return\n        /* \"contracts/FNFT.sol\":25796:25894  function name() public view virtual override returns (string memory) {... */\n    tag_3:\n      callvalue\n      dup1\n      iszero\n      tag_42\n      jumpi\n      0x00\n      dup1\n      revert\n    tag_42:\n      pop\n      tag_43\n      tag_44\n      jump\t// in\n    tag_43:\n      mload(0x40)\n      tag_40\n      swap2\n      swap1\n      tag_46\n      jump\t// in\n        /* \"contracts/FNFT.sol\":27307:27524  function getApproved(uint256 tokenId) public view virtual override returns (address) {... */\n    tag_4:\n      callvalue\n      dup1\n      iszero\n      tag_47\n      jumpi\n      0x00\n      dup1\n      revert\n    tag_47:\n      pop\n      tag_48\n      tag_49\n      calldatasize\n      0x04\n      tag_50\n      jump\t// in\n    tag_49:\n      tag_51\n      jump\t// in\n    tag_48:\n      mload(0x40)\n      sub(shl(0xa0, 0x01), 0x01)\n        /* \"#utility.yul\":5724:5756   */\n      swap1\n      swap2\n      and\n        /* \"#utility.yul\":5706:5757   */\n      dup2\n      mstore\n        /* \"#utility.yul\":5694:5696   */\n      0x20\n        /* \"#utility.yul\":5679:5697   */\n      add\n        /* \"contracts/FNFT.sol\":27307:27524  function getApproved(uint256 tokenId) public view virtual override returns (address) {... */\n      tag_40\n        /* \"#utility.yul\":5560:5763   */\n      jump\n        /* \"contracts/FNFT.sol\":26845:27246  function approve(address to, uint256 tokenId) public virtual override {... */\n    tag_5:\n      callvalue\n      dup1\n      iszero\n      tag_54\n      jumpi\n      0x00\n      dup1\n      revert\n    tag_54:\n      pop\n      tag_55\n      tag_56\n      calldatasize\n      0x04\n      tag_57\n      jump\t// in\n    tag_56:\n      tag_58\n      jump\t// in\n    tag_55:\n      stop\n        /* \"contracts/FNFT.sol\":40377:40796  function mint() external payable {... */\n    tag_6:\n      tag_55\n      tag_60\n      jump\t// in\n        /* \"contracts/FNFT.sol\":39916:39942  uint256 public totalSupply */\n    tag_7:\n      callvalue\n      dup1\n      iszero\n      tag_61\n      jumpi\n      0x00\n      dup1\n      revert\n    tag_61:\n      pop\n      tag_62\n      sload(0x09)\n      dup2\n      jump\n    tag_62:\n      mload(0x40)\n        /* \"#utility.yul\":16101:16126   */\n      swap1\n      dup2\n      mstore\n        /* \"#utility.yul\":16089:16091   */\n      0x20\n        /* \"#utility.yul\":16074:16092   */\n      add\n        /* \"contracts/FNFT.sol\":39916:39942  uint256 public totalSupply */\n      tag_40\n        /* \"#utility.yul\":15955:16132   */\n      jump\n        /* \"contracts/FNFT.sol\":28034:28364  function transferFrom(... */\n    tag_8:\n      callvalue\n      dup1\n      iszero\n      tag_66\n      jumpi\n      0x00\n      dup1\n      revert\n    tag_66:\n      pop\n      tag_55\n      tag_68\n      calldatasize\n      0x04\n      tag_69\n      jump\t// in\n    tag_68:\n      tag_70\n      jump\t// in\n        /* \"contracts/FNFT.sol\":39978:40003  bool public isMintEnabled */\n    tag_9:\n      callvalue\n      dup1\n      iszero\n      tag_71\n      jumpi\n      0x00\n      dup1\n      revert\n    tag_71:\n      pop\n      sload(0x0b)\n      tag_36\n      swap1\n      0xff\n      and\n      dup2\n      jump\n        /* \"contracts/FNFT.sol\":28430:28609  function safeTransferFrom(... */\n    tag_10:\n      callvalue\n      dup1\n      iszero\n      tag_75\n      jumpi\n      0x00\n      dup1\n      revert\n    tag_75:\n      pop\n      tag_55\n      tag_77\n      calldatasize\n      0x04\n      tag_69\n      jump\t// in\n    tag_77:\n      tag_78\n      jump\t// in\n        /* \"contracts/FNFT.sol\":41740:42250  function payToMint(... */\n    tag_11:\n      tag_62\n      tag_80\n      calldatasize\n      0x04\n      tag_81\n      jump\t// in\n    tag_80:\n      tag_82\n      jump\t// in\n        /* \"contracts/FNFT.sol\":25499:25734  function ownerOf(uint256 tokenId) public view virtual override returns (address) {... */\n    tag_12:\n      callvalue\n      dup1\n      iszero\n      tag_84\n      jumpi\n      0x00\n      dup1\n      revert\n    tag_84:\n      pop\n      tag_48\n      tag_86\n      calldatasize\n      0x04\n      tag_50\n      jump\t// in\n    tag_86:\n      tag_87\n      jump\t// in\n        /* \"contracts/FNFT.sol\":39872:39910  uint256 public mintPrice = 0.001 ether */\n    tag_13:\n      callvalue\n      dup1\n      iszero\n      tag_89\n      jumpi\n      0x00\n      dup1\n      revert\n    tag_89:\n      pop\n      tag_62\n      sload(0x08)\n      dup2\n      jump\n        /* \"contracts/FNFT.sol\":40271:40371  function setMaxSupply(uint256 maxSupply_) external onlyOwner {... */\n    tag_14:\n      callvalue\n      dup1\n      iszero\n      tag_93\n      jumpi\n      0x00\n      dup1\n      revert\n    tag_93:\n      pop\n      tag_55\n      tag_95\n      calldatasize\n      0x04\n      tag_50\n      jump\t// in\n    tag_95:\n      tag_96\n      jump\t// in\n        /* \"contracts/FNFT.sol\":25237:25442  function balanceOf(address owner) public view virtual override returns (uint256) {... */\n    tag_15:\n      callvalue\n      dup1\n      iszero\n      tag_97\n      jumpi\n      0x00\n      dup1\n      revert\n    tag_97:\n      pop\n      tag_62\n      tag_99\n      calldatasize\n      0x04\n      tag_100\n      jump\t// in\n    tag_99:\n      tag_101\n      jump\t// in\n        /* \"contracts/FNFT.sol\":6063:6164  function renounceOwnership() public virtual onlyOwner {... */\n    tag_16:\n      callvalue\n      dup1\n      iszero\n      tag_103\n      jumpi\n      0x00\n      dup1\n      revert\n    tag_103:\n      pop\n      tag_55\n      tag_105\n      jump\t// in\n        /* \"contracts/FNFT.sol\":40159:40265  function toggleInMintEnabled() external onlyOwner {... */\n    tag_17:\n      callvalue\n      dup1\n      iszero\n      tag_106\n      jumpi\n      0x00\n      dup1\n      revert\n    tag_106:\n      pop\n      tag_55\n      tag_108\n      jump\t// in\n        /* \"contracts/FNFT.sol\":5431:5516  function owner() public view virtual returns (address) {... */\n    tag_18:\n      callvalue\n      dup1\n      iszero\n      tag_109\n      jumpi\n      0x00\n      dup1\n      revert\n    tag_109:\n      pop\n        /* \"contracts/FNFT.sol\":5503:5509  _owner */\n      and(sub(shl(0xa0, 0x01), 0x01), sload(0x07))\n        /* \"contracts/FNFT.sol\":5431:5516  function owner() public view virtual returns (address) {... */\n      jump(tag_48)\n        /* \"contracts/FNFT.sol\":25958:26060  function symbol() public view virtual override returns (string memory) {... */\n    tag_19:\n      callvalue\n      dup1\n      iszero\n      tag_113\n      jumpi\n      0x00\n      dup1\n      revert\n    tag_113:\n      pop\n      tag_43\n      tag_115\n      jump\t// in\n        /* \"contracts/FNFT.sol\":41618:41734  function isContentOwned(string memory uri) public view returns (bool) {... */\n    tag_20:\n      callvalue\n      dup1\n      iszero\n      tag_117\n      jumpi\n      0x00\n      dup1\n      revert\n    tag_117:\n      pop\n      tag_36\n      tag_119\n      calldatasize\n      0x04\n      tag_120\n      jump\t// in\n    tag_119:\n      tag_121\n      jump\t// in\n        /* \"contracts/FNFT.sol\":27591:27744  function setApprovalForAll(address operator, bool approved) public virtual override {... */\n    tag_21:\n      callvalue\n      dup1\n      iszero\n      tag_123\n      jumpi\n      0x00\n      dup1\n      revert\n    tag_123:\n      pop\n      tag_55\n      tag_125\n      calldatasize\n      0x04\n      tag_126\n      jump\t// in\n    tag_125:\n      tag_127\n      jump\t// in\n        /* \"contracts/FNFT.sol\":40009:40057  mapping(address => uint256) public mintedWallets */\n    tag_22:\n      callvalue\n      dup1\n      iszero\n      tag_128\n      jumpi\n      0x00\n      dup1\n      revert\n    tag_128:\n      pop\n      tag_62\n      tag_130\n      calldatasize\n      0x04\n      tag_100\n      jump\t// in\n    tag_130:\n      mstore(0x20, 0x0c)\n      0x00\n      swap1\n      dup2\n      mstore\n      0x40\n      swap1\n      keccak256\n      sload\n      dup2\n      jump\n        /* \"contracts/FNFT.sol\":28675:28995  function safeTransferFrom(... */\n    tag_23:\n      callvalue\n      dup1\n      iszero\n      tag_133\n      jumpi\n      0x00\n      dup1\n      revert\n    tag_133:\n      pop\n      tag_55\n      tag_135\n      calldatasize\n      0x04\n      tag_136\n      jump\t// in\n    tag_135:\n      tag_137\n      jump\t// in\n        /* \"contracts/FNFT.sol\":41379:41568  function tokenURI(uint256 tokenId)... */\n    tag_24:\n      callvalue\n      dup1\n      iszero\n      tag_138\n      jumpi\n      0x00\n      dup1\n      revert\n    tag_138:\n      pop\n      tag_43\n      tag_140\n      calldatasize\n      0x04\n      tag_50\n      jump\t// in\n    tag_140:\n      tag_141\n      jump\t// in\n        /* \"contracts/FNFT.sol\":40955:41186  function safeMint(address to, string memory uri) public onlyOwner {... */\n    tag_25:\n      callvalue\n      dup1\n      iszero\n      tag_143\n      jumpi\n      0x00\n      dup1\n      revert\n    tag_143:\n      pop\n      tag_55\n      tag_145\n      calldatasize\n      0x04\n      tag_81\n      jump\t// in\n    tag_145:\n      tag_146\n      jump\t// in\n        /* \"contracts/FNFT.sol\":39948:39972  uint256 public maxSupply */\n    tag_26:\n      callvalue\n      dup1\n      iszero\n      tag_147\n      jumpi\n      0x00\n      dup1\n      revert\n    tag_147:\n      pop\n      tag_62\n      sload(0x0a)\n      dup2\n      jump\n        /* \"contracts/FNFT.sol\":27810:27972  function isApprovedForAll(address owner, address operator) public view virtual override returns (bool) {... */\n    tag_27:\n      callvalue\n      dup1\n      iszero\n      tag_151\n      jumpi\n      0x00\n      dup1\n      revert\n    tag_151:\n      pop\n      tag_36\n      tag_153\n      calldatasize\n      0x04\n      tag_154\n      jump\t// in\n    tag_153:\n      sub(shl(0xa0, 0x01), 0x01)\n        /* \"contracts/FNFT.sol\":27930:27955  _operatorApprovals[owner] */\n      swap2\n      dup3\n      and\n        /* \"contracts/FNFT.sol\":27907:27911  bool */\n      0x00\n        /* \"contracts/FNFT.sol\":27930:27955  _operatorApprovals[owner] */\n      swap1\n      dup2\n      mstore\n        /* \"contracts/FNFT.sol\":27930:27948  _operatorApprovals */\n      0x05\n        /* \"contracts/FNFT.sol\":27930:27955  _operatorApprovals[owner] */\n      0x20\n      swap1\n      dup2\n      mstore\n      0x40\n      dup1\n      dup4\n      keccak256\n        /* \"contracts/FNFT.sol\":27930:27965  _operatorApprovals[owner][operator] */\n      swap4\n      swap1\n      swap5\n      and\n      dup3\n      mstore\n      swap2\n      swap1\n      swap2\n      mstore\n      keccak256\n      sload\n      0xff\n      and\n      swap1\n        /* \"contracts/FNFT.sol\":27810:27972  function isApprovedForAll(address owner, address operator) public view virtual override returns (bool) {... */\n      jump\n        /* \"contracts/FNFT.sol\":6313:6511  function transferOwnership(address newOwner) public virtual onlyOwner {... */\n    tag_28:\n      callvalue\n      dup1\n      iszero\n      tag_157\n      jumpi\n      0x00\n      dup1\n      revert\n    tag_157:\n      pop\n      tag_55\n      tag_159\n      calldatasize\n      0x04\n      tag_100\n      jump\t// in\n    tag_159:\n      tag_160\n      jump\t// in\n        /* \"contracts/FNFT.sol\":24878:25178  function supportsInterface(bytes4 interfaceId) public view virtual override(ERC165, IERC165) returns (bool) {... */\n    tag_39:\n        /* \"contracts/FNFT.sol\":24980:24984  bool */\n      0x00\n      not(sub(shl(0xe0, 0x01), 0x01))\n        /* \"contracts/FNFT.sol\":25015:25055  interfaceId == type(IERC721).interfaceId */\n      dup3\n      and\n      shl(0xe0, 0x80ac58cd)\n      eq\n      dup1\n        /* \"contracts/FNFT.sol\":25015:25119  interfaceId == type(IERC721).interfaceId ||... */\n      tag_162\n      jumpi\n      pop\n      not(sub(shl(0xe0, 0x01), 0x01))\n        /* \"contracts/FNFT.sol\":25071:25119  interfaceId == type(IERC721Metadata).interfaceId */\n      dup3\n      and\n      shl(0xe0, 0x5b5e139f)\n      eq\n        /* \"contracts/FNFT.sol\":25015:25119  interfaceId == type(IERC721).interfaceId ||... */\n    tag_162:\n        /* \"contracts/FNFT.sol\":25015:25171  interfaceId == type(IERC721).interfaceId ||... */\n      dup1\n      tag_164\n      jumpi\n      pop\n      shl(0xe0, 0x01ffc9a7)\n      not(sub(shl(0xe0, 0x01), 0x01))\n        /* \"contracts/FNFT.sol\":17971:18011  interfaceId == type(IERC165).interfaceId */\n      dup4\n      and\n      eq\n        /* \"contracts/FNFT.sol\":25135:25171  super.supportsInterface(interfaceId) */\n    tag_164:\n        /* \"contracts/FNFT.sol\":24996:25171  return... */\n      swap3\n        /* \"contracts/FNFT.sol\":24878:25178  function supportsInterface(bytes4 interfaceId) public view virtual override(ERC165, IERC165) returns (bool) {... */\n      swap2\n      pop\n      pop\n      jump\t// out\n        /* \"contracts/FNFT.sol\":25796:25894  function name() public view virtual override returns (string memory) {... */\n    tag_44:\n        /* \"contracts/FNFT.sol\":25850:25863  string memory */\n      0x60\n        /* \"contracts/FNFT.sol\":25882:25887  _name */\n      0x00\n        /* \"contracts/FNFT.sol\":25875:25887  return _name */\n      dup1\n      sload\n      tag_167\n      swap1\n      tag_168\n      jump\t// in\n    tag_167:\n      dup1\n      0x1f\n      add\n      0x20\n      dup1\n      swap2\n      div\n      mul\n      0x20\n      add\n      mload(0x40)\n      swap1\n      dup2\n      add\n      0x40\n      mstore\n      dup1\n      swap3\n      swap2\n      swap1\n      dup2\n      dup2\n      mstore\n      0x20\n      add\n      dup3\n      dup1\n      sload\n      tag_169\n      swap1\n      tag_168\n      jump\t// in\n    tag_169:\n      dup1\n      iszero\n      tag_170\n      jumpi\n      dup1\n      0x1f\n      lt\n      tag_171\n      jumpi\n      0x0100\n      dup1\n      dup4\n      sload\n      div\n      mul\n      dup4\n      mstore\n      swap2\n      0x20\n      add\n      swap2\n      jump(tag_170)\n    tag_171:\n      dup3\n      add\n      swap2\n      swap1\n      0x00\n      mstore\n      keccak256(0x00, 0x20)\n      swap1\n    tag_172:\n      dup2\n      sload\n      dup2\n      mstore\n      swap1\n      0x01\n      add\n      swap1\n      0x20\n      add\n      dup1\n      dup4\n      gt\n      tag_172\n      jumpi\n      dup3\n      swap1\n      sub\n      0x1f\n      and\n      dup3\n      add\n      swap2\n    tag_170:\n      pop\n      pop\n      pop\n      pop\n      pop\n      swap1\n      pop\n        /* \"contracts/FNFT.sol\":25796:25894  function name() public view virtual override returns (string memory) {... */\n      swap1\n      jump\t// out\n        /* \"contracts/FNFT.sol\":27307:27524  function getApproved(uint256 tokenId) public view virtual override returns (address) {... */\n    tag_51:\n        /* \"contracts/FNFT.sol\":27383:27390  address */\n      0x00\n        /* \"contracts/FNFT.sol\":27410:27426  _exists(tokenId) */\n      tag_174\n        /* \"contracts/FNFT.sol\":27418:27425  tokenId */\n      dup3\n        /* \"contracts/FNFT.sol\":27410:27417  _exists */\n      tag_175\n        /* \"contracts/FNFT.sol\":27410:27426  _exists(tokenId) */\n      jump\t// in\n    tag_174:\n        /* \"contracts/FNFT.sol\":27402:27475  require(_exists(tokenId), \"ERC721: approved query for nonexistent token\") */\n      tag_176\n      jumpi\n      mload(0x40)\n      shl(0xe5, 0x461bcd)\n      dup2\n      mstore\n        /* \"#utility.yul\":12416:12418   */\n      0x20\n        /* \"contracts/FNFT.sol\":27402:27475  require(_exists(tokenId), \"ERC721: approved query for nonexistent token\") */\n      0x04\n      dup3\n      add\n        /* \"#utility.yul\":12398:12419   */\n      mstore\n        /* \"#utility.yul\":12455:12457   */\n      0x2c\n        /* \"#utility.yul\":12435:12453   */\n      0x24\n      dup3\n      add\n        /* \"#utility.yul\":12428:12458   */\n      mstore\n        /* \"#utility.yul\":12494:12528   */\n      0x4552433732313a20617070726f76656420717565727920666f72206e6f6e6578\n        /* \"#utility.yul\":12474:12492   */\n      0x44\n      dup3\n      add\n        /* \"#utility.yul\":12467:12529   */\n      mstore\n      shl(0xa1, 0x34b9ba32b73a103a37b5b2b7)\n        /* \"#utility.yul\":12545:12563   */\n      0x64\n      dup3\n      add\n        /* \"#utility.yul\":12538:12580   */\n      mstore\n        /* \"#utility.yul\":12597:12616   */\n      0x84\n      add\n        /* \"contracts/FNFT.sol\":27402:27475  require(_exists(tokenId), \"ERC721: approved query for nonexistent token\") */\n    tag_177:\n      mload(0x40)\n      dup1\n      swap2\n      sub\n      swap1\n      revert\n    tag_176:\n      pop\n        /* \"contracts/FNFT.sol\":27493:27517  _tokenApprovals[tokenId] */\n      0x00\n      swap1\n      dup2\n      mstore\n        /* \"contracts/FNFT.sol\":27493:27508  _tokenApprovals */\n      0x04\n        /* \"contracts/FNFT.sol\":27493:27517  _tokenApprovals[tokenId] */\n      0x20\n      mstore\n      0x40\n      swap1\n      keccak256\n      sload\n      sub(shl(0xa0, 0x01), 0x01)\n      and\n      swap1\n        /* \"contracts/FNFT.sol\":27307:27524  function getApproved(uint256 tokenId) public view virtual override returns (address) {... */\n      jump\t// out\n        /* \"contracts/FNFT.sol\":26845:27246  function approve(address to, uint256 tokenId) public virtual override {... */\n    tag_58:\n        /* \"contracts/FNFT.sol\":26925:26938  address owner */\n      0x00\n        /* \"contracts/FNFT.sol\":26941:26964  ERC721.ownerOf(tokenId) */\n      tag_180\n        /* \"contracts/FNFT.sol\":26956:26963  tokenId */\n      dup3\n        /* \"contracts/FNFT.sol\":26941:26955  ERC721.ownerOf */\n      tag_87\n        /* \"contracts/FNFT.sol\":26941:26964  ERC721.ownerOf(tokenId) */\n      jump\t// in\n    tag_180:\n        /* \"contracts/FNFT.sol\":26925:26964  address owner = ERC721.ownerOf(tokenId) */\n      swap1\n      pop\n        /* \"contracts/FNFT.sol\":26988:26993  owner */\n      dup1\n      sub(shl(0xa0, 0x01), 0x01)\n        /* \"contracts/FNFT.sol\":26982:26993  to != owner */\n      and\n        /* \"contracts/FNFT.sol\":26982:26984  to */\n      dup4\n      sub(shl(0xa0, 0x01), 0x01)\n        /* \"contracts/FNFT.sol\":26982:26993  to != owner */\n      and\n      eq\n      iszero\n        /* \"contracts/FNFT.sol\":26974:27031  require(to != owner, \"ERC721: approval to current owner\") */\n      tag_181\n      jumpi\n      mload(0x40)\n      shl(0xe5, 0x461bcd)\n      dup2\n      mstore\n        /* \"#utility.yul\":13954:13956   */\n      0x20\n        /* \"contracts/FNFT.sol\":26974:27031  require(to != owner, \"ERC721: approval to current owner\") */\n      0x04\n      dup3\n      add\n        /* \"#utility.yul\":13936:13957   */\n      mstore\n        /* \"#utility.yul\":13993:13995   */\n      0x21\n        /* \"#utility.yul\":13973:13991   */\n      0x24\n      dup3\n      add\n        /* \"#utility.yul\":13966:13996   */\n      mstore\n        /* \"#utility.yul\":14032:14066   */\n      0x4552433732313a20617070726f76616c20746f2063757272656e74206f776e65\n        /* \"#utility.yul\":14012:14030   */\n      0x44\n      dup3\n      add\n        /* \"#utility.yul\":14005:14067   */\n      mstore\n      shl(0xf9, 0x39)\n        /* \"#utility.yul\":14083:14101   */\n      0x64\n      dup3\n      add\n        /* \"#utility.yul\":14076:14107   */\n      mstore\n        /* \"#utility.yul\":14124:14143   */\n      0x84\n      add\n        /* \"contracts/FNFT.sol\":26974:27031  require(to != owner, \"ERC721: approval to current owner\") */\n      tag_177\n        /* \"#utility.yul\":13752:14149   */\n      jump\n        /* \"contracts/FNFT.sol\":26974:27031  require(to != owner, \"ERC721: approval to current owner\") */\n    tag_181:\n        /* \"contracts/FNFT.sol\":4278:4288  msg.sender */\n      caller\n      sub(shl(0xa0, 0x01), 0x01)\n        /* \"contracts/FNFT.sol\":27063:27084  _msgSender() == owner */\n      dup3\n      and\n      eq\n      dup1\n        /* \"contracts/FNFT.sol\":27063:27125  _msgSender() == owner || isApprovedForAll(owner, _msgSender()) */\n      tag_187\n      jumpi\n      pop\n        /* \"contracts/FNFT.sol\":27088:27125  isApprovedForAll(owner, _msgSender()) */\n      tag_187\n        /* \"contracts/FNFT.sol\":27105:27110  owner */\n      dup2\n        /* \"contracts/FNFT.sol\":4278:4288  msg.sender */\n      caller\n        /* \"contracts/FNFT.sol\":27810:27972  function isApprovedForAll(address owner, address operator) public view virtual override returns (bool) {... */\n      tag_153\n      jump\t// in\n        /* \"contracts/FNFT.sol\":27088:27125  isApprovedForAll(owner, _msgSender()) */\n    tag_187:\n        /* \"contracts/FNFT.sol\":27042:27207  require(... */\n      tag_189\n      jumpi\n      mload(0x40)\n      shl(0xe5, 0x461bcd)\n      dup2\n      mstore\n        /* \"#utility.yul\":9976:9978   */\n      0x20\n        /* \"contracts/FNFT.sol\":27042:27207  require(... */\n      0x04\n      dup3\n      add\n        /* \"#utility.yul\":9958:9979   */\n      mstore\n        /* \"#utility.yul\":10015:10017   */\n      0x38\n        /* \"#utility.yul\":9995:10013   */\n      0x24\n      dup3\n      add\n        /* \"#utility.yul\":9988:10018   */\n      mstore\n        /* \"#utility.yul\":10054:10088   */\n      0x4552433732313a20617070726f76652063616c6c6572206973206e6f74206f77\n        /* \"#utility.yul\":10034:10052   */\n      0x44\n      dup3\n      add\n        /* \"#utility.yul\":10027:10089   */\n      mstore\n        /* \"#utility.yul\":10125:10151   */\n      0x6e6572206e6f7220617070726f76656420666f7220616c6c0000000000000000\n        /* \"#utility.yul\":10105:10123   */\n      0x64\n      dup3\n      add\n        /* \"#utility.yul\":10098:10152   */\n      mstore\n        /* \"#utility.yul\":10169:10188   */\n      0x84\n      add\n        /* \"contracts/FNFT.sol\":27042:27207  require(... */\n      tag_177\n        /* \"#utility.yul\":9774:10194   */\n      jump\n        /* \"contracts/FNFT.sol\":27042:27207  require(... */\n    tag_189:\n        /* \"contracts/FNFT.sol\":27218:27239  _approve(to, tokenId) */\n      tag_192\n        /* \"contracts/FNFT.sol\":27227:27229  to */\n      dup4\n        /* \"contracts/FNFT.sol\":27231:27238  tokenId */\n      dup4\n        /* \"contracts/FNFT.sol\":27218:27226  _approve */\n      tag_193\n        /* \"contracts/FNFT.sol\":27218:27239  _approve(to, tokenId) */\n      jump\t// in\n    tag_192:\n        /* \"contracts/FNFT.sol\":26915:27246  {... */\n      pop\n        /* \"contracts/FNFT.sol\":26845:27246  function approve(address to, uint256 tokenId) public virtual override {... */\n      pop\n      pop\n      jump\t// out\n        /* \"contracts/FNFT.sol\":40377:40796  function mint() external payable {... */\n    tag_60:\n        /* \"contracts/FNFT.sol\":40428:40441  isMintEnabled */\n      and(0xff, sload(0x0b))\n        /* \"contracts/FNFT.sol\":40420:40465  require(isMintEnabled, 'Minting not enabled') */\n      tag_195\n      jumpi\n      mload(0x40)\n      shl(0xe5, 0x461bcd)\n      dup2\n      mstore\n        /* \"#utility.yul\":13190:13192   */\n      0x20\n        /* \"contracts/FNFT.sol\":40420:40465  require(isMintEnabled, 'Minting not enabled') */\n      0x04\n      dup3\n      add\n        /* \"#utility.yul\":13172:13193   */\n      mstore\n        /* \"#utility.yul\":13229:13231   */\n      0x13\n        /* \"#utility.yul\":13209:13227   */\n      0x24\n      dup3\n      add\n        /* \"#utility.yul\":13202:13232   */\n      mstore\n      shl(0x6a, 0x135a5b9d1a5b99c81b9bdd08195b98589b1959)\n        /* \"#utility.yul\":13248:13266   */\n      0x44\n      dup3\n      add\n        /* \"#utility.yul\":13241:13290   */\n      mstore\n        /* \"#utility.yul\":13307:13325   */\n      0x64\n      add\n        /* \"contracts/FNFT.sol\":40420:40465  require(isMintEnabled, 'Minting not enabled') */\n      tag_177\n        /* \"#utility.yul\":12988:13331   */\n      jump\n        /* \"contracts/FNFT.sol\":40420:40465  require(isMintEnabled, 'Minting not enabled') */\n    tag_195:\n        /* \"contracts/FNFT.sol\":40497:40507  msg.sender */\n      caller\n        /* \"contracts/FNFT.sol\":40483:40508  mintedWallets[msg.sender] */\n      0x00\n      swap1\n      dup2\n      mstore\n        /* \"contracts/FNFT.sol\":40483:40496  mintedWallets */\n      0x0c\n        /* \"contracts/FNFT.sol\":40483:40508  mintedWallets[msg.sender] */\n      0x20\n      mstore\n      0x40\n      swap1\n      keccak256\n      sload\n        /* \"contracts/FNFT.sol\":40511:40512  1 */\n      0x01\n      gt\n        /* \"contracts/FNFT.sol\":40475:40539  require(mintedWallets[msg.sender] < 1, 'Exceeds max per wallet') */\n      tag_198\n      jumpi\n      mload(0x40)\n      shl(0xe5, 0x461bcd)\n      dup2\n      mstore\n        /* \"#utility.yul\":15122:15124   */\n      0x20\n        /* \"contracts/FNFT.sol\":40475:40539  require(mintedWallets[msg.sender] < 1, 'Exceeds max per wallet') */\n      0x04\n      dup3\n      add\n        /* \"#utility.yul\":15104:15125   */\n      mstore\n        /* \"#utility.yul\":15161:15163   */\n      0x16\n        /* \"#utility.yul\":15141:15159   */\n      0x24\n      dup3\n      add\n        /* \"#utility.yul\":15134:15164   */\n      mstore\n      shl(0x52, 0x115e18d959591cc81b585e081c195c881dd85b1b195d)\n        /* \"#utility.yul\":15180:15198   */\n      0x44\n      dup3\n      add\n        /* \"#utility.yul\":15173:15225   */\n      mstore\n        /* \"#utility.yul\":15242:15260   */\n      0x64\n      add\n        /* \"contracts/FNFT.sol\":40475:40539  require(mintedWallets[msg.sender] < 1, 'Exceeds max per wallet') */\n      tag_177\n        /* \"#utility.yul\":14920:15266   */\n      jump\n        /* \"contracts/FNFT.sol\":40475:40539  require(mintedWallets[msg.sender] < 1, 'Exceeds max per wallet') */\n    tag_198:\n        /* \"contracts/FNFT.sol\":40570:40579  mintPrice */\n      sload(0x08)\n        /* \"contracts/FNFT.sol\":40557:40566  msg.value */\n      callvalue\n        /* \"contracts/FNFT.sol\":40557:40579  msg.value == mintPrice */\n      eq\n        /* \"contracts/FNFT.sol\":40549:40595  require(msg.value == mintPrice, 'Wrong Value') */\n      tag_201\n      jumpi\n      mload(0x40)\n      shl(0xe5, 0x461bcd)\n      dup2\n      mstore\n        /* \"#utility.yul\":15473:15475   */\n      0x20\n        /* \"contracts/FNFT.sol\":40549:40595  require(msg.value == mintPrice, 'Wrong Value') */\n      0x04\n      dup3\n      add\n        /* \"#utility.yul\":15455:15476   */\n      mstore\n        /* \"#utility.yul\":15512:15514   */\n      0x0b\n        /* \"#utility.yul\":15492:15510   */\n      0x24\n      dup3\n      add\n        /* \"#utility.yul\":15485:15515   */\n      mstore\n      shl(0xa8, 0x57726f6e672056616c7565)\n        /* \"#utility.yul\":15531:15549   */\n      0x44\n      dup3\n      add\n        /* \"#utility.yul\":15524:15565   */\n      mstore\n        /* \"#utility.yul\":15582:15600   */\n      0x64\n      add\n        /* \"contracts/FNFT.sol\":40549:40595  require(msg.value == mintPrice, 'Wrong Value') */\n      tag_177\n        /* \"#utility.yul\":15271:15606   */\n      jump\n        /* \"contracts/FNFT.sol\":40549:40595  require(msg.value == mintPrice, 'Wrong Value') */\n    tag_201:\n        /* \"contracts/FNFT.sol\":40625:40636  totalSupply */\n      sload(0x09)\n        /* \"contracts/FNFT.sol\":40613:40622  maxSupply */\n      sload(0x0a)\n        /* \"contracts/FNFT.sol\":40613:40636  maxSupply > totalSupply */\n      gt\n        /* \"contracts/FNFT.sol\":40605:40649  require(maxSupply > totalSupply, 'Sold Out') */\n      tag_204\n      jumpi\n      mload(0x40)\n      shl(0xe5, 0x461bcd)\n      dup2\n      mstore\n        /* \"#utility.yul\":7298:7300   */\n      0x20\n        /* \"contracts/FNFT.sol\":40605:40649  require(maxSupply > totalSupply, 'Sold Out') */\n      0x04\n      dup3\n      add\n        /* \"#utility.yul\":7280:7301   */\n      mstore\n        /* \"#utility.yul\":7337:7338   */\n      0x08\n        /* \"#utility.yul\":7317:7335   */\n      0x24\n      dup3\n      add\n        /* \"#utility.yul\":7310:7339   */\n      mstore\n      shl(0xc2, 0x14dbdb190813dd5d)\n        /* \"#utility.yul\":7355:7373   */\n      0x44\n      dup3\n      add\n        /* \"#utility.yul\":7348:7386   */\n      mstore\n        /* \"#utility.yul\":7403:7421   */\n      0x64\n      add\n        /* \"contracts/FNFT.sol\":40605:40649  require(maxSupply > totalSupply, 'Sold Out') */\n      tag_177\n        /* \"#utility.yul\":7096:7427   */\n      jump\n        /* \"contracts/FNFT.sol\":40605:40649  require(maxSupply > totalSupply, 'Sold Out') */\n    tag_204:\n        /* \"contracts/FNFT.sol\":40674:40684  msg.sender */\n      caller\n        /* \"contracts/FNFT.sol\":40660:40685  mintedWallets[msg.sender] */\n      0x00\n      swap1\n      dup2\n      mstore\n        /* \"contracts/FNFT.sol\":40660:40673  mintedWallets */\n      0x0c\n        /* \"contracts/FNFT.sol\":40660:40685  mintedWallets[msg.sender] */\n      0x20\n      mstore\n      0x40\n      dup2\n      keccak256\n        /* \"contracts/FNFT.sol\":40660:40687  mintedWallets[msg.sender]++ */\n      dup1\n      sload\n      swap2\n      tag_207\n      dup4\n      tag_208\n      jump\t// in\n    tag_207:\n      swap1\n      swap2\n      sstore\n      pop\n      pop\n        /* \"contracts/FNFT.sol\":40697:40708  totalSupply */\n      0x09\n        /* \"contracts/FNFT.sol\":40697:40710  totalSupply++ */\n      dup1\n      sload\n      swap1\n        /* \"contracts/FNFT.sol\":40697:40708  totalSupply */\n      0x00\n        /* \"contracts/FNFT.sol\":40697:40710  totalSupply++ */\n      tag_209\n      dup4\n      tag_208\n      jump\t// in\n    tag_209:\n      swap1\n      swap2\n      sstore\n      pop\n      pop\n        /* \"contracts/FNFT.sol\":40738:40749  totalSupply */\n      sload(0x09)\n        /* \"contracts/FNFT.sol\":40759:40789  _safeMint(msg.sender, tokenId) */\n      tag_210\n        /* \"contracts/FNFT.sol\":40769:40779  msg.sender */\n      caller\n        /* \"contracts/FNFT.sol\":40738:40749  totalSupply */\n      dup3\n        /* \"contracts/FNFT.sol\":40759:40768  _safeMint */\n      tag_211\n        /* \"contracts/FNFT.sol\":40759:40789  _safeMint(msg.sender, tokenId) */\n      jump\t// in\n    tag_210:\n        /* \"contracts/FNFT.sol\":40410:40796  {... */\n      pop\n        /* \"contracts/FNFT.sol\":40377:40796  function mint() external payable {... */\n      jump\t// out\n        /* \"contracts/FNFT.sol\":28034:28364  function transferFrom(... */\n    tag_70:\n        /* \"contracts/FNFT.sol\":28223:28264  _isApprovedOrOwner(_msgSender(), tokenId) */\n      tag_213\n        /* \"contracts/FNFT.sol\":4278:4288  msg.sender */\n      caller\n        /* \"contracts/FNFT.sol\":28256:28263  tokenId */\n      dup3\n        /* \"contracts/FNFT.sol\":28223:28241  _isApprovedOrOwner */\n      tag_215\n        /* \"contracts/FNFT.sol\":28223:28264  _isApprovedOrOwner(_msgSender(), tokenId) */\n      jump\t// in\n    tag_213:\n        /* \"contracts/FNFT.sol\":28215:28318  require(_isApprovedOrOwner(_msgSender(), tokenId), \"ERC721: transfer caller is not owner nor approved\") */\n      tag_216\n      jumpi\n      mload(0x40)\n      shl(0xe5, 0x461bcd)\n      dup2\n      mstore\n      0x04\n      add\n      tag_177\n      swap1\n      tag_218\n      jump\t// in\n    tag_216:\n        /* \"contracts/FNFT.sol\":28329:28357  _transfer(from, to, tokenId) */\n      tag_192\n        /* \"contracts/FNFT.sol\":28339:28343  from */\n      dup4\n        /* \"contracts/FNFT.sol\":28345:28347  to */\n      dup4\n        /* \"contracts/FNFT.sol\":28349:28356  tokenId */\n      dup4\n        /* \"contracts/FNFT.sol\":28329:28338  _transfer */\n      tag_220\n        /* \"contracts/FNFT.sol\":28329:28357  _transfer(from, to, tokenId) */\n      jump\t// in\n        /* \"contracts/FNFT.sol\":28430:28609  function safeTransferFrom(... */\n    tag_78:\n        /* \"contracts/FNFT.sol\":28563:28602  safeTransferFrom(from, to, tokenId, \"\") */\n      tag_192\n        /* \"contracts/FNFT.sol\":28580:28584  from */\n      dup4\n        /* \"contracts/FNFT.sol\":28586:28588  to */\n      dup4\n        /* \"contracts/FNFT.sol\":28590:28597  tokenId */\n      dup4\n        /* \"contracts/FNFT.sol\":28563:28602  safeTransferFrom(from, to, tokenId, \"\") */\n      mload(0x40)\n      dup1\n      0x20\n      add\n      0x40\n      mstore\n      dup1\n      0x00\n      dup2\n      mstore\n      pop\n        /* \"contracts/FNFT.sol\":28563:28579  safeTransferFrom */\n      tag_137\n        /* \"contracts/FNFT.sol\":28563:28602  safeTransferFrom(from, to, tokenId, \"\") */\n      jump\t// in\n        /* \"contracts/FNFT.sol\":41740:42250  function payToMint(... */\n    tag_82:\n        /* \"contracts/FNFT.sol\":41856:41863  uint256 */\n      0x00\n        /* \"contracts/FNFT.sol\":41883:41895  existingURIs */\n      0x0e\n        /* \"contracts/FNFT.sol\":41896:41907  metadataURI */\n      dup3\n        /* \"contracts/FNFT.sol\":41883:41908  existingURIs[metadataURI] */\n      mload(0x40)\n      tag_224\n      swap2\n      swap1\n      tag_225\n      jump\t// in\n    tag_224:\n      swap1\n      dup2\n      mstore\n      mload(0x40)\n      swap1\n      dup2\n      swap1\n      sub\n      0x20\n      add\n      swap1\n      keccak256\n      sload\n      0xff\n      and\n      0x01\n        /* \"contracts/FNFT.sol\":41883:41913  existingURIs[metadataURI] != 1 */\n      eq\n      iszero\n        /* \"contracts/FNFT.sol\":41875:41937  require(existingURIs[metadataURI] != 1, 'NFT already minted!') */\n      tag_226\n      jumpi\n      mload(0x40)\n      shl(0xe5, 0x461bcd)\n      dup2\n      mstore\n        /* \"#utility.yul\":14774:14776   */\n      0x20\n        /* \"contracts/FNFT.sol\":41875:41937  require(existingURIs[metadataURI] != 1, 'NFT already minted!') */\n      0x04\n      dup3\n      add\n        /* \"#utility.yul\":14756:14777   */\n      mstore\n        /* \"#utility.yul\":14813:14815   */\n      0x13\n        /* \"#utility.yul\":14793:14811   */\n      0x24\n      dup3\n      add\n        /* \"#utility.yul\":14786:14816   */\n      mstore\n      shl(0x68, 0x4e465420616c7265616479206d696e74656421)\n        /* \"#utility.yul\":14832:14850   */\n      0x44\n      dup3\n      add\n        /* \"#utility.yul\":14825:14874   */\n      mstore\n        /* \"#utility.yul\":14891:14909   */\n      0x64\n      add\n        /* \"contracts/FNFT.sol\":41875:41937  require(existingURIs[metadataURI] != 1, 'NFT already minted!') */\n      tag_177\n        /* \"#utility.yul\":14572:14915   */\n      jump\n        /* \"contracts/FNFT.sol\":41875:41937  require(existingURIs[metadataURI] != 1, 'NFT already minted!') */\n    tag_226:\n        /* \"contracts/FNFT.sol\":41969:41980  0.001 ether */\n      0x038d7ea4c68000\n        /* \"contracts/FNFT.sol\":41956:41965  msg.value */\n      callvalue\n        /* \"contracts/FNFT.sol\":41956:41980  msg.value >= 0.001 ether */\n      lt\n      iszero\n        /* \"contracts/FNFT.sol\":41947:42000  require (msg.value >= 0.001 ether, 'Need to pay up!') */\n      tag_229\n      jumpi\n      mload(0x40)\n      shl(0xe5, 0x461bcd)\n      dup2\n      mstore\n        /* \"#utility.yul\":15813:15815   */\n      0x20\n        /* \"contracts/FNFT.sol\":41947:42000  require (msg.value >= 0.001 ether, 'Need to pay up!') */\n      0x04\n      dup3\n      add\n        /* \"#utility.yul\":15795:15816   */\n      mstore\n        /* \"#utility.yul\":15852:15854   */\n      0x0f\n        /* \"#utility.yul\":15832:15850   */\n      0x24\n      dup3\n      add\n        /* \"#utility.yul\":15825:15855   */\n      mstore\n      shl(0x88, 0x4e65656420746f2070617920757021)\n        /* \"#utility.yul\":15871:15889   */\n      0x44\n      dup3\n      add\n        /* \"#utility.yul\":15864:15909   */\n      mstore\n        /* \"#utility.yul\":15926:15944   */\n      0x64\n      add\n        /* \"contracts/FNFT.sol\":41947:42000  require (msg.value >= 0.001 ether, 'Need to pay up!') */\n      tag_177\n        /* \"#utility.yul\":15611:15950   */\n      jump\n        /* \"contracts/FNFT.sol\":41947:42000  require (msg.value >= 0.001 ether, 'Need to pay up!') */\n    tag_229:\n        /* \"contracts/FNFT.sol\":42011:42028  uint256 newItemId */\n      0x00\n        /* \"contracts/FNFT.sol\":42031:42056  _tokenIdCounter.current() */\n      tag_232\n        /* \"contracts/FNFT.sol\":42031:42046  _tokenIdCounter */\n      0x0d\n        /* \"contracts/FNFT.sol\":1005:1019  counter._value */\n      sload\n      swap1\n        /* \"contracts/FNFT.sol\":914:1026  function current(Counter storage counter) internal view returns (uint256) {... */\n      jump\n        /* \"contracts/FNFT.sol\":42031:42056  _tokenIdCounter.current() */\n    tag_232:\n        /* \"contracts/FNFT.sol\":42011:42056  uint256 newItemId = _tokenIdCounter.current() */\n      swap1\n      pop\n        /* \"contracts/FNFT.sol\":42066:42093  _tokenIdCounter.increment() */\n      tag_234\n        /* \"contracts/FNFT.sol\":42066:42081  _tokenIdCounter */\n      0x0d\n        /* \"contracts/FNFT.sol\":1119:1138  counter._value += 1 */\n      dup1\n      sload\n        /* \"contracts/FNFT.sol\":1137:1138  1 */\n      0x01\n        /* \"contracts/FNFT.sol\":1119:1138  counter._value += 1 */\n      add\n      swap1\n      sstore\n        /* \"contracts/FNFT.sol\":1032:1155  function increment(Counter storage counter) internal {... */\n      jump\n        /* \"contracts/FNFT.sol\":42066:42093  _tokenIdCounter.increment() */\n    tag_234:\n        /* \"contracts/FNFT.sol\":42131:42132  1 */\n      0x01\n        /* \"contracts/FNFT.sol\":42103:42115  existingURIs */\n      0x0e\n        /* \"contracts/FNFT.sol\":42116:42127  metadataURI */\n      dup5\n        /* \"contracts/FNFT.sol\":42103:42128  existingURIs[metadataURI] */\n      mload(0x40)\n      tag_236\n      swap2\n      swap1\n      tag_225\n      jump\t// in\n    tag_236:\n      swap1\n      dup2\n      mstore\n      mload(0x40)\n      swap1\n      dup2\n      swap1\n      sub\n      0x20\n      add\n      swap1\n      keccak256\n        /* \"contracts/FNFT.sol\":42103:42132  existingURIs[metadataURI] = 1 */\n      dup1\n      sload\n      0xff\n      swap3\n      swap1\n      swap3\n      and\n      not(0xff)\n      swap1\n      swap3\n      and\n      swap2\n      swap1\n      swap2\n      or\n      swap1\n      sstore\n        /* \"contracts/FNFT.sol\":42143:42170  _mint(recipient, newItemId) */\n      tag_237\n        /* \"contracts/FNFT.sol\":42149:42158  recipient */\n      dup5\n        /* \"contracts/FNFT.sol\":42160:42169  newItemId */\n      dup3\n        /* \"contracts/FNFT.sol\":42143:42148  _mint */\n      tag_238\n        /* \"contracts/FNFT.sol\":42143:42170  _mint(recipient, newItemId) */\n      jump\t// in\n    tag_237:\n        /* \"contracts/FNFT.sol\":42180:42216  _setTokenURI(newItemId, metadataURI) */\n      tag_239\n        /* \"contracts/FNFT.sol\":42193:42202  newItemId */\n      dup2\n        /* \"contracts/FNFT.sol\":42204:42215  metadataURI */\n      dup5\n        /* \"contracts/FNFT.sol\":42180:42192  _setTokenURI */\n      tag_240\n        /* \"contracts/FNFT.sol\":42180:42216  _setTokenURI(newItemId, metadataURI) */\n      jump\t// in\n    tag_239:\n        /* \"contracts/FNFT.sol\":42234:42243  newItemId */\n      swap4\n        /* \"contracts/FNFT.sol\":41740:42250  function payToMint(... */\n      swap3\n      pop\n      pop\n      pop\n      jump\t// out\n        /* \"contracts/FNFT.sol\":25499:25734  function ownerOf(uint256 tokenId) public view virtual override returns (address) {... */\n    tag_87:\n        /* \"contracts/FNFT.sol\":25571:25578  address */\n      0x00\n        /* \"contracts/FNFT.sol\":25606:25622  _owners[tokenId] */\n      dup2\n      dup2\n      mstore\n        /* \"contracts/FNFT.sol\":25606:25613  _owners */\n      0x02\n        /* \"contracts/FNFT.sol\":25606:25622  _owners[tokenId] */\n      0x20\n      mstore\n      0x40\n      dup2\n      keccak256\n      sload\n      sub(shl(0xa0, 0x01), 0x01)\n      and\n        /* \"contracts/FNFT.sol\":25640:25659  owner != address(0) */\n      dup1\n        /* \"contracts/FNFT.sol\":25632:25705  require(owner != address(0), \"ERC721: owner query for nonexistent token\") */\n      tag_164\n      jumpi\n      mload(0x40)\n      shl(0xe5, 0x461bcd)\n      dup2\n      mstore\n        /* \"#utility.yul\":10812:10814   */\n      0x20\n        /* \"contracts/FNFT.sol\":25632:25705  require(owner != address(0), \"ERC721: owner query for nonexistent token\") */\n      0x04\n      dup3\n      add\n        /* \"#utility.yul\":10794:10815   */\n      mstore\n        /* \"#utility.yul\":10851:10853   */\n      0x29\n        /* \"#utility.yul\":10831:10849   */\n      0x24\n      dup3\n      add\n        /* \"#utility.yul\":10824:10854   */\n      mstore\n        /* \"#utility.yul\":10890:10924   */\n      0x4552433732313a206f776e657220717565727920666f72206e6f6e6578697374\n        /* \"#utility.yul\":10870:10888   */\n      0x44\n      dup3\n      add\n        /* \"#utility.yul\":10863:10925   */\n      mstore\n      shl(0xb9, 0x32b73a103a37b5b2b7)\n        /* \"#utility.yul\":10941:10959   */\n      0x64\n      dup3\n      add\n        /* \"#utility.yul\":10934:10973   */\n      mstore\n        /* \"#utility.yul\":10990:11009   */\n      0x84\n      add\n        /* \"contracts/FNFT.sol\":25632:25705  require(owner != address(0), \"ERC721: owner query for nonexistent token\") */\n      tag_177\n        /* \"#utility.yul\":10610:11015   */\n      jump\n        /* \"contracts/FNFT.sol\":40271:40371  function setMaxSupply(uint256 maxSupply_) external onlyOwner {... */\n    tag_96:\n        /* \"contracts/FNFT.sol\":5503:5509  _owner */\n      and(sub(shl(0xa0, 0x01), 0x01), sload(0x07))\n        /* \"contracts/FNFT.sol\":4278:4288  msg.sender */\n      caller\n        /* \"contracts/FNFT.sol\":5643:5666  owner() == _msgSender() */\n      eq\n        /* \"contracts/FNFT.sol\":5635:5703  require(owner() == _msgSender(), \"Ownable: caller is not the owner\") */\n      tag_248\n      jumpi\n      mload(0x40)\n      shl(0xe5, 0x461bcd)\n      dup2\n      mstore\n      0x04\n      add\n      tag_177\n      swap1\n      tag_250\n      jump\t// in\n    tag_248:\n        /* \"contracts/FNFT.sol\":40342:40351  maxSupply */\n      0x0a\n        /* \"contracts/FNFT.sol\":40342:40364  maxSupply = maxSupply_ */\n      sstore\n        /* \"contracts/FNFT.sol\":40271:40371  function setMaxSupply(uint256 maxSupply_) external onlyOwner {... */\n      jump\t// out\n        /* \"contracts/FNFT.sol\":25237:25442  function balanceOf(address owner) public view virtual override returns (uint256) {... */\n    tag_101:\n        /* \"contracts/FNFT.sol\":25309:25316  uint256 */\n      0x00\n      sub(shl(0xa0, 0x01), 0x01)\n        /* \"contracts/FNFT.sol\":25336:25355  owner != address(0) */\n      dup3\n      and\n        /* \"contracts/FNFT.sol\":25328:25402  require(owner != address(0), \"ERC721: balance query for the zero address\") */\n      tag_253\n      jumpi\n      mload(0x40)\n      shl(0xe5, 0x461bcd)\n      dup2\n      mstore\n        /* \"#utility.yul\":10401:10403   */\n      0x20\n        /* \"contracts/FNFT.sol\":25328:25402  require(owner != address(0), \"ERC721: balance query for the zero address\") */\n      0x04\n      dup3\n      add\n        /* \"#utility.yul\":10383:10404   */\n      mstore\n        /* \"#utility.yul\":10440:10442   */\n      0x2a\n        /* \"#utility.yul\":10420:10438   */\n      0x24\n      dup3\n      add\n        /* \"#utility.yul\":10413:10443   */\n      mstore\n        /* \"#utility.yul\":10479:10513   */\n      0x4552433732313a2062616c616e636520717565727920666f7220746865207a65\n        /* \"#utility.yul\":10459:10477   */\n      0x44\n      dup3\n      add\n        /* \"#utility.yul\":10452:10514   */\n      mstore\n      shl(0xb0, 0x726f2061646472657373)\n        /* \"#utility.yul\":10530:10548   */\n      0x64\n      dup3\n      add\n        /* \"#utility.yul\":10523:10563   */\n      mstore\n        /* \"#utility.yul\":10580:10599   */\n      0x84\n      add\n        /* \"contracts/FNFT.sol\":25328:25402  require(owner != address(0), \"ERC721: balance query for the zero address\") */\n      tag_177\n        /* \"#utility.yul\":10199:10605   */\n      jump\n        /* \"contracts/FNFT.sol\":25328:25402  require(owner != address(0), \"ERC721: balance query for the zero address\") */\n    tag_253:\n      pop\n      sub(shl(0xa0, 0x01), 0x01)\n        /* \"contracts/FNFT.sol\":25419:25435  _balances[owner] */\n      and\n      0x00\n      swap1\n      dup2\n      mstore\n        /* \"contracts/FNFT.sol\":25419:25428  _balances */\n      0x03\n        /* \"contracts/FNFT.sol\":25419:25435  _balances[owner] */\n      0x20\n      mstore\n      0x40\n      swap1\n      keccak256\n      sload\n      swap1\n        /* \"contracts/FNFT.sol\":25237:25442  function balanceOf(address owner) public view virtual override returns (uint256) {... */\n      jump\t// out\n        /* \"contracts/FNFT.sol\":6063:6164  function renounceOwnership() public virtual onlyOwner {... */\n    tag_105:\n        /* \"contracts/FNFT.sol\":5503:5509  _owner */\n      and(sub(shl(0xa0, 0x01), 0x01), sload(0x07))\n        /* \"contracts/FNFT.sol\":4278:4288  msg.sender */\n      caller\n        /* \"contracts/FNFT.sol\":5643:5666  owner() == _msgSender() */\n      eq\n        /* \"contracts/FNFT.sol\":5635:5703  require(owner() == _msgSender(), \"Ownable: caller is not the owner\") */\n      tag_259\n      jumpi\n      mload(0x40)\n      shl(0xe5, 0x461bcd)\n      dup2\n      mstore\n      0x04\n      add\n      tag_177\n      swap1\n      tag_250\n      jump\t// in\n    tag_259:\n        /* \"contracts/FNFT.sol\":6127:6157  _transferOwnership(address(0)) */\n      tag_262\n        /* \"contracts/FNFT.sol\":6154:6155  0 */\n      0x00\n        /* \"contracts/FNFT.sol\":6127:6145  _transferOwnership */\n      tag_263\n        /* \"contracts/FNFT.sol\":6127:6157  _transferOwnership(address(0)) */\n      jump\t// in\n    tag_262:\n        /* \"contracts/FNFT.sol\":6063:6164  function renounceOwnership() public virtual onlyOwner {... */\n      jump\t// out\n        /* \"contracts/FNFT.sol\":40159:40265  function toggleInMintEnabled() external onlyOwner {... */\n    tag_108:\n        /* \"contracts/FNFT.sol\":5503:5509  _owner */\n      and(sub(shl(0xa0, 0x01), 0x01), sload(0x07))\n        /* \"contracts/FNFT.sol\":4278:4288  msg.sender */\n      caller\n        /* \"contracts/FNFT.sol\":5643:5666  owner() == _msgSender() */\n      eq\n        /* \"contracts/FNFT.sol\":5635:5703  require(owner() == _msgSender(), \"Ownable: caller is not the owner\") */\n      tag_267\n      jumpi\n      mload(0x40)\n      shl(0xe5, 0x461bcd)\n      dup2\n      mstore\n      0x04\n      add\n      tag_177\n      swap1\n      tag_250\n      jump\t// in\n    tag_267:\n        /* \"contracts/FNFT.sol\":40236:40249  isMintEnabled */\n      0x0b\n      dup1\n      sload\n      not(0xff)\n        /* \"contracts/FNFT.sol\":40219:40249  isMintEnabled = !isMintEnabled */\n      dup2\n      and\n        /* \"contracts/FNFT.sol\":40236:40249  isMintEnabled */\n      0xff\n      swap1\n      swap2\n      and\n        /* \"contracts/FNFT.sol\":40235:40249  !isMintEnabled */\n      iszero\n        /* \"contracts/FNFT.sol\":40219:40249  isMintEnabled = !isMintEnabled */\n      or\n      swap1\n      sstore\n        /* \"contracts/FNFT.sol\":40159:40265  function toggleInMintEnabled() external onlyOwner {... */\n      jump\t// out\n        /* \"contracts/FNFT.sol\":25958:26060  function symbol() public view virtual override returns (string memory) {... */\n    tag_115:\n        /* \"contracts/FNFT.sol\":26014:26027  string memory */\n      0x60\n        /* \"contracts/FNFT.sol\":26046:26053  _symbol */\n      0x01\n        /* \"contracts/FNFT.sol\":26039:26053  return _symbol */\n      dup1\n      sload\n      tag_167\n      swap1\n      tag_168\n      jump\t// in\n        /* \"contracts/FNFT.sol\":41618:41734  function isContentOwned(string memory uri) public view returns (bool) {... */\n    tag_121:\n        /* \"contracts/FNFT.sol\":41682:41686  bool */\n      0x00\n        /* \"contracts/FNFT.sol\":41705:41717  existingURIs */\n      0x0e\n        /* \"contracts/FNFT.sol\":41718:41721  uri */\n      dup3\n        /* \"contracts/FNFT.sol\":41705:41722  existingURIs[uri] */\n      mload(0x40)\n      tag_278\n      swap2\n      swap1\n      tag_225\n      jump\t// in\n    tag_278:\n      swap1\n      dup2\n      mstore\n      mload(0x40)\n      swap1\n      dup2\n      swap1\n      sub\n      0x20\n      add\n      swap1\n      keccak256\n      sload\n      0xff\n      and\n      0x01\n        /* \"contracts/FNFT.sol\":41705:41727  existingURIs[uri] == 1 */\n      eq\n      swap3\n        /* \"contracts/FNFT.sol\":41618:41734  function isContentOwned(string memory uri) public view returns (bool) {... */\n      swap2\n      pop\n      pop\n      jump\t// out\n        /* \"contracts/FNFT.sol\":27591:27744  function setApprovalForAll(address operator, bool approved) public virtual override {... */\n    tag_127:\n        /* \"contracts/FNFT.sol\":27685:27737  _setApprovalForAll(_msgSender(), operator, approved) */\n      tag_280\n        /* \"contracts/FNFT.sol\":4278:4288  msg.sender */\n      caller\n        /* \"contracts/FNFT.sol\":27718:27726  operator */\n      dup4\n        /* \"contracts/FNFT.sol\":27728:27736  approved */\n      dup4\n        /* \"contracts/FNFT.sol\":27685:27703  _setApprovalForAll */\n      tag_282\n        /* \"contracts/FNFT.sol\":27685:27737  _setApprovalForAll(_msgSender(), operator, approved) */\n      jump\t// in\n    tag_280:\n        /* \"contracts/FNFT.sol\":27591:27744  function setApprovalForAll(address operator, bool approved) public virtual override {... */\n      pop\n      pop\n      jump\t// out\n        /* \"contracts/FNFT.sol\":28675:28995  function safeTransferFrom(... */\n    tag_137:\n        /* \"contracts/FNFT.sol\":28844:28885  _isApprovedOrOwner(_msgSender(), tokenId) */\n      tag_284\n        /* \"contracts/FNFT.sol\":4278:4288  msg.sender */\n      caller\n        /* \"contracts/FNFT.sol\":28877:28884  tokenId */\n      dup4\n        /* \"contracts/FNFT.sol\":28844:28862  _isApprovedOrOwner */\n      tag_215\n        /* \"contracts/FNFT.sol\":28844:28885  _isApprovedOrOwner(_msgSender(), tokenId) */\n      jump\t// in\n    tag_284:\n        /* \"contracts/FNFT.sol\":28836:28939  require(_isApprovedOrOwner(_msgSender(), tokenId), \"ERC721: transfer caller is not owner nor approved\") */\n      tag_286\n      jumpi\n      mload(0x40)\n      shl(0xe5, 0x461bcd)\n      dup2\n      mstore\n      0x04\n      add\n      tag_177\n      swap1\n      tag_218\n      jump\t// in\n    tag_286:\n        /* \"contracts/FNFT.sol\":28949:28988  _safeTransfer(from, to, tokenId, _data) */\n      tag_288\n        /* \"contracts/FNFT.sol\":28963:28967  from */\n      dup5\n        /* \"contracts/FNFT.sol\":28969:28971  to */\n      dup5\n        /* \"contracts/FNFT.sol\":28973:28980  tokenId */\n      dup5\n        /* \"contracts/FNFT.sol\":28982:28987  _data */\n      dup5\n        /* \"contracts/FNFT.sol\":28949:28962  _safeTransfer */\n      tag_289\n        /* \"contracts/FNFT.sol\":28949:28988  _safeTransfer(from, to, tokenId, _data) */\n      jump\t// in\n    tag_288:\n        /* \"contracts/FNFT.sol\":28675:28995  function safeTransferFrom(... */\n      pop\n      pop\n      pop\n      pop\n      jump\t// out\n        /* \"contracts/FNFT.sol\":41379:41568  function tokenURI(uint256 tokenId)... */\n    tag_141:\n        /* \"contracts/FNFT.sol\":41502:41515  string memory */\n      0x60\n        /* \"contracts/FNFT.sol\":41538:41561  super.tokenURI(tokenId) */\n      tag_164\n        /* \"contracts/FNFT.sol\":41553:41560  tokenId */\n      dup3\n        /* \"contracts/FNFT.sol\":41538:41552  super.tokenURI */\n      tag_292\n        /* \"contracts/FNFT.sol\":41538:41561  super.tokenURI(tokenId) */\n      jump\t// in\n        /* \"contracts/FNFT.sol\":40955:41186  function safeMint(address to, string memory uri) public onlyOwner {... */\n    tag_146:\n        /* \"contracts/FNFT.sol\":5503:5509  _owner */\n      and(sub(shl(0xa0, 0x01), 0x01), sload(0x07))\n        /* \"contracts/FNFT.sol\":4278:4288  msg.sender */\n      caller\n        /* \"contracts/FNFT.sol\":5643:5666  owner() == _msgSender() */\n      eq\n        /* \"contracts/FNFT.sol\":5635:5703  require(owner() == _msgSender(), \"Ownable: caller is not the owner\") */\n      tag_296\n      jumpi\n      mload(0x40)\n      shl(0xe5, 0x461bcd)\n      dup2\n      mstore\n      0x04\n      add\n      tag_177\n      swap1\n      tag_250\n      jump\t// in\n    tag_296:\n        /* \"contracts/FNFT.sol\":41031:41046  uint256 tokenId */\n      0x00\n        /* \"contracts/FNFT.sol\":41049:41074  _tokenIdCounter.current() */\n      tag_299\n        /* \"contracts/FNFT.sol\":41049:41064  _tokenIdCounter */\n      0x0d\n        /* \"contracts/FNFT.sol\":1005:1019  counter._value */\n      sload\n      swap1\n        /* \"contracts/FNFT.sol\":914:1026  function current(Counter storage counter) internal view returns (uint256) {... */\n      jump\n        /* \"contracts/FNFT.sol\":41049:41074  _tokenIdCounter.current() */\n    tag_299:\n        /* \"contracts/FNFT.sol\":41031:41074  uint256 tokenId = _tokenIdCounter.current() */\n      swap1\n      pop\n        /* \"contracts/FNFT.sol\":41084:41111  _tokenIdCounter.increment() */\n      tag_300\n        /* \"contracts/FNFT.sol\":41084:41099  _tokenIdCounter */\n      0x0d\n        /* \"contracts/FNFT.sol\":1119:1138  counter._value += 1 */\n      dup1\n      sload\n        /* \"contracts/FNFT.sol\":1137:1138  1 */\n      0x01\n        /* \"contracts/FNFT.sol\":1119:1138  counter._value += 1 */\n      add\n      swap1\n      sstore\n        /* \"contracts/FNFT.sol\":1032:1155  function increment(Counter storage counter) internal {... */\n      jump\n        /* \"contracts/FNFT.sol\":41084:41111  _tokenIdCounter.increment() */\n    tag_300:\n        /* \"contracts/FNFT.sol\":41121:41143  _safeMint(to, tokenId) */\n      tag_301\n        /* \"contracts/FNFT.sol\":41131:41133  to */\n      dup4\n        /* \"contracts/FNFT.sol\":41135:41142  tokenId */\n      dup3\n        /* \"contracts/FNFT.sol\":41121:41130  _safeMint */\n      tag_211\n        /* \"contracts/FNFT.sol\":41121:41143  _safeMint(to, tokenId) */\n      jump\t// in\n    tag_301:\n        /* \"contracts/FNFT.sol\":41153:41179  _setTokenURI(tokenId, uri) */\n      tag_192\n        /* \"contracts/FNFT.sol\":41166:41173  tokenId */\n      dup2\n        /* \"contracts/FNFT.sol\":41175:41178  uri */\n      dup4\n        /* \"contracts/FNFT.sol\":41153:41165  _setTokenURI */\n      tag_240\n        /* \"contracts/FNFT.sol\":41153:41179  _setTokenURI(tokenId, uri) */\n      jump\t// in\n        /* \"contracts/FNFT.sol\":6313:6511  function transferOwnership(address newOwner) public virtual onlyOwner {... */\n    tag_160:\n        /* \"contracts/FNFT.sol\":5503:5509  _owner */\n      and(sub(shl(0xa0, 0x01), 0x01), sload(0x07))\n        /* \"contracts/FNFT.sol\":4278:4288  msg.sender */\n      caller\n        /* \"contracts/FNFT.sol\":5643:5666  owner() == _msgSender() */\n      eq\n        /* \"contracts/FNFT.sol\":5635:5703  require(owner() == _msgSender(), \"Ownable: caller is not the owner\") */\n      tag_307\n      jumpi\n      mload(0x40)\n      shl(0xe5, 0x461bcd)\n      dup2\n      mstore\n      0x04\n      add\n      tag_177\n      swap1\n      tag_250\n      jump\t// in\n    tag_307:\n      sub(shl(0xa0, 0x01), 0x01)\n        /* \"contracts/FNFT.sol\":6401:6423  newOwner != address(0) */\n      dup2\n      and\n        /* \"contracts/FNFT.sol\":6393:6466  require(newOwner != address(0), \"Ownable: new owner is the zero address\") */\n      tag_310\n      jumpi\n      mload(0x40)\n      shl(0xe5, 0x461bcd)\n      dup2\n      mstore\n        /* \"#utility.yul\":7634:7636   */\n      0x20\n        /* \"contracts/FNFT.sol\":6393:6466  require(newOwner != address(0), \"Ownable: new owner is the zero address\") */\n      0x04\n      dup3\n      add\n        /* \"#utility.yul\":7616:7637   */\n      mstore\n        /* \"#utility.yul\":7673:7675   */\n      0x26\n        /* \"#utility.yul\":7653:7671   */\n      0x24\n      dup3\n      add\n        /* \"#utility.yul\":7646:7676   */\n      mstore\n        /* \"#utility.yul\":7712:7746   */\n      0x4f776e61626c653a206e6577206f776e657220697320746865207a65726f2061\n        /* \"#utility.yul\":7692:7710   */\n      0x44\n      dup3\n      add\n        /* \"#utility.yul\":7685:7747   */\n      mstore\n      shl(0xd0, 0x646472657373)\n        /* \"#utility.yul\":7763:7781   */\n      0x64\n      dup3\n      add\n        /* \"#utility.yul\":7756:7792   */\n      mstore\n        /* \"#utility.yul\":7809:7828   */\n      0x84\n      add\n        /* \"contracts/FNFT.sol\":6393:6466  require(newOwner != address(0), \"Ownable: new owner is the zero address\") */\n      tag_177\n        /* \"#utility.yul\":7432:7834   */\n      jump\n        /* \"contracts/FNFT.sol\":6393:6466  require(newOwner != address(0), \"Ownable: new owner is the zero address\") */\n    tag_310:\n        /* \"contracts/FNFT.sol\":6476:6504  _transferOwnership(newOwner) */\n      tag_210\n        /* \"contracts/FNFT.sol\":6495:6503  newOwner */\n      dup2\n        /* \"contracts/FNFT.sol\":6476:6494  _transferOwnership */\n      tag_263\n        /* \"contracts/FNFT.sol\":6476:6504  _transferOwnership(newOwner) */\n      jump\t// in\n        /* \"contracts/FNFT.sol\":30467:30592  function _exists(uint256 tokenId) internal view virtual returns (bool) {... */\n    tag_175:\n        /* \"contracts/FNFT.sol\":30532:30536  bool */\n      0x00\n        /* \"contracts/FNFT.sol\":30555:30571  _owners[tokenId] */\n      swap1\n      dup2\n      mstore\n        /* \"contracts/FNFT.sol\":30555:30562  _owners */\n      0x02\n        /* \"contracts/FNFT.sol\":30555:30571  _owners[tokenId] */\n      0x20\n      mstore\n      0x40\n      swap1\n      keccak256\n      sload\n      sub(shl(0xa0, 0x01), 0x01)\n      and\n        /* \"contracts/FNFT.sol\":30555:30585  _owners[tokenId] != address(0) */\n      iszero\n      iszero\n      swap1\n        /* \"contracts/FNFT.sol\":30467:30592  function _exists(uint256 tokenId) internal view virtual returns (bool) {... */\n      jump\t// out\n        /* \"contracts/FNFT.sol\":34476:34647  function _approve(address to, uint256 tokenId) internal virtual {... */\n    tag_193:\n        /* \"contracts/FNFT.sol\":34550:34574  _tokenApprovals[tokenId] */\n      0x00\n      dup2\n      dup2\n      mstore\n        /* \"contracts/FNFT.sol\":34550:34565  _tokenApprovals */\n      0x04\n        /* \"contracts/FNFT.sol\":34550:34574  _tokenApprovals[tokenId] */\n      0x20\n      mstore\n      0x40\n      swap1\n      keccak256\n        /* \"contracts/FNFT.sol\":34550:34579  _tokenApprovals[tokenId] = to */\n      dup1\n      sload\n      not(sub(shl(0xa0, 0x01), 0x01))\n      and\n      sub(shl(0xa0, 0x01), 0x01)\n      dup5\n      and\n      swap1\n      dup2\n      or\n      swap1\n      swap2\n      sstore\n        /* \"contracts/FNFT.sol\":34550:34574  _tokenApprovals[tokenId] */\n      dup2\n      swap1\n        /* \"contracts/FNFT.sol\":34603:34626  ERC721.ownerOf(tokenId) */\n      tag_318\n        /* \"contracts/FNFT.sol\":34550:34574  _tokenApprovals[tokenId] */\n      dup3\n        /* \"contracts/FNFT.sol\":34603:34617  ERC721.ownerOf */\n      tag_87\n        /* \"contracts/FNFT.sol\":34603:34626  ERC721.ownerOf(tokenId) */\n      jump\t// in\n    tag_318:\n      sub(shl(0xa0, 0x01), 0x01)\n        /* \"contracts/FNFT.sol\":34594:34640  Approval(ERC721.ownerOf(tokenId), to, tokenId) */\n      and\n      0x8c5be1e5ebec7d5bd14f71427d1e84f3dd0314c0f7b2291e5b200ac8c7c3b925\n      mload(0x40)\n      mload(0x40)\n      dup1\n      swap2\n      sub\n      swap1\n      log4\n        /* \"contracts/FNFT.sol\":34476:34647  function _approve(address to, uint256 tokenId) internal virtual {... */\n      pop\n      pop\n      jump\t// out\n        /* \"contracts/FNFT.sol\":31424:31532  function _safeMint(address to, uint256 tokenId) internal virtual {... */\n    tag_211:\n        /* \"contracts/FNFT.sol\":31499:31525  _safeMint(to, tokenId, \"\") */\n      tag_280\n        /* \"contracts/FNFT.sol\":31509:31511  to */\n      dup3\n        /* \"contracts/FNFT.sol\":31513:31520  tokenId */\n      dup3\n        /* \"contracts/FNFT.sol\":31499:31525  _safeMint(to, tokenId, \"\") */\n      mload(0x40)\n      dup1\n      0x20\n      add\n      0x40\n      mstore\n      dup1\n      0x00\n      dup2\n      mstore\n      pop\n        /* \"contracts/FNFT.sol\":31499:31508  _safeMint */\n      tag_321\n        /* \"contracts/FNFT.sol\":31499:31525  _safeMint(to, tokenId, \"\") */\n      jump\t// in\n        /* \"contracts/FNFT.sol\":30750:31094  function _isApprovedOrOwner(address spender, uint256 tokenId) internal view virtual returns (bool) {... */\n    tag_215:\n        /* \"contracts/FNFT.sol\":30843:30847  bool */\n      0x00\n        /* \"contracts/FNFT.sol\":30867:30883  _exists(tokenId) */\n      tag_323\n        /* \"contracts/FNFT.sol\":30875:30882  tokenId */\n      dup3\n        /* \"contracts/FNFT.sol\":30867:30874  _exists */\n      tag_175\n        /* \"contracts/FNFT.sol\":30867:30883  _exists(tokenId) */\n      jump\t// in\n    tag_323:\n        /* \"contracts/FNFT.sol\":30859:30932  require(_exists(tokenId), \"ERC721: operator query for nonexistent token\") */\n      tag_324\n      jumpi\n      mload(0x40)\n      shl(0xe5, 0x461bcd)\n      dup2\n      mstore\n        /* \"#utility.yul\":9563:9565   */\n      0x20\n        /* \"contracts/FNFT.sol\":30859:30932  require(_exists(tokenId), \"ERC721: operator query for nonexistent token\") */\n      0x04\n      dup3\n      add\n        /* \"#utility.yul\":9545:9566   */\n      mstore\n        /* \"#utility.yul\":9602:9604   */\n      0x2c\n        /* \"#utility.yul\":9582:9600   */\n      0x24\n      dup3\n      add\n        /* \"#utility.yul\":9575:9605   */\n      mstore\n        /* \"#utility.yul\":9641:9675   */\n      0x4552433732313a206f70657261746f7220717565727920666f72206e6f6e6578\n        /* \"#utility.yul\":9621:9639   */\n      0x44\n      dup3\n      add\n        /* \"#utility.yul\":9614:9676   */\n      mstore\n      shl(0xa1, 0x34b9ba32b73a103a37b5b2b7)\n        /* \"#utility.yul\":9692:9710   */\n      0x64\n      dup3\n      add\n        /* \"#utility.yul\":9685:9727   */\n      mstore\n        /* \"#utility.yul\":9744:9763   */\n      0x84\n      add\n        /* \"contracts/FNFT.sol\":30859:30932  require(_exists(tokenId), \"ERC721: operator query for nonexistent token\") */\n      tag_177\n        /* \"#utility.yul\":9361:9769   */\n      jump\n        /* \"contracts/FNFT.sol\":30859:30932  require(_exists(tokenId), \"ERC721: operator query for nonexistent token\") */\n    tag_324:\n        /* \"contracts/FNFT.sol\":30942:30955  address owner */\n      0x00\n        /* \"contracts/FNFT.sol\":30958:30981  ERC721.ownerOf(tokenId) */\n      tag_327\n        /* \"contracts/FNFT.sol\":30973:30980  tokenId */\n      dup4\n        /* \"contracts/FNFT.sol\":30958:30972  ERC721.ownerOf */\n      tag_87\n        /* \"contracts/FNFT.sol\":30958:30981  ERC721.ownerOf(tokenId) */\n      jump\t// in\n    tag_327:\n        /* \"contracts/FNFT.sol\":30942:30981  address owner = ERC721.ownerOf(tokenId) */\n      swap1\n      pop\n        /* \"contracts/FNFT.sol\":31010:31015  owner */\n      dup1\n      sub(shl(0xa0, 0x01), 0x01)\n        /* \"contracts/FNFT.sol\":30999:31015  spender == owner */\n      and\n        /* \"contracts/FNFT.sol\":30999:31006  spender */\n      dup5\n      sub(shl(0xa0, 0x01), 0x01)\n        /* \"contracts/FNFT.sol\":30999:31015  spender == owner */\n      and\n      eq\n        /* \"contracts/FNFT.sol\":30999:31050  spender == owner || getApproved(tokenId) == spender */\n      dup1\n      tag_328\n      jumpi\n      pop\n        /* \"contracts/FNFT.sol\":31043:31050  spender */\n      dup4\n      sub(shl(0xa0, 0x01), 0x01)\n        /* \"contracts/FNFT.sol\":31019:31050  getApproved(tokenId) == spender */\n      and\n        /* \"contracts/FNFT.sol\":31019:31039  getApproved(tokenId) */\n      tag_329\n        /* \"contracts/FNFT.sol\":31031:31038  tokenId */\n      dup5\n        /* \"contracts/FNFT.sol\":31019:31030  getApproved */\n      tag_51\n        /* \"contracts/FNFT.sol\":31019:31039  getApproved(tokenId) */\n      jump\t// in\n    tag_329:\n      sub(shl(0xa0, 0x01), 0x01)\n        /* \"contracts/FNFT.sol\":31019:31050  getApproved(tokenId) == spender */\n      and\n      eq\n        /* \"contracts/FNFT.sol\":30999:31050  spender == owner || getApproved(tokenId) == spender */\n    tag_328:\n        /* \"contracts/FNFT.sol\":30999:31086  spender == owner || getApproved(tokenId) == spender || isApprovedForAll(owner, spender) */\n      dup1\n      tag_331\n      jumpi\n      pop\n      sub(shl(0xa0, 0x01), 0x01)\n        /* \"contracts/FNFT.sol\":27930:27955  _operatorApprovals[owner] */\n      dup1\n      dup3\n      and\n        /* \"contracts/FNFT.sol\":27907:27911  bool */\n      0x00\n        /* \"contracts/FNFT.sol\":27930:27955  _operatorApprovals[owner] */\n      swap1\n      dup2\n      mstore\n        /* \"contracts/FNFT.sol\":27930:27948  _operatorApprovals */\n      0x05\n        /* \"contracts/FNFT.sol\":27930:27955  _operatorApprovals[owner] */\n      0x20\n      swap1\n      dup2\n      mstore\n      0x40\n      dup1\n      dup4\n      keccak256\n        /* \"contracts/FNFT.sol\":27930:27965  _operatorApprovals[owner][operator] */\n      swap4\n      dup9\n      and\n      dup4\n      mstore\n      swap3\n      swap1\n      mstore\n      keccak256\n      sload\n      0xff\n      and\n        /* \"contracts/FNFT.sol\":31054:31086  isApprovedForAll(owner, spender) */\n    tag_331:\n        /* \"contracts/FNFT.sol\":30991:31087  return (spender == owner || getApproved(tokenId) == spender || isApprovedForAll(owner, spender)) */\n      swap5\n        /* \"contracts/FNFT.sol\":30750:31094  function _isApprovedOrOwner(address spender, uint256 tokenId) internal view virtual returns (bool) {... */\n      swap4\n      pop\n      pop\n      pop\n      pop\n      jump\t// out\n        /* \"contracts/FNFT.sol\":33760:34365  function _transfer(... */\n    tag_220:\n        /* \"contracts/FNFT.sol\":33914:33918  from */\n      dup3\n      sub(shl(0xa0, 0x01), 0x01)\n        /* \"contracts/FNFT.sol\":33887:33918  ERC721.ownerOf(tokenId) == from */\n      and\n        /* \"contracts/FNFT.sol\":33887:33910  ERC721.ownerOf(tokenId) */\n      tag_333\n        /* \"contracts/FNFT.sol\":33902:33909  tokenId */\n      dup3\n        /* \"contracts/FNFT.sol\":33887:33901  ERC721.ownerOf */\n      tag_87\n        /* \"contracts/FNFT.sol\":33887:33910  ERC721.ownerOf(tokenId) */\n      jump\t// in\n    tag_333:\n      sub(shl(0xa0, 0x01), 0x01)\n        /* \"contracts/FNFT.sol\":33887:33918  ERC721.ownerOf(tokenId) == from */\n      and\n      eq\n        /* \"contracts/FNFT.sol\":33879:33960  require(ERC721.ownerOf(tokenId) == from, \"ERC721: transfer from incorrect owner\") */\n      tag_334\n      jumpi\n      mload(0x40)\n      shl(0xe5, 0x461bcd)\n      dup2\n      mstore\n        /* \"#utility.yul\":8041:8043   */\n      0x20\n        /* \"contracts/FNFT.sol\":33879:33960  require(ERC721.ownerOf(tokenId) == from, \"ERC721: transfer from incorrect owner\") */\n      0x04\n      dup3\n      add\n        /* \"#utility.yul\":8023:8044   */\n      mstore\n        /* \"#utility.yul\":8080:8082   */\n      0x25\n        /* \"#utility.yul\":8060:8078   */\n      0x24\n      dup3\n      add\n        /* \"#utility.yul\":8053:8083   */\n      mstore\n        /* \"#utility.yul\":8119:8153   */\n      0x4552433732313a207472616e736665722066726f6d20696e636f727265637420\n        /* \"#utility.yul\":8099:8117   */\n      0x44\n      dup3\n      add\n        /* \"#utility.yul\":8092:8154   */\n      mstore\n      shl(0xd9, 0x37bbb732b9)\n        /* \"#utility.yul\":8170:8188   */\n      0x64\n      dup3\n      add\n        /* \"#utility.yul\":8163:8198   */\n      mstore\n        /* \"#utility.yul\":8215:8234   */\n      0x84\n      add\n        /* \"contracts/FNFT.sol\":33879:33960  require(ERC721.ownerOf(tokenId) == from, \"ERC721: transfer from incorrect owner\") */\n      tag_177\n        /* \"#utility.yul\":7839:8240   */\n      jump\n        /* \"contracts/FNFT.sol\":33879:33960  require(ERC721.ownerOf(tokenId) == from, \"ERC721: transfer from incorrect owner\") */\n    tag_334:\n      sub(shl(0xa0, 0x01), 0x01)\n        /* \"contracts/FNFT.sol\":33978:33994  to != address(0) */\n      dup3\n      and\n        /* \"contracts/FNFT.sol\":33970:34035  require(to != address(0), \"ERC721: transfer to the zero address\") */\n      tag_337\n      jumpi\n      mload(0x40)\n      shl(0xe5, 0x461bcd)\n      dup2\n      mstore\n        /* \"#utility.yul\":8804:8806   */\n      0x20\n        /* \"contracts/FNFT.sol\":33970:34035  require(to != address(0), \"ERC721: transfer to the zero address\") */\n      0x04\n      dup3\n      add\n        /* \"#utility.yul\":8786:8807   */\n      mstore\n        /* \"#utility.yul\":8843:8845   */\n      0x24\n        /* \"#utility.yul\":8823:8841   */\n      dup1\n      dup3\n      add\n        /* \"#utility.yul\":8816:8846   */\n      mstore\n        /* \"#utility.yul\":8882:8916   */\n      0x4552433732313a207472616e7366657220746f20746865207a65726f20616464\n        /* \"#utility.yul\":8862:8880   */\n      0x44\n      dup3\n      add\n        /* \"#utility.yul\":8855:8917   */\n      mstore\n      shl(0xe0, 0x72657373)\n        /* \"#utility.yul\":8933:8951   */\n      0x64\n      dup3\n      add\n        /* \"#utility.yul\":8926:8960   */\n      mstore\n        /* \"#utility.yul\":8977:8996   */\n      0x84\n      add\n        /* \"contracts/FNFT.sol\":33970:34035  require(to != address(0), \"ERC721: transfer to the zero address\") */\n      tag_177\n        /* \"#utility.yul\":8602:9002   */\n      jump\n        /* \"contracts/FNFT.sol\":33970:34035  require(to != address(0), \"ERC721: transfer to the zero address\") */\n    tag_337:\n        /* \"contracts/FNFT.sol\":34147:34176  _approve(address(0), tokenId) */\n      tag_342\n        /* \"contracts/FNFT.sol\":34164:34165  0 */\n      0x00\n        /* \"contracts/FNFT.sol\":34168:34175  tokenId */\n      dup3\n        /* \"contracts/FNFT.sol\":34147:34155  _approve */\n      tag_193\n        /* \"contracts/FNFT.sol\":34147:34176  _approve(address(0), tokenId) */\n      jump\t// in\n    tag_342:\n      sub(shl(0xa0, 0x01), 0x01)\n        /* \"contracts/FNFT.sol\":34187:34202  _balances[from] */\n      dup4\n      and\n      0x00\n      swap1\n      dup2\n      mstore\n        /* \"contracts/FNFT.sol\":34187:34196  _balances */\n      0x03\n        /* \"contracts/FNFT.sol\":34187:34202  _balances[from] */\n      0x20\n      mstore\n      0x40\n      dup2\n      keccak256\n        /* \"contracts/FNFT.sol\":34187:34207  _balances[from] -= 1 */\n      dup1\n      sload\n        /* \"contracts/FNFT.sol\":34206:34207  1 */\n      0x01\n      swap3\n        /* \"contracts/FNFT.sol\":34187:34202  _balances[from] */\n      swap1\n        /* \"contracts/FNFT.sol\":34187:34207  _balances[from] -= 1 */\n      tag_343\n      swap1\n        /* \"contracts/FNFT.sol\":34206:34207  1 */\n      dup5\n      swap1\n        /* \"contracts/FNFT.sol\":34187:34207  _balances[from] -= 1 */\n      tag_344\n      jump\t// in\n    tag_343:\n      swap1\n      swap2\n      sstore\n      pop\n      pop\n      sub(shl(0xa0, 0x01), 0x01)\n        /* \"contracts/FNFT.sol\":34217:34230  _balances[to] */\n      dup3\n      and\n      0x00\n      swap1\n      dup2\n      mstore\n        /* \"contracts/FNFT.sol\":34217:34226  _balances */\n      0x03\n        /* \"contracts/FNFT.sol\":34217:34230  _balances[to] */\n      0x20\n      mstore\n      0x40\n      dup2\n      keccak256\n        /* \"contracts/FNFT.sol\":34217:34235  _balances[to] += 1 */\n      dup1\n      sload\n        /* \"contracts/FNFT.sol\":34234:34235  1 */\n      0x01\n      swap3\n        /* \"contracts/FNFT.sol\":34217:34230  _balances[to] */\n      swap1\n        /* \"contracts/FNFT.sol\":34217:34235  _balances[to] += 1 */\n      tag_345\n      swap1\n        /* \"contracts/FNFT.sol\":34234:34235  1 */\n      dup5\n      swap1\n        /* \"contracts/FNFT.sol\":34217:34235  _balances[to] += 1 */\n      tag_346\n      jump\t// in\n    tag_345:\n      swap1\n      swap2\n      sstore\n      pop\n      pop\n        /* \"contracts/FNFT.sol\":34245:34261  _owners[tokenId] */\n      0x00\n      dup2\n      dup2\n      mstore\n        /* \"contracts/FNFT.sol\":34245:34252  _owners */\n      0x02\n        /* \"contracts/FNFT.sol\":34245:34261  _owners[tokenId] */\n      0x20\n      mstore\n      0x40\n      dup1\n      dup3\n      keccak256\n        /* \"contracts/FNFT.sol\":34245:34266  _owners[tokenId] = to */\n      dup1\n      sload\n      not(sub(shl(0xa0, 0x01), 0x01))\n      and\n      sub(shl(0xa0, 0x01), 0x01)\n      dup7\n      dup2\n      and\n      swap2\n      dup3\n      or\n      swap1\n      swap3\n      sstore\n        /* \"contracts/FNFT.sol\":34282:34309  Transfer(from, to, tokenId) */\n      swap2\n      mload\n        /* \"contracts/FNFT.sol\":34245:34261  _owners[tokenId] */\n      dup5\n      swap4\n        /* \"contracts/FNFT.sol\":34282:34309  Transfer(from, to, tokenId) */\n      swap2\n      dup8\n      and\n      swap2\n      0xddf252ad1be2c89b69c2b068fc378daa952ba7f163c4a11628f55a4df523b3ef\n      swap2\n      log4\n        /* \"contracts/FNFT.sol\":26915:27246  {... */\n      pop\n        /* \"contracts/FNFT.sol\":26845:27246  function approve(address to, uint256 tokenId) public virtual override {... */\n      pop\n      pop\n      jump\t// out\n        /* \"contracts/FNFT.sol\":32386:32813  function _mint(address to, uint256 tokenId) internal virtual {... */\n    tag_238:\n      sub(shl(0xa0, 0x01), 0x01)\n        /* \"contracts/FNFT.sol\":32465:32481  to != address(0) */\n      dup3\n      and\n        /* \"contracts/FNFT.sol\":32457:32518  require(to != address(0), \"ERC721: mint to the zero address\") */\n      tag_352\n      jumpi\n      mload(0x40)\n      shl(0xe5, 0x461bcd)\n      dup2\n      mstore\n        /* \"#utility.yul\":11637:11639   */\n      0x20\n        /* \"contracts/FNFT.sol\":32457:32518  require(to != address(0), \"ERC721: mint to the zero address\") */\n      0x04\n      dup3\n      add\n        /* \"#utility.yul\":11619:11640   */\n      dup2\n      swap1\n      mstore\n        /* \"#utility.yul\":11656:11674   */\n      0x24\n      dup3\n      add\n        /* \"#utility.yul\":11649:11679   */\n      mstore\n        /* \"#utility.yul\":11715:11749   */\n      0x4552433732313a206d696e7420746f20746865207a65726f2061646472657373\n        /* \"#utility.yul\":11695:11713   */\n      0x44\n      dup3\n      add\n        /* \"#utility.yul\":11688:11750   */\n      mstore\n        /* \"#utility.yul\":11767:11785   */\n      0x64\n      add\n        /* \"contracts/FNFT.sol\":32457:32518  require(to != address(0), \"ERC721: mint to the zero address\") */\n      tag_177\n        /* \"#utility.yul\":11435:11791   */\n      jump\n        /* \"contracts/FNFT.sol\":32457:32518  require(to != address(0), \"ERC721: mint to the zero address\") */\n    tag_352:\n        /* \"contracts/FNFT.sol\":32537:32553  _exists(tokenId) */\n      tag_355\n        /* \"contracts/FNFT.sol\":32545:32552  tokenId */\n      dup2\n        /* \"contracts/FNFT.sol\":32537:32544  _exists */\n      tag_175\n        /* \"contracts/FNFT.sol\":32537:32553  _exists(tokenId) */\n      jump\t// in\n    tag_355:\n        /* \"contracts/FNFT.sol\":32536:32553  !_exists(tokenId) */\n      iszero\n        /* \"contracts/FNFT.sol\":32528:32586  require(!_exists(tokenId), \"ERC721: token already minted\") */\n      tag_356\n      jumpi\n      mload(0x40)\n      shl(0xe5, 0x461bcd)\n      dup2\n      mstore\n        /* \"#utility.yul\":8447:8449   */\n      0x20\n        /* \"contracts/FNFT.sol\":32528:32586  require(!_exists(tokenId), \"ERC721: token already minted\") */\n      0x04\n      dup3\n      add\n        /* \"#utility.yul\":8429:8450   */\n      mstore\n        /* \"#utility.yul\":8486:8488   */\n      0x1c\n        /* \"#utility.yul\":8466:8484   */\n      0x24\n      dup3\n      add\n        /* \"#utility.yul\":8459:8489   */\n      mstore\n        /* \"#utility.yul\":8525:8555   */\n      0x4552433732313a20746f6b656e20616c7265616479206d696e74656400000000\n        /* \"#utility.yul\":8505:8523   */\n      0x44\n      dup3\n      add\n        /* \"#utility.yul\":8498:8556   */\n      mstore\n        /* \"#utility.yul\":8573:8591   */\n      0x64\n      add\n        /* \"contracts/FNFT.sol\":32528:32586  require(!_exists(tokenId), \"ERC721: token already minted\") */\n      tag_177\n        /* \"#utility.yul\":8245:8597   */\n      jump\n        /* \"contracts/FNFT.sol\":32528:32586  require(!_exists(tokenId), \"ERC721: token already minted\") */\n    tag_356:\n      sub(shl(0xa0, 0x01), 0x01)\n        /* \"contracts/FNFT.sol\":32653:32666  _balances[to] */\n      dup3\n      and\n      0x00\n      swap1\n      dup2\n      mstore\n        /* \"contracts/FNFT.sol\":32653:32662  _balances */\n      0x03\n        /* \"contracts/FNFT.sol\":32653:32666  _balances[to] */\n      0x20\n      mstore\n      0x40\n      dup2\n      keccak256\n        /* \"contracts/FNFT.sol\":32653:32671  _balances[to] += 1 */\n      dup1\n      sload\n        /* \"contracts/FNFT.sol\":32670:32671  1 */\n      0x01\n      swap3\n        /* \"contracts/FNFT.sol\":32653:32666  _balances[to] */\n      swap1\n        /* \"contracts/FNFT.sol\":32653:32671  _balances[to] += 1 */\n      tag_360\n      swap1\n        /* \"contracts/FNFT.sol\":32670:32671  1 */\n      dup5\n      swap1\n        /* \"contracts/FNFT.sol\":32653:32671  _balances[to] += 1 */\n      tag_346\n      jump\t// in\n    tag_360:\n      swap1\n      swap2\n      sstore\n      pop\n      pop\n        /* \"contracts/FNFT.sol\":32681:32697  _owners[tokenId] */\n      0x00\n      dup2\n      dup2\n      mstore\n        /* \"contracts/FNFT.sol\":32681:32688  _owners */\n      0x02\n        /* \"contracts/FNFT.sol\":32681:32697  _owners[tokenId] */\n      0x20\n      mstore\n      0x40\n      dup1\n      dup3\n      keccak256\n        /* \"contracts/FNFT.sol\":32681:32702  _owners[tokenId] = to */\n      dup1\n      sload\n      not(sub(shl(0xa0, 0x01), 0x01))\n      and\n      sub(shl(0xa0, 0x01), 0x01)\n      dup7\n      and\n      swap1\n      dup2\n      or\n      swap1\n      swap2\n      sstore\n        /* \"contracts/FNFT.sol\":32718:32751  Transfer(address(0), to, tokenId) */\n      swap1\n      mload\n        /* \"contracts/FNFT.sol\":32681:32697  _owners[tokenId] */\n      dup4\n      swap3\n      swap1\n        /* \"contracts/FNFT.sol\":32718:32751  Transfer(address(0), to, tokenId) */\n      0xddf252ad1be2c89b69c2b068fc378daa952ba7f163c4a11628f55a4df523b3ef\n      swap1\n        /* \"contracts/FNFT.sol\":32681:32697  _owners[tokenId] */\n      dup3\n      swap1\n        /* \"contracts/FNFT.sol\":32718:32751  Transfer(address(0), to, tokenId) */\n      log4\n        /* \"contracts/FNFT.sol\":27591:27744  function setApprovalForAll(address operator, bool approved) public virtual override {... */\n      pop\n      pop\n      jump\t// out\n        /* \"contracts/FNFT.sol\":38894:39108  function _setTokenURI(uint256 tokenId, string memory _tokenURI) internal virtual {... */\n    tag_240:\n        /* \"contracts/FNFT.sol\":38993:39009  _exists(tokenId) */\n      tag_363\n        /* \"contracts/FNFT.sol\":39001:39008  tokenId */\n      dup3\n        /* \"contracts/FNFT.sol\":38993:39000  _exists */\n      tag_175\n        /* \"contracts/FNFT.sol\":38993:39009  _exists(tokenId) */\n      jump\t// in\n    tag_363:\n        /* \"contracts/FNFT.sol\":38985:39060  require(_exists(tokenId), \"ERC721URIStorage: URI set of nonexistent token\") */\n      tag_364\n      jumpi\n      mload(0x40)\n      shl(0xe5, 0x461bcd)\n      dup2\n      mstore\n        /* \"#utility.yul\":11222:11224   */\n      0x20\n        /* \"contracts/FNFT.sol\":38985:39060  require(_exists(tokenId), \"ERC721URIStorage: URI set of nonexistent token\") */\n      0x04\n      dup3\n      add\n        /* \"#utility.yul\":11204:11225   */\n      mstore\n        /* \"#utility.yul\":11261:11263   */\n      0x2e\n        /* \"#utility.yul\":11241:11259   */\n      0x24\n      dup3\n      add\n        /* \"#utility.yul\":11234:11264   */\n      mstore\n        /* \"#utility.yul\":11300:11334   */\n      0x45524337323155524953746f726167653a2055524920736574206f66206e6f6e\n        /* \"#utility.yul\":11280:11298   */\n      0x44\n      dup3\n      add\n        /* \"#utility.yul\":11273:11335   */\n      mstore\n      shl(0x91, 0x32bc34b9ba32b73a103a37b5b2b7)\n        /* \"#utility.yul\":11351:11369   */\n      0x64\n      dup3\n      add\n        /* \"#utility.yul\":11344:11388   */\n      mstore\n        /* \"#utility.yul\":11405:11424   */\n      0x84\n      add\n        /* \"contracts/FNFT.sol\":38985:39060  require(_exists(tokenId), \"ERC721URIStorage: URI set of nonexistent token\") */\n      tag_177\n        /* \"#utility.yul\":11020:11430   */\n      jump\n        /* \"contracts/FNFT.sol\":38985:39060  require(_exists(tokenId), \"ERC721URIStorage: URI set of nonexistent token\") */\n    tag_364:\n        /* \"contracts/FNFT.sol\":39070:39089  _tokenURIs[tokenId] */\n      0x00\n      dup3\n      dup2\n      mstore\n        /* \"contracts/FNFT.sol\":39070:39080  _tokenURIs */\n      0x06\n        /* \"contracts/FNFT.sol\":39070:39089  _tokenURIs[tokenId] */\n      0x20\n      swap1\n      dup2\n      mstore\n      0x40\n      swap1\n      swap2\n      keccak256\n        /* \"contracts/FNFT.sol\":39070:39101  _tokenURIs[tokenId] = _tokenURI */\n      dup3\n      mload\n      tag_192\n      swap3\n      dup5\n      add\n      swap1\n      tag_368\n      jump\t// in\n        /* \"contracts/FNFT.sol\":6665:6852  function _transferOwnership(address newOwner) internal virtual {... */\n    tag_263:\n        /* \"contracts/FNFT.sol\":6757:6763  _owner */\n      0x07\n      dup1\n      sload\n      sub(shl(0xa0, 0x01), 0x01)\n        /* \"contracts/FNFT.sol\":6773:6790  _owner = newOwner */\n      dup4\n      dup2\n      and\n      not(sub(shl(0xa0, 0x01), 0x01))\n      dup4\n      and\n      dup2\n      or\n      swap1\n      swap4\n      sstore\n        /* \"contracts/FNFT.sol\":6805:6845  OwnershipTransferred(oldOwner, newOwner) */\n      mload(0x40)\n        /* \"contracts/FNFT.sol\":6757:6763  _owner */\n      swap2\n      and\n      swap2\n        /* \"contracts/FNFT.sol\":6773:6790  _owner = newOwner */\n      swap1\n        /* \"contracts/FNFT.sol\":6757:6763  _owner */\n      dup3\n      swap1\n        /* \"contracts/FNFT.sol\":6805:6845  OwnershipTransferred(oldOwner, newOwner) */\n      0x8be0079c531659141344cd1fd0a4f28419497f9722a3daafe3b4186f6b6457e0\n      swap1\n        /* \"contracts/FNFT.sol\":6738:6754  address oldOwner */\n      0x00\n      swap1\n        /* \"contracts/FNFT.sol\":6805:6845  OwnershipTransferred(oldOwner, newOwner) */\n      log3\n        /* \"contracts/FNFT.sol\":6728:6852  {... */\n      pop\n        /* \"contracts/FNFT.sol\":6665:6852  function _transferOwnership(address newOwner) internal virtual {... */\n      pop\n      jump\t// out\n        /* \"contracts/FNFT.sol\":34782:35089  function _setApprovalForAll(... */\n    tag_282:\n        /* \"contracts/FNFT.sol\":34932:34940  operator */\n      dup2\n      sub(shl(0xa0, 0x01), 0x01)\n        /* \"contracts/FNFT.sol\":34923:34940  owner != operator */\n      and\n        /* \"contracts/FNFT.sol\":34923:34928  owner */\n      dup4\n      sub(shl(0xa0, 0x01), 0x01)\n        /* \"contracts/FNFT.sol\":34923:34940  owner != operator */\n      and\n      eq\n      iszero\n        /* \"contracts/FNFT.sol\":34915:34970  require(owner != operator, \"ERC721: approve to caller\") */\n      tag_371\n      jumpi\n      mload(0x40)\n      shl(0xe5, 0x461bcd)\n      dup2\n      mstore\n        /* \"#utility.yul\":9209:9211   */\n      0x20\n        /* \"contracts/FNFT.sol\":34915:34970  require(owner != operator, \"ERC721: approve to caller\") */\n      0x04\n      dup3\n      add\n        /* \"#utility.yul\":9191:9212   */\n      mstore\n        /* \"#utility.yul\":9248:9250   */\n      0x19\n        /* \"#utility.yul\":9228:9246   */\n      0x24\n      dup3\n      add\n        /* \"#utility.yul\":9221:9251   */\n      mstore\n        /* \"#utility.yul\":9287:9314   */\n      0x4552433732313a20617070726f766520746f2063616c6c657200000000000000\n        /* \"#utility.yul\":9267:9285   */\n      0x44\n      dup3\n      add\n        /* \"#utility.yul\":9260:9315   */\n      mstore\n        /* \"#utility.yul\":9332:9350   */\n      0x64\n      add\n        /* \"contracts/FNFT.sol\":34915:34970  require(owner != operator, \"ERC721: approve to caller\") */\n      tag_177\n        /* \"#utility.yul\":9007:9356   */\n      jump\n        /* \"contracts/FNFT.sol\":34915:34970  require(owner != operator, \"ERC721: approve to caller\") */\n    tag_371:\n      sub(shl(0xa0, 0x01), 0x01)\n        /* \"contracts/FNFT.sol\":34980:35005  _operatorApprovals[owner] */\n      dup4\n      dup2\n      and\n      0x00\n      dup2\n      dup2\n      mstore\n        /* \"contracts/FNFT.sol\":34980:34998  _operatorApprovals */\n      0x05\n        /* \"contracts/FNFT.sol\":34980:35005  _operatorApprovals[owner] */\n      0x20\n      swap1\n      dup2\n      mstore\n      0x40\n      dup1\n      dup4\n      keccak256\n        /* \"contracts/FNFT.sol\":34980:35015  _operatorApprovals[owner][operator] */\n      swap5\n      dup8\n      and\n      dup1\n      dup5\n      mstore\n      swap5\n      dup3\n      mstore\n      swap2\n      dup3\n      swap1\n      keccak256\n        /* \"contracts/FNFT.sol\":34980:35026  _operatorApprovals[owner][operator] = approved */\n      dup1\n      sload\n      not(0xff)\n      and\n      dup7\n      iszero\n      iszero\n      swap1\n      dup2\n      or\n      swap1\n      swap2\n      sstore\n        /* \"contracts/FNFT.sol\":35041:35082  ApprovalForAll(owner, operator, approved) */\n      swap2\n      mload\n        /* \"#utility.yul\":6401:6442   */\n      swap2\n      dup3\n      mstore\n        /* \"contracts/FNFT.sol\":35041:35082  ApprovalForAll(owner, operator, approved) */\n      0x17307eab39ab6107e8899845ad3d59bd9653f200f220920489ca2b5937696c31\n      swap2\n        /* \"#utility.yul\":6374:6392   */\n      add\n        /* \"contracts/FNFT.sol\":35041:35082  ApprovalForAll(owner, operator, approved) */\n      mload(0x40)\n      dup1\n      swap2\n      sub\n      swap1\n      log3\n        /* \"contracts/FNFT.sol\":34782:35089  function _setApprovalForAll(... */\n      pop\n      pop\n      pop\n      jump\t// out\n        /* \"contracts/FNFT.sol\":29857:30164  function _safeTransfer(... */\n    tag_289:\n        /* \"contracts/FNFT.sol\":30008:30036  _transfer(from, to, tokenId) */\n      tag_376\n        /* \"contracts/FNFT.sol\":30018:30022  from */\n      dup5\n        /* \"contracts/FNFT.sol\":30024:30026  to */\n      dup5\n        /* \"contracts/FNFT.sol\":30028:30035  tokenId */\n      dup5\n        /* \"contracts/FNFT.sol\":30008:30017  _transfer */\n      tag_220\n        /* \"contracts/FNFT.sol\":30008:30036  _transfer(from, to, tokenId) */\n      jump\t// in\n    tag_376:\n        /* \"contracts/FNFT.sol\":30054:30102  _checkOnERC721Received(from, to, tokenId, _data) */\n      tag_377\n        /* \"contracts/FNFT.sol\":30077:30081  from */\n      dup5\n        /* \"contracts/FNFT.sol\":30083:30085  to */\n      dup5\n        /* \"contracts/FNFT.sol\":30087:30094  tokenId */\n      dup5\n        /* \"contracts/FNFT.sol\":30096:30101  _data */\n      dup5\n        /* \"contracts/FNFT.sol\":30054:30076  _checkOnERC721Received */\n      tag_378\n        /* \"contracts/FNFT.sol\":30054:30102  _checkOnERC721Received(from, to, tokenId, _data) */\n      jump\t// in\n    tag_377:\n        /* \"contracts/FNFT.sol\":30046:30157  require(_checkOnERC721Received(from, to, tokenId, _data), \"ERC721: transfer to non ERC721Receiver implementer\") */\n      tag_288\n      jumpi\n      mload(0x40)\n      shl(0xe5, 0x461bcd)\n      dup2\n      mstore\n      0x04\n      add\n      tag_177\n      swap1\n      tag_381\n      jump\t// in\n        /* \"contracts/FNFT.sol\":38084:38747  function tokenURI(uint256 tokenId) public view virtual override returns (string memory) {... */\n    tag_292:\n        /* \"contracts/FNFT.sol\":38157:38170  string memory */\n      0x60\n        /* \"contracts/FNFT.sol\":38190:38206  _exists(tokenId) */\n      tag_383\n        /* \"contracts/FNFT.sol\":38198:38205  tokenId */\n      dup3\n        /* \"contracts/FNFT.sol\":38190:38197  _exists */\n      tag_175\n        /* \"contracts/FNFT.sol\":38190:38206  _exists(tokenId) */\n      jump\t// in\n    tag_383:\n        /* \"contracts/FNFT.sol\":38182:38260  require(_exists(tokenId), \"ERC721URIStorage: URI query for nonexistent token\") */\n      tag_384\n      jumpi\n      mload(0x40)\n      shl(0xe5, 0x461bcd)\n      dup2\n      mstore\n        /* \"#utility.yul\":11998:12000   */\n      0x20\n        /* \"contracts/FNFT.sol\":38182:38260  require(_exists(tokenId), \"ERC721URIStorage: URI query for nonexistent token\") */\n      0x04\n      dup3\n      add\n        /* \"#utility.yul\":11980:12001   */\n      mstore\n        /* \"#utility.yul\":12037:12039   */\n      0x31\n        /* \"#utility.yul\":12017:12035   */\n      0x24\n      dup3\n      add\n        /* \"#utility.yul\":12010:12040   */\n      mstore\n        /* \"#utility.yul\":12076:12110   */\n      0x45524337323155524953746f726167653a2055524920717565727920666f7220\n        /* \"#utility.yul\":12056:12074   */\n      0x44\n      dup3\n      add\n        /* \"#utility.yul\":12049:12111   */\n      mstore\n      shl(0x79, 0x3737b732bc34b9ba32b73a103a37b5b2b7)\n        /* \"#utility.yul\":12127:12145   */\n      0x64\n      dup3\n      add\n        /* \"#utility.yul\":12120:12167   */\n      mstore\n        /* \"#utility.yul\":12184:12203   */\n      0x84\n      add\n        /* \"contracts/FNFT.sol\":38182:38260  require(_exists(tokenId), \"ERC721URIStorage: URI query for nonexistent token\") */\n      tag_177\n        /* \"#utility.yul\":11796:12209   */\n      jump\n        /* \"contracts/FNFT.sol\":38182:38260  require(_exists(tokenId), \"ERC721URIStorage: URI query for nonexistent token\") */\n    tag_384:\n        /* \"contracts/FNFT.sol\":38271:38294  string memory _tokenURI */\n      0x00\n        /* \"contracts/FNFT.sol\":38297:38316  _tokenURIs[tokenId] */\n      dup3\n      dup2\n      mstore\n        /* \"contracts/FNFT.sol\":38297:38307  _tokenURIs */\n      0x06\n        /* \"contracts/FNFT.sol\":38297:38316  _tokenURIs[tokenId] */\n      0x20\n      mstore\n      0x40\n      dup2\n      keccak256\n        /* \"contracts/FNFT.sol\":38271:38316  string memory _tokenURI = _tokenURIs[tokenId] */\n      dup1\n      sload\n      tag_387\n      swap1\n      tag_168\n      jump\t// in\n    tag_387:\n      dup1\n      0x1f\n      add\n      0x20\n      dup1\n      swap2\n      div\n      mul\n      0x20\n      add\n      mload(0x40)\n      swap1\n      dup2\n      add\n      0x40\n      mstore\n      dup1\n      swap3\n      swap2\n      swap1\n      dup2\n      dup2\n      mstore\n      0x20\n      add\n      dup3\n      dup1\n      sload\n      tag_388\n      swap1\n      tag_168\n      jump\t// in\n    tag_388:\n      dup1\n      iszero\n      tag_389\n      jumpi\n      dup1\n      0x1f\n      lt\n      tag_390\n      jumpi\n      0x0100\n      dup1\n      dup4\n      sload\n      div\n      mul\n      dup4\n      mstore\n      swap2\n      0x20\n      add\n      swap2\n      jump(tag_389)\n    tag_390:\n      dup3\n      add\n      swap2\n      swap1\n      0x00\n      mstore\n      keccak256(0x00, 0x20)\n      swap1\n    tag_391:\n      dup2\n      sload\n      dup2\n      mstore\n      swap1\n      0x01\n      add\n      swap1\n      0x20\n      add\n      dup1\n      dup4\n      gt\n      tag_391\n      jumpi\n      dup3\n      swap1\n      sub\n      0x1f\n      and\n      dup3\n      add\n      swap2\n    tag_389:\n      pop\n      pop\n      pop\n      pop\n      pop\n      swap1\n      pop\n        /* \"contracts/FNFT.sol\":38326:38344  string memory base */\n      0x00\n        /* \"contracts/FNFT.sol\":38347:38357  _baseURI() */\n      tag_392\n        /* \"contracts/FNFT.sol\":40926:40942  return \"ipfs://\" */\n      0x40\n      dup1\n      mload\n      dup1\n      dup3\n      add\n      swap1\n      swap2\n      mstore\n      0x07\n      dup2\n      mstore\n      shl(0xc8, 0x697066733a2f2f)\n      0x20\n      dup3\n      add\n      mstore\n      swap1\n        /* \"contracts/FNFT.sol\":40849:40949  function _baseURI() internal pure override returns (string memory) {... */\n      jump\n        /* \"contracts/FNFT.sol\":38347:38357  _baseURI() */\n    tag_392:\n        /* \"contracts/FNFT.sol\":38326:38357  string memory base = _baseURI() */\n      swap1\n      pop\n        /* \"contracts/FNFT.sol\":38436:38440  base */\n      dup1\n        /* \"contracts/FNFT.sol\":38430:38448  bytes(base).length */\n      mload\n        /* \"contracts/FNFT.sol\":38452:38453  0 */\n      0x00\n        /* \"contracts/FNFT.sol\":38430:38453  bytes(base).length == 0 */\n      eq\n        /* \"contracts/FNFT.sol\":38426:38496  if (bytes(base).length == 0) {... */\n      iszero\n      tag_394\n      jumpi\n      pop\n        /* \"contracts/FNFT.sol\":38476:38485  _tokenURI */\n      swap3\n        /* \"contracts/FNFT.sol\":38084:38747  function tokenURI(uint256 tokenId) public view virtual override returns (string memory) {... */\n      swap2\n      pop\n      pop\n      jump\t// out\n        /* \"contracts/FNFT.sol\":38426:38496  if (bytes(base).length == 0) {... */\n    tag_394:\n        /* \"contracts/FNFT.sol\":38598:38621  bytes(_tokenURI).length */\n      dup2\n      mload\n        /* \"contracts/FNFT.sol\":38598:38625  bytes(_tokenURI).length > 0 */\n      iszero\n        /* \"contracts/FNFT.sol\":38594:38700  if (bytes(_tokenURI).length > 0) {... */\n      tag_395\n      jumpi\n        /* \"contracts/FNFT.sol\":38672:38676  base */\n      dup1\n        /* \"contracts/FNFT.sol\":38678:38687  _tokenURI */\n      dup3\n        /* \"contracts/FNFT.sol\":38655:38688  abi.encodePacked(base, _tokenURI) */\n      add(0x20, mload(0x40))\n      tag_396\n      swap3\n      swap2\n      swap1\n      tag_397\n      jump\t// in\n    tag_396:\n      mload(0x40)\n      0x20\n      dup2\n      dup4\n      sub\n      sub\n      dup2\n      mstore\n      swap1\n      0x40\n      mstore\n        /* \"contracts/FNFT.sol\":38641:38689  return string(abi.encodePacked(base, _tokenURI)) */\n      swap3\n      pop\n      pop\n      pop\n        /* \"contracts/FNFT.sol\":38084:38747  function tokenURI(uint256 tokenId) public view virtual override returns (string memory) {... */\n      swap2\n      swap1\n      pop\n      jump\t// out\n        /* \"contracts/FNFT.sol\":38594:38700  if (bytes(_tokenURI).length > 0) {... */\n    tag_395:\n        /* \"contracts/FNFT.sol\":38717:38740  super.tokenURI(tokenId) */\n      tag_331\n        /* \"contracts/FNFT.sol\":38732:38739  tokenId */\n      dup5\n        /* \"contracts/FNFT.sol\":38717:38731  super.tokenURI */\n      tag_399\n        /* \"contracts/FNFT.sol\":38717:38740  super.tokenURI(tokenId) */\n      jump\t// in\n        /* \"contracts/FNFT.sol\":31753:32064  function _safeMint(... */\n    tag_321:\n        /* \"contracts/FNFT.sol\":31878:31896  _mint(to, tokenId) */\n      tag_401\n        /* \"contracts/FNFT.sol\":31884:31886  to */\n      dup4\n        /* \"contracts/FNFT.sol\":31888:31895  tokenId */\n      dup4\n        /* \"contracts/FNFT.sol\":31878:31883  _mint */\n      tag_238\n        /* \"contracts/FNFT.sol\":31878:31896  _mint(to, tokenId) */\n      jump\t// in\n    tag_401:\n        /* \"contracts/FNFT.sol\":31927:31981  _checkOnERC721Received(address(0), to, tokenId, _data) */\n      tag_402\n        /* \"contracts/FNFT.sol\":31958:31959  0 */\n      0x00\n        /* \"contracts/FNFT.sol\":31962:31964  to */\n      dup5\n        /* \"contracts/FNFT.sol\":31966:31973  tokenId */\n      dup5\n        /* \"contracts/FNFT.sol\":31975:31980  _data */\n      dup5\n        /* \"contracts/FNFT.sol\":31927:31949  _checkOnERC721Received */\n      tag_378\n        /* \"contracts/FNFT.sol\":31927:31981  _checkOnERC721Received(address(0), to, tokenId, _data) */\n      jump\t// in\n    tag_402:\n        /* \"contracts/FNFT.sol\":31906:32057  require(... */\n      tag_192\n      jumpi\n      mload(0x40)\n      shl(0xe5, 0x461bcd)\n      dup2\n      mstore\n      0x04\n      add\n      tag_177\n      swap1\n      tag_381\n      jump\t// in\n        /* \"contracts/FNFT.sol\":35642:36420  function _checkOnERC721Received(... */\n    tag_378:\n        /* \"contracts/FNFT.sol\":35792:35796  bool */\n      0x00\n      sub(shl(0xa0, 0x01), 0x01)\n        /* \"contracts/FNFT.sol\":35812:35825  to.isContract */\n      dup5\n      and\n        /* \"contracts/FNFT.sol\":8342:8361  account.code.length */\n      extcodesize\n        /* \"contracts/FNFT.sol\":8342:8365  account.code.length > 0 */\n      iszero\n        /* \"contracts/FNFT.sol\":35808:36414  if (to.isContract()) {... */\n      tag_410\n      jumpi\n        /* \"contracts/FNFT.sol\":35847:35919  IERC721Receiver(to).onERC721Received(_msgSender(), from, tokenId, _data) */\n      mload(0x40)\n      shl(0xe1, 0x0a85bd01)\n      dup2\n      mstore\n      sub(shl(0xa0, 0x01), 0x01)\n        /* \"contracts/FNFT.sol\":35847:35883  IERC721Receiver(to).onERC721Received */\n      dup6\n      and\n      swap1\n      0x150b7a02\n      swap1\n        /* \"contracts/FNFT.sol\":35847:35919  IERC721Receiver(to).onERC721Received(_msgSender(), from, tokenId, _data) */\n      tag_412\n      swap1\n        /* \"contracts/FNFT.sol\":4278:4288  msg.sender */\n      caller\n      swap1\n        /* \"contracts/FNFT.sol\":35898:35902  from */\n      dup10\n      swap1\n        /* \"contracts/FNFT.sol\":35904:35911  tokenId */\n      dup9\n      swap1\n        /* \"contracts/FNFT.sol\":35913:35918  _data */\n      dup9\n      swap1\n        /* \"contracts/FNFT.sol\":35847:35919  IERC721Receiver(to).onERC721Received(_msgSender(), from, tokenId, _data) */\n      0x04\n      add\n      tag_413\n      jump\t// in\n    tag_412:\n      0x20\n      mload(0x40)\n      dup1\n      dup4\n      sub\n      dup2\n      0x00\n      dup8\n      dup1\n      extcodesize\n      iszero\n      dup1\n      iszero\n      tag_414\n      jumpi\n      0x00\n      dup1\n      revert\n    tag_414:\n      pop\n      gas\n      call\n      swap3\n      pop\n      pop\n      pop\n      dup1\n      iszero\n      tag_415\n      jumpi\n      pop\n      0x40\n      dup1\n      mload\n      0x1f\n      returndatasize\n      swap1\n      dup2\n      add\n      not(0x1f)\n      and\n      dup3\n      add\n      swap1\n      swap3\n      mstore\n      tag_416\n      swap2\n      dup2\n      add\n      swap1\n      tag_417\n      jump\t// in\n    tag_416:\n      0x01\n    tag_415:\n        /* \"contracts/FNFT.sol\":35843:36362  try IERC721Receiver(to).onERC721Received(_msgSender(), from, tokenId, _data) returns (bytes4 retval) {... */\n      tag_418\n      jumpi\n      returndatasize\n      dup1\n      dup1\n      iszero\n      tag_423\n      jumpi\n      mload(0x40)\n      swap2\n      pop\n      and(add(returndatasize, 0x3f), not(0x1f))\n      dup3\n      add\n      0x40\n      mstore\n      returndatasize\n      dup3\n      mstore\n      returndatasize\n      0x00\n      0x20\n      dup5\n      add\n      returndatacopy\n      jump(tag_422)\n    tag_423:\n      0x60\n      swap2\n      pop\n    tag_422:\n      pop\n        /* \"contracts/FNFT.sol\":36086:36099  reason.length */\n      dup1\n      mload\n        /* \"contracts/FNFT.sol\":36082:36348  if (reason.length == 0) {... */\n      tag_424\n      jumpi\n        /* \"contracts/FNFT.sol\":36128:36188  revert(\"ERC721: transfer to non ERC721Receiver implementer\") */\n      mload(0x40)\n      shl(0xe5, 0x461bcd)\n      dup2\n      mstore\n      0x04\n      add\n      tag_177\n      swap1\n      tag_381\n      jump\t// in\n        /* \"contracts/FNFT.sol\":36082:36348  if (reason.length == 0) {... */\n    tag_424:\n        /* \"contracts/FNFT.sol\":36300:36306  reason */\n      dup1\n        /* \"contracts/FNFT.sol\":36294:36307  mload(reason) */\n      mload\n        /* \"contracts/FNFT.sol\":36285:36291  reason */\n      dup2\n        /* \"contracts/FNFT.sol\":36281:36283  32 */\n      0x20\n        /* \"contracts/FNFT.sol\":36277:36292  add(32, reason) */\n      add\n        /* \"contracts/FNFT.sol\":36270:36308  revert(add(32, reason), mload(reason)) */\n      revert\n        /* \"contracts/FNFT.sol\":35843:36362  try IERC721Receiver(to).onERC721Received(_msgSender(), from, tokenId, _data) returns (bytes4 retval) {... */\n    tag_418:\n      not(sub(shl(0xe0, 0x01), 0x01))\n        /* \"contracts/FNFT.sol\":35969:36020  retval == IERC721Receiver.onERC721Received.selector */\n      and\n      shl(0xe1, 0x0a85bd01)\n      eq\n      swap1\n      pop\n        /* \"contracts/FNFT.sol\":35962:36020  return retval == IERC721Receiver.onERC721Received.selector */\n      jump(tag_331)\n        /* \"contracts/FNFT.sol\":35808:36414  if (to.isContract()) {... */\n    tag_410:\n      pop\n        /* \"contracts/FNFT.sol\":36399:36403  true */\n      0x01\n        /* \"contracts/FNFT.sol\":35642:36420  function _checkOnERC721Received(... */\n      swap5\n      swap4\n      pop\n      pop\n      pop\n      pop\n      jump\t// out\n        /* \"contracts/FNFT.sol\":26126:26455  function tokenURI(uint256 tokenId) public view virtual override returns (string memory) {... */\n    tag_399:\n        /* \"contracts/FNFT.sol\":26199:26212  string memory */\n      0x60\n        /* \"contracts/FNFT.sol\":26232:26248  _exists(tokenId) */\n      tag_431\n        /* \"contracts/FNFT.sol\":26240:26247  tokenId */\n      dup3\n        /* \"contracts/FNFT.sol\":26232:26239  _exists */\n      tag_175\n        /* \"contracts/FNFT.sol\":26232:26248  _exists(tokenId) */\n      jump\t// in\n    tag_431:\n        /* \"contracts/FNFT.sol\":26224:26300  require(_exists(tokenId), \"ERC721Metadata: URI query for nonexistent token\") */\n      tag_432\n      jumpi\n      mload(0x40)\n      shl(0xe5, 0x461bcd)\n      dup2\n      mstore\n        /* \"#utility.yul\":13538:13540   */\n      0x20\n        /* \"contracts/FNFT.sol\":26224:26300  require(_exists(tokenId), \"ERC721Metadata: URI query for nonexistent token\") */\n      0x04\n      dup3\n      add\n        /* \"#utility.yul\":13520:13541   */\n      mstore\n        /* \"#utility.yul\":13577:13579   */\n      0x2f\n        /* \"#utility.yul\":13557:13575   */\n      0x24\n      dup3\n      add\n        /* \"#utility.yul\":13550:13580   */\n      mstore\n        /* \"#utility.yul\":13616:13650   */\n      0x4552433732314d657461646174613a2055524920717565727920666f72206e6f\n        /* \"#utility.yul\":13596:13614   */\n      0x44\n      dup3\n      add\n        /* \"#utility.yul\":13589:13651   */\n      mstore\n      shl(0x89, 0x3732bc34b9ba32b73a103a37b5b2b7)\n        /* \"#utility.yul\":13667:13685   */\n      0x64\n      dup3\n      add\n        /* \"#utility.yul\":13660:13705   */\n      mstore\n        /* \"#utility.yul\":13722:13741   */\n      0x84\n      add\n        /* \"contracts/FNFT.sol\":26224:26300  require(_exists(tokenId), \"ERC721Metadata: URI query for nonexistent token\") */\n      tag_177\n        /* \"#utility.yul\":13336:13747   */\n      jump\n        /* \"contracts/FNFT.sol\":26224:26300  require(_exists(tokenId), \"ERC721Metadata: URI query for nonexistent token\") */\n    tag_432:\n        /* \"contracts/FNFT.sol\":26311:26332  string memory baseURI */\n      0x00\n        /* \"contracts/FNFT.sol\":26335:26345  _baseURI() */\n      tag_435\n        /* \"contracts/FNFT.sol\":40926:40942  return \"ipfs://\" */\n      0x40\n      dup1\n      mload\n      dup1\n      dup3\n      add\n      swap1\n      swap2\n      mstore\n      0x07\n      dup2\n      mstore\n      shl(0xc8, 0x697066733a2f2f)\n      0x20\n      dup3\n      add\n      mstore\n      swap1\n        /* \"contracts/FNFT.sol\":40849:40949  function _baseURI() internal pure override returns (string memory) {... */\n      jump\n        /* \"contracts/FNFT.sol\":26335:26345  _baseURI() */\n    tag_435:\n        /* \"contracts/FNFT.sol\":26311:26345  string memory baseURI = _baseURI() */\n      swap1\n      pop\n        /* \"contracts/FNFT.sol\":26386:26387  0 */\n      0x00\n        /* \"contracts/FNFT.sol\":26368:26375  baseURI */\n      dup2\n        /* \"contracts/FNFT.sol\":26362:26383  bytes(baseURI).length */\n      mload\n        /* \"contracts/FNFT.sol\":26362:26387  bytes(baseURI).length > 0 */\n      gt\n        /* \"contracts/FNFT.sol\":26362:26448  bytes(baseURI).length > 0 ? string(abi.encodePacked(baseURI, tokenId.toString())) : \"\" */\n      tag_436\n      jumpi\n      mload(0x40)\n      dup1\n      0x20\n      add\n      0x40\n      mstore\n      dup1\n      0x00\n      dup2\n      mstore\n      pop\n      jump(tag_239)\n    tag_436:\n        /* \"contracts/FNFT.sol\":26414:26421  baseURI */\n      dup1\n        /* \"contracts/FNFT.sol\":26423:26441  tokenId.toString() */\n      tag_438\n        /* \"contracts/FNFT.sol\":26423:26430  tokenId */\n      dup5\n        /* \"contracts/FNFT.sol\":26423:26439  tokenId.toString */\n      tag_439\n        /* \"contracts/FNFT.sol\":26423:26441  tokenId.toString() */\n      jump\t// in\n    tag_438:\n        /* \"contracts/FNFT.sol\":26397:26442  abi.encodePacked(baseURI, tokenId.toString()) */\n      add(0x20, mload(0x40))\n      tag_440\n      swap3\n      swap2\n      swap1\n      tag_397\n      jump\t// in\n    tag_440:\n      mload(0x40)\n      0x20\n      dup2\n      dup4\n      sub\n      sub\n      dup2\n      mstore\n      swap1\n      0x40\n      mstore\n        /* \"contracts/FNFT.sol\":26355:26448  return bytes(baseURI).length > 0 ? string(abi.encodePacked(baseURI, tokenId.toString())) : \"\" */\n      swap4\n        /* \"contracts/FNFT.sol\":26126:26455  function tokenURI(uint256 tokenId) public view virtual override returns (string memory) {... */\n      swap3\n      pop\n      pop\n      pop\n      jump\t// out\n        /* \"contracts/FNFT.sol\":1833:2536  function toString(uint256 value) internal pure returns (string memory) {... */\n    tag_439:\n        /* \"contracts/FNFT.sol\":1889:1902  string memory */\n      0x60\n        /* \"contracts/FNFT.sol\":2106:2116  value == 0 */\n      dup2\n        /* \"contracts/FNFT.sol\":2102:2153  if (value == 0) {... */\n      tag_443\n      jumpi\n      pop\n      pop\n        /* \"contracts/FNFT.sol\":2132:2142  return \"0\" */\n      0x40\n      dup1\n      mload\n      dup1\n      dup3\n      add\n      swap1\n      swap2\n      mstore\n      0x01\n      dup2\n      mstore\n      shl(0xfc, 0x03)\n      0x20\n      dup3\n      add\n      mstore\n      swap1\n        /* \"contracts/FNFT.sol\":1833:2536  function toString(uint256 value) internal pure returns (string memory) {... */\n      jump\t// out\n        /* \"contracts/FNFT.sol\":2102:2153  if (value == 0) {... */\n    tag_443:\n        /* \"contracts/FNFT.sol\":2177:2182  value */\n      dup2\n        /* \"contracts/FNFT.sol\":2162:2174  uint256 temp */\n      0x00\n        /* \"contracts/FNFT.sol\":2216:2291  while (temp != 0) {... */\n    tag_444:\n        /* \"contracts/FNFT.sol\":2223:2232  temp != 0 */\n      dup2\n      iszero\n        /* \"contracts/FNFT.sol\":2216:2291  while (temp != 0) {... */\n      tag_445\n      jumpi\n        /* \"contracts/FNFT.sol\":2248:2256  digits++ */\n      dup1\n      tag_446\n      dup2\n      tag_208\n      jump\t// in\n    tag_446:\n      swap2\n      pop\n        /* \"contracts/FNFT.sol\":2270:2280  temp /= 10 */\n      tag_447\n      swap1\n      pop\n        /* \"contracts/FNFT.sol\":2278:2280  10 */\n      0x0a\n        /* \"contracts/FNFT.sol\":2270:2280  temp /= 10 */\n      dup4\n      tag_448\n      jump\t// in\n    tag_447:\n      swap2\n      pop\n        /* \"contracts/FNFT.sol\":2216:2291  while (temp != 0) {... */\n      jump(tag_444)\n    tag_445:\n        /* \"contracts/FNFT.sol\":2300:2319  bytes memory buffer */\n      0x00\n        /* \"contracts/FNFT.sol\":2332:2338  digits */\n      dup2\n        /* \"contracts/FNFT.sol\":2322:2339  new bytes(digits) */\n      0xffffffffffffffff\n      dup2\n      gt\n      iszero\n      tag_450\n      jumpi\n      tag_450\n      tag_451\n      jump\t// in\n    tag_450:\n      mload(0x40)\n      swap1\n      dup1\n      dup3\n      mstore\n      dup1\n      0x1f\n      add\n      not(0x1f)\n      and\n      0x20\n      add\n      dup3\n      add\n      0x40\n      mstore\n      dup1\n      iszero\n      tag_452\n      jumpi\n      0x20\n      dup3\n      add\n      dup2\n      dup1\n      calldatasize\n      dup4\n      calldatacopy\n      add\n      swap1\n      pop\n    tag_452:\n      pop\n        /* \"contracts/FNFT.sol\":2300:2339  bytes memory buffer = new bytes(digits) */\n      swap1\n      pop\n        /* \"contracts/FNFT.sol\":2349:2499  while (value != 0) {... */\n    tag_453:\n        /* \"contracts/FNFT.sol\":2356:2366  value != 0 */\n      dup5\n      iszero\n        /* \"contracts/FNFT.sol\":2349:2499  while (value != 0) {... */\n      tag_331\n      jumpi\n        /* \"contracts/FNFT.sol\":2382:2393  digits -= 1 */\n      tag_455\n        /* \"contracts/FNFT.sol\":2392:2393  1 */\n      0x01\n        /* \"contracts/FNFT.sol\":2382:2393  digits -= 1 */\n      dup4\n      tag_344\n      jump\t// in\n    tag_455:\n      swap2\n      pop\n        /* \"contracts/FNFT.sol\":2450:2460  value % 10 */\n      tag_456\n        /* \"contracts/FNFT.sol\":2458:2460  10 */\n      0x0a\n        /* \"contracts/FNFT.sol\":2450:2455  value */\n      dup7\n        /* \"contracts/FNFT.sol\":2450:2460  value % 10 */\n      tag_457\n      jump\t// in\n    tag_456:\n        /* \"contracts/FNFT.sol\":2437:2461  48 + uint256(value % 10) */\n      tag_458\n      swap1\n        /* \"contracts/FNFT.sol\":2437:2439  48 */\n      0x30\n        /* \"contracts/FNFT.sol\":2437:2461  48 + uint256(value % 10) */\n      tag_346\n      jump\t// in\n    tag_458:\n        /* \"contracts/FNFT.sol\":2424:2463  bytes1(uint8(48 + uint256(value % 10))) */\n      0xf8\n      shl\n        /* \"contracts/FNFT.sol\":2407:2413  buffer */\n      dup2\n        /* \"contracts/FNFT.sol\":2414:2420  digits */\n      dup4\n        /* \"contracts/FNFT.sol\":2407:2421  buffer[digits] */\n      dup2\n      mload\n      dup2\n      lt\n      tag_460\n      jumpi\n      tag_460\n      tag_461\n      jump\t// in\n    tag_460:\n      0x20\n      add\n      add\n        /* \"contracts/FNFT.sol\":2407:2463  buffer[digits] = bytes1(uint8(48 + uint256(value % 10))) */\n      swap1\n      not(sub(shl(0xf8, 0x01), 0x01))\n      and\n      swap1\n      dup2\n      0x00\n      byte\n      swap1\n      mstore8\n      pop\n        /* \"contracts/FNFT.sol\":2477:2488  value /= 10 */\n      tag_462\n        /* \"contracts/FNFT.sol\":2486:2488  10 */\n      0x0a\n        /* \"contracts/FNFT.sol\":2477:2488  value /= 10 */\n      dup7\n      tag_448\n      jump\t// in\n    tag_462:\n      swap5\n      pop\n        /* \"contracts/FNFT.sol\":2349:2499  while (value != 0) {... */\n      jump(tag_453)\n    tag_368:\n      dup3\n      dup1\n      sload\n      tag_463\n      swap1\n      tag_168\n      jump\t// in\n    tag_463:\n      swap1\n      0x00\n      mstore\n      keccak256(0x00, 0x20)\n      swap1\n      0x1f\n      add\n      0x20\n      swap1\n      div\n      dup2\n      add\n      swap3\n      dup3\n      tag_465\n      jumpi\n      0x00\n      dup6\n      sstore\n      jump(tag_468)\n    tag_465:\n      dup3\n      0x1f\n      lt\n      tag_466\n      jumpi\n      dup1\n      mload\n      not(0xff)\n      and\n      dup4\n      dup1\n      add\n      or\n      dup6\n      sstore\n      jump(tag_468)\n    tag_466:\n      dup3\n      dup1\n      add\n      0x01\n      add\n      dup6\n      sstore\n      dup3\n      iszero\n      tag_468\n      jumpi\n      swap2\n      dup3\n      add\n    tag_467:\n      dup3\n      dup2\n      gt\n      iszero\n      tag_468\n      jumpi\n      dup3\n      mload\n      dup3\n      sstore\n      swap2\n      0x20\n      add\n      swap2\n      swap1\n      0x01\n      add\n      swap1\n      jump(tag_467)\n    tag_468:\n      pop\n      tag_469\n      swap3\n      swap2\n      pop\n      tag_470\n      jump\t// in\n    tag_469:\n      pop\n      swap1\n      jump\t// out\n    tag_470:\n    tag_471:\n      dup1\n      dup3\n      gt\n      iszero\n      tag_469\n      jumpi\n      0x00\n      dup2\n      sstore\n      0x01\n      add\n      jump(tag_471)\n        /* \"#utility.yul\":14:645   */\n    tag_474:\n        /* \"#utility.yul\":78:83   */\n      0x00\n        /* \"#utility.yul\":108:126   */\n      0xffffffffffffffff\n        /* \"#utility.yul\":149:151   */\n      dup1\n        /* \"#utility.yul\":141:147   */\n      dup5\n        /* \"#utility.yul\":138:152   */\n      gt\n        /* \"#utility.yul\":135:175   */\n      iszero\n      tag_477\n      jumpi\n        /* \"#utility.yul\":155:173   */\n      tag_477\n      tag_451\n      jump\t// in\n    tag_477:\n        /* \"#utility.yul\":230:232   */\n      0x40\n        /* \"#utility.yul\":224:233   */\n      mload\n        /* \"#utility.yul\":198:200   */\n      0x1f\n        /* \"#utility.yul\":284:299   */\n      dup6\n      add\n      not(0x1f)\n        /* \"#utility.yul\":280:304   */\n      swap1\n      dup2\n      and\n        /* \"#utility.yul\":306:308   */\n      0x3f\n        /* \"#utility.yul\":276:309   */\n      add\n        /* \"#utility.yul\":272:314   */\n      and\n        /* \"#utility.yul\":260:315   */\n      dup2\n      add\n      swap1\n        /* \"#utility.yul\":330:348   */\n      dup3\n      dup3\n      gt\n        /* \"#utility.yul\":350:372   */\n      dup2\n      dup4\n      lt\n        /* \"#utility.yul\":327:373   */\n      or\n        /* \"#utility.yul\":324:396   */\n      iszero\n      tag_479\n      jumpi\n        /* \"#utility.yul\":376:394   */\n      tag_479\n      tag_451\n      jump\t// in\n    tag_479:\n        /* \"#utility.yul\":416:426   */\n      dup2\n        /* \"#utility.yul\":412:414   */\n      0x40\n        /* \"#utility.yul\":405:427   */\n      mstore\n        /* \"#utility.yul\":445:451   */\n      dup1\n        /* \"#utility.yul\":436:451   */\n      swap4\n      pop\n        /* \"#utility.yul\":475:481   */\n      dup6\n        /* \"#utility.yul\":467:473   */\n      dup2\n        /* \"#utility.yul\":460:482   */\n      mstore\n        /* \"#utility.yul\":515:518   */\n      dup7\n        /* \"#utility.yul\":506:512   */\n      dup7\n        /* \"#utility.yul\":501:504   */\n      dup7\n        /* \"#utility.yul\":497:513   */\n      add\n        /* \"#utility.yul\":494:519   */\n      gt\n        /* \"#utility.yul\":491:536   */\n      iszero\n      tag_480\n      jumpi\n        /* \"#utility.yul\":532:533   */\n      0x00\n        /* \"#utility.yul\":529:530   */\n      dup1\n        /* \"#utility.yul\":522:534   */\n      revert\n        /* \"#utility.yul\":491:536   */\n    tag_480:\n        /* \"#utility.yul\":582:588   */\n      dup6\n        /* \"#utility.yul\":577:580   */\n      dup6\n        /* \"#utility.yul\":570:574   */\n      0x20\n        /* \"#utility.yul\":562:568   */\n      dup4\n        /* \"#utility.yul\":558:575   */\n      add\n        /* \"#utility.yul\":545:589   */\n      calldatacopy\n        /* \"#utility.yul\":637:638   */\n      0x00\n        /* \"#utility.yul\":630:634   */\n      0x20\n        /* \"#utility.yul\":621:627   */\n      dup8\n        /* \"#utility.yul\":613:619   */\n      dup4\n        /* \"#utility.yul\":609:628   */\n      add\n        /* \"#utility.yul\":605:635   */\n      add\n        /* \"#utility.yul\":598:639   */\n      mstore\n      pop\n      pop\n      pop\n        /* \"#utility.yul\":14:645   */\n      swap4\n      swap3\n      pop\n      pop\n      pop\n      jump\t// out\n        /* \"#utility.yul\":650:823   */\n    tag_481:\n        /* \"#utility.yul\":718:738   */\n      dup1\n      calldataload\n      sub(shl(0xa0, 0x01), 0x01)\n        /* \"#utility.yul\":767:798   */\n      dup2\n      and\n        /* \"#utility.yul\":757:799   */\n      dup2\n      eq\n        /* \"#utility.yul\":747:817   */\n      tag_483\n      jumpi\n        /* \"#utility.yul\":813:814   */\n      0x00\n        /* \"#utility.yul\":810:811   */\n      dup1\n        /* \"#utility.yul\":803:815   */\n      revert\n        /* \"#utility.yul\":747:817   */\n    tag_483:\n        /* \"#utility.yul\":650:823   */\n      swap2\n      swap1\n      pop\n      jump\t// out\n        /* \"#utility.yul\":828:1049   */\n    tag_484:\n        /* \"#utility.yul\":871:876   */\n      0x00\n        /* \"#utility.yul\":924:927   */\n      dup3\n        /* \"#utility.yul\":917:921   */\n      0x1f\n        /* \"#utility.yul\":909:915   */\n      dup4\n        /* \"#utility.yul\":905:922   */\n      add\n        /* \"#utility.yul\":901:928   */\n      slt\n        /* \"#utility.yul\":891:946   */\n      tag_486\n      jumpi\n        /* \"#utility.yul\":942:943   */\n      0x00\n        /* \"#utility.yul\":939:940   */\n      dup1\n        /* \"#utility.yul\":932:944   */\n      revert\n        /* \"#utility.yul\":891:946   */\n    tag_486:\n        /* \"#utility.yul\":964:1043   */\n      tag_239\n        /* \"#utility.yul\":1039:1042   */\n      dup4\n        /* \"#utility.yul\":1030:1036   */\n      dup4\n        /* \"#utility.yul\":1017:1037   */\n      calldataload\n        /* \"#utility.yul\":1010:1014   */\n      0x20\n        /* \"#utility.yul\":1002:1008   */\n      dup6\n        /* \"#utility.yul\":998:1015   */\n      add\n        /* \"#utility.yul\":964:1043   */\n      tag_474\n      jump\t// in\n        /* \"#utility.yul\":1054:1240   */\n    tag_100:\n        /* \"#utility.yul\":1113:1119   */\n      0x00\n        /* \"#utility.yul\":1166:1168   */\n      0x20\n        /* \"#utility.yul\":1154:1163   */\n      dup3\n        /* \"#utility.yul\":1145:1152   */\n      dup5\n        /* \"#utility.yul\":1141:1164   */\n      sub\n        /* \"#utility.yul\":1137:1169   */\n      slt\n        /* \"#utility.yul\":1134:1186   */\n      iszero\n      tag_489\n      jumpi\n        /* \"#utility.yul\":1182:1183   */\n      0x00\n        /* \"#utility.yul\":1179:1180   */\n      dup1\n        /* \"#utility.yul\":1172:1184   */\n      revert\n        /* \"#utility.yul\":1134:1186   */\n    tag_489:\n        /* \"#utility.yul\":1205:1234   */\n      tag_239\n        /* \"#utility.yul\":1224:1233   */\n      dup3\n        /* \"#utility.yul\":1205:1234   */\n      tag_481\n      jump\t// in\n        /* \"#utility.yul\":1245:1505   */\n    tag_154:\n        /* \"#utility.yul\":1313:1319   */\n      0x00\n        /* \"#utility.yul\":1321:1327   */\n      dup1\n        /* \"#utility.yul\":1374:1376   */\n      0x40\n        /* \"#utility.yul\":1362:1371   */\n      dup4\n        /* \"#utility.yul\":1353:1360   */\n      dup6\n        /* \"#utility.yul\":1349:1372   */\n      sub\n        /* \"#utility.yul\":1345:1377   */\n      slt\n        /* \"#utility.yul\":1342:1394   */\n      iszero\n      tag_492\n      jumpi\n        /* \"#utility.yul\":1390:1391   */\n      0x00\n        /* \"#utility.yul\":1387:1388   */\n      dup1\n        /* \"#utility.yul\":1380:1392   */\n      revert\n        /* \"#utility.yul\":1342:1394   */\n    tag_492:\n        /* \"#utility.yul\":1413:1442   */\n      tag_493\n        /* \"#utility.yul\":1432:1441   */\n      dup4\n        /* \"#utility.yul\":1413:1442   */\n      tag_481\n      jump\t// in\n    tag_493:\n        /* \"#utility.yul\":1403:1442   */\n      swap2\n      pop\n        /* \"#utility.yul\":1461:1499   */\n      tag_494\n        /* \"#utility.yul\":1495:1497   */\n      0x20\n        /* \"#utility.yul\":1484:1493   */\n      dup5\n        /* \"#utility.yul\":1480:1498   */\n      add\n        /* \"#utility.yul\":1461:1499   */\n      tag_481\n      jump\t// in\n    tag_494:\n        /* \"#utility.yul\":1451:1499   */\n      swap1\n      pop\n        /* \"#utility.yul\":1245:1505   */\n      swap3\n      pop\n      swap3\n      swap1\n      pop\n      jump\t// out\n        /* \"#utility.yul\":1510:1838   */\n    tag_69:\n        /* \"#utility.yul\":1587:1593   */\n      0x00\n        /* \"#utility.yul\":1595:1601   */\n      dup1\n        /* \"#utility.yul\":1603:1609   */\n      0x00\n        /* \"#utility.yul\":1656:1658   */\n      0x60\n        /* \"#utility.yul\":1644:1653   */\n      dup5\n        /* \"#utility.yul\":1635:1642   */\n      dup7\n        /* \"#utility.yul\":1631:1654   */\n      sub\n        /* \"#utility.yul\":1627:1659   */\n      slt\n        /* \"#utility.yul\":1624:1676   */\n      iszero\n      tag_496\n      jumpi\n        /* \"#utility.yul\":1672:1673   */\n      0x00\n        /* \"#utility.yul\":1669:1670   */\n      dup1\n        /* \"#utility.yul\":1662:1674   */\n      revert\n        /* \"#utility.yul\":1624:1676   */\n    tag_496:\n        /* \"#utility.yul\":1695:1724   */\n      tag_497\n        /* \"#utility.yul\":1714:1723   */\n      dup5\n        /* \"#utility.yul\":1695:1724   */\n      tag_481\n      jump\t// in\n    tag_497:\n        /* \"#utility.yul\":1685:1724   */\n      swap3\n      pop\n        /* \"#utility.yul\":1743:1781   */\n      tag_498\n        /* \"#utility.yul\":1777:1779   */\n      0x20\n        /* \"#utility.yul\":1766:1775   */\n      dup6\n        /* \"#utility.yul\":1762:1780   */\n      add\n        /* \"#utility.yul\":1743:1781   */\n      tag_481\n      jump\t// in\n    tag_498:\n        /* \"#utility.yul\":1733:1781   */\n      swap2\n      pop\n        /* \"#utility.yul\":1828:1830   */\n      0x40\n        /* \"#utility.yul\":1817:1826   */\n      dup5\n        /* \"#utility.yul\":1813:1831   */\n      add\n        /* \"#utility.yul\":1800:1832   */\n      calldataload\n        /* \"#utility.yul\":1790:1832   */\n      swap1\n      pop\n        /* \"#utility.yul\":1510:1838   */\n      swap3\n      pop\n      swap3\n      pop\n      swap3\n      jump\t// out\n        /* \"#utility.yul\":1843:2509   */\n    tag_136:\n        /* \"#utility.yul\":1938:1944   */\n      0x00\n        /* \"#utility.yul\":1946:1952   */\n      dup1\n        /* \"#utility.yul\":1954:1960   */\n      0x00\n        /* \"#utility.yul\":1962:1968   */\n      dup1\n        /* \"#utility.yul\":2015:2018   */\n      0x80\n        /* \"#utility.yul\":2003:2012   */\n      dup6\n        /* \"#utility.yul\":1994:2001   */\n      dup8\n        /* \"#utility.yul\":1990:2013   */\n      sub\n        /* \"#utility.yul\":1986:2019   */\n      slt\n        /* \"#utility.yul\":1983:2036   */\n      iszero\n      tag_500\n      jumpi\n        /* \"#utility.yul\":2032:2033   */\n      0x00\n        /* \"#utility.yul\":2029:2030   */\n      dup1\n        /* \"#utility.yul\":2022:2034   */\n      revert\n        /* \"#utility.yul\":1983:2036   */\n    tag_500:\n        /* \"#utility.yul\":2055:2084   */\n      tag_501\n        /* \"#utility.yul\":2074:2083   */\n      dup6\n        /* \"#utility.yul\":2055:2084   */\n      tag_481\n      jump\t// in\n    tag_501:\n        /* \"#utility.yul\":2045:2084   */\n      swap4\n      pop\n        /* \"#utility.yul\":2103:2141   */\n      tag_502\n        /* \"#utility.yul\":2137:2139   */\n      0x20\n        /* \"#utility.yul\":2126:2135   */\n      dup7\n        /* \"#utility.yul\":2122:2140   */\n      add\n        /* \"#utility.yul\":2103:2141   */\n      tag_481\n      jump\t// in\n    tag_502:\n        /* \"#utility.yul\":2093:2141   */\n      swap3\n      pop\n        /* \"#utility.yul\":2188:2190   */\n      0x40\n        /* \"#utility.yul\":2177:2186   */\n      dup6\n        /* \"#utility.yul\":2173:2191   */\n      add\n        /* \"#utility.yul\":2160:2192   */\n      calldataload\n        /* \"#utility.yul\":2150:2192   */\n      swap2\n      pop\n        /* \"#utility.yul\":2243:2245   */\n      0x60\n        /* \"#utility.yul\":2232:2241   */\n      dup6\n        /* \"#utility.yul\":2228:2246   */\n      add\n        /* \"#utility.yul\":2215:2247   */\n      calldataload\n        /* \"#utility.yul\":2270:2288   */\n      0xffffffffffffffff\n        /* \"#utility.yul\":2262:2268   */\n      dup2\n        /* \"#utility.yul\":2259:2289   */\n      gt\n        /* \"#utility.yul\":2256:2306   */\n      iszero\n      tag_503\n      jumpi\n        /* \"#utility.yul\":2302:2303   */\n      0x00\n        /* \"#utility.yul\":2299:2300   */\n      dup1\n        /* \"#utility.yul\":2292:2304   */\n      revert\n        /* \"#utility.yul\":2256:2306   */\n    tag_503:\n        /* \"#utility.yul\":2325:2347   */\n      dup6\n      add\n        /* \"#utility.yul\":2378:2382   */\n      0x1f\n        /* \"#utility.yul\":2370:2383   */\n      dup2\n      add\n        /* \"#utility.yul\":2366:2393   */\n      dup8\n      sgt\n        /* \"#utility.yul\":2356:2411   */\n      tag_504\n      jumpi\n        /* \"#utility.yul\":2407:2408   */\n      0x00\n        /* \"#utility.yul\":2404:2405   */\n      dup1\n        /* \"#utility.yul\":2397:2409   */\n      revert\n        /* \"#utility.yul\":2356:2411   */\n    tag_504:\n        /* \"#utility.yul\":2430:2503   */\n      tag_505\n        /* \"#utility.yul\":2495:2502   */\n      dup8\n        /* \"#utility.yul\":2490:2492   */\n      dup3\n        /* \"#utility.yul\":2477:2493   */\n      calldataload\n        /* \"#utility.yul\":2472:2474   */\n      0x20\n        /* \"#utility.yul\":2468:2470   */\n      dup5\n        /* \"#utility.yul\":2464:2475   */\n      add\n        /* \"#utility.yul\":2430:2503   */\n      tag_474\n      jump\t// in\n    tag_505:\n        /* \"#utility.yul\":2420:2503   */\n      swap2\n      pop\n      pop\n        /* \"#utility.yul\":1843:2509   */\n      swap3\n      swap6\n      swap2\n      swap5\n      pop\n      swap3\n      pop\n      jump\t// out\n        /* \"#utility.yul\":2514:2861   */\n    tag_126:\n        /* \"#utility.yul\":2579:2585   */\n      0x00\n        /* \"#utility.yul\":2587:2593   */\n      dup1\n        /* \"#utility.yul\":2640:2642   */\n      0x40\n        /* \"#utility.yul\":2628:2637   */\n      dup4\n        /* \"#utility.yul\":2619:2626   */\n      dup6\n        /* \"#utility.yul\":2615:2638   */\n      sub\n        /* \"#utility.yul\":2611:2643   */\n      slt\n        /* \"#utility.yul\":2608:2660   */\n      iszero\n      tag_507\n      jumpi\n        /* \"#utility.yul\":2656:2657   */\n      0x00\n        /* \"#utility.yul\":2653:2654   */\n      dup1\n        /* \"#utility.yul\":2646:2658   */\n      revert\n        /* \"#utility.yul\":2608:2660   */\n    tag_507:\n        /* \"#utility.yul\":2679:2708   */\n      tag_508\n        /* \"#utility.yul\":2698:2707   */\n      dup4\n        /* \"#utility.yul\":2679:2708   */\n      tag_481\n      jump\t// in\n    tag_508:\n        /* \"#utility.yul\":2669:2708   */\n      swap2\n      pop\n        /* \"#utility.yul\":2758:2760   */\n      0x20\n        /* \"#utility.yul\":2747:2756   */\n      dup4\n        /* \"#utility.yul\":2743:2761   */\n      add\n        /* \"#utility.yul\":2730:2762   */\n      calldataload\n        /* \"#utility.yul\":2805:2810   */\n      dup1\n        /* \"#utility.yul\":2798:2811   */\n      iszero\n        /* \"#utility.yul\":2791:2812   */\n      iszero\n        /* \"#utility.yul\":2784:2789   */\n      dup2\n        /* \"#utility.yul\":2781:2813   */\n      eq\n        /* \"#utility.yul\":2771:2831   */\n      tag_509\n      jumpi\n        /* \"#utility.yul\":2827:2828   */\n      0x00\n        /* \"#utility.yul\":2824:2825   */\n      dup1\n        /* \"#utility.yul\":2817:2829   */\n      revert\n        /* \"#utility.yul\":2771:2831   */\n    tag_509:\n        /* \"#utility.yul\":2850:2855   */\n      dup1\n        /* \"#utility.yul\":2840:2855   */\n      swap2\n      pop\n      pop\n        /* \"#utility.yul\":2514:2861   */\n      swap3\n      pop\n      swap3\n      swap1\n      pop\n      jump\t// out\n        /* \"#utility.yul\":2866:3262   */\n    tag_81:\n        /* \"#utility.yul\":2944:2950   */\n      0x00\n        /* \"#utility.yul\":2952:2958   */\n      dup1\n        /* \"#utility.yul\":3005:3007   */\n      0x40\n        /* \"#utility.yul\":2993:3002   */\n      dup4\n        /* \"#utility.yul\":2984:2991   */\n      dup6\n        /* \"#utility.yul\":2980:3003   */\n      sub\n        /* \"#utility.yul\":2976:3008   */\n      slt\n        /* \"#utility.yul\":2973:3025   */\n      iszero\n      tag_511\n      jumpi\n        /* \"#utility.yul\":3021:3022   */\n      0x00\n        /* \"#utility.yul\":3018:3019   */\n      dup1\n        /* \"#utility.yul\":3011:3023   */\n      revert\n        /* \"#utility.yul\":2973:3025   */\n    tag_511:\n        /* \"#utility.yul\":3044:3073   */\n      tag_512\n        /* \"#utility.yul\":3063:3072   */\n      dup4\n        /* \"#utility.yul\":3044:3073   */\n      tag_481\n      jump\t// in\n    tag_512:\n        /* \"#utility.yul\":3034:3073   */\n      swap2\n      pop\n        /* \"#utility.yul\":3124:3126   */\n      0x20\n        /* \"#utility.yul\":3113:3122   */\n      dup4\n        /* \"#utility.yul\":3109:3127   */\n      add\n        /* \"#utility.yul\":3096:3128   */\n      calldataload\n        /* \"#utility.yul\":3151:3169   */\n      0xffffffffffffffff\n        /* \"#utility.yul\":3143:3149   */\n      dup2\n        /* \"#utility.yul\":3140:3170   */\n      gt\n        /* \"#utility.yul\":3137:3187   */\n      iszero\n      tag_513\n      jumpi\n        /* \"#utility.yul\":3183:3184   */\n      0x00\n        /* \"#utility.yul\":3180:3181   */\n      dup1\n        /* \"#utility.yul\":3173:3185   */\n      revert\n        /* \"#utility.yul\":3137:3187   */\n    tag_513:\n        /* \"#utility.yul\":3206:3256   */\n      tag_514\n        /* \"#utility.yul\":3248:3255   */\n      dup6\n        /* \"#utility.yul\":3239:3245   */\n      dup3\n        /* \"#utility.yul\":3228:3237   */\n      dup7\n        /* \"#utility.yul\":3224:3246   */\n      add\n        /* \"#utility.yul\":3206:3256   */\n      tag_484\n      jump\t// in\n    tag_514:\n        /* \"#utility.yul\":3196:3256   */\n      swap2\n      pop\n      pop\n        /* \"#utility.yul\":2866:3262   */\n      swap3\n      pop\n      swap3\n      swap1\n      pop\n      jump\t// out\n        /* \"#utility.yul\":3267:3521   */\n    tag_57:\n        /* \"#utility.yul\":3335:3341   */\n      0x00\n        /* \"#utility.yul\":3343:3349   */\n      dup1\n        /* \"#utility.yul\":3396:3398   */\n      0x40\n        /* \"#utility.yul\":3384:3393   */\n      dup4\n        /* \"#utility.yul\":3375:3382   */\n      dup6\n        /* \"#utility.yul\":3371:3394   */\n      sub\n        /* \"#utility.yul\":3367:3399   */\n      slt\n        /* \"#utility.yul\":3364:3416   */\n      iszero\n      tag_516\n      jumpi\n        /* \"#utility.yul\":3412:3413   */\n      0x00\n        /* \"#utility.yul\":3409:3410   */\n      dup1\n        /* \"#utility.yul\":3402:3414   */\n      revert\n        /* \"#utility.yul\":3364:3416   */\n    tag_516:\n        /* \"#utility.yul\":3435:3464   */\n      tag_517\n        /* \"#utility.yul\":3454:3463   */\n      dup4\n        /* \"#utility.yul\":3435:3464   */\n      tag_481\n      jump\t// in\n    tag_517:\n        /* \"#utility.yul\":3425:3464   */\n      swap5\n        /* \"#utility.yul\":3511:3513   */\n      0x20\n        /* \"#utility.yul\":3496:3514   */\n      swap4\n      swap1\n      swap4\n      add\n        /* \"#utility.yul\":3483:3515   */\n      calldataload\n      swap4\n      pop\n      pop\n      pop\n        /* \"#utility.yul\":3267:3521   */\n      jump\t// out\n        /* \"#utility.yul\":3526:3771   */\n    tag_38:\n        /* \"#utility.yul\":3584:3590   */\n      0x00\n        /* \"#utility.yul\":3637:3639   */\n      0x20\n        /* \"#utility.yul\":3625:3634   */\n      dup3\n        /* \"#utility.yul\":3616:3623   */\n      dup5\n        /* \"#utility.yul\":3612:3635   */\n      sub\n        /* \"#utility.yul\":3608:3640   */\n      slt\n        /* \"#utility.yul\":3605:3657   */\n      iszero\n      tag_519\n      jumpi\n        /* \"#utility.yul\":3653:3654   */\n      0x00\n        /* \"#utility.yul\":3650:3651   */\n      dup1\n        /* \"#utility.yul\":3643:3655   */\n      revert\n        /* \"#utility.yul\":3605:3657   */\n    tag_519:\n        /* \"#utility.yul\":3692:3701   */\n      dup2\n        /* \"#utility.yul\":3679:3702   */\n      calldataload\n        /* \"#utility.yul\":3711:3741   */\n      tag_239\n        /* \"#utility.yul\":3735:3740   */\n      dup2\n        /* \"#utility.yul\":3711:3741   */\n      tag_521\n      jump\t// in\n        /* \"#utility.yul\":3776:4025   */\n    tag_417:\n        /* \"#utility.yul\":3845:3851   */\n      0x00\n        /* \"#utility.yul\":3898:3900   */\n      0x20\n        /* \"#utility.yul\":3886:3895   */\n      dup3\n        /* \"#utility.yul\":3877:3884   */\n      dup5\n        /* \"#utility.yul\":3873:3896   */\n      sub\n        /* \"#utility.yul\":3869:3901   */\n      slt\n        /* \"#utility.yul\":3866:3918   */\n      iszero\n      tag_523\n      jumpi\n        /* \"#utility.yul\":3914:3915   */\n      0x00\n        /* \"#utility.yul\":3911:3912   */\n      dup1\n        /* \"#utility.yul\":3904:3916   */\n      revert\n        /* \"#utility.yul\":3866:3918   */\n    tag_523:\n        /* \"#utility.yul\":3946:3955   */\n      dup2\n        /* \"#utility.yul\":3940:3956   */\n      mload\n        /* \"#utility.yul\":3965:3995   */\n      tag_239\n        /* \"#utility.yul\":3989:3994   */\n      dup2\n        /* \"#utility.yul\":3965:3995   */\n      tag_521\n      jump\t// in\n        /* \"#utility.yul\":4030:4352   */\n    tag_120:\n        /* \"#utility.yul\":4099:4105   */\n      0x00\n        /* \"#utility.yul\":4152:4154   */\n      0x20\n        /* \"#utility.yul\":4140:4149   */\n      dup3\n        /* \"#utility.yul\":4131:4138   */\n      dup5\n        /* \"#utility.yul\":4127:4150   */\n      sub\n        /* \"#utility.yul\":4123:4155   */\n      slt\n        /* \"#utility.yul\":4120:4172   */\n      iszero\n      tag_526\n      jumpi\n        /* \"#utility.yul\":4168:4169   */\n      0x00\n        /* \"#utility.yul\":4165:4166   */\n      dup1\n        /* \"#utility.yul\":4158:4170   */\n      revert\n        /* \"#utility.yul\":4120:4172   */\n    tag_526:\n        /* \"#utility.yul\":4208:4217   */\n      dup2\n        /* \"#utility.yul\":4195:4218   */\n      calldataload\n        /* \"#utility.yul\":4241:4259   */\n      0xffffffffffffffff\n        /* \"#utility.yul\":4233:4239   */\n      dup2\n        /* \"#utility.yul\":4230:4260   */\n      gt\n        /* \"#utility.yul\":4227:4277   */\n      iszero\n      tag_527\n      jumpi\n        /* \"#utility.yul\":4273:4274   */\n      0x00\n        /* \"#utility.yul\":4270:4271   */\n      dup1\n        /* \"#utility.yul\":4263:4275   */\n      revert\n        /* \"#utility.yul\":4227:4277   */\n    tag_527:\n        /* \"#utility.yul\":4296:4346   */\n      tag_331\n        /* \"#utility.yul\":4338:4345   */\n      dup5\n        /* \"#utility.yul\":4329:4335   */\n      dup3\n        /* \"#utility.yul\":4318:4327   */\n      dup6\n        /* \"#utility.yul\":4314:4336   */\n      add\n        /* \"#utility.yul\":4296:4346   */\n      tag_484\n      jump\t// in\n        /* \"#utility.yul\":4357:4537   */\n    tag_50:\n        /* \"#utility.yul\":4416:4422   */\n      0x00\n        /* \"#utility.yul\":4469:4471   */\n      0x20\n        /* \"#utility.yul\":4457:4466   */\n      dup3\n        /* \"#utility.yul\":4448:4455   */\n      dup5\n        /* \"#utility.yul\":4444:4467   */\n      sub\n        /* \"#utility.yul\":4440:4472   */\n      slt\n        /* \"#utility.yul\":4437:4489   */\n      iszero\n      tag_530\n      jumpi\n        /* \"#utility.yul\":4485:4486   */\n      0x00\n        /* \"#utility.yul\":4482:4483   */\n      dup1\n        /* \"#utility.yul\":4475:4487   */\n      revert\n        /* \"#utility.yul\":4437:4489   */\n    tag_530:\n      pop\n        /* \"#utility.yul\":4508:4531   */\n      calldataload\n      swap2\n        /* \"#utility.yul\":4357:4537   */\n      swap1\n      pop\n      jump\t// out\n        /* \"#utility.yul\":4542:4799   */\n    tag_531:\n        /* \"#utility.yul\":4583:4586   */\n      0x00\n        /* \"#utility.yul\":4621:4626   */\n      dup2\n        /* \"#utility.yul\":4615:4627   */\n      mload\n        /* \"#utility.yul\":4648:4654   */\n      dup1\n        /* \"#utility.yul\":4643:4646   */\n      dup5\n        /* \"#utility.yul\":4636:4655   */\n      mstore\n        /* \"#utility.yul\":4664:4727   */\n      tag_533\n        /* \"#utility.yul\":4720:4726   */\n      dup2\n        /* \"#utility.yul\":4713:4717   */\n      0x20\n        /* \"#utility.yul\":4708:4711   */\n      dup7\n        /* \"#utility.yul\":4704:4718   */\n      add\n        /* \"#utility.yul\":4697:4701   */\n      0x20\n        /* \"#utility.yul\":4690:4695   */\n      dup7\n        /* \"#utility.yul\":4686:4702   */\n      add\n        /* \"#utility.yul\":4664:4727   */\n      tag_534\n      jump\t// in\n    tag_533:\n        /* \"#utility.yul\":4781:4783   */\n      0x1f\n        /* \"#utility.yul\":4760:4775   */\n      add\n      not(0x1f)\n        /* \"#utility.yul\":4756:4785   */\n      and\n        /* \"#utility.yul\":4747:4786   */\n      swap3\n      swap1\n      swap3\n      add\n        /* \"#utility.yul\":4788:4792   */\n      0x20\n        /* \"#utility.yul\":4743:4793   */\n      add\n      swap3\n        /* \"#utility.yul\":4542:4799   */\n      swap2\n      pop\n      pop\n      jump\t// out\n        /* \"#utility.yul\":4804:5080   */\n    tag_225:\n        /* \"#utility.yul\":4935:4938   */\n      0x00\n        /* \"#utility.yul\":4973:4979   */\n      dup3\n        /* \"#utility.yul\":4967:4980   */\n      mload\n        /* \"#utility.yul\":4989:5042   */\n      tag_536\n        /* \"#utility.yul\":5035:5041   */\n      dup2\n        /* \"#utility.yul\":5030:5033   */\n      dup5\n        /* \"#utility.yul\":5023:5027   */\n      0x20\n        /* \"#utility.yul\":5015:5021   */\n      dup8\n        /* \"#utility.yul\":5011:5028   */\n      add\n        /* \"#utility.yul\":4989:5042   */\n      tag_534\n      jump\t// in\n    tag_536:\n        /* \"#utility.yul\":5058:5074   */\n      swap2\n      swap1\n      swap2\n      add\n      swap3\n        /* \"#utility.yul\":4804:5080   */\n      swap2\n      pop\n      pop\n      jump\t// out\n        /* \"#utility.yul\":5085:5555   */\n    tag_397:\n        /* \"#utility.yul\":5264:5267   */\n      0x00\n        /* \"#utility.yul\":5302:5308   */\n      dup4\n        /* \"#utility.yul\":5296:5309   */\n      mload\n        /* \"#utility.yul\":5318:5371   */\n      tag_538\n        /* \"#utility.yul\":5364:5370   */\n      dup2\n        /* \"#utility.yul\":5359:5362   */\n      dup5\n        /* \"#utility.yul\":5352:5356   */\n      0x20\n        /* \"#utility.yul\":5344:5350   */\n      dup9\n        /* \"#utility.yul\":5340:5357   */\n      add\n        /* \"#utility.yul\":5318:5371   */\n      tag_534\n      jump\t// in\n    tag_538:\n        /* \"#utility.yul\":5434:5447   */\n      dup4\n      mload\n        /* \"#utility.yul\":5393:5409   */\n      swap1\n      dup4\n      add\n      swap1\n        /* \"#utility.yul\":5456:5513   */\n      tag_539\n        /* \"#utility.yul\":5434:5447   */\n      dup2\n        /* \"#utility.yul\":5393:5409   */\n      dup4\n        /* \"#utility.yul\":5490:5494   */\n      0x20\n        /* \"#utility.yul\":5478:5495   */\n      dup9\n      add\n        /* \"#utility.yul\":5456:5513   */\n      tag_534\n      jump\t// in\n    tag_539:\n        /* \"#utility.yul\":5529:5549   */\n      add\n      swap5\n        /* \"#utility.yul\":5085:5555   */\n      swap4\n      pop\n      pop\n      pop\n      pop\n      jump\t// out\n        /* \"#utility.yul\":5768:6256   */\n    tag_413:\n      sub(shl(0xa0, 0x01), 0x01)\n        /* \"#utility.yul\":6037:6052   */\n      dup6\n      dup2\n      and\n        /* \"#utility.yul\":6019:6053   */\n      dup3\n      mstore\n        /* \"#utility.yul\":6089:6104   */\n      dup5\n      and\n        /* \"#utility.yul\":6084:6086   */\n      0x20\n        /* \"#utility.yul\":6069:6087   */\n      dup3\n      add\n        /* \"#utility.yul\":6062:6105   */\n      mstore\n        /* \"#utility.yul\":6136:6138   */\n      0x40\n        /* \"#utility.yul\":6121:6139   */\n      dup2\n      add\n        /* \"#utility.yul\":6114:6148   */\n      dup4\n      swap1\n      mstore\n        /* \"#utility.yul\":6184:6187   */\n      0x80\n        /* \"#utility.yul\":6179:6181   */\n      0x60\n        /* \"#utility.yul\":6164:6182   */\n      dup3\n      add\n        /* \"#utility.yul\":6157:6188   */\n      dup2\n      swap1\n      mstore\n        /* \"#utility.yul\":5962:5966   */\n      0x00\n      swap1\n        /* \"#utility.yul\":6205:6250   */\n      tag_542\n      swap1\n        /* \"#utility.yul\":6230:6249   */\n      dup4\n      add\n        /* \"#utility.yul\":6222:6228   */\n      dup5\n        /* \"#utility.yul\":6205:6250   */\n      tag_531\n      jump\t// in\n    tag_542:\n        /* \"#utility.yul\":6197:6250   */\n      swap7\n        /* \"#utility.yul\":5768:6256   */\n      swap6\n      pop\n      pop\n      pop\n      pop\n      pop\n      pop\n      jump\t// out\n        /* \"#utility.yul\":6453:6672   */\n    tag_46:\n        /* \"#utility.yul\":6602:6604   */\n      0x20\n        /* \"#utility.yul\":6591:6600   */\n      dup2\n        /* \"#utility.yul\":6584:6605   */\n      mstore\n        /* \"#utility.yul\":6565:6569   */\n      0x00\n        /* \"#utility.yul\":6622:6666   */\n      tag_239\n        /* \"#utility.yul\":6662:6664   */\n      0x20\n        /* \"#utility.yul\":6651:6660   */\n      dup4\n        /* \"#utility.yul\":6647:6665   */\n      add\n        /* \"#utility.yul\":6639:6645   */\n      dup5\n        /* \"#utility.yul\":6622:6666   */\n      tag_531\n      jump\t// in\n        /* \"#utility.yul\":6677:7091   */\n    tag_381:\n        /* \"#utility.yul\":6879:6881   */\n      0x20\n        /* \"#utility.yul\":6861:6882   */\n      dup1\n      dup3\n      mstore\n        /* \"#utility.yul\":6918:6920   */\n      0x32\n        /* \"#utility.yul\":6898:6916   */\n      swap1\n      dup3\n      add\n        /* \"#utility.yul\":6891:6921   */\n      mstore\n        /* \"#utility.yul\":6957:6991   */\n      0x4552433732313a207472616e7366657220746f206e6f6e204552433732315265\n        /* \"#utility.yul\":6952:6954   */\n      0x40\n        /* \"#utility.yul\":6937:6955   */\n      dup3\n      add\n        /* \"#utility.yul\":6930:6992   */\n      mstore\n      shl(0x71, 0x31b2b4bb32b91034b6b83632b6b2b73a32b9)\n        /* \"#utility.yul\":7023:7025   */\n      0x60\n        /* \"#utility.yul\":7008:7026   */\n      dup3\n      add\n        /* \"#utility.yul\":7001:7049   */\n      mstore\n        /* \"#utility.yul\":7081:7084   */\n      0x80\n        /* \"#utility.yul\":7066:7085   */\n      add\n      swap1\n        /* \"#utility.yul\":6677:7091   */\n      jump\t// out\n        /* \"#utility.yul\":12627:12983   */\n    tag_250:\n        /* \"#utility.yul\":12829:12831   */\n      0x20\n        /* \"#utility.yul\":12811:12832   */\n      dup1\n      dup3\n      mstore\n        /* \"#utility.yul\":12848:12866   */\n      dup2\n      dup2\n      add\n        /* \"#utility.yul\":12841:12871   */\n      mstore\n        /* \"#utility.yul\":12907:12941   */\n      0x4f776e61626c653a2063616c6c6572206973206e6f7420746865206f776e6572\n        /* \"#utility.yul\":12902:12904   */\n      0x40\n        /* \"#utility.yul\":12887:12905   */\n      dup3\n      add\n        /* \"#utility.yul\":12880:12942   */\n      mstore\n        /* \"#utility.yul\":12974:12976   */\n      0x60\n        /* \"#utility.yul\":12959:12977   */\n      add\n      swap1\n        /* \"#utility.yul\":12627:12983   */\n      jump\t// out\n        /* \"#utility.yul\":14154:14567   */\n    tag_218:\n        /* \"#utility.yul\":14356:14358   */\n      0x20\n        /* \"#utility.yul\":14338:14359   */\n      dup1\n      dup3\n      mstore\n        /* \"#utility.yul\":14395:14397   */\n      0x31\n        /* \"#utility.yul\":14375:14393   */\n      swap1\n      dup3\n      add\n        /* \"#utility.yul\":14368:14398   */\n      mstore\n        /* \"#utility.yul\":14434:14468   */\n      0x4552433732313a207472616e736665722063616c6c6572206973206e6f74206f\n        /* \"#utility.yul\":14429:14431   */\n      0x40\n        /* \"#utility.yul\":14414:14432   */\n      dup3\n      add\n        /* \"#utility.yul\":14407:14469   */\n      mstore\n      shl(0x7a, 0x1ddb995c881b9bdc88185c1c1c9bdd9959)\n        /* \"#utility.yul\":14500:14502   */\n      0x60\n        /* \"#utility.yul\":14485:14503   */\n      dup3\n      add\n        /* \"#utility.yul\":14478:14525   */\n      mstore\n        /* \"#utility.yul\":14557:14560   */\n      0x80\n        /* \"#utility.yul\":14542:14561   */\n      add\n      swap1\n        /* \"#utility.yul\":14154:14567   */\n      jump\t// out\n        /* \"#utility.yul\":16137:16265   */\n    tag_346:\n        /* \"#utility.yul\":16177:16180   */\n      0x00\n        /* \"#utility.yul\":16208:16209   */\n      dup3\n        /* \"#utility.yul\":16204:16210   */\n      not\n        /* \"#utility.yul\":16201:16202   */\n      dup3\n        /* \"#utility.yul\":16198:16211   */\n      gt\n        /* \"#utility.yul\":16195:16234   */\n      iszero\n      tag_573\n      jumpi\n        /* \"#utility.yul\":16214:16232   */\n      tag_573\n      tag_574\n      jump\t// in\n    tag_573:\n      pop\n        /* \"#utility.yul\":16250:16259   */\n      add\n      swap1\n        /* \"#utility.yul\":16137:16265   */\n      jump\t// out\n        /* \"#utility.yul\":16270:16390   */\n    tag_448:\n        /* \"#utility.yul\":16310:16311   */\n      0x00\n        /* \"#utility.yul\":16336:16337   */\n      dup3\n        /* \"#utility.yul\":16326:16361   */\n      tag_577\n      jumpi\n        /* \"#utility.yul\":16341:16359   */\n      tag_577\n      tag_578\n      jump\t// in\n    tag_577:\n      pop\n        /* \"#utility.yul\":16375:16384   */\n      div\n      swap1\n        /* \"#utility.yul\":16270:16390   */\n      jump\t// out\n        /* \"#utility.yul\":16395:16520   */\n    tag_344:\n        /* \"#utility.yul\":16435:16439   */\n      0x00\n        /* \"#utility.yul\":16463:16464   */\n      dup3\n        /* \"#utility.yul\":16460:16461   */\n      dup3\n        /* \"#utility.yul\":16457:16465   */\n      lt\n        /* \"#utility.yul\":16454:16488   */\n      iszero\n      tag_581\n      jumpi\n        /* \"#utility.yul\":16468:16486   */\n      tag_581\n      tag_574\n      jump\t// in\n    tag_581:\n      pop\n        /* \"#utility.yul\":16505:16514   */\n      sub\n      swap1\n        /* \"#utility.yul\":16395:16520   */\n      jump\t// out\n        /* \"#utility.yul\":16525:16783   */\n    tag_534:\n        /* \"#utility.yul\":16597:16598   */\n      0x00\n        /* \"#utility.yul\":16607:16720   */\n    tag_583:\n        /* \"#utility.yul\":16621:16627   */\n      dup4\n        /* \"#utility.yul\":16618:16619   */\n      dup2\n        /* \"#utility.yul\":16615:16628   */\n      lt\n        /* \"#utility.yul\":16607:16720   */\n      iszero\n      tag_585\n      jumpi\n        /* \"#utility.yul\":16697:16708   */\n      dup2\n      dup2\n      add\n        /* \"#utility.yul\":16691:16709   */\n      mload\n        /* \"#utility.yul\":16678:16689   */\n      dup4\n      dup3\n      add\n        /* \"#utility.yul\":16671:16710   */\n      mstore\n        /* \"#utility.yul\":16643:16645   */\n      0x20\n        /* \"#utility.yul\":16636:16646   */\n      add\n        /* \"#utility.yul\":16607:16720   */\n      jump(tag_583)\n    tag_585:\n        /* \"#utility.yul\":16738:16744   */\n      dup4\n        /* \"#utility.yul\":16735:16736   */\n      dup2\n        /* \"#utility.yul\":16732:16745   */\n      gt\n        /* \"#utility.yul\":16729:16777   */\n      iszero\n      tag_288\n      jumpi\n      pop\n      pop\n        /* \"#utility.yul\":16773:16774   */\n      0x00\n        /* \"#utility.yul\":16755:16771   */\n      swap2\n      add\n        /* \"#utility.yul\":16748:16775   */\n      mstore\n        /* \"#utility.yul\":16525:16783   */\n      jump\t// out\n        /* \"#utility.yul\":16788:17168   */\n    tag_168:\n        /* \"#utility.yul\":16867:16868   */\n      0x01\n        /* \"#utility.yul\":16863:16875   */\n      dup2\n      dup2\n      shr\n      swap1\n        /* \"#utility.yul\":16910:16922   */\n      dup3\n      and\n      dup1\n        /* \"#utility.yul\":16931:16992   */\n      tag_588\n      jumpi\n        /* \"#utility.yul\":16985:16989   */\n      0x7f\n        /* \"#utility.yul\":16977:16983   */\n      dup3\n        /* \"#utility.yul\":16973:16990   */\n      and\n        /* \"#utility.yul\":16963:16990   */\n      swap2\n      pop\n        /* \"#utility.yul\":16931:16992   */\n    tag_588:\n        /* \"#utility.yul\":17038:17040   */\n      0x20\n        /* \"#utility.yul\":17030:17036   */\n      dup3\n        /* \"#utility.yul\":17027:17041   */\n      lt\n        /* \"#utility.yul\":17007:17025   */\n      dup2\n        /* \"#utility.yul\":17004:17042   */\n      eq\n        /* \"#utility.yul\":17001:17162   */\n      iszero\n      tag_589\n      jumpi\n        /* \"#utility.yul\":17084:17094   */\n      0x4e487b71\n        /* \"#utility.yul\":17079:17082   */\n      0xe0\n        /* \"#utility.yul\":17075:17095   */\n      shl\n        /* \"#utility.yul\":17072:17073   */\n      0x00\n        /* \"#utility.yul\":17065:17096   */\n      mstore\n        /* \"#utility.yul\":17119:17123   */\n      0x22\n        /* \"#utility.yul\":17116:17117   */\n      0x04\n        /* \"#utility.yul\":17109:17124   */\n      mstore\n        /* \"#utility.yul\":17147:17151   */\n      0x24\n        /* \"#utility.yul\":17144:17145   */\n      0x00\n        /* \"#utility.yul\":17137:17152   */\n      revert\n        /* \"#utility.yul\":17001:17162   */\n    tag_589:\n      pop\n        /* \"#utility.yul\":16788:17168   */\n      swap2\n      swap1\n      pop\n      jump\t// out\n        /* \"#utility.yul\":17173:17308   */\n    tag_208:\n        /* \"#utility.yul\":17212:17215   */\n      0x00\n      not(0x00)\n        /* \"#utility.yul\":17233:17250   */\n      dup3\n      eq\n        /* \"#utility.yul\":17230:17273   */\n      iszero\n      tag_592\n      jumpi\n        /* \"#utility.yul\":17253:17271   */\n      tag_592\n      tag_574\n      jump\t// in\n    tag_592:\n      pop\n        /* \"#utility.yul\":17300:17301   */\n      0x01\n        /* \"#utility.yul\":17289:17302   */\n      add\n      swap1\n        /* \"#utility.yul\":17173:17308   */\n      jump\t// out\n        /* \"#utility.yul\":17313:17425   */\n    tag_457:\n        /* \"#utility.yul\":17345:17346   */\n      0x00\n        /* \"#utility.yul\":17371:17372   */\n      dup3\n        /* \"#utility.yul\":17361:17396   */\n      tag_595\n      jumpi\n        /* \"#utility.yul\":17376:17394   */\n      tag_595\n      tag_578\n      jump\t// in\n    tag_595:\n      pop\n        /* \"#utility.yul\":17410:17419   */\n      mod\n      swap1\n        /* \"#utility.yul\":17313:17425   */\n      jump\t// out\n        /* \"#utility.yul\":17430:17557   */\n    tag_574:\n        /* \"#utility.yul\":17491:17501   */\n      0x4e487b71\n        /* \"#utility.yul\":17486:17489   */\n      0xe0\n        /* \"#utility.yul\":17482:17502   */\n      shl\n        /* \"#utility.yul\":17479:17480   */\n      0x00\n        /* \"#utility.yul\":17472:17503   */\n      mstore\n        /* \"#utility.yul\":17522:17526   */\n      0x11\n        /* \"#utility.yul\":17519:17520   */\n      0x04\n        /* \"#utility.yul\":17512:17527   */\n      mstore\n        /* \"#utility.yul\":17546:17550   */\n      0x24\n        /* \"#utility.yul\":17543:17544   */\n      0x00\n        /* \"#utility.yul\":17536:17551   */\n      revert\n        /* \"#utility.yul\":17562:17689   */\n    tag_578:\n        /* \"#utility.yul\":17623:17633   */\n      0x4e487b71\n        /* \"#utility.yul\":17618:17621   */\n      0xe0\n        /* \"#utility.yul\":17614:17634   */\n      shl\n        /* \"#utility.yul\":17611:17612   */\n      0x00\n        /* \"#utility.yul\":17604:17635   */\n      mstore\n        /* \"#utility.yul\":17654:17658   */\n      0x12\n        /* \"#utility.yul\":17651:17652   */\n      0x04\n        /* \"#utility.yul\":17644:17659   */\n      mstore\n        /* \"#utility.yul\":17678:17682   */\n      0x24\n        /* \"#utility.yul\":17675:17676   */\n      0x00\n        /* \"#utility.yul\":17668:17683   */\n      revert\n        /* \"#utility.yul\":17694:17821   */\n    tag_461:\n        /* \"#utility.yul\":17755:17765   */\n      0x4e487b71\n        /* \"#utility.yul\":17750:17753   */\n      0xe0\n        /* \"#utility.yul\":17746:17766   */\n      shl\n        /* \"#utility.yul\":17743:17744   */\n      0x00\n        /* \"#utility.yul\":17736:17767   */\n      mstore\n        /* \"#utility.yul\":17786:17790   */\n      0x32\n        /* \"#utility.yul\":17783:17784   */\n      0x04\n        /* \"#utility.yul\":17776:17791   */\n      mstore\n        /* \"#utility.yul\":17810:17814   */\n      0x24\n        /* \"#utility.yul\":17807:17808   */\n      0x00\n        /* \"#utility.yul\":17800:17815   */\n      revert\n        /* \"#utility.yul\":17826:17953   */\n    tag_451:\n        /* \"#utility.yul\":17887:17897   */\n      0x4e487b71\n        /* \"#utility.yul\":17882:17885   */\n      0xe0\n        /* \"#utility.yul\":17878:17898   */\n      shl\n        /* \"#utility.yul\":17875:17876   */\n      0x00\n        /* \"#utility.yul\":17868:17899   */\n      mstore\n        /* \"#utility.yul\":17918:17922   */\n      0x41\n        /* \"#utility.yul\":17915:17916   */\n      0x04\n        /* \"#utility.yul\":17908:17923   */\n      mstore\n        /* \"#utility.yul\":17942:17946   */\n      0x24\n        /* \"#utility.yul\":17939:17940   */\n      0x00\n        /* \"#utility.yul\":17932:17947   */\n      revert\n        /* \"#utility.yul\":17958:18089   */\n    tag_521:\n      not(sub(shl(0xe0, 0x01), 0x01))\n        /* \"#utility.yul\":18032:18064   */\n      dup2\n      and\n        /* \"#utility.yul\":18022:18065   */\n      dup2\n      eq\n        /* \"#utility.yul\":18012:18083   */\n      tag_210\n      jumpi\n        /* \"#utility.yul\":18079:18080   */\n      0x00\n        /* \"#utility.yul\":18076:18077   */\n      dup1\n        /* \"#utility.yul\":18069:18081   */\n      revert\n\n    auxdata: 0xa264697066735822122040c6720810d9034755367aff8a76396db3bf8bee429d8bfb50af616282b3377564736f6c63430008070033\n}\n",
				"bytecode": {
					"linkReferences": {},
					"object": "66038d7ea4c68000600855600c60808181526b7777772e662d6e66742e757360a01b60a0908152610100604052600460c0908152631193919560e21b60e05291926200004e91600091620000e4565b50805162000064906001906020840190620000e4565b505050620000816200007b6200008e60201b60201c565b62000092565b620f4240600a55620001c7565b3390565b600780546001600160a01b038381166001600160a01b0319831681179093556040519116919082907f8be0079c531659141344cd1fd0a4f28419497f9722a3daafe3b4186f6b6457e090600090a35050565b828054620000f2906200018a565b90600052602060002090601f01602090048101928262000116576000855562000161565b82601f106200013157805160ff191683800117855562000161565b8280016001018555821562000161579182015b828111156200016157825182559160200191906001019062000144565b506200016f92915062000173565b5090565b5b808211156200016f576000815560010162000174565b600181811c908216806200019f57607f821691505b60208210811415620001c157634e487b7160e01b600052602260045260246000fd5b50919050565b611f0780620001d76000396000f3fe60806040526004361061019c5760003560e01c806370a08231116100ec578063ada7c4ed1161008a578063d204c45e11610064578063d204c45e1461046b578063d5abeb011461048b578063e985e9c5146104a1578063f2fde38b146104ea57600080fd5b8063ada7c4ed146103fe578063b88d4fde1461042b578063c87b56dd1461044b57600080fd5b80638da5cb5b116100c65780638da5cb5b1461038b57806395d89b41146103a95780639f1cabc6146103be578063a22cb465146103de57600080fd5b806370a0823114610341578063715018a61461036157806384a428db1461037657600080fd5b806323b872dd11610159578063615fd9e211610133578063615fd9e2146102d85780636352211e146102eb5780636817c76c1461030b5780636f8b44b01461032157600080fd5b806323b872dd1461027e578063346de50a1461029e57806342842e0e146102b857600080fd5b806301ffc9a7146101a157806306fdde03146101d6578063081812fc146101f8578063095ea7b3146102305780631249c58b1461025257806318160ddd1461025a575b600080fd5b3480156101ad57600080fd5b506101c16101bc366004611b63565b61050a565b60405190151581526020015b60405180910390f35b3480156101e257600080fd5b506101eb61055c565b6040516101cd9190611c9f565b34801561020457600080fd5b50610218610213366004611bd2565b6105ee565b6040516001600160a01b0390911681526020016101cd565b34801561023c57600080fd5b5061025061024b366004611b39565b61067b565b005b610250610791565b34801561026657600080fd5b5061027060095481565b6040519081526020016101cd565b34801561028a57600080fd5b506102506102993660046119f7565b6108f3565b3480156102aa57600080fd5b50600b546101c19060ff1681565b3480156102c457600080fd5b506102506102d33660046119f7565b610924565b6102706102e6366004611aeb565b61093f565b3480156102f757600080fd5b50610218610306366004611bd2565b610a5e565b34801561031757600080fd5b5061027060085481565b34801561032d57600080fd5b5061025061033c366004611bd2565b610ad5565b34801561034d57600080fd5b5061027061035c3660046119a9565b610b04565b34801561036d57600080fd5b50610250610b8b565b34801561038257600080fd5b50610250610bc1565b34801561039757600080fd5b506007546001600160a01b0316610218565b3480156103b557600080fd5b506101eb610bff565b3480156103ca57600080fd5b506101c16103d9366004611b9d565b610c0e565b3480156103ea57600080fd5b506102506103f9366004611aaf565b610c3c565b34801561040a57600080fd5b506102706104193660046119a9565b600c6020526000908152604090205481565b34801561043757600080fd5b50610250610446366004611a33565b610c4b565b34801561045757600080fd5b506101eb610466366004611bd2565b610c83565b34801561047757600080fd5b50610250610486366004611aeb565b610c8e565b34801561049757600080fd5b50610270600a5481565b3480156104ad57600080fd5b506101c16104bc3660046119c4565b6001600160a01b03918216600090815260056020908152604080832093909416825291909152205460ff1690565b3480156104f657600080fd5b506102506105053660046119a9565b610ce7565b60006001600160e01b031982166380ac58cd60e01b148061053b57506001600160e01b03198216635b5e139f60e01b145b8061055657506301ffc9a760e01b6001600160e01b03198316145b92915050565b60606000805461056b90611df9565b80601f016020809104026020016040519081016040528092919081815260200182805461059790611df9565b80156105e45780601f106105b9576101008083540402835291602001916105e4565b820191906000526020600020905b8154815290600101906020018083116105c757829003601f168201915b5050505050905090565b60006105f982610d7f565b61065f5760405162461bcd60e51b815260206004820152602c60248201527f4552433732313a20617070726f76656420717565727920666f72206e6f6e657860448201526b34b9ba32b73a103a37b5b2b760a11b60648201526084015b60405180910390fd5b506000908152600460205260409020546001600160a01b031690565b600061068682610a5e565b9050806001600160a01b0316836001600160a01b031614156106f45760405162461bcd60e51b815260206004820152602160248201527f4552433732313a20617070726f76616c20746f2063757272656e74206f776e656044820152603960f91b6064820152608401610656565b336001600160a01b0382161480610710575061071081336104bc565b6107825760405162461bcd60e51b815260206004820152603860248201527f4552433732313a20617070726f76652063616c6c6572206973206e6f74206f7760448201527f6e6572206e6f7220617070726f76656420666f7220616c6c00000000000000006064820152608401610656565b61078c8383610d9c565b505050565b600b5460ff166107d95760405162461bcd60e51b8152602060048201526013602482015272135a5b9d1a5b99c81b9bdd08195b98589b1959606a1b6044820152606401610656565b336000908152600c60205260409020546001116108315760405162461bcd60e51b8152602060048201526016602482015275115e18d959591cc81b585e081c195c881dd85b1b195d60521b6044820152606401610656565b60085434146108705760405162461bcd60e51b815260206004820152600b60248201526a57726f6e672056616c756560a81b6044820152606401610656565b600954600a54116108ae5760405162461bcd60e51b815260206004820152600860248201526714dbdb190813dd5d60c21b6044820152606401610656565b336000908152600c602052604081208054916108c983611e34565b9091555050600980549060006108de83611e34565b90915550506009546108f03382610e0a565b50565b6108fd3382610e24565b6109195760405162461bcd60e51b815260040161065690611d39565b61078c838383610f0e565b61078c83838360405180602001604052806000815250610c4b565b6000600e826040516109519190611c17565b9081526040519081900360200190205460ff16600114156109aa5760405162461bcd60e51b81526020600482015260136024820152724e465420616c7265616479206d696e7465642160681b6044820152606401610656565b66038d7ea4c680003410156109f35760405162461bcd60e51b815260206004820152600f60248201526e4e65656420746f207061792075702160881b6044820152606401610656565b60006109fe600d5490565b9050610a0e600d80546001019055565b6001600e84604051610a209190611c17565b908152604051908190036020019020805460ff9290921660ff19909216919091179055610a4d84826110aa565b610a5781846111dd565b9392505050565b6000818152600260205260408120546001600160a01b0316806105565760405162461bcd60e51b815260206004820152602960248201527f4552433732313a206f776e657220717565727920666f72206e6f6e657869737460448201526832b73a103a37b5b2b760b91b6064820152608401610656565b6007546001600160a01b03163314610aff5760405162461bcd60e51b815260040161065690611d04565b600a55565b60006001600160a01b038216610b6f5760405162461bcd60e51b815260206004820152602a60248201527f4552433732313a2062616c616e636520717565727920666f7220746865207a65604482015269726f206164647265737360b01b6064820152608401610656565b506001600160a01b031660009081526003602052604090205490565b6007546001600160a01b03163314610bb55760405162461bcd60e51b815260040161065690611d04565b610bbf6000611268565b565b6007546001600160a01b03163314610beb5760405162461bcd60e51b815260040161065690611d04565b600b805460ff19811660ff90911615179055565b60606001805461056b90611df9565b6000600e82604051610c209190611c17565b9081526040519081900360200190205460ff1660011492915050565b610c473383836112ba565b5050565b610c553383610e24565b610c715760405162461bcd60e51b815260040161065690611d39565b610c7d84848484611389565b50505050565b6060610556826113bc565b6007546001600160a01b03163314610cb85760405162461bcd60e51b815260040161065690611d04565b6000610cc3600d5490565b9050610cd3600d80546001019055565b610cdd8382610e0a565b61078c81836111dd565b6007546001600160a01b03163314610d115760405162461bcd60e51b815260040161065690611d04565b6001600160a01b038116610d765760405162461bcd60e51b815260206004820152602660248201527f4f776e61626c653a206e6577206f776e657220697320746865207a65726f206160448201526564647265737360d01b6064820152608401610656565b6108f081611268565b6000908152600260205260409020546001600160a01b0316151590565b600081815260046020526040902080546001600160a01b0319166001600160a01b0384169081179091558190610dd182610a5e565b6001600160a01b03167f8c5be1e5ebec7d5bd14f71427d1e84f3dd0314c0f7b2291e5b200ac8c7c3b92560405160405180910390a45050565b610c4782826040518060200160405280600081525061153a565b6000610e2f82610d7f565b610e905760405162461bcd60e51b815260206004820152602c60248201527f4552433732313a206f70657261746f7220717565727920666f72206e6f6e657860448201526b34b9ba32b73a103a37b5b2b760a11b6064820152608401610656565b6000610e9b83610a5e565b9050806001600160a01b0316846001600160a01b03161480610ed65750836001600160a01b0316610ecb846105ee565b6001600160a01b0316145b80610f0657506001600160a01b0380821660009081526005602090815260408083209388168352929052205460ff165b949350505050565b826001600160a01b0316610f2182610a5e565b6001600160a01b031614610f855760405162461bcd60e51b815260206004820152602560248201527f4552433732313a207472616e736665722066726f6d20696e636f72726563742060448201526437bbb732b960d91b6064820152608401610656565b6001600160a01b038216610fe75760405162461bcd60e51b8152602060048201526024808201527f4552433732313a207472616e7366657220746f20746865207a65726f206164646044820152637265737360e01b6064820152608401610656565b610ff2600082610d9c565b6001600160a01b038316600090815260036020526040812080546001929061101b908490611db6565b90915550506001600160a01b0382166000908152600360205260408120805460019290611049908490611d8a565b909155505060008181526002602052604080822080546001600160a01b0319166001600160a01b0386811691821790925591518493918716917fddf252ad1be2c89b69c2b068fc378daa952ba7f163c4a11628f55a4df523b3ef91a4505050565b6001600160a01b0382166111005760405162461bcd60e51b815260206004820181905260248201527f4552433732313a206d696e7420746f20746865207a65726f20616464726573736044820152606401610656565b61110981610d7f565b156111565760405162461bcd60e51b815260206004820152601c60248201527f4552433732313a20746f6b656e20616c7265616479206d696e746564000000006044820152606401610656565b6001600160a01b038216600090815260036020526040812080546001929061117f908490611d8a565b909155505060008181526002602052604080822080546001600160a01b0319166001600160a01b03861690811790915590518392907fddf252ad1be2c89b69c2b068fc378daa952ba7f163c4a11628f55a4df523b3ef908290a45050565b6111e682610d7f565b6112495760405162461bcd60e51b815260206004820152602e60248201527f45524337323155524953746f726167653a2055524920736574206f66206e6f6e60448201526d32bc34b9ba32b73a103a37b5b2b760911b6064820152608401610656565b6000828152600660209081526040909120825161078c9284019061185e565b600780546001600160a01b038381166001600160a01b0319831681179093556040519116919082907f8be0079c531659141344cd1fd0a4f28419497f9722a3daafe3b4186f6b6457e090600090a35050565b816001600160a01b0316836001600160a01b0316141561131c5760405162461bcd60e51b815260206004820152601960248201527f4552433732313a20617070726f766520746f2063616c6c6572000000000000006044820152606401610656565b6001600160a01b03838116600081815260056020908152604080832094871680845294825291829020805460ff191686151590811790915591519182527f17307eab39ab6107e8899845ad3d59bd9653f200f220920489ca2b5937696c31910160405180910390a3505050565b611394848484610f0e565b6113a08484848461156d565b610c7d5760405162461bcd60e51b815260040161065690611cb2565b60606113c782610d7f565b61142d5760405162461bcd60e51b815260206004820152603160248201527f45524337323155524953746f726167653a2055524920717565727920666f72206044820152703737b732bc34b9ba32b73a103a37b5b2b760791b6064820152608401610656565b6000828152600660205260408120805461144690611df9565b80601f016020809104026020016040519081016040528092919081815260200182805461147290611df9565b80156114bf5780601f10611494576101008083540402835291602001916114bf565b820191906000526020600020905b8154815290600101906020018083116114a257829003601f168201915b5050505050905060006114ec604080518082019091526007815266697066733a2f2f60c81b602082015290565b90508051600014156114ff575092915050565b815115611531578082604051602001611519929190611c33565b60405160208183030381529060405292505050919050565b610f068461167a565b61154483836110aa565b611551600084848461156d565b61078c5760405162461bcd60e51b815260040161065690611cb2565b60006001600160a01b0384163b1561166f57604051630a85bd0160e11b81526001600160a01b0385169063150b7a02906115b1903390899088908890600401611c62565b602060405180830381600087803b1580156115cb57600080fd5b505af19250505080156115fb575060408051601f3d908101601f191682019092526115f891810190611b80565b60015b611655573d808015611629576040519150601f19603f3d011682016040523d82523d6000602084013e61162e565b606091505b50805161164d5760405162461bcd60e51b815260040161065690611cb2565b805181602001fd5b6001600160e01b031916630a85bd0160e11b149050610f06565b506001949350505050565b606061168582610d7f565b6116e95760405162461bcd60e51b815260206004820152602f60248201527f4552433732314d657461646174613a2055524920717565727920666f72206e6f60448201526e3732bc34b9ba32b73a103a37b5b2b760891b6064820152608401610656565b600061170f604080518082019091526007815266697066733a2f2f60c81b602082015290565b9050600081511161172f5760405180602001604052806000815250610a57565b8061173984611760565b60405160200161174a929190611c33565b6040516020818303038152906040529392505050565b6060816117845750506040805180820190915260018152600360fc1b602082015290565b8160005b81156117ae578061179881611e34565b91506117a79050600a83611da2565b9150611788565b60008167ffffffffffffffff8111156117c9576117c9611ea5565b6040519080825280601f01601f1916602001820160405280156117f3576020820181803683370190505b5090505b8415610f0657611808600183611db6565b9150611815600a86611e4f565b611820906030611d8a565b60f81b81838151811061183557611835611e8f565b60200101906001600160f81b031916908160001a905350611857600a86611da2565b94506117f7565b82805461186a90611df9565b90600052602060002090601f01602090048101928261188c57600085556118d2565b82601f106118a557805160ff19168380011785556118d2565b828001600101855582156118d2579182015b828111156118d25782518255916020019190600101906118b7565b506118de9291506118e2565b5090565b5b808211156118de57600081556001016118e3565b600067ffffffffffffffff8084111561191257611912611ea5565b604051601f8501601f19908116603f0116810190828211818310171561193a5761193a611ea5565b8160405280935085815286868601111561195357600080fd5b858560208301376000602087830101525050509392505050565b80356001600160a01b038116811461198457600080fd5b919050565b600082601f83011261199a57600080fd5b610a57838335602085016118f7565b6000602082840312156119bb57600080fd5b610a578261196d565b600080604083850312156119d757600080fd5b6119e08361196d565b91506119ee6020840161196d565b90509250929050565b600080600060608486031215611a0c57600080fd5b611a158461196d565b9250611a236020850161196d565b9150604084013590509250925092565b60008060008060808587031215611a4957600080fd5b611a528561196d565b9350611a606020860161196d565b925060408501359150606085013567ffffffffffffffff811115611a8357600080fd5b8501601f81018713611a9457600080fd5b611aa3878235602084016118f7565b91505092959194509250565b60008060408385031215611ac257600080fd5b611acb8361196d565b915060208301358015158114611ae057600080fd5b809150509250929050565b60008060408385031215611afe57600080fd5b611b078361196d565b9150602083013567ffffffffffffffff811115611b2357600080fd5b611b2f85828601611989565b9150509250929050565b60008060408385031215611b4c57600080fd5b611b558361196d565b946020939093013593505050565b600060208284031215611b7557600080fd5b8135610a5781611ebb565b600060208284031215611b9257600080fd5b8151610a5781611ebb565b600060208284031215611baf57600080fd5b813567ffffffffffffffff811115611bc657600080fd5b610f0684828501611989565b600060208284031215611be457600080fd5b5035919050565b60008151808452611c03816020860160208601611dcd565b601f01601f19169290920160200192915050565b60008251611c29818460208701611dcd565b9190910192915050565b60008351611c45818460208801611dcd565b835190830190611c59818360208801611dcd565b01949350505050565b6001600160a01b0385811682528416602082015260408101839052608060608201819052600090611c9590830184611beb565b9695505050505050565b602081526000610a576020830184611beb565b60208082526032908201527f4552433732313a207472616e7366657220746f206e6f6e20455243373231526560408201527131b2b4bb32b91034b6b83632b6b2b73a32b960711b606082015260800190565b6020808252818101527f4f776e61626c653a2063616c6c6572206973206e6f7420746865206f776e6572604082015260600190565b60208082526031908201527f4552433732313a207472616e736665722063616c6c6572206973206e6f74206f6040820152701ddb995c881b9bdc88185c1c1c9bdd9959607a1b606082015260800190565b60008219821115611d9d57611d9d611e63565b500190565b600082611db157611db1611e79565b500490565b600082821015611dc857611dc8611e63565b500390565b60005b83811015611de8578181015183820152602001611dd0565b83811115610c7d5750506000910152565b600181811c90821680611e0d57607f821691505b60208210811415611e2e57634e487b7160e01b600052602260045260246000fd5b50919050565b6000600019821415611e4857611e48611e63565b5060010190565b600082611e5e57611e5e611e79565b500690565b634e487b7160e01b600052601160045260246000fd5b634e487b7160e01b600052601260045260246000fd5b634e487b7160e01b600052603260045260246000fd5b634e487b7160e01b600052604160045260246000fd5b6001600160e01b0319811681146108f057600080fdfea264697066735822122040c6720810d9034755367aff8a76396db3bf8bee429d8bfb50af616282b3377564736f6c63430008070033",
					"opcodes": "PUSH7 0x38D7EA4C68000 PUSH1 0x8 SSTORE PUSH1 0xC PUSH1 0x80 DUP2 DUP2 MSTORE PUSH12 0x7777772E662D6E66742E7573 PUSH1 0xA0 SHL PUSH1 0xA0 SWAP1 DUP2 MSTORE PUSH2 0x100 PUSH1 0x40 MSTORE PUSH1 0x4 PUSH1 0xC0 SWAP1 DUP2 MSTORE PUSH4 0x11939195 PUSH1 0xE2 SHL PUSH1 0xE0 MSTORE SWAP2 SWAP3 PUSH3 0x4E SWAP2 PUSH1 0x0 SWAP2 PUSH3 0xE4 JUMP JUMPDEST POP DUP1 MLOAD PUSH3 0x64 SWAP1 PUSH1 0x1 SWAP1 PUSH1 0x20 DUP5 ADD SWAP1 PUSH3 0xE4 JUMP JUMPDEST POP POP POP PUSH3 0x81 PUSH3 0x7B PUSH3 0x8E PUSH1 0x20 SHL PUSH1 0x20 SHR JUMP JUMPDEST PUSH3 0x92 JUMP JUMPDEST PUSH3 0xF4240 PUSH1 0xA SSTORE PUSH3 0x1C7 JUMP JUMPDEST CALLER SWAP1 JUMP JUMPDEST PUSH1 0x7 DUP1 SLOAD PUSH1 0x1 PUSH1 0x1 PUSH1 0xA0 SHL SUB DUP4 DUP2 AND PUSH1 0x1 PUSH1 0x1 PUSH1 0xA0 SHL SUB NOT DUP4 AND DUP2 OR SWAP1 SWAP4 SSTORE PUSH1 0x40 MLOAD SWAP2 AND SWAP2 SWAP1 DUP3 SWAP1 PUSH32 0x8BE0079C531659141344CD1FD0A4F28419497F9722A3DAAFE3B4186F6B6457E0 SWAP1 PUSH1 0x0 SWAP1 LOG3 POP POP JUMP JUMPDEST DUP3 DUP1 SLOAD PUSH3 0xF2 SWAP1 PUSH3 0x18A JUMP JUMPDEST SWAP1 PUSH1 0x0 MSTORE PUSH1 0x20 PUSH1 0x0 KECCAK256 SWAP1 PUSH1 0x1F ADD PUSH1 0x20 SWAP1 DIV DUP2 ADD SWAP3 DUP3 PUSH3 0x116 JUMPI PUSH1 0x0 DUP6 SSTORE PUSH3 0x161 JUMP JUMPDEST DUP3 PUSH1 0x1F LT PUSH3 0x131 JUMPI DUP1 MLOAD PUSH1 0xFF NOT AND DUP4 DUP1 ADD OR DUP6 SSTORE PUSH3 0x161 JUMP JUMPDEST DUP3 DUP1 ADD PUSH1 0x1 ADD DUP6 SSTORE DUP3 ISZERO PUSH3 0x161 JUMPI SWAP2 DUP3 ADD JUMPDEST DUP3 DUP2 GT ISZERO PUSH3 0x161 JUMPI DUP3 MLOAD DUP3 SSTORE SWAP2 PUSH1 0x20 ADD SWAP2 SWAP1 PUSH1 0x1 ADD SWAP1 PUSH3 0x144 JUMP JUMPDEST POP PUSH3 0x16F SWAP3 SWAP2 POP PUSH3 0x173 JUMP JUMPDEST POP SWAP1 JUMP JUMPDEST JUMPDEST DUP1 DUP3 GT ISZERO PUSH3 0x16F JUMPI PUSH1 0x0 DUP2 SSTORE PUSH1 0x1 ADD PUSH3 0x174 JUMP JUMPDEST PUSH1 0x1 DUP2 DUP2 SHR SWAP1 DUP3 AND DUP1 PUSH3 0x19F JUMPI PUSH1 0x7F DUP3 AND SWAP2 POP JUMPDEST PUSH1 0x20 DUP3 LT DUP2 EQ ISZERO PUSH3 0x1C1 JUMPI PUSH4 0x4E487B71 PUSH1 0xE0 SHL PUSH1 0x0 MSTORE PUSH1 0x22 PUSH1 0x4 MSTORE PUSH1 0x24 PUSH1 0x0 REVERT JUMPDEST POP SWAP2 SWAP1 POP JUMP JUMPDEST PUSH2 0x1F07 DUP1 PUSH3 0x1D7 PUSH1 0x0 CODECOPY PUSH1 0x0 RETURN INVALID PUSH1 0x80 PUSH1 0x40 MSTORE PUSH1 0x4 CALLDATASIZE LT PUSH2 0x19C JUMPI PUSH1 0x0 CALLDATALOAD PUSH1 0xE0 SHR DUP1 PUSH4 0x70A08231 GT PUSH2 0xEC JUMPI DUP1 PUSH4 0xADA7C4ED GT PUSH2 0x8A JUMPI DUP1 PUSH4 0xD204C45E GT PUSH2 0x64 JUMPI DUP1 PUSH4 0xD204C45E EQ PUSH2 0x46B JUMPI DUP1 PUSH4 0xD5ABEB01 EQ PUSH2 0x48B JUMPI DUP1 PUSH4 0xE985E9C5 EQ PUSH2 0x4A1 JUMPI DUP1 PUSH4 0xF2FDE38B EQ PUSH2 0x4EA JUMPI PUSH1 0x0 DUP1 REVERT JUMPDEST DUP1 PUSH4 0xADA7C4ED EQ PUSH2 0x3FE JUMPI DUP1 PUSH4 0xB88D4FDE EQ PUSH2 0x42B JUMPI DUP1 PUSH4 0xC87B56DD EQ PUSH2 0x44B JUMPI PUSH1 0x0 DUP1 REVERT JUMPDEST DUP1 PUSH4 0x8DA5CB5B GT PUSH2 0xC6 JUMPI DUP1 PUSH4 0x8DA5CB5B EQ PUSH2 0x38B JUMPI DUP1 PUSH4 0x95D89B41 EQ PUSH2 0x3A9 JUMPI DUP1 PUSH4 0x9F1CABC6 EQ PUSH2 0x3BE JUMPI DUP1 PUSH4 0xA22CB465 EQ PUSH2 0x3DE JUMPI PUSH1 0x0 DUP1 REVERT JUMPDEST DUP1 PUSH4 0x70A08231 EQ PUSH2 0x341 JUMPI DUP1 PUSH4 0x715018A6 EQ PUSH2 0x361 JUMPI DUP1 PUSH4 0x84A428DB EQ PUSH2 0x376 JUMPI PUSH1 0x0 DUP1 REVERT JUMPDEST DUP1 PUSH4 0x23B872DD GT PUSH2 0x159 JUMPI DUP1 PUSH4 0x615FD9E2 GT PUSH2 0x133 JUMPI DUP1 PUSH4 0x615FD9E2 EQ PUSH2 0x2D8 JUMPI DUP1 PUSH4 0x6352211E EQ PUSH2 0x2EB JUMPI DUP1 PUSH4 0x6817C76C EQ PUSH2 0x30B JUMPI DUP1 PUSH4 0x6F8B44B0 EQ PUSH2 0x321 JUMPI PUSH1 0x0 DUP1 REVERT JUMPDEST DUP1 PUSH4 0x23B872DD EQ PUSH2 0x27E JUMPI DUP1 PUSH4 0x346DE50A EQ PUSH2 0x29E JUMPI DUP1 PUSH4 0x42842E0E EQ PUSH2 0x2B8 JUMPI PUSH1 0x0 DUP1 REVERT JUMPDEST DUP1 PUSH4 0x1FFC9A7 EQ PUSH2 0x1A1 JUMPI DUP1 PUSH4 0x6FDDE03 EQ PUSH2 0x1D6 JUMPI DUP1 PUSH4 0x81812FC EQ PUSH2 0x1F8 JUMPI DUP1 PUSH4 0x95EA7B3 EQ PUSH2 0x230 JUMPI DUP1 PUSH4 0x1249C58B EQ PUSH2 0x252 JUMPI DUP1 PUSH4 0x18160DDD EQ PUSH2 0x25A JUMPI JUMPDEST PUSH1 0x0 DUP1 REVERT JUMPDEST CALLVALUE DUP1 ISZERO PUSH2 0x1AD JUMPI PUSH1 0x0 DUP1 REVERT JUMPDEST POP PUSH2 0x1C1 PUSH2 0x1BC CALLDATASIZE PUSH1 0x4 PUSH2 0x1B63 JUMP JUMPDEST PUSH2 0x50A JUMP JUMPDEST PUSH1 0x40 MLOAD SWAP1 ISZERO ISZERO DUP2 MSTORE PUSH1 0x20 ADD JUMPDEST PUSH1 0x40 MLOAD DUP1 SWAP2 SUB SWAP1 RETURN JUMPDEST CALLVALUE DUP1 ISZERO PUSH2 0x1E2 JUMPI PUSH1 0x0 DUP1 REVERT JUMPDEST POP PUSH2 0x1EB PUSH2 0x55C JUMP JUMPDEST PUSH1 0x40 MLOAD PUSH2 0x1CD SWAP2 SWAP1 PUSH2 0x1C9F JUMP JUMPDEST CALLVALUE DUP1 ISZERO PUSH2 0x204 JUMPI PUSH1 0x0 DUP1 REVERT JUMPDEST POP PUSH2 0x218 PUSH2 0x213 CALLDATASIZE PUSH1 0x4 PUSH2 0x1BD2 JUMP JUMPDEST PUSH2 0x5EE JUMP JUMPDEST PUSH1 0x40 MLOAD PUSH1 0x1 PUSH1 0x1 PUSH1 0xA0 SHL SUB SWAP1 SWAP2 AND DUP2 MSTORE PUSH1 0x20 ADD PUSH2 0x1CD JUMP JUMPDEST CALLVALUE DUP1 ISZERO PUSH2 0x23C JUMPI PUSH1 0x0 DUP1 REVERT JUMPDEST POP PUSH2 0x250 PUSH2 0x24B CALLDATASIZE PUSH1 0x4 PUSH2 0x1B39 JUMP JUMPDEST PUSH2 0x67B JUMP JUMPDEST STOP JUMPDEST PUSH2 0x250 PUSH2 0x791 JUMP JUMPDEST CALLVALUE DUP1 ISZERO PUSH2 0x266 JUMPI PUSH1 0x0 DUP1 REVERT JUMPDEST POP PUSH2 0x270 PUSH1 0x9 SLOAD DUP2 JUMP JUMPDEST PUSH1 0x40 MLOAD SWAP1 DUP2 MSTORE PUSH1 0x20 ADD PUSH2 0x1CD JUMP JUMPDEST CALLVALUE DUP1 ISZERO PUSH2 0x28A JUMPI PUSH1 0x0 DUP1 REVERT JUMPDEST POP PUSH2 0x250 PUSH2 0x299 CALLDATASIZE PUSH1 0x4 PUSH2 0x19F7 JUMP JUMPDEST PUSH2 0x8F3 JUMP JUMPDEST CALLVALUE DUP1 ISZERO PUSH2 0x2AA JUMPI PUSH1 0x0 DUP1 REVERT JUMPDEST POP PUSH1 0xB SLOAD PUSH2 0x1C1 SWAP1 PUSH1 0xFF AND DUP2 JUMP JUMPDEST CALLVALUE DUP1 ISZERO PUSH2 0x2C4 JUMPI PUSH1 0x0 DUP1 REVERT JUMPDEST POP PUSH2 0x250 PUSH2 0x2D3 CALLDATASIZE PUSH1 0x4 PUSH2 0x19F7 JUMP JUMPDEST PUSH2 0x924 JUMP JUMPDEST PUSH2 0x270 PUSH2 0x2E6 CALLDATASIZE PUSH1 0x4 PUSH2 0x1AEB JUMP JUMPDEST PUSH2 0x93F JUMP JUMPDEST CALLVALUE DUP1 ISZERO PUSH2 0x2F7 JUMPI PUSH1 0x0 DUP1 REVERT JUMPDEST POP PUSH2 0x218 PUSH2 0x306 CALLDATASIZE PUSH1 0x4 PUSH2 0x1BD2 JUMP JUMPDEST PUSH2 0xA5E JUMP JUMPDEST CALLVALUE DUP1 ISZERO PUSH2 0x317 JUMPI PUSH1 0x0 DUP1 REVERT JUMPDEST POP PUSH2 0x270 PUSH1 0x8 SLOAD DUP2 JUMP JUMPDEST CALLVALUE DUP1 ISZERO PUSH2 0x32D JUMPI PUSH1 0x0 DUP1 REVERT JUMPDEST POP PUSH2 0x250 PUSH2 0x33C CALLDATASIZE PUSH1 0x4 PUSH2 0x1BD2 JUMP JUMPDEST PUSH2 0xAD5 JUMP JUMPDEST CALLVALUE DUP1 ISZERO PUSH2 0x34D JUMPI PUSH1 0x0 DUP1 REVERT JUMPDEST POP PUSH2 0x270 PUSH2 0x35C CALLDATASIZE PUSH1 0x4 PUSH2 0x19A9 JUMP JUMPDEST PUSH2 0xB04 JUMP JUMPDEST CALLVALUE DUP1 ISZERO PUSH2 0x36D JUMPI PUSH1 0x0 DUP1 REVERT JUMPDEST POP PUSH2 0x250 PUSH2 0xB8B JUMP JUMPDEST CALLVALUE DUP1 ISZERO PUSH2 0x382 JUMPI PUSH1 0x0 DUP1 REVERT JUMPDEST POP PUSH2 0x250 PUSH2 0xBC1 JUMP JUMPDEST CALLVALUE DUP1 ISZERO PUSH2 0x397 JUMPI PUSH1 0x0 DUP1 REVERT JUMPDEST POP PUSH1 0x7 SLOAD PUSH1 0x1 PUSH1 0x1 PUSH1 0xA0 SHL SUB AND PUSH2 0x218 JUMP JUMPDEST CALLVALUE DUP1 ISZERO PUSH2 0x3B5 JUMPI PUSH1 0x0 DUP1 REVERT JUMPDEST POP PUSH2 0x1EB PUSH2 0xBFF JUMP JUMPDEST CALLVALUE DUP1 ISZERO PUSH2 0x3CA JUMPI PUSH1 0x0 DUP1 REVERT JUMPDEST POP PUSH2 0x1C1 PUSH2 0x3D9 CALLDATASIZE PUSH1 0x4 PUSH2 0x1B9D JUMP JUMPDEST PUSH2 0xC0E JUMP JUMPDEST CALLVALUE DUP1 ISZERO PUSH2 0x3EA JUMPI PUSH1 0x0 DUP1 REVERT JUMPDEST POP PUSH2 0x250 PUSH2 0x3F9 CALLDATASIZE PUSH1 0x4 PUSH2 0x1AAF JUMP JUMPDEST PUSH2 0xC3C JUMP JUMPDEST CALLVALUE DUP1 ISZERO PUSH2 0x40A JUMPI PUSH1 0x0 DUP1 REVERT JUMPDEST POP PUSH2 0x270 PUSH2 0x419 CALLDATASIZE PUSH1 0x4 PUSH2 0x19A9 JUMP JUMPDEST PUSH1 0xC PUSH1 0x20 MSTORE PUSH1 0x0 SWAP1 DUP2 MSTORE PUSH1 0x40 SWAP1 KECCAK256 SLOAD DUP2 JUMP JUMPDEST CALLVALUE DUP1 ISZERO PUSH2 0x437 JUMPI PUSH1 0x0 DUP1 REVERT JUMPDEST POP PUSH2 0x250 PUSH2 0x446 CALLDATASIZE PUSH1 0x4 PUSH2 0x1A33 JUMP JUMPDEST PUSH2 0xC4B JUMP JUMPDEST CALLVALUE DUP1 ISZERO PUSH2 0x457 JUMPI PUSH1 0x0 DUP1 REVERT JUMPDEST POP PUSH2 0x1EB PUSH2 0x466 CALLDATASIZE PUSH1 0x4 PUSH2 0x1BD2 JUMP JUMPDEST PUSH2 0xC83 JUMP JUMPDEST CALLVALUE DUP1 ISZERO PUSH2 0x477 JUMPI PUSH1 0x0 DUP1 REVERT JUMPDEST POP PUSH2 0x250 PUSH2 0x486 CALLDATASIZE PUSH1 0x4 PUSH2 0x1AEB JUMP JUMPDEST PUSH2 0xC8E JUMP JUMPDEST CALLVALUE DUP1 ISZERO PUSH2 0x497 JUMPI PUSH1 0x0 DUP1 REVERT JUMPDEST POP PUSH2 0x270 PUSH1 0xA SLOAD DUP2 JUMP JUMPDEST CALLVALUE DUP1 ISZERO PUSH2 0x4AD JUMPI PUSH1 0x0 DUP1 REVERT JUMPDEST POP PUSH2 0x1C1 PUSH2 0x4BC CALLDATASIZE PUSH1 0x4 PUSH2 0x19C4 JUMP JUMPDEST PUSH1 0x1 PUSH1 0x1 PUSH1 0xA0 SHL SUB SWAP2 DUP3 AND PUSH1 0x0 SWAP1 DUP2 MSTORE PUSH1 0x5 PUSH1 0x20 SWAP1 DUP2 MSTORE PUSH1 0x40 DUP1 DUP4 KECCAK256 SWAP4 SWAP1 SWAP5 AND DUP3 MSTORE SWAP2 SWAP1 SWAP2 MSTORE KECCAK256 SLOAD PUSH1 0xFF AND SWAP1 JUMP JUMPDEST CALLVALUE DUP1 ISZERO PUSH2 0x4F6 JUMPI PUSH1 0x0 DUP1 REVERT JUMPDEST POP PUSH2 0x250 PUSH2 0x505 CALLDATASIZE PUSH1 0x4 PUSH2 0x19A9 JUMP JUMPDEST PUSH2 0xCE7 JUMP JUMPDEST PUSH1 0x0 PUSH1 0x1 PUSH1 0x1 PUSH1 0xE0 SHL SUB NOT DUP3 AND PUSH4 0x80AC58CD PUSH1 0xE0 SHL EQ DUP1 PUSH2 0x53B JUMPI POP PUSH1 0x1 PUSH1 0x1 PUSH1 0xE0 SHL SUB NOT DUP3 AND PUSH4 0x5B5E139F PUSH1 0xE0 SHL EQ JUMPDEST DUP1 PUSH2 0x556 JUMPI POP PUSH4 0x1FFC9A7 PUSH1 0xE0 SHL PUSH1 0x1 PUSH1 0x1 PUSH1 0xE0 SHL SUB NOT DUP4 AND EQ JUMPDEST SWAP3 SWAP2 POP POP JUMP JUMPDEST PUSH1 0x60 PUSH1 0x0 DUP1 SLOAD PUSH2 0x56B SWAP1 PUSH2 0x1DF9 JUMP JUMPDEST DUP1 PUSH1 0x1F ADD PUSH1 0x20 DUP1 SWAP2 DIV MUL PUSH1 0x20 ADD PUSH1 0x40 MLOAD SWAP1 DUP2 ADD PUSH1 0x40 MSTORE DUP1 SWAP3 SWAP2 SWAP1 DUP2 DUP2 MSTORE PUSH1 0x20 ADD DUP3 DUP1 SLOAD PUSH2 0x597 SWAP1 PUSH2 0x1DF9 JUMP JUMPDEST DUP1 ISZERO PUSH2 0x5E4 JUMPI DUP1 PUSH1 0x1F LT PUSH2 0x5B9 JUMPI PUSH2 0x100 DUP1 DUP4 SLOAD DIV MUL DUP4 MSTORE SWAP2 PUSH1 0x20 ADD SWAP2 PUSH2 0x5E4 JUMP JUMPDEST DUP3 ADD SWAP2 SWAP1 PUSH1 0x0 MSTORE PUSH1 0x20 PUSH1 0x0 KECCAK256 SWAP1 JUMPDEST DUP2 SLOAD DUP2 MSTORE SWAP1 PUSH1 0x1 ADD SWAP1 PUSH1 0x20 ADD DUP1 DUP4 GT PUSH2 0x5C7 JUMPI DUP3 SWAP1 SUB PUSH1 0x1F AND DUP3 ADD SWAP2 JUMPDEST POP POP POP POP POP SWAP1 POP SWAP1 JUMP JUMPDEST PUSH1 0x0 PUSH2 0x5F9 DUP3 PUSH2 0xD7F JUMP JUMPDEST PUSH2 0x65F JUMPI PUSH1 0x40 MLOAD PUSH3 0x461BCD PUSH1 0xE5 SHL DUP2 MSTORE PUSH1 0x20 PUSH1 0x4 DUP3 ADD MSTORE PUSH1 0x2C PUSH1 0x24 DUP3 ADD MSTORE PUSH32 0x4552433732313A20617070726F76656420717565727920666F72206E6F6E6578 PUSH1 0x44 DUP3 ADD MSTORE PUSH12 0x34B9BA32B73A103A37B5B2B7 PUSH1 0xA1 SHL PUSH1 0x64 DUP3 ADD MSTORE PUSH1 0x84 ADD JUMPDEST PUSH1 0x40 MLOAD DUP1 SWAP2 SUB SWAP1 REVERT JUMPDEST POP PUSH1 0x0 SWAP1 DUP2 MSTORE PUSH1 0x4 PUSH1 0x20 MSTORE PUSH1 0x40 SWAP1 KECCAK256 SLOAD PUSH1 0x1 PUSH1 0x1 PUSH1 0xA0 SHL SUB AND SWAP1 JUMP JUMPDEST PUSH1 0x0 PUSH2 0x686 DUP3 PUSH2 0xA5E JUMP JUMPDEST SWAP1 POP DUP1 PUSH1 0x1 PUSH1 0x1 PUSH1 0xA0 SHL SUB AND DUP4 PUSH1 0x1 PUSH1 0x1 PUSH1 0xA0 SHL SUB AND EQ ISZERO PUSH2 0x6F4 JUMPI PUSH1 0x40 MLOAD PUSH3 0x461BCD PUSH1 0xE5 SHL DUP2 MSTORE PUSH1 0x20 PUSH1 0x4 DUP3 ADD MSTORE PUSH1 0x21 PUSH1 0x24 DUP3 ADD MSTORE PUSH32 0x4552433732313A20617070726F76616C20746F2063757272656E74206F776E65 PUSH1 0x44 DUP3 ADD MSTORE PUSH1 0x39 PUSH1 0xF9 SHL PUSH1 0x64 DUP3 ADD MSTORE PUSH1 0x84 ADD PUSH2 0x656 JUMP JUMPDEST CALLER PUSH1 0x1 PUSH1 0x1 PUSH1 0xA0 SHL SUB DUP3 AND EQ DUP1 PUSH2 0x710 JUMPI POP PUSH2 0x710 DUP2 CALLER PUSH2 0x4BC JUMP JUMPDEST PUSH2 0x782 JUMPI PUSH1 0x40 MLOAD PUSH3 0x461BCD PUSH1 0xE5 SHL DUP2 MSTORE PUSH1 0x20 PUSH1 0x4 DUP3 ADD MSTORE PUSH1 0x38 PUSH1 0x24 DUP3 ADD MSTORE PUSH32 0x4552433732313A20617070726F76652063616C6C6572206973206E6F74206F77 PUSH1 0x44 DUP3 ADD MSTORE PUSH32 0x6E6572206E6F7220617070726F76656420666F7220616C6C0000000000000000 PUSH1 0x64 DUP3 ADD MSTORE PUSH1 0x84 ADD PUSH2 0x656 JUMP JUMPDEST PUSH2 0x78C DUP4 DUP4 PUSH2 0xD9C JUMP JUMPDEST POP POP POP JUMP JUMPDEST PUSH1 0xB SLOAD PUSH1 0xFF AND PUSH2 0x7D9 JUMPI PUSH1 0x40 MLOAD PUSH3 0x461BCD PUSH1 0xE5 SHL DUP2 MSTORE PUSH1 0x20 PUSH1 0x4 DUP3 ADD MSTORE PUSH1 0x13 PUSH1 0x24 DUP3 ADD MSTORE PUSH19 0x135A5B9D1A5B99C81B9BDD08195B98589B1959 PUSH1 0x6A SHL PUSH1 0x44 DUP3 ADD MSTORE PUSH1 0x64 ADD PUSH2 0x656 JUMP JUMPDEST CALLER PUSH1 0x0 SWAP1 DUP2 MSTORE PUSH1 0xC PUSH1 0x20 MSTORE PUSH1 0x40 SWAP1 KECCAK256 SLOAD PUSH1 0x1 GT PUSH2 0x831 JUMPI PUSH1 0x40 MLOAD PUSH3 0x461BCD PUSH1 0xE5 SHL DUP2 MSTORE PUSH1 0x20 PUSH1 0x4 DUP3 ADD MSTORE PUSH1 0x16 PUSH1 0x24 DUP3 ADD MSTORE PUSH22 0x115E18D959591CC81B585E081C195C881DD85B1B195D PUSH1 0x52 SHL PUSH1 0x44 DUP3 ADD MSTORE PUSH1 0x64 ADD PUSH2 0x656 JUMP JUMPDEST PUSH1 0x8 SLOAD CALLVALUE EQ PUSH2 0x870 JUMPI PUSH1 0x40 MLOAD PUSH3 0x461BCD PUSH1 0xE5 SHL DUP2 MSTORE PUSH1 0x20 PUSH1 0x4 DUP3 ADD MSTORE PUSH1 0xB PUSH1 0x24 DUP3 ADD MSTORE PUSH11 0x57726F6E672056616C7565 PUSH1 0xA8 SHL PUSH1 0x44 DUP3 ADD MSTORE PUSH1 0x64 ADD PUSH2 0x656 JUMP JUMPDEST PUSH1 0x9 SLOAD PUSH1 0xA SLOAD GT PUSH2 0x8AE JUMPI PUSH1 0x40 MLOAD PUSH3 0x461BCD PUSH1 0xE5 SHL DUP2 MSTORE PUSH1 0x20 PUSH1 0x4 DUP3 ADD MSTORE PUSH1 0x8 PUSH1 0x24 DUP3 ADD MSTORE PUSH8 0x14DBDB190813DD5D PUSH1 0xC2 SHL PUSH1 0x44 DUP3 ADD MSTORE PUSH1 0x64 ADD PUSH2 0x656 JUMP JUMPDEST CALLER PUSH1 0x0 SWAP1 DUP2 MSTORE PUSH1 0xC PUSH1 0x20 MSTORE PUSH1 0x40 DUP2 KECCAK256 DUP1 SLOAD SWAP2 PUSH2 0x8C9 DUP4 PUSH2 0x1E34 JUMP JUMPDEST SWAP1 SWAP2 SSTORE POP POP PUSH1 0x9 DUP1 SLOAD SWAP1 PUSH1 0x0 PUSH2 0x8DE DUP4 PUSH2 0x1E34 JUMP JUMPDEST SWAP1 SWAP2 SSTORE POP POP PUSH1 0x9 SLOAD PUSH2 0x8F0 CALLER DUP3 PUSH2 0xE0A JUMP JUMPDEST POP JUMP JUMPDEST PUSH2 0x8FD CALLER DUP3 PUSH2 0xE24 JUMP JUMPDEST PUSH2 0x919 JUMPI PUSH1 0x40 MLOAD PUSH3 0x461BCD PUSH1 0xE5 SHL DUP2 MSTORE PUSH1 0x4 ADD PUSH2 0x656 SWAP1 PUSH2 0x1D39 JUMP JUMPDEST PUSH2 0x78C DUP4 DUP4 DUP4 PUSH2 0xF0E JUMP JUMPDEST PUSH2 0x78C DUP4 DUP4 DUP4 PUSH1 0x40 MLOAD DUP1 PUSH1 0x20 ADD PUSH1 0x40 MSTORE DUP1 PUSH1 0x0 DUP2 MSTORE POP PUSH2 0xC4B JUMP JUMPDEST PUSH1 0x0 PUSH1 0xE DUP3 PUSH1 0x40 MLOAD PUSH2 0x951 SWAP2 SWAP1 PUSH2 0x1C17 JUMP JUMPDEST SWAP1 DUP2 MSTORE PUSH1 0x40 MLOAD SWAP1 DUP2 SWAP1 SUB PUSH1 0x20 ADD SWAP1 KECCAK256 SLOAD PUSH1 0xFF AND PUSH1 0x1 EQ ISZERO PUSH2 0x9AA JUMPI PUSH1 0x40 MLOAD PUSH3 0x461BCD PUSH1 0xE5 SHL DUP2 MSTORE PUSH1 0x20 PUSH1 0x4 DUP3 ADD MSTORE PUSH1 0x13 PUSH1 0x24 DUP3 ADD MSTORE PUSH19 0x4E465420616C7265616479206D696E74656421 PUSH1 0x68 SHL PUSH1 0x44 DUP3 ADD MSTORE PUSH1 0x64 ADD PUSH2 0x656 JUMP JUMPDEST PUSH7 0x38D7EA4C68000 CALLVALUE LT ISZERO PUSH2 0x9F3 JUMPI PUSH1 0x40 MLOAD PUSH3 0x461BCD PUSH1 0xE5 SHL DUP2 MSTORE PUSH1 0x20 PUSH1 0x4 DUP3 ADD MSTORE PUSH1 0xF PUSH1 0x24 DUP3 ADD MSTORE PUSH15 0x4E65656420746F2070617920757021 PUSH1 0x88 SHL PUSH1 0x44 DUP3 ADD MSTORE PUSH1 0x64 ADD PUSH2 0x656 JUMP JUMPDEST PUSH1 0x0 PUSH2 0x9FE PUSH1 0xD SLOAD SWAP1 JUMP JUMPDEST SWAP1 POP PUSH2 0xA0E PUSH1 0xD DUP1 SLOAD PUSH1 0x1 ADD SWAP1 SSTORE JUMP JUMPDEST PUSH1 0x1 PUSH1 0xE DUP5 PUSH1 0x40 MLOAD PUSH2 0xA20 SWAP2 SWAP1 PUSH2 0x1C17 JUMP JUMPDEST SWAP1 DUP2 MSTORE PUSH1 0x40 MLOAD SWAP1 DUP2 SWAP1 SUB PUSH1 0x20 ADD SWAP1 KECCAK256 DUP1 SLOAD PUSH1 0xFF SWAP3 SWAP1 SWAP3 AND PUSH1 0xFF NOT SWAP1 SWAP3 AND SWAP2 SWAP1 SWAP2 OR SWAP1 SSTORE PUSH2 0xA4D DUP5 DUP3 PUSH2 0x10AA JUMP JUMPDEST PUSH2 0xA57 DUP2 DUP5 PUSH2 0x11DD JUMP JUMPDEST SWAP4 SWAP3 POP POP POP JUMP JUMPDEST PUSH1 0x0 DUP2 DUP2 MSTORE PUSH1 0x2 PUSH1 0x20 MSTORE PUSH1 0x40 DUP2 KECCAK256 SLOAD PUSH1 0x1 PUSH1 0x1 PUSH1 0xA0 SHL SUB AND DUP1 PUSH2 0x556 JUMPI PUSH1 0x40 MLOAD PUSH3 0x461BCD PUSH1 0xE5 SHL DUP2 MSTORE PUSH1 0x20 PUSH1 0x4 DUP3 ADD MSTORE PUSH1 0x29 PUSH1 0x24 DUP3 ADD MSTORE PUSH32 0x4552433732313A206F776E657220717565727920666F72206E6F6E6578697374 PUSH1 0x44 DUP3 ADD MSTORE PUSH9 0x32B73A103A37B5B2B7 PUSH1 0xB9 SHL PUSH1 0x64 DUP3 ADD MSTORE PUSH1 0x84 ADD PUSH2 0x656 JUMP JUMPDEST PUSH1 0x7 SLOAD PUSH1 0x1 PUSH1 0x1 PUSH1 0xA0 SHL SUB AND CALLER EQ PUSH2 0xAFF JUMPI PUSH1 0x40 MLOAD PUSH3 0x461BCD PUSH1 0xE5 SHL DUP2 MSTORE PUSH1 0x4 ADD PUSH2 0x656 SWAP1 PUSH2 0x1D04 JUMP JUMPDEST PUSH1 0xA SSTORE JUMP JUMPDEST PUSH1 0x0 PUSH1 0x1 PUSH1 0x1 PUSH1 0xA0 SHL SUB DUP3 AND PUSH2 0xB6F JUMPI PUSH1 0x40 MLOAD PUSH3 0x461BCD PUSH1 0xE5 SHL DUP2 MSTORE PUSH1 0x20 PUSH1 0x4 DUP3 ADD MSTORE PUSH1 0x2A PUSH1 0x24 DUP3 ADD MSTORE PUSH32 0x4552433732313A2062616C616E636520717565727920666F7220746865207A65 PUSH1 0x44 DUP3 ADD MSTORE PUSH10 0x726F2061646472657373 PUSH1 0xB0 SHL PUSH1 0x64 DUP3 ADD MSTORE PUSH1 0x84 ADD PUSH2 0x656 JUMP JUMPDEST POP PUSH1 0x1 PUSH1 0x1 PUSH1 0xA0 SHL SUB AND PUSH1 0x0 SWAP1 DUP2 MSTORE PUSH1 0x3 PUSH1 0x20 MSTORE PUSH1 0x40 SWAP1 KECCAK256 SLOAD SWAP1 JUMP JUMPDEST PUSH1 0x7 SLOAD PUSH1 0x1 PUSH1 0x1 PUSH1 0xA0 SHL SUB AND CALLER EQ PUSH2 0xBB5 JUMPI PUSH1 0x40 MLOAD PUSH3 0x461BCD PUSH1 0xE5 SHL DUP2 MSTORE PUSH1 0x4 ADD PUSH2 0x656 SWAP1 PUSH2 0x1D04 JUMP JUMPDEST PUSH2 0xBBF PUSH1 0x0 PUSH2 0x1268 JUMP JUMPDEST JUMP JUMPDEST PUSH1 0x7 SLOAD PUSH1 0x1 PUSH1 0x1 PUSH1 0xA0 SHL SUB AND CALLER EQ PUSH2 0xBEB JUMPI PUSH1 0x40 MLOAD PUSH3 0x461BCD PUSH1 0xE5 SHL DUP2 MSTORE PUSH1 0x4 ADD PUSH2 0x656 SWAP1 PUSH2 0x1D04 JUMP JUMPDEST PUSH1 0xB DUP1 SLOAD PUSH1 0xFF NOT DUP2 AND PUSH1 0xFF SWAP1 SWAP2 AND ISZERO OR SWAP1 SSTORE JUMP JUMPDEST PUSH1 0x60 PUSH1 0x1 DUP1 SLOAD PUSH2 0x56B SWAP1 PUSH2 0x1DF9 JUMP JUMPDEST PUSH1 0x0 PUSH1 0xE DUP3 PUSH1 0x40 MLOAD PUSH2 0xC20 SWAP2 SWAP1 PUSH2 0x1C17 JUMP JUMPDEST SWAP1 DUP2 MSTORE PUSH1 0x40 MLOAD SWAP1 DUP2 SWAP1 SUB PUSH1 0x20 ADD SWAP1 KECCAK256 SLOAD PUSH1 0xFF AND PUSH1 0x1 EQ SWAP3 SWAP2 POP POP JUMP JUMPDEST PUSH2 0xC47 CALLER DUP4 DUP4 PUSH2 0x12BA JUMP JUMPDEST POP POP JUMP JUMPDEST PUSH2 0xC55 CALLER DUP4 PUSH2 0xE24 JUMP JUMPDEST PUSH2 0xC71 JUMPI PUSH1 0x40 MLOAD PUSH3 0x461BCD PUSH1 0xE5 SHL DUP2 MSTORE PUSH1 0x4 ADD PUSH2 0x656 SWAP1 PUSH2 0x1D39 JUMP JUMPDEST PUSH2 0xC7D DUP5 DUP5 DUP5 DUP5 PUSH2 0x1389 JUMP JUMPDEST POP POP POP POP JUMP JUMPDEST PUSH1 0x60 PUSH2 0x556 DUP3 PUSH2 0x13BC JUMP JUMPDEST PUSH1 0x7 SLOAD PUSH1 0x1 PUSH1 0x1 PUSH1 0xA0 SHL SUB AND CALLER EQ PUSH2 0xCB8 JUMPI PUSH1 0x40 MLOAD PUSH3 0x461BCD PUSH1 0xE5 SHL DUP2 MSTORE PUSH1 0x4 ADD PUSH2 0x656 SWAP1 PUSH2 0x1D04 JUMP JUMPDEST PUSH1 0x0 PUSH2 0xCC3 PUSH1 0xD SLOAD SWAP1 JUMP JUMPDEST SWAP1 POP PUSH2 0xCD3 PUSH1 0xD DUP1 SLOAD PUSH1 0x1 ADD SWAP1 SSTORE JUMP JUMPDEST PUSH2 0xCDD DUP4 DUP3 PUSH2 0xE0A JUMP JUMPDEST PUSH2 0x78C DUP2 DUP4 PUSH2 0x11DD JUMP JUMPDEST PUSH1 0x7 SLOAD PUSH1 0x1 PUSH1 0x1 PUSH1 0xA0 SHL SUB AND CALLER EQ PUSH2 0xD11 JUMPI PUSH1 0x40 MLOAD PUSH3 0x461BCD PUSH1 0xE5 SHL DUP2 MSTORE PUSH1 0x4 ADD PUSH2 0x656 SWAP1 PUSH2 0x1D04 JUMP JUMPDEST PUSH1 0x1 PUSH1 0x1 PUSH1 0xA0 SHL SUB DUP2 AND PUSH2 0xD76 JUMPI PUSH1 0x40 MLOAD PUSH3 0x461BCD PUSH1 0xE5 SHL DUP2 MSTORE PUSH1 0x20 PUSH1 0x4 DUP3 ADD MSTORE PUSH1 0x26 PUSH1 0x24 DUP3 ADD MSTORE PUSH32 0x4F776E61626C653A206E6577206F776E657220697320746865207A65726F2061 PUSH1 0x44 DUP3 ADD MSTORE PUSH6 0x646472657373 PUSH1 0xD0 SHL PUSH1 0x64 DUP3 ADD MSTORE PUSH1 0x84 ADD PUSH2 0x656 JUMP JUMPDEST PUSH2 0x8F0 DUP2 PUSH2 0x1268 JUMP JUMPDEST PUSH1 0x0 SWAP1 DUP2 MSTORE PUSH1 0x2 PUSH1 0x20 MSTORE PUSH1 0x40 SWAP1 KECCAK256 SLOAD PUSH1 0x1 PUSH1 0x1 PUSH1 0xA0 SHL SUB AND ISZERO ISZERO SWAP1 JUMP JUMPDEST PUSH1 0x0 DUP2 DUP2 MSTORE PUSH1 0x4 PUSH1 0x20 MSTORE PUSH1 0x40 SWAP1 KECCAK256 DUP1 SLOAD PUSH1 0x1 PUSH1 0x1 PUSH1 0xA0 SHL SUB NOT AND PUSH1 0x1 PUSH1 0x1 PUSH1 0xA0 SHL SUB DUP5 AND SWAP1 DUP2 OR SWAP1 SWAP2 SSTORE DUP2 SWAP1 PUSH2 0xDD1 DUP3 PUSH2 0xA5E JUMP JUMPDEST PUSH1 0x1 PUSH1 0x1 PUSH1 0xA0 SHL SUB AND PUSH32 0x8C5BE1E5EBEC7D5BD14F71427D1E84F3DD0314C0F7B2291E5B200AC8C7C3B925 PUSH1 0x40 MLOAD PUSH1 0x40 MLOAD DUP1 SWAP2 SUB SWAP1 LOG4 POP POP JUMP JUMPDEST PUSH2 0xC47 DUP3 DUP3 PUSH1 0x40 MLOAD DUP1 PUSH1 0x20 ADD PUSH1 0x40 MSTORE DUP1 PUSH1 0x0 DUP2 MSTORE POP PUSH2 0x153A JUMP JUMPDEST PUSH1 0x0 PUSH2 0xE2F DUP3 PUSH2 0xD7F JUMP JUMPDEST PUSH2 0xE90 JUMPI PUSH1 0x40 MLOAD PUSH3 0x461BCD PUSH1 0xE5 SHL DUP2 MSTORE PUSH1 0x20 PUSH1 0x4 DUP3 ADD MSTORE PUSH1 0x2C PUSH1 0x24 DUP3 ADD MSTORE PUSH32 0x4552433732313A206F70657261746F7220717565727920666F72206E6F6E6578 PUSH1 0x44 DUP3 ADD MSTORE PUSH12 0x34B9BA32B73A103A37B5B2B7 PUSH1 0xA1 SHL PUSH1 0x64 DUP3 ADD MSTORE PUSH1 0x84 ADD PUSH2 0x656 JUMP JUMPDEST PUSH1 0x0 PUSH2 0xE9B DUP4 PUSH2 0xA5E JUMP JUMPDEST SWAP1 POP DUP1 PUSH1 0x1 PUSH1 0x1 PUSH1 0xA0 SHL SUB AND DUP5 PUSH1 0x1 PUSH1 0x1 PUSH1 0xA0 SHL SUB AND EQ DUP1 PUSH2 0xED6 JUMPI POP DUP4 PUSH1 0x1 PUSH1 0x1 PUSH1 0xA0 SHL SUB AND PUSH2 0xECB DUP5 PUSH2 0x5EE JUMP JUMPDEST PUSH1 0x1 PUSH1 0x1 PUSH1 0xA0 SHL SUB AND EQ JUMPDEST DUP1 PUSH2 0xF06 JUMPI POP PUSH1 0x1 PUSH1 0x1 PUSH1 0xA0 SHL SUB DUP1 DUP3 AND PUSH1 0x0 SWAP1 DUP2 MSTORE PUSH1 0x5 PUSH1 0x20 SWAP1 DUP2 MSTORE PUSH1 0x40 DUP1 DUP4 KECCAK256 SWAP4 DUP9 AND DUP4 MSTORE SWAP3 SWAP1 MSTORE KECCAK256 SLOAD PUSH1 0xFF AND JUMPDEST SWAP5 SWAP4 POP POP POP POP JUMP JUMPDEST DUP3 PUSH1 0x1 PUSH1 0x1 PUSH1 0xA0 SHL SUB AND PUSH2 0xF21 DUP3 PUSH2 0xA5E JUMP JUMPDEST PUSH1 0x1 PUSH1 0x1 PUSH1 0xA0 SHL SUB AND EQ PUSH2 0xF85 JUMPI PUSH1 0x40 MLOAD PUSH3 0x461BCD PUSH1 0xE5 SHL DUP2 MSTORE PUSH1 0x20 PUSH1 0x4 DUP3 ADD MSTORE PUSH1 0x25 PUSH1 0x24 DUP3 ADD MSTORE PUSH32 0x4552433732313A207472616E736665722066726F6D20696E636F727265637420 PUSH1 0x44 DUP3 ADD MSTORE PUSH5 0x37BBB732B9 PUSH1 0xD9 SHL PUSH1 0x64 DUP3 ADD MSTORE PUSH1 0x84 ADD PUSH2 0x656 JUMP JUMPDEST PUSH1 0x1 PUSH1 0x1 PUSH1 0xA0 SHL SUB DUP3 AND PUSH2 0xFE7 JUMPI PUSH1 0x40 MLOAD PUSH3 0x461BCD PUSH1 0xE5 SHL DUP2 MSTORE PUSH1 0x20 PUSH1 0x4 DUP3 ADD MSTORE PUSH1 0x24 DUP1 DUP3 ADD MSTORE PUSH32 0x4552433732313A207472616E7366657220746F20746865207A65726F20616464 PUSH1 0x44 DUP3 ADD MSTORE PUSH4 0x72657373 PUSH1 0xE0 SHL PUSH1 0x64 DUP3 ADD MSTORE PUSH1 0x84 ADD PUSH2 0x656 JUMP JUMPDEST PUSH2 0xFF2 PUSH1 0x0 DUP3 PUSH2 0xD9C JUMP JUMPDEST PUSH1 0x1 PUSH1 0x1 PUSH1 0xA0 SHL SUB DUP4 AND PUSH1 0x0 SWAP1 DUP2 MSTORE PUSH1 0x3 PUSH1 0x20 MSTORE PUSH1 0x40 DUP2 KECCAK256 DUP1 SLOAD PUSH1 0x1 SWAP3 SWAP1 PUSH2 0x101B SWAP1 DUP5 SWAP1 PUSH2 0x1DB6 JUMP JUMPDEST SWAP1 SWAP2 SSTORE POP POP PUSH1 0x1 PUSH1 0x1 PUSH1 0xA0 SHL SUB DUP3 AND PUSH1 0x0 SWAP1 DUP2 MSTORE PUSH1 0x3 PUSH1 0x20 MSTORE PUSH1 0x40 DUP2 KECCAK256 DUP1 SLOAD PUSH1 0x1 SWAP3 SWAP1 PUSH2 0x1049 SWAP1 DUP5 SWAP1 PUSH2 0x1D8A JUMP JUMPDEST SWAP1 SWAP2 SSTORE POP POP PUSH1 0x0 DUP2 DUP2 MSTORE PUSH1 0x2 PUSH1 0x20 MSTORE PUSH1 0x40 DUP1 DUP3 KECCAK256 DUP1 SLOAD PUSH1 0x1 PUSH1 0x1 PUSH1 0xA0 SHL SUB NOT AND PUSH1 0x1 PUSH1 0x1 PUSH1 0xA0 SHL SUB DUP7 DUP2 AND SWAP2 DUP3 OR SWAP1 SWAP3 SSTORE SWAP2 MLOAD DUP5 SWAP4 SWAP2 DUP8 AND SWAP2 PUSH32 0xDDF252AD1BE2C89B69C2B068FC378DAA952BA7F163C4A11628F55A4DF523B3EF SWAP2 LOG4 POP POP POP JUMP JUMPDEST PUSH1 0x1 PUSH1 0x1 PUSH1 0xA0 SHL SUB DUP3 AND PUSH2 0x1100 JUMPI PUSH1 0x40 MLOAD PUSH3 0x461BCD PUSH1 0xE5 SHL DUP2 MSTORE PUSH1 0x20 PUSH1 0x4 DUP3 ADD DUP2 SWAP1 MSTORE PUSH1 0x24 DUP3 ADD MSTORE PUSH32 0x4552433732313A206D696E7420746F20746865207A65726F2061646472657373 PUSH1 0x44 DUP3 ADD MSTORE PUSH1 0x64 ADD PUSH2 0x656 JUMP JUMPDEST PUSH2 0x1109 DUP2 PUSH2 0xD7F JUMP JUMPDEST ISZERO PUSH2 0x1156 JUMPI PUSH1 0x40 MLOAD PUSH3 0x461BCD PUSH1 0xE5 SHL DUP2 MSTORE PUSH1 0x20 PUSH1 0x4 DUP3 ADD MSTORE PUSH1 0x1C PUSH1 0x24 DUP3 ADD MSTORE PUSH32 0x4552433732313A20746F6B656E20616C7265616479206D696E74656400000000 PUSH1 0x44 DUP3 ADD MSTORE PUSH1 0x64 ADD PUSH2 0x656 JUMP JUMPDEST PUSH1 0x1 PUSH1 0x1 PUSH1 0xA0 SHL SUB DUP3 AND PUSH1 0x0 SWAP1 DUP2 MSTORE PUSH1 0x3 PUSH1 0x20 MSTORE PUSH1 0x40 DUP2 KECCAK256 DUP1 SLOAD PUSH1 0x1 SWAP3 SWAP1 PUSH2 0x117F SWAP1 DUP5 SWAP1 PUSH2 0x1D8A JUMP JUMPDEST SWAP1 SWAP2 SSTORE POP POP PUSH1 0x0 DUP2 DUP2 MSTORE PUSH1 0x2 PUSH1 0x20 MSTORE PUSH1 0x40 DUP1 DUP3 KECCAK256 DUP1 SLOAD PUSH1 0x1 PUSH1 0x1 PUSH1 0xA0 SHL SUB NOT AND PUSH1 0x1 PUSH1 0x1 PUSH1 0xA0 SHL SUB DUP7 AND SWAP1 DUP2 OR SWAP1 SWAP2 SSTORE SWAP1 MLOAD DUP4 SWAP3 SWAP1 PUSH32 0xDDF252AD1BE2C89B69C2B068FC378DAA952BA7F163C4A11628F55A4DF523B3EF SWAP1 DUP3 SWAP1 LOG4 POP POP JUMP JUMPDEST PUSH2 0x11E6 DUP3 PUSH2 0xD7F JUMP JUMPDEST PUSH2 0x1249 JUMPI PUSH1 0x40 MLOAD PUSH3 0x461BCD PUSH1 0xE5 SHL DUP2 MSTORE PUSH1 0x20 PUSH1 0x4 DUP3 ADD MSTORE PUSH1 0x2E PUSH1 0x24 DUP3 ADD MSTORE PUSH32 0x45524337323155524953746F726167653A2055524920736574206F66206E6F6E PUSH1 0x44 DUP3 ADD MSTORE PUSH14 0x32BC34B9BA32B73A103A37B5B2B7 PUSH1 0x91 SHL PUSH1 0x64 DUP3 ADD MSTORE PUSH1 0x84 ADD PUSH2 0x656 JUMP JUMPDEST PUSH1 0x0 DUP3 DUP2 MSTORE PUSH1 0x6 PUSH1 0x20 SWAP1 DUP2 MSTORE PUSH1 0x40 SWAP1 SWAP2 KECCAK256 DUP3 MLOAD PUSH2 0x78C SWAP3 DUP5 ADD SWAP1 PUSH2 0x185E JUMP JUMPDEST PUSH1 0x7 DUP1 SLOAD PUSH1 0x1 PUSH1 0x1 PUSH1 0xA0 SHL SUB DUP4 DUP2 AND PUSH1 0x1 PUSH1 0x1 PUSH1 0xA0 SHL SUB NOT DUP4 AND DUP2 OR SWAP1 SWAP4 SSTORE PUSH1 0x40 MLOAD SWAP2 AND SWAP2 SWAP1 DUP3 SWAP1 PUSH32 0x8BE0079C531659141344CD1FD0A4F28419497F9722A3DAAFE3B4186F6B6457E0 SWAP1 PUSH1 0x0 SWAP1 LOG3 POP POP JUMP JUMPDEST DUP2 PUSH1 0x1 PUSH1 0x1 PUSH1 0xA0 SHL SUB AND DUP4 PUSH1 0x1 PUSH1 0x1 PUSH1 0xA0 SHL SUB AND EQ ISZERO PUSH2 0x131C JUMPI PUSH1 0x40 MLOAD PUSH3 0x461BCD PUSH1 0xE5 SHL DUP2 MSTORE PUSH1 0x20 PUSH1 0x4 DUP3 ADD MSTORE PUSH1 0x19 PUSH1 0x24 DUP3 ADD MSTORE PUSH32 0x4552433732313A20617070726F766520746F2063616C6C657200000000000000 PUSH1 0x44 DUP3 ADD MSTORE PUSH1 0x64 ADD PUSH2 0x656 JUMP JUMPDEST PUSH1 0x1 PUSH1 0x1 PUSH1 0xA0 SHL SUB DUP4 DUP2 AND PUSH1 0x0 DUP2 DUP2 MSTORE PUSH1 0x5 PUSH1 0x20 SWAP1 DUP2 MSTORE PUSH1 0x40 DUP1 DUP4 KECCAK256 SWAP5 DUP8 AND DUP1 DUP5 MSTORE SWAP5 DUP3 MSTORE SWAP2 DUP3 SWAP1 KECCAK256 DUP1 SLOAD PUSH1 0xFF NOT AND DUP7 ISZERO ISZERO SWAP1 DUP2 OR SWAP1 SWAP2 SSTORE SWAP2 MLOAD SWAP2 DUP3 MSTORE PUSH32 0x17307EAB39AB6107E8899845AD3D59BD9653F200F220920489CA2B5937696C31 SWAP2 ADD PUSH1 0x40 MLOAD DUP1 SWAP2 SUB SWAP1 LOG3 POP POP POP JUMP JUMPDEST PUSH2 0x1394 DUP5 DUP5 DUP5 PUSH2 0xF0E JUMP JUMPDEST PUSH2 0x13A0 DUP5 DUP5 DUP5 DUP5 PUSH2 0x156D JUMP JUMPDEST PUSH2 0xC7D JUMPI PUSH1 0x40 MLOAD PUSH3 0x461BCD PUSH1 0xE5 SHL DUP2 MSTORE PUSH1 0x4 ADD PUSH2 0x656 SWAP1 PUSH2 0x1CB2 JUMP JUMPDEST PUSH1 0x60 PUSH2 0x13C7 DUP3 PUSH2 0xD7F JUMP JUMPDEST PUSH2 0x142D JUMPI PUSH1 0x40 MLOAD PUSH3 0x461BCD PUSH1 0xE5 SHL DUP2 MSTORE PUSH1 0x20 PUSH1 0x4 DUP3 ADD MSTORE PUSH1 0x31 PUSH1 0x24 DUP3 ADD MSTORE PUSH32 0x45524337323155524953746F726167653A2055524920717565727920666F7220 PUSH1 0x44 DUP3 ADD MSTORE PUSH17 0x3737B732BC34B9BA32B73A103A37B5B2B7 PUSH1 0x79 SHL PUSH1 0x64 DUP3 ADD MSTORE PUSH1 0x84 ADD PUSH2 0x656 JUMP JUMPDEST PUSH1 0x0 DUP3 DUP2 MSTORE PUSH1 0x6 PUSH1 0x20 MSTORE PUSH1 0x40 DUP2 KECCAK256 DUP1 SLOAD PUSH2 0x1446 SWAP1 PUSH2 0x1DF9 JUMP JUMPDEST DUP1 PUSH1 0x1F ADD PUSH1 0x20 DUP1 SWAP2 DIV MUL PUSH1 0x20 ADD PUSH1 0x40 MLOAD SWAP1 DUP2 ADD PUSH1 0x40 MSTORE DUP1 SWAP3 SWAP2 SWAP1 DUP2 DUP2 MSTORE PUSH1 0x20 ADD DUP3 DUP1 SLOAD PUSH2 0x1472 SWAP1 PUSH2 0x1DF9 JUMP JUMPDEST DUP1 ISZERO PUSH2 0x14BF JUMPI DUP1 PUSH1 0x1F LT PUSH2 0x1494 JUMPI PUSH2 0x100 DUP1 DUP4 SLOAD DIV MUL DUP4 MSTORE SWAP2 PUSH1 0x20 ADD SWAP2 PUSH2 0x14BF JUMP JUMPDEST DUP3 ADD SWAP2 SWAP1 PUSH1 0x0 MSTORE PUSH1 0x20 PUSH1 0x0 KECCAK256 SWAP1 JUMPDEST DUP2 SLOAD DUP2 MSTORE SWAP1 PUSH1 0x1 ADD SWAP1 PUSH1 0x20 ADD DUP1 DUP4 GT PUSH2 0x14A2 JUMPI DUP3 SWAP1 SUB PUSH1 0x1F AND DUP3 ADD SWAP2 JUMPDEST POP POP POP POP POP SWAP1 POP PUSH1 0x0 PUSH2 0x14EC PUSH1 0x40 DUP1 MLOAD DUP1 DUP3 ADD SWAP1 SWAP2 MSTORE PUSH1 0x7 DUP2 MSTORE PUSH7 0x697066733A2F2F PUSH1 0xC8 SHL PUSH1 0x20 DUP3 ADD MSTORE SWAP1 JUMP JUMPDEST SWAP1 POP DUP1 MLOAD PUSH1 0x0 EQ ISZERO PUSH2 0x14FF JUMPI POP SWAP3 SWAP2 POP POP JUMP JUMPDEST DUP2 MLOAD ISZERO PUSH2 0x1531 JUMPI DUP1 DUP3 PUSH1 0x40 MLOAD PUSH1 0x20 ADD PUSH2 0x1519 SWAP3 SWAP2 SWAP1 PUSH2 0x1C33 JUMP JUMPDEST PUSH1 0x40 MLOAD PUSH1 0x20 DUP2 DUP4 SUB SUB DUP2 MSTORE SWAP1 PUSH1 0x40 MSTORE SWAP3 POP POP POP SWAP2 SWAP1 POP JUMP JUMPDEST PUSH2 0xF06 DUP5 PUSH2 0x167A JUMP JUMPDEST PUSH2 0x1544 DUP4 DUP4 PUSH2 0x10AA JUMP JUMPDEST PUSH2 0x1551 PUSH1 0x0 DUP5 DUP5 DUP5 PUSH2 0x156D JUMP JUMPDEST PUSH2 0x78C JUMPI PUSH1 0x40 MLOAD PUSH3 0x461BCD PUSH1 0xE5 SHL DUP2 MSTORE PUSH1 0x4 ADD PUSH2 0x656 SWAP1 PUSH2 0x1CB2 JUMP JUMPDEST PUSH1 0x0 PUSH1 0x1 PUSH1 0x1 PUSH1 0xA0 SHL SUB DUP5 AND EXTCODESIZE ISZERO PUSH2 0x166F JUMPI PUSH1 0x40 MLOAD PUSH4 0xA85BD01 PUSH1 0xE1 SHL DUP2 MSTORE PUSH1 0x1 PUSH1 0x1 PUSH1 0xA0 SHL SUB DUP6 AND SWAP1 PUSH4 0x150B7A02 SWAP1 PUSH2 0x15B1 SWAP1 CALLER SWAP1 DUP10 SWAP1 DUP9 SWAP1 DUP9 SWAP1 PUSH1 0x4 ADD PUSH2 0x1C62 JUMP JUMPDEST PUSH1 0x20 PUSH1 0x40 MLOAD DUP1 DUP4 SUB DUP2 PUSH1 0x0 DUP8 DUP1 EXTCODESIZE ISZERO DUP1 ISZERO PUSH2 0x15CB JUMPI PUSH1 0x0 DUP1 REVERT JUMPDEST POP GAS CALL SWAP3 POP POP POP DUP1 ISZERO PUSH2 0x15FB JUMPI POP PUSH1 0x40 DUP1 MLOAD PUSH1 0x1F RETURNDATASIZE SWAP1 DUP2 ADD PUSH1 0x1F NOT AND DUP3 ADD SWAP1 SWAP3 MSTORE PUSH2 0x15F8 SWAP2 DUP2 ADD SWAP1 PUSH2 0x1B80 JUMP JUMPDEST PUSH1 0x1 JUMPDEST PUSH2 0x1655 JUMPI RETURNDATASIZE DUP1 DUP1 ISZERO PUSH2 0x1629 JUMPI PUSH1 0x40 MLOAD SWAP2 POP PUSH1 0x1F NOT PUSH1 0x3F RETURNDATASIZE ADD AND DUP3 ADD PUSH1 0x40 MSTORE RETURNDATASIZE DUP3 MSTORE RETURNDATASIZE PUSH1 0x0 PUSH1 0x20 DUP5 ADD RETURNDATACOPY PUSH2 0x162E JUMP JUMPDEST PUSH1 0x60 SWAP2 POP JUMPDEST POP DUP1 MLOAD PUSH2 0x164D JUMPI PUSH1 0x40 MLOAD PUSH3 0x461BCD PUSH1 0xE5 SHL DUP2 MSTORE PUSH1 0x4 ADD PUSH2 0x656 SWAP1 PUSH2 0x1CB2 JUMP JUMPDEST DUP1 MLOAD DUP2 PUSH1 0x20 ADD REVERT JUMPDEST PUSH1 0x1 PUSH1 0x1 PUSH1 0xE0 SHL SUB NOT AND PUSH4 0xA85BD01 PUSH1 0xE1 SHL EQ SWAP1 POP PUSH2 0xF06 JUMP JUMPDEST POP PUSH1 0x1 SWAP5 SWAP4 POP POP POP POP JUMP JUMPDEST PUSH1 0x60 PUSH2 0x1685 DUP3 PUSH2 0xD7F JUMP JUMPDEST PUSH2 0x16E9 JUMPI PUSH1 0x40 MLOAD PUSH3 0x461BCD PUSH1 0xE5 SHL DUP2 MSTORE PUSH1 0x20 PUSH1 0x4 DUP3 ADD MSTORE PUSH1 0x2F PUSH1 0x24 DUP3 ADD MSTORE PUSH32 0x4552433732314D657461646174613A2055524920717565727920666F72206E6F PUSH1 0x44 DUP3 ADD MSTORE PUSH15 0x3732BC34B9BA32B73A103A37B5B2B7 PUSH1 0x89 SHL PUSH1 0x64 DUP3 ADD MSTORE PUSH1 0x84 ADD PUSH2 0x656 JUMP JUMPDEST PUSH1 0x0 PUSH2 0x170F PUSH1 0x40 DUP1 MLOAD DUP1 DUP3 ADD SWAP1 SWAP2 MSTORE PUSH1 0x7 DUP2 MSTORE PUSH7 0x697066733A2F2F PUSH1 0xC8 SHL PUSH1 0x20 DUP3 ADD MSTORE SWAP1 JUMP JUMPDEST SWAP1 POP PUSH1 0x0 DUP2 MLOAD GT PUSH2 0x172F JUMPI PUSH1 0x40 MLOAD DUP1 PUSH1 0x20 ADD PUSH1 0x40 MSTORE DUP1 PUSH1 0x0 DUP2 MSTORE POP PUSH2 0xA57 JUMP JUMPDEST DUP1 PUSH2 0x1739 DUP5 PUSH2 0x1760 JUMP JUMPDEST PUSH1 0x40 MLOAD PUSH1 0x20 ADD PUSH2 0x174A SWAP3 SWAP2 SWAP1 PUSH2 0x1C33 JUMP JUMPDEST PUSH1 0x40 MLOAD PUSH1 0x20 DUP2 DUP4 SUB SUB DUP2 MSTORE SWAP1 PUSH1 0x40 MSTORE SWAP4 SWAP3 POP POP POP JUMP JUMPDEST PUSH1 0x60 DUP2 PUSH2 0x1784 JUMPI POP POP PUSH1 0x40 DUP1 MLOAD DUP1 DUP3 ADD SWAP1 SWAP2 MSTORE PUSH1 0x1 DUP2 MSTORE PUSH1 0x3 PUSH1 0xFC SHL PUSH1 0x20 DUP3 ADD MSTORE SWAP1 JUMP JUMPDEST DUP2 PUSH1 0x0 JUMPDEST DUP2 ISZERO PUSH2 0x17AE JUMPI DUP1 PUSH2 0x1798 DUP2 PUSH2 0x1E34 JUMP JUMPDEST SWAP2 POP PUSH2 0x17A7 SWAP1 POP PUSH1 0xA DUP4 PUSH2 0x1DA2 JUMP JUMPDEST SWAP2 POP PUSH2 0x1788 JUMP JUMPDEST PUSH1 0x0 DUP2 PUSH8 0xFFFFFFFFFFFFFFFF DUP2 GT ISZERO PUSH2 0x17C9 JUMPI PUSH2 0x17C9 PUSH2 0x1EA5 JUMP JUMPDEST PUSH1 0x40 MLOAD SWAP1 DUP1 DUP3 MSTORE DUP1 PUSH1 0x1F ADD PUSH1 0x1F NOT AND PUSH1 0x20 ADD DUP3 ADD PUSH1 0x40 MSTORE DUP1 ISZERO PUSH2 0x17F3 JUMPI PUSH1 0x20 DUP3 ADD DUP2 DUP1 CALLDATASIZE DUP4 CALLDATACOPY ADD SWAP1 POP JUMPDEST POP SWAP1 POP JUMPDEST DUP5 ISZERO PUSH2 0xF06 JUMPI PUSH2 0x1808 PUSH1 0x1 DUP4 PUSH2 0x1DB6 JUMP JUMPDEST SWAP2 POP PUSH2 0x1815 PUSH1 0xA DUP7 PUSH2 0x1E4F JUMP JUMPDEST PUSH2 0x1820 SWAP1 PUSH1 0x30 PUSH2 0x1D8A JUMP JUMPDEST PUSH1 0xF8 SHL DUP2 DUP4 DUP2 MLOAD DUP2 LT PUSH2 0x1835 JUMPI PUSH2 0x1835 PUSH2 0x1E8F JUMP JUMPDEST PUSH1 0x20 ADD ADD SWAP1 PUSH1 0x1 PUSH1 0x1 PUSH1 0xF8 SHL SUB NOT AND SWAP1 DUP2 PUSH1 0x0 BYTE SWAP1 MSTORE8 POP PUSH2 0x1857 PUSH1 0xA DUP7 PUSH2 0x1DA2 JUMP JUMPDEST SWAP5 POP PUSH2 0x17F7 JUMP JUMPDEST DUP3 DUP1 SLOAD PUSH2 0x186A SWAP1 PUSH2 0x1DF9 JUMP JUMPDEST SWAP1 PUSH1 0x0 MSTORE PUSH1 0x20 PUSH1 0x0 KECCAK256 SWAP1 PUSH1 0x1F ADD PUSH1 0x20 SWAP1 DIV DUP2 ADD SWAP3 DUP3 PUSH2 0x188C JUMPI PUSH1 0x0 DUP6 SSTORE PUSH2 0x18D2 JUMP JUMPDEST DUP3 PUSH1 0x1F LT PUSH2 0x18A5 JUMPI DUP1 MLOAD PUSH1 0xFF NOT AND DUP4 DUP1 ADD OR DUP6 SSTORE PUSH2 0x18D2 JUMP JUMPDEST DUP3 DUP1 ADD PUSH1 0x1 ADD DUP6 SSTORE DUP3 ISZERO PUSH2 0x18D2 JUMPI SWAP2 DUP3 ADD JUMPDEST DUP3 DUP2 GT ISZERO PUSH2 0x18D2 JUMPI DUP3 MLOAD DUP3 SSTORE SWAP2 PUSH1 0x20 ADD SWAP2 SWAP1 PUSH1 0x1 ADD SWAP1 PUSH2 0x18B7 JUMP JUMPDEST POP PUSH2 0x18DE SWAP3 SWAP2 POP PUSH2 0x18E2 JUMP JUMPDEST POP SWAP1 JUMP JUMPDEST JUMPDEST DUP1 DUP3 GT ISZERO PUSH2 0x18DE JUMPI PUSH1 0x0 DUP2 SSTORE PUSH1 0x1 ADD PUSH2 0x18E3 JUMP JUMPDEST PUSH1 0x0 PUSH8 0xFFFFFFFFFFFFFFFF DUP1 DUP5 GT ISZERO PUSH2 0x1912 JUMPI PUSH2 0x1912 PUSH2 0x1EA5 JUMP JUMPDEST PUSH1 0x40 MLOAD PUSH1 0x1F DUP6 ADD PUSH1 0x1F NOT SWAP1 DUP2 AND PUSH1 0x3F ADD AND DUP2 ADD SWAP1 DUP3 DUP3 GT DUP2 DUP4 LT OR ISZERO PUSH2 0x193A JUMPI PUSH2 0x193A PUSH2 0x1EA5 JUMP JUMPDEST DUP2 PUSH1 0x40 MSTORE DUP1 SWAP4 POP DUP6 DUP2 MSTORE DUP7 DUP7 DUP7 ADD GT ISZERO PUSH2 0x1953 JUMPI PUSH1 0x0 DUP1 REVERT JUMPDEST DUP6 DUP6 PUSH1 0x20 DUP4 ADD CALLDATACOPY PUSH1 0x0 PUSH1 0x20 DUP8 DUP4 ADD ADD MSTORE POP POP POP SWAP4 SWAP3 POP POP POP JUMP JUMPDEST DUP1 CALLDATALOAD PUSH1 0x1 PUSH1 0x1 PUSH1 0xA0 SHL SUB DUP2 AND DUP2 EQ PUSH2 0x1984 JUMPI PUSH1 0x0 DUP1 REVERT JUMPDEST SWAP2 SWAP1 POP JUMP JUMPDEST PUSH1 0x0 DUP3 PUSH1 0x1F DUP4 ADD SLT PUSH2 0x199A JUMPI PUSH1 0x0 DUP1 REVERT JUMPDEST PUSH2 0xA57 DUP4 DUP4 CALLDATALOAD PUSH1 0x20 DUP6 ADD PUSH2 0x18F7 JUMP JUMPDEST PUSH1 0x0 PUSH1 0x20 DUP3 DUP5 SUB SLT ISZERO PUSH2 0x19BB JUMPI PUSH1 0x0 DUP1 REVERT JUMPDEST PUSH2 0xA57 DUP3 PUSH2 0x196D JUMP JUMPDEST PUSH1 0x0 DUP1 PUSH1 0x40 DUP4 DUP6 SUB SLT ISZERO PUSH2 0x19D7 JUMPI PUSH1 0x0 DUP1 REVERT JUMPDEST PUSH2 0x19E0 DUP4 PUSH2 0x196D JUMP JUMPDEST SWAP2 POP PUSH2 0x19EE PUSH1 0x20 DUP5 ADD PUSH2 0x196D JUMP JUMPDEST SWAP1 POP SWAP3 POP SWAP3 SWAP1 POP JUMP JUMPDEST PUSH1 0x0 DUP1 PUSH1 0x0 PUSH1 0x60 DUP5 DUP7 SUB SLT ISZERO PUSH2 0x1A0C JUMPI PUSH1 0x0 DUP1 REVERT JUMPDEST PUSH2 0x1A15 DUP5 PUSH2 0x196D JUMP JUMPDEST SWAP3 POP PUSH2 0x1A23 PUSH1 0x20 DUP6 ADD PUSH2 0x196D JUMP JUMPDEST SWAP2 POP PUSH1 0x40 DUP5 ADD CALLDATALOAD SWAP1 POP SWAP3 POP SWAP3 POP SWAP3 JUMP JUMPDEST PUSH1 0x0 DUP1 PUSH1 0x0 DUP1 PUSH1 0x80 DUP6 DUP8 SUB SLT ISZERO PUSH2 0x1A49 JUMPI PUSH1 0x0 DUP1 REVERT JUMPDEST PUSH2 0x1A52 DUP6 PUSH2 0x196D JUMP JUMPDEST SWAP4 POP PUSH2 0x1A60 PUSH1 0x20 DUP7 ADD PUSH2 0x196D JUMP JUMPDEST SWAP3 POP PUSH1 0x40 DUP6 ADD CALLDATALOAD SWAP2 POP PUSH1 0x60 DUP6 ADD CALLDATALOAD PUSH8 0xFFFFFFFFFFFFFFFF DUP2 GT ISZERO PUSH2 0x1A83 JUMPI PUSH1 0x0 DUP1 REVERT JUMPDEST DUP6 ADD PUSH1 0x1F DUP2 ADD DUP8 SGT PUSH2 0x1A94 JUMPI PUSH1 0x0 DUP1 REVERT JUMPDEST PUSH2 0x1AA3 DUP8 DUP3 CALLDATALOAD PUSH1 0x20 DUP5 ADD PUSH2 0x18F7 JUMP JUMPDEST SWAP2 POP POP SWAP3 SWAP6 SWAP2 SWAP5 POP SWAP3 POP JUMP JUMPDEST PUSH1 0x0 DUP1 PUSH1 0x40 DUP4 DUP6 SUB SLT ISZERO PUSH2 0x1AC2 JUMPI PUSH1 0x0 DUP1 REVERT JUMPDEST PUSH2 0x1ACB DUP4 PUSH2 0x196D JUMP JUMPDEST SWAP2 POP PUSH1 0x20 DUP4 ADD CALLDATALOAD DUP1 ISZERO ISZERO DUP2 EQ PUSH2 0x1AE0 JUMPI PUSH1 0x0 DUP1 REVERT JUMPDEST DUP1 SWAP2 POP POP SWAP3 POP SWAP3 SWAP1 POP JUMP JUMPDEST PUSH1 0x0 DUP1 PUSH1 0x40 DUP4 DUP6 SUB SLT ISZERO PUSH2 0x1AFE JUMPI PUSH1 0x0 DUP1 REVERT JUMPDEST PUSH2 0x1B07 DUP4 PUSH2 0x196D JUMP JUMPDEST SWAP2 POP PUSH1 0x20 DUP4 ADD CALLDATALOAD PUSH8 0xFFFFFFFFFFFFFFFF DUP2 GT ISZERO PUSH2 0x1B23 JUMPI PUSH1 0x0 DUP1 REVERT JUMPDEST PUSH2 0x1B2F DUP6 DUP3 DUP7 ADD PUSH2 0x1989 JUMP JUMPDEST SWAP2 POP POP SWAP3 POP SWAP3 SWAP1 POP JUMP JUMPDEST PUSH1 0x0 DUP1 PUSH1 0x40 DUP4 DUP6 SUB SLT ISZERO PUSH2 0x1B4C JUMPI PUSH1 0x0 DUP1 REVERT JUMPDEST PUSH2 0x1B55 DUP4 PUSH2 0x196D JUMP JUMPDEST SWAP5 PUSH1 0x20 SWAP4 SWAP1 SWAP4 ADD CALLDATALOAD SWAP4 POP POP POP JUMP JUMPDEST PUSH1 0x0 PUSH1 0x20 DUP3 DUP5 SUB SLT ISZERO PUSH2 0x1B75 JUMPI PUSH1 0x0 DUP1 REVERT JUMPDEST DUP2 CALLDATALOAD PUSH2 0xA57 DUP2 PUSH2 0x1EBB JUMP JUMPDEST PUSH1 0x0 PUSH1 0x20 DUP3 DUP5 SUB SLT ISZERO PUSH2 0x1B92 JUMPI PUSH1 0x0 DUP1 REVERT JUMPDEST DUP2 MLOAD PUSH2 0xA57 DUP2 PUSH2 0x1EBB JUMP JUMPDEST PUSH1 0x0 PUSH1 0x20 DUP3 DUP5 SUB SLT ISZERO PUSH2 0x1BAF JUMPI PUSH1 0x0 DUP1 REVERT JUMPDEST DUP2 CALLDATALOAD PUSH8 0xFFFFFFFFFFFFFFFF DUP2 GT ISZERO PUSH2 0x1BC6 JUMPI PUSH1 0x0 DUP1 REVERT JUMPDEST PUSH2 0xF06 DUP5 DUP3 DUP6 ADD PUSH2 0x1989 JUMP JUMPDEST PUSH1 0x0 PUSH1 0x20 DUP3 DUP5 SUB SLT ISZERO PUSH2 0x1BE4 JUMPI PUSH1 0x0 DUP1 REVERT JUMPDEST POP CALLDATALOAD SWAP2 SWAP1 POP JUMP JUMPDEST PUSH1 0x0 DUP2 MLOAD DUP1 DUP5 MSTORE PUSH2 0x1C03 DUP2 PUSH1 0x20 DUP7 ADD PUSH1 0x20 DUP7 ADD PUSH2 0x1DCD JUMP JUMPDEST PUSH1 0x1F ADD PUSH1 0x1F NOT AND SWAP3 SWAP1 SWAP3 ADD PUSH1 0x20 ADD SWAP3 SWAP2 POP POP JUMP JUMPDEST PUSH1 0x0 DUP3 MLOAD PUSH2 0x1C29 DUP2 DUP5 PUSH1 0x20 DUP8 ADD PUSH2 0x1DCD JUMP JUMPDEST SWAP2 SWAP1 SWAP2 ADD SWAP3 SWAP2 POP POP JUMP JUMPDEST PUSH1 0x0 DUP4 MLOAD PUSH2 0x1C45 DUP2 DUP5 PUSH1 0x20 DUP9 ADD PUSH2 0x1DCD JUMP JUMPDEST DUP4 MLOAD SWAP1 DUP4 ADD SWAP1 PUSH2 0x1C59 DUP2 DUP4 PUSH1 0x20 DUP9 ADD PUSH2 0x1DCD JUMP JUMPDEST ADD SWAP5 SWAP4 POP POP POP POP JUMP JUMPDEST PUSH1 0x1 PUSH1 0x1 PUSH1 0xA0 SHL SUB DUP6 DUP2 AND DUP3 MSTORE DUP5 AND PUSH1 0x20 DUP3 ADD MSTORE PUSH1 0x40 DUP2 ADD DUP4 SWAP1 MSTORE PUSH1 0x80 PUSH1 0x60 DUP3 ADD DUP2 SWAP1 MSTORE PUSH1 0x0 SWAP1 PUSH2 0x1C95 SWAP1 DUP4 ADD DUP5 PUSH2 0x1BEB JUMP JUMPDEST SWAP7 SWAP6 POP POP POP POP POP POP JUMP JUMPDEST PUSH1 0x20 DUP2 MSTORE PUSH1 0x0 PUSH2 0xA57 PUSH1 0x20 DUP4 ADD DUP5 PUSH2 0x1BEB JUMP JUMPDEST PUSH1 0x20 DUP1 DUP3 MSTORE PUSH1 0x32 SWAP1 DUP3 ADD MSTORE PUSH32 0x4552433732313A207472616E7366657220746F206E6F6E204552433732315265 PUSH1 0x40 DUP3 ADD MSTORE PUSH18 0x31B2B4BB32B91034B6B83632B6B2B73A32B9 PUSH1 0x71 SHL PUSH1 0x60 DUP3 ADD MSTORE PUSH1 0x80 ADD SWAP1 JUMP JUMPDEST PUSH1 0x20 DUP1 DUP3 MSTORE DUP2 DUP2 ADD MSTORE PUSH32 0x4F776E61626C653A2063616C6C6572206973206E6F7420746865206F776E6572 PUSH1 0x40 DUP3 ADD MSTORE PUSH1 0x60 ADD SWAP1 JUMP JUMPDEST PUSH1 0x20 DUP1 DUP3 MSTORE PUSH1 0x31 SWAP1 DUP3 ADD MSTORE PUSH32 0x4552433732313A207472616E736665722063616C6C6572206973206E6F74206F PUSH1 0x40 DUP3 ADD MSTORE PUSH17 0x1DDB995C881B9BDC88185C1C1C9BDD9959 PUSH1 0x7A SHL PUSH1 0x60 DUP3 ADD MSTORE PUSH1 0x80 ADD SWAP1 JUMP JUMPDEST PUSH1 0x0 DUP3 NOT DUP3 GT ISZERO PUSH2 0x1D9D JUMPI PUSH2 0x1D9D PUSH2 0x1E63 JUMP JUMPDEST POP ADD SWAP1 JUMP JUMPDEST PUSH1 0x0 DUP3 PUSH2 0x1DB1 JUMPI PUSH2 0x1DB1 PUSH2 0x1E79 JUMP JUMPDEST POP DIV SWAP1 JUMP JUMPDEST PUSH1 0x0 DUP3 DUP3 LT ISZERO PUSH2 0x1DC8 JUMPI PUSH2 0x1DC8 PUSH2 0x1E63 JUMP JUMPDEST POP SUB SWAP1 JUMP JUMPDEST PUSH1 0x0 JUMPDEST DUP4 DUP2 LT ISZERO PUSH2 0x1DE8 JUMPI DUP2 DUP2 ADD MLOAD DUP4 DUP3 ADD MSTORE PUSH1 0x20 ADD PUSH2 0x1DD0 JUMP JUMPDEST DUP4 DUP2 GT ISZERO PUSH2 0xC7D JUMPI POP POP PUSH1 0x0 SWAP2 ADD MSTORE JUMP JUMPDEST PUSH1 0x1 DUP2 DUP2 SHR SWAP1 DUP3 AND DUP1 PUSH2 0x1E0D JUMPI PUSH1 0x7F DUP3 AND SWAP2 POP JUMPDEST PUSH1 0x20 DUP3 LT DUP2 EQ ISZERO PUSH2 0x1E2E JUMPI PUSH4 0x4E487B71 PUSH1 0xE0 SHL PUSH1 0x0 MSTORE PUSH1 0x22 PUSH1 0x4 MSTORE PUSH1 0x24 PUSH1 0x0 REVERT JUMPDEST POP SWAP2 SWAP1 POP JUMP JUMPDEST PUSH1 0x0 PUSH1 0x0 NOT DUP3 EQ ISZERO PUSH2 0x1E48 JUMPI PUSH2 0x1E48 PUSH2 0x1E63 JUMP JUMPDEST POP PUSH1 0x1 ADD SWAP1 JUMP JUMPDEST PUSH1 0x0 DUP3 PUSH2 0x1E5E JUMPI PUSH2 0x1E5E PUSH2 0x1E79 JUMP JUMPDEST POP MOD SWAP1 JUMP JUMPDEST PUSH4 0x4E487B71 PUSH1 0xE0 SHL PUSH1 0x0 MSTORE PUSH1 0x11 PUSH1 0x4 MSTORE PUSH1 0x24 PUSH1 0x0 REVERT JUMPDEST PUSH4 0x4E487B71 PUSH1 0xE0 SHL PUSH1 0x0 MSTORE PUSH1 0x12 PUSH1 0x4 MSTORE PUSH1 0x24 PUSH1 0x0 REVERT JUMPDEST PUSH4 0x4E487B71 PUSH1 0xE0 SHL PUSH1 0x0 MSTORE PUSH1 0x32 PUSH1 0x4 MSTORE PUSH1 0x24 PUSH1 0x0 REVERT JUMPDEST PUSH4 0x4E487B71 PUSH1 0xE0 SHL PUSH1 0x0 MSTORE PUSH1 0x41 PUSH1 0x4 MSTORE PUSH1 0x24 PUSH1 0x0 REVERT JUMPDEST PUSH1 0x1 PUSH1 0x1 PUSH1 0xE0 SHL SUB NOT DUP2 AND DUP2 EQ PUSH2 0x8F0 JUMPI PUSH1 0x0 DUP1 REVERT INVALID LOG2 PUSH5 0x6970667358 0x22 SLT KECCAK256 BLOCKHASH 0xC6 PUSH19 0x810D9034755367AFF8A76396DB3BF8BEE429D DUP12 0xFB POP 0xAF PUSH2 0x6282 0xB3 CALLDATACOPY PUSH22 0x64736F6C634300080700330000000000000000000000 "
				},
				"gasEstimates": {
					"creation": {
						"codeDepositCost": "1588600",
						"executionCost": "infinite",
						"totalCost": "infinite"
					},
					"external": {
						"approve(address,uint256)": "infinite",
						"balanceOf(address)": "2635",
						"getApproved(uint256)": "4799",
						"isApprovedForAll(address,address)": "infinite",
						"isContentOwned(string)": "infinite",
						"isMintEnabled()": "2367",
						"maxSupply()": "2361",
						"mint()": "infinite",
						"mintPrice()": "2384",
						"mintedWallets(address)": "2564",
						"name()": "infinite",
						"owner()": "2376",
						"ownerOf(uint256)": "2623",
						"payToMint(address,string)": "infinite",
						"renounceOwnership()": "28185",
						"safeMint(address,string)": "infinite",
						"safeTransferFrom(address,address,uint256)": "infinite",
						"safeTransferFrom(address,address,uint256,bytes)": "infinite",
						"setApprovalForAll(address,bool)": "26797",
						"setMaxSupply(uint256)": "24575",
						"supportsInterface(bytes4)": "534",
						"symbol()": "infinite",
						"toggleInMintEnabled()": "26613",
						"tokenURI(uint256)": "infinite",
						"totalSupply()": "2429",
						"transferFrom(address,address,uint256)": "infinite",
						"transferOwnership(address)": "28422"
					},
					"internal": {
						"_baseURI()": "infinite",
						"_burn(uint256)": "infinite"
					}
				},
				"methodIdentifiers": {
					"approve(address,uint256)": "095ea7b3",
					"balanceOf(address)": "70a08231",
					"getApproved(uint256)": "081812fc",
					"isApprovedForAll(address,address)": "e985e9c5",
					"isContentOwned(string)": "9f1cabc6",
					"isMintEnabled()": "346de50a",
					"maxSupply()": "d5abeb01",
					"mint()": "1249c58b",
					"mintPrice()": "6817c76c",
					"mintedWallets(address)": "ada7c4ed",
					"name()": "06fdde03",
					"owner()": "8da5cb5b",
					"ownerOf(uint256)": "6352211e",
					"payToMint(address,string)": "615fd9e2",
					"renounceOwnership()": "715018a6",
					"safeMint(address,string)": "d204c45e",
					"safeTransferFrom(address,address,uint256)": "42842e0e",
					"safeTransferFrom(address,address,uint256,bytes)": "b88d4fde",
					"setApprovalForAll(address,bool)": "a22cb465",
					"setMaxSupply(uint256)": "6f8b44b0",
					"supportsInterface(bytes4)": "01ffc9a7",
					"symbol()": "95d89b41",
					"toggleInMintEnabled()": "84a428db",
					"tokenURI(uint256)": "c87b56dd",
					"totalSupply()": "18160ddd",
					"transferFrom(address,address,uint256)": "23b872dd",
					"transferOwnership(address)": "f2fde38b"
				}
			},
			"userdoc": {
				"kind": "user",
				"methods": {},
				"version": 1
			}
		}
	}
}